{
	"marriage/evidence.sol": {
		"MarrigeEvidence": {
			"abi": [
				{
					"inputs": [
						{
							"internalType": "string",
							"name": "_evi",
							"type": "string"
						},
						{
							"internalType": "address",
							"name": "_a",
							"type": "address"
						},
						{
							"internalType": "address",
							"name": "_b",
							"type": "address"
						}
					],
					"stateMutability": "nonpayable",
					"type": "constructor"
				},
				{
					"anonymous": false,
					"inputs": [
						{
							"indexed": false,
							"internalType": "string",
							"name": "_evi",
							"type": "string"
						},
						{
							"indexed": false,
							"internalType": "address",
							"name": "_sender",
							"type": "address"
						}
					],
					"name": "AddRepeatSignaturesEvidence",
					"type": "event"
				},
				{
					"anonymous": false,
					"inputs": [
						{
							"indexed": false,
							"internalType": "string",
							"name": "_evi",
							"type": "string"
						},
						{
							"indexed": false,
							"internalType": "address",
							"name": "_sender",
							"type": "address"
						}
					],
					"name": "AddSignaturesEvidence",
					"type": "event"
				},
				{
					"anonymous": false,
					"inputs": [
						{
							"indexed": false,
							"internalType": "string",
							"name": "_evi",
							"type": "string"
						},
						{
							"indexed": false,
							"internalType": "address",
							"name": "_sender",
							"type": "address"
						},
						{
							"indexed": false,
							"internalType": "address",
							"name": "_a",
							"type": "address"
						},
						{
							"indexed": false,
							"internalType": "address",
							"name": "_b",
							"type": "address"
						}
					],
					"name": "NewMarrigeEvidence",
					"type": "event"
				},
				{
					"inputs": [],
					"name": "getEvidence",
					"outputs": [
						{
							"internalType": "string",
							"name": "",
							"type": "string"
						},
						{
							"internalType": "address[]",
							"name": "",
							"type": "address[]"
						},
						{
							"internalType": "address[]",
							"name": "",
							"type": "address[]"
						}
					],
					"stateMutability": "view",
					"type": "function"
				},
				{
					"inputs": [],
					"name": "isAllSigned",
					"outputs": [
						{
							"internalType": "bool",
							"name": "",
							"type": "bool"
						},
						{
							"internalType": "string",
							"name": "",
							"type": "string"
						}
					],
					"stateMutability": "view",
					"type": "function"
				},
				{
					"inputs": [],
					"name": "sign",
					"outputs": [
						{
							"internalType": "bool",
							"name": "",
							"type": "bool"
						}
					],
					"stateMutability": "nonpayable",
					"type": "function"
				},
				{
					"inputs": [
						{
							"internalType": "address",
							"name": "_signer",
							"type": "address"
						}
					],
					"name": "verify",
					"outputs": [
						{
							"internalType": "bool",
							"name": "",
							"type": "bool"
						}
					],
					"stateMutability": "view",
					"type": "function"
				}
			],
			"devdoc": {
				"kind": "dev",
				"methods": {},
				"version": 1
			},
			"evm": {
				"assembly": "    /* \"marriage/evidence.sol\":447:3943  contract MarrigeEvidence is IEvdence {\r... */\n  mstore(0x40, 0x80)\n    /* \"marriage/evidence.sol\":953:1565  constructor(string memory _evi,address _a, address _b){\r... */\n  callvalue\n  dup1\n  iszero\n  tag_1\n  jumpi\n  0x00\n  dup1\n  revert\ntag_1:\n  pop\n  mload(0x40)\n  sub(codesize, bytecodeSize)\n  dup1\n  bytecodeSize\n  dup4\n  codecopy\n  dup2\n  dup2\n  add\n  0x40\n  mstore\n  dup2\n  add\n  swap1\n  tag_2\n  swap2\n  swap1\n  tag_3\n  jump\t// in\ntag_2:\n    /* \"marriage/evidence.sol\":1077:1079  _a */\n  dup2\n    /* \"marriage/evidence.sol\":1063:1079  address(0) != _a */\n  0xffffffffffffffffffffffffffffffffffffffff\n  and\n    /* \"marriage/evidence.sol\":1071:1072  0 */\n  0x00\n    /* \"marriage/evidence.sol\":1063:1079  address(0) != _a */\n  0xffffffffffffffffffffffffffffffffffffffff\n  and\n  eq\n  iszero\n    /* \"marriage/evidence.sol\":1055:1106  require(address(0) != _a,\" _a is invalid address \") */\n  tag_6\n  jumpi\n  mload(0x40)\n  0x08c379a000000000000000000000000000000000000000000000000000000000\n  dup2\n  mstore\n  0x04\n  add\n  tag_7\n  swap1\n  tag_8\n  jump\t// in\ntag_7:\n  mload(0x40)\n  dup1\n  swap2\n  sub\n  swap1\n  revert\ntag_6:\n    /* \"marriage/evidence.sol\":1139:1141  _b */\n  dup1\n    /* \"marriage/evidence.sol\":1125:1141  address(0) != _b */\n  0xffffffffffffffffffffffffffffffffffffffff\n  and\n    /* \"marriage/evidence.sol\":1133:1134  0 */\n  0x00\n    /* \"marriage/evidence.sol\":1125:1141  address(0) != _b */\n  0xffffffffffffffffffffffffffffffffffffffff\n  and\n  eq\n  iszero\n    /* \"marriage/evidence.sol\":1117:1168  require(address(0) != _b,\" _b is invalid address \") */\n  tag_9\n  jumpi\n  mload(0x40)\n  0x08c379a000000000000000000000000000000000000000000000000000000000\n  dup2\n  mstore\n  0x04\n  add\n  tag_10\n  swap1\n  tag_11\n  jump\t// in\ntag_10:\n  mload(0x40)\n  dup1\n  swap2\n  sub\n  swap1\n  revert\ntag_9:\n    /* \"marriage/evidence.sol\":1236:1245  tx.origin */\n  origin\n    /* \"marriage/evidence.sol\":1230:1245  _a != tx.origin */\n  0xffffffffffffffffffffffffffffffffffffffff\n  and\n    /* \"marriage/evidence.sol\":1230:1232  _a */\n  dup3\n    /* \"marriage/evidence.sol\":1230:1245  _a != tx.origin */\n  0xffffffffffffffffffffffffffffffffffffffff\n  and\n  eq\n  iszero\n    /* \"marriage/evidence.sol\":1222:1270  require(_a != tx.origin,\" _a can not verifier \") */\n  tag_12\n  jumpi\n  mload(0x40)\n  0x08c379a000000000000000000000000000000000000000000000000000000000\n  dup2\n  mstore\n  0x04\n  add\n  tag_13\n  swap1\n  tag_14\n  jump\t// in\ntag_13:\n  mload(0x40)\n  dup1\n  swap2\n  sub\n  swap1\n  revert\ntag_12:\n    /* \"marriage/evidence.sol\":1295:1304  tx.origin */\n  origin\n    /* \"marriage/evidence.sol\":1289:1304  _b != tx.origin */\n  0xffffffffffffffffffffffffffffffffffffffff\n  and\n    /* \"marriage/evidence.sol\":1289:1291  _b */\n  dup2\n    /* \"marriage/evidence.sol\":1289:1304  _b != tx.origin */\n  0xffffffffffffffffffffffffffffffffffffffff\n  and\n  eq\n  iszero\n    /* \"marriage/evidence.sol\":1281:1329  require(_b != tx.origin,\" _b can not verifier \") */\n  tag_15\n  jumpi\n  mload(0x40)\n  0x08c379a000000000000000000000000000000000000000000000000000000000\n  dup2\n  mstore\n  0x04\n  add\n  tag_16\n  swap1\n  tag_17\n  jump\t// in\ntag_16:\n  mload(0x40)\n  dup1\n  swap2\n  sub\n  swap1\n  revert\ntag_15:\n    /* \"marriage/evidence.sol\":1342:1353  needSigners */\n  0x01\n    /* \"marriage/evidence.sol\":1359:1368  tx.origin */\n  origin\n    /* \"marriage/evidence.sol\":1342:1369  needSigners.push(tx.origin) */\n  swap1\n  dup1\n  0x01\n  dup2\n  sload\n  add\n  dup1\n  dup3\n  sstore\n  dup1\n  swap2\n  pop\n  pop\n  0x01\n  swap1\n  sub\n  swap1\n  0x00\n  mstore\n  keccak256(0x00, 0x20)\n  add\n  0x00\n  swap1\n  swap2\n  swap1\n  swap2\n  swap1\n  swap2\n  0x0100\n  exp\n  dup2\n  sload\n  dup2\n  0xffffffffffffffffffffffffffffffffffffffff\n  mul\n  not\n  and\n  swap1\n  dup4\n  0xffffffffffffffffffffffffffffffffffffffff\n  and\n  mul\n  or\n  swap1\n  sstore\n  pop\n    /* \"marriage/evidence.sol\":1380:1391  needSigners */\n  0x01\n    /* \"marriage/evidence.sol\":1397:1399  _a */\n  dup3\n    /* \"marriage/evidence.sol\":1380:1400  needSigners.push(_a) */\n  swap1\n  dup1\n  0x01\n  dup2\n  sload\n  add\n  dup1\n  dup3\n  sstore\n  dup1\n  swap2\n  pop\n  pop\n  0x01\n  swap1\n  sub\n  swap1\n  0x00\n  mstore\n  keccak256(0x00, 0x20)\n  add\n  0x00\n  swap1\n  swap2\n  swap1\n  swap2\n  swap1\n  swap2\n  0x0100\n  exp\n  dup2\n  sload\n  dup2\n  0xffffffffffffffffffffffffffffffffffffffff\n  mul\n  not\n  and\n  swap1\n  dup4\n  0xffffffffffffffffffffffffffffffffffffffff\n  and\n  mul\n  or\n  swap1\n  sstore\n  pop\n    /* \"marriage/evidence.sol\":1411:1422  needSigners */\n  0x01\n    /* \"marriage/evidence.sol\":1428:1430  _b */\n  dup2\n    /* \"marriage/evidence.sol\":1411:1431  needSigners.push(_b) */\n  swap1\n  dup1\n  0x01\n  dup2\n  sload\n  add\n  dup1\n  dup3\n  sstore\n  dup1\n  swap2\n  pop\n  pop\n  0x01\n  swap1\n  sub\n  swap1\n  0x00\n  mstore\n  keccak256(0x00, 0x20)\n  add\n  0x00\n  swap1\n  swap2\n  swap1\n  swap2\n  swap1\n  swap2\n  0x0100\n  exp\n  dup2\n  sload\n  dup2\n  0xffffffffffffffffffffffffffffffffffffffff\n  mul\n  not\n  and\n  swap1\n  dup4\n  0xffffffffffffffffffffffffffffffffffffffff\n  and\n  mul\n  or\n  swap1\n  sstore\n  pop\n    /* \"marriage/evidence.sol\":1442:1449  signers */\n  0x02\n    /* \"marriage/evidence.sol\":1455:1464  tx.origin */\n  origin\n    /* \"marriage/evidence.sol\":1442:1465  signers.push(tx.origin) */\n  swap1\n  dup1\n  0x01\n  dup2\n  sload\n  add\n  dup1\n  dup3\n  sstore\n  dup1\n  swap2\n  pop\n  pop\n  0x01\n  swap1\n  sub\n  swap1\n  0x00\n  mstore\n  keccak256(0x00, 0x20)\n  add\n  0x00\n  swap1\n  swap2\n  swap1\n  swap2\n  swap1\n  swap2\n  0x0100\n  exp\n  dup2\n  sload\n  dup2\n  0xffffffffffffffffffffffffffffffffffffffff\n  mul\n  not\n  and\n  swap1\n  dup4\n  0xffffffffffffffffffffffffffffffffffffffff\n  and\n  mul\n  or\n  swap1\n  sstore\n  pop\n    /* \"marriage/evidence.sol\":1487:1491  _evi */\n  dup3\n    /* \"marriage/evidence.sol\":1476:1484  evidence */\n  0x00\n    /* \"marriage/evidence.sol\":1476:1491  evidence = _evi */\n  swap1\n  dup1\n  mload\n  swap1\n  0x20\n  add\n  swap1\n  tag_22\n  swap3\n  swap2\n  swap1\n  tag_23\n  jump\t// in\ntag_22:\n  pop\n    /* \"marriage/evidence.sol\":1507:1547  NewMarrigeEvidence(_evi,tx.origin,_a,_b) */\n  0xd7fc3f69dcbe2d33b2006f7a3749b47498aa2e68ca623e8100e2642951ec638c\n    /* \"marriage/evidence.sol\":1526:1530  _evi */\n  dup4\n    /* \"marriage/evidence.sol\":1531:1540  tx.origin */\n  origin\n    /* \"marriage/evidence.sol\":1541:1543  _a */\n  dup5\n    /* \"marriage/evidence.sol\":1544:1546  _b */\n  dup5\n    /* \"marriage/evidence.sol\":1507:1547  NewMarrigeEvidence(_evi,tx.origin,_a,_b) */\n  mload(0x40)\n  tag_24\n  swap5\n  swap4\n  swap3\n  swap2\n  swap1\n  tag_25\n  jump\t// in\ntag_24:\n  mload(0x40)\n  dup1\n  swap2\n  sub\n  swap1\n  log1\n    /* \"marriage/evidence.sol\":953:1565  constructor(string memory _evi,address _a, address _b){\r... */\n  pop\n  pop\n  pop\n    /* \"marriage/evidence.sol\":447:3943  contract MarrigeEvidence is IEvdence {\r... */\n  jump(tag_26)\ntag_23:\n  dup3\n  dup1\n  sload\n  tag_27\n  swap1\n  tag_28\n  jump\t// in\ntag_27:\n  swap1\n  0x00\n  mstore\n  keccak256(0x00, 0x20)\n  swap1\n  0x1f\n  add\n  0x20\n  swap1\n  div\n  dup2\n  add\n  swap3\n  dup3\n  tag_30\n  jumpi\n  0x00\n  dup6\n  sstore\n  jump(tag_29)\ntag_30:\n  dup3\n  0x1f\n  lt\n  tag_31\n  jumpi\n  dup1\n  mload\n  not(0xff)\n  and\n  dup4\n  dup1\n  add\n  or\n  dup6\n  sstore\n  jump(tag_29)\ntag_31:\n  dup3\n  dup1\n  add\n  0x01\n  add\n  dup6\n  sstore\n  dup3\n  iszero\n  tag_29\n  jumpi\n  swap2\n  dup3\n  add\ntag_32:\n  dup3\n  dup2\n  gt\n  iszero\n  tag_33\n  jumpi\n  dup3\n  mload\n  dup3\n  sstore\n  swap2\n  0x20\n  add\n  swap2\n  swap1\n  0x01\n  add\n  swap1\n  jump(tag_32)\ntag_33:\ntag_29:\n  pop\n  swap1\n  pop\n  tag_34\n  swap2\n  swap1\n  tag_35\n  jump\t// in\ntag_34:\n  pop\n  swap1\n  jump\t// out\ntag_35:\ntag_36:\n  dup1\n  dup3\n  gt\n  iszero\n  tag_37\n  jumpi\n  0x00\n  dup2\n  0x00\n  swap1\n  sstore\n  pop\n  0x01\n  add\n  jump(tag_36)\ntag_37:\n  pop\n  swap1\n  jump\t// out\n    /* \"#utility.yul\":7:428   */\ntag_39:\n    /* \"#utility.yul\":96:101   */\n  0x00\n    /* \"#utility.yul\":121:187   */\n  tag_41\n    /* \"#utility.yul\":137:186   */\n  tag_42\n    /* \"#utility.yul\":179:185   */\n  dup5\n    /* \"#utility.yul\":137:186   */\n  tag_43\n  jump\t// in\ntag_42:\n    /* \"#utility.yul\":121:187   */\n  tag_44\n  jump\t// in\ntag_41:\n    /* \"#utility.yul\":112:187   */\n  swap1\n  pop\n    /* \"#utility.yul\":210:216   */\n  dup3\n    /* \"#utility.yul\":203:208   */\n  dup2\n    /* \"#utility.yul\":196:217   */\n  mstore\n    /* \"#utility.yul\":248:252   */\n  0x20\n    /* \"#utility.yul\":241:246   */\n  dup2\n    /* \"#utility.yul\":237:253   */\n  add\n    /* \"#utility.yul\":286:289   */\n  dup5\n    /* \"#utility.yul\":277:283   */\n  dup5\n    /* \"#utility.yul\":272:275   */\n  dup5\n    /* \"#utility.yul\":268:284   */\n  add\n    /* \"#utility.yul\":265:290   */\n  gt\n    /* \"#utility.yul\":262:374   */\n  iszero\n  tag_45\n  jumpi\n    /* \"#utility.yul\":293:372   */\n  tag_46\n  tag_47\n  jump\t// in\ntag_46:\n    /* \"#utility.yul\":262:374   */\ntag_45:\n    /* \"#utility.yul\":383:422   */\n  tag_48\n    /* \"#utility.yul\":415:421   */\n  dup5\n    /* \"#utility.yul\":410:413   */\n  dup3\n    /* \"#utility.yul\":405:408   */\n  dup6\n    /* \"#utility.yul\":383:422   */\n  tag_49\n  jump\t// in\ntag_48:\n    /* \"#utility.yul\":102:428   */\n  pop\n    /* \"#utility.yul\":7:428   */\n  swap4\n  swap3\n  pop\n  pop\n  pop\n  jump\t// out\n    /* \"#utility.yul\":434:577   */\ntag_50:\n    /* \"#utility.yul\":491:496   */\n  0x00\n    /* \"#utility.yul\":522:528   */\n  dup2\n    /* \"#utility.yul\":516:529   */\n  mload\n    /* \"#utility.yul\":507:529   */\n  swap1\n  pop\n    /* \"#utility.yul\":538:571   */\n  tag_52\n    /* \"#utility.yul\":565:570   */\n  dup2\n    /* \"#utility.yul\":538:571   */\n  tag_53\n  jump\t// in\ntag_52:\n    /* \"#utility.yul\":434:577   */\n  swap3\n  swap2\n  pop\n  pop\n  jump\t// out\n    /* \"#utility.yul\":597:952   */\ntag_54:\n    /* \"#utility.yul\":664:669   */\n  0x00\n    /* \"#utility.yul\":713:716   */\n  dup3\n    /* \"#utility.yul\":706:710   */\n  0x1f\n    /* \"#utility.yul\":698:704   */\n  dup4\n    /* \"#utility.yul\":694:711   */\n  add\n    /* \"#utility.yul\":690:717   */\n  slt\n    /* \"#utility.yul\":680:802   */\n  tag_56\n  jumpi\n    /* \"#utility.yul\":721:800   */\n  tag_57\n  tag_58\n  jump\t// in\ntag_57:\n    /* \"#utility.yul\":680:802   */\ntag_56:\n    /* \"#utility.yul\":831:837   */\n  dup2\n    /* \"#utility.yul\":825:838   */\n  mload\n    /* \"#utility.yul\":856:946   */\n  tag_59\n    /* \"#utility.yul\":942:945   */\n  dup5\n    /* \"#utility.yul\":934:940   */\n  dup3\n    /* \"#utility.yul\":927:931   */\n  0x20\n    /* \"#utility.yul\":919:925   */\n  dup7\n    /* \"#utility.yul\":915:932   */\n  add\n    /* \"#utility.yul\":856:946   */\n  tag_39\n  jump\t// in\ntag_59:\n    /* \"#utility.yul\":847:946   */\n  swap2\n  pop\n    /* \"#utility.yul\":670:952   */\n  pop\n    /* \"#utility.yul\":597:952   */\n  swap3\n  swap2\n  pop\n  pop\n  jump\t// out\n    /* \"#utility.yul\":958:1794   */\ntag_3:\n    /* \"#utility.yul\":1056:1062   */\n  0x00\n    /* \"#utility.yul\":1064:1070   */\n  dup1\n    /* \"#utility.yul\":1072:1078   */\n  0x00\n    /* \"#utility.yul\":1121:1123   */\n  0x60\n    /* \"#utility.yul\":1109:1118   */\n  dup5\n    /* \"#utility.yul\":1100:1107   */\n  dup7\n    /* \"#utility.yul\":1096:1119   */\n  sub\n    /* \"#utility.yul\":1092:1124   */\n  slt\n    /* \"#utility.yul\":1089:1208   */\n  iszero\n  tag_61\n  jumpi\n    /* \"#utility.yul\":1127:1206   */\n  tag_62\n  tag_63\n  jump\t// in\ntag_62:\n    /* \"#utility.yul\":1089:1208   */\ntag_61:\n    /* \"#utility.yul\":1268:1269   */\n  0x00\n    /* \"#utility.yul\":1257:1266   */\n  dup5\n    /* \"#utility.yul\":1253:1270   */\n  add\n    /* \"#utility.yul\":1247:1271   */\n  mload\n    /* \"#utility.yul\":1298:1316   */\n  0xffffffffffffffff\n    /* \"#utility.yul\":1290:1296   */\n  dup2\n    /* \"#utility.yul\":1287:1317   */\n  gt\n    /* \"#utility.yul\":1284:1401   */\n  iszero\n  tag_64\n  jumpi\n    /* \"#utility.yul\":1320:1399   */\n  tag_65\n  tag_66\n  jump\t// in\ntag_65:\n    /* \"#utility.yul\":1284:1401   */\ntag_64:\n    /* \"#utility.yul\":1425:1499   */\n  tag_67\n    /* \"#utility.yul\":1491:1498   */\n  dup7\n    /* \"#utility.yul\":1482:1488   */\n  dup3\n    /* \"#utility.yul\":1471:1480   */\n  dup8\n    /* \"#utility.yul\":1467:1489   */\n  add\n    /* \"#utility.yul\":1425:1499   */\n  tag_54\n  jump\t// in\ntag_67:\n    /* \"#utility.yul\":1415:1499   */\n  swap4\n  pop\n    /* \"#utility.yul\":1218:1509   */\n  pop\n    /* \"#utility.yul\":1548:1550   */\n  0x20\n    /* \"#utility.yul\":1574:1638   */\n  tag_68\n    /* \"#utility.yul\":1630:1637   */\n  dup7\n    /* \"#utility.yul\":1621:1627   */\n  dup3\n    /* \"#utility.yul\":1610:1619   */\n  dup8\n    /* \"#utility.yul\":1606:1628   */\n  add\n    /* \"#utility.yul\":1574:1638   */\n  tag_50\n  jump\t// in\ntag_68:\n    /* \"#utility.yul\":1564:1638   */\n  swap3\n  pop\n    /* \"#utility.yul\":1519:1648   */\n  pop\n    /* \"#utility.yul\":1687:1689   */\n  0x40\n    /* \"#utility.yul\":1713:1777   */\n  tag_69\n    /* \"#utility.yul\":1769:1776   */\n  dup7\n    /* \"#utility.yul\":1760:1766   */\n  dup3\n    /* \"#utility.yul\":1749:1758   */\n  dup8\n    /* \"#utility.yul\":1745:1767   */\n  add\n    /* \"#utility.yul\":1713:1777   */\n  tag_50\n  jump\t// in\ntag_69:\n    /* \"#utility.yul\":1703:1777   */\n  swap2\n  pop\n    /* \"#utility.yul\":1658:1787   */\n  pop\n    /* \"#utility.yul\":958:1794   */\n  swap3\n  pop\n  swap3\n  pop\n  swap3\n  jump\t// out\n    /* \"#utility.yul\":1800:1918   */\ntag_70:\n    /* \"#utility.yul\":1887:1911   */\n  tag_72\n    /* \"#utility.yul\":1905:1910   */\n  dup2\n    /* \"#utility.yul\":1887:1911   */\n  tag_73\n  jump\t// in\ntag_72:\n    /* \"#utility.yul\":1882:1885   */\n  dup3\n    /* \"#utility.yul\":1875:1912   */\n  mstore\n    /* \"#utility.yul\":1800:1918   */\n  pop\n  pop\n  jump\t// out\n    /* \"#utility.yul\":1924:2288   */\ntag_74:\n    /* \"#utility.yul\":2012:2015   */\n  0x00\n    /* \"#utility.yul\":2040:2079   */\n  tag_76\n    /* \"#utility.yul\":2073:2078   */\n  dup3\n    /* \"#utility.yul\":2040:2079   */\n  tag_77\n  jump\t// in\ntag_76:\n    /* \"#utility.yul\":2095:2166   */\n  tag_78\n    /* \"#utility.yul\":2159:2165   */\n  dup2\n    /* \"#utility.yul\":2154:2157   */\n  dup6\n    /* \"#utility.yul\":2095:2166   */\n  tag_79\n  jump\t// in\ntag_78:\n    /* \"#utility.yul\":2088:2166   */\n  swap4\n  pop\n    /* \"#utility.yul\":2175:2227   */\n  tag_80\n    /* \"#utility.yul\":2220:2226   */\n  dup2\n    /* \"#utility.yul\":2215:2218   */\n  dup6\n    /* \"#utility.yul\":2208:2212   */\n  0x20\n    /* \"#utility.yul\":2201:2206   */\n  dup7\n    /* \"#utility.yul\":2197:2213   */\n  add\n    /* \"#utility.yul\":2175:2227   */\n  tag_49\n  jump\t// in\ntag_80:\n    /* \"#utility.yul\":2252:2281   */\n  tag_81\n    /* \"#utility.yul\":2274:2280   */\n  dup2\n    /* \"#utility.yul\":2252:2281   */\n  tag_82\n  jump\t// in\ntag_81:\n    /* \"#utility.yul\":2247:2250   */\n  dup5\n    /* \"#utility.yul\":2243:2282   */\n  add\n    /* \"#utility.yul\":2236:2282   */\n  swap2\n  pop\n    /* \"#utility.yul\":2016:2288   */\n  pop\n    /* \"#utility.yul\":1924:2288   */\n  swap3\n  swap2\n  pop\n  pop\n  jump\t// out\n    /* \"#utility.yul\":2294:2660   */\ntag_83:\n    /* \"#utility.yul\":2436:2439   */\n  0x00\n    /* \"#utility.yul\":2457:2524   */\n  tag_85\n    /* \"#utility.yul\":2521:2523   */\n  0x17\n    /* \"#utility.yul\":2516:2519   */\n  dup4\n    /* \"#utility.yul\":2457:2524   */\n  tag_79\n  jump\t// in\ntag_85:\n    /* \"#utility.yul\":2450:2524   */\n  swap2\n  pop\n    /* \"#utility.yul\":2533:2626   */\n  tag_86\n    /* \"#utility.yul\":2622:2625   */\n  dup3\n    /* \"#utility.yul\":2533:2626   */\n  tag_87\n  jump\t// in\ntag_86:\n    /* \"#utility.yul\":2651:2653   */\n  0x20\n    /* \"#utility.yul\":2646:2649   */\n  dup3\n    /* \"#utility.yul\":2642:2654   */\n  add\n    /* \"#utility.yul\":2635:2654   */\n  swap1\n  pop\n    /* \"#utility.yul\":2294:2660   */\n  swap2\n  swap1\n  pop\n  jump\t// out\n    /* \"#utility.yul\":2666:3032   */\ntag_88:\n    /* \"#utility.yul\":2808:2811   */\n  0x00\n    /* \"#utility.yul\":2829:2896   */\n  tag_90\n    /* \"#utility.yul\":2893:2895   */\n  0x15\n    /* \"#utility.yul\":2888:2891   */\n  dup4\n    /* \"#utility.yul\":2829:2896   */\n  tag_79\n  jump\t// in\ntag_90:\n    /* \"#utility.yul\":2822:2896   */\n  swap2\n  pop\n    /* \"#utility.yul\":2905:2998   */\n  tag_91\n    /* \"#utility.yul\":2994:2997   */\n  dup3\n    /* \"#utility.yul\":2905:2998   */\n  tag_92\n  jump\t// in\ntag_91:\n    /* \"#utility.yul\":3023:3025   */\n  0x20\n    /* \"#utility.yul\":3018:3021   */\n  dup3\n    /* \"#utility.yul\":3014:3026   */\n  add\n    /* \"#utility.yul\":3007:3026   */\n  swap1\n  pop\n    /* \"#utility.yul\":2666:3032   */\n  swap2\n  swap1\n  pop\n  jump\t// out\n    /* \"#utility.yul\":3038:3404   */\ntag_93:\n    /* \"#utility.yul\":3180:3183   */\n  0x00\n    /* \"#utility.yul\":3201:3268   */\n  tag_95\n    /* \"#utility.yul\":3265:3267   */\n  0x15\n    /* \"#utility.yul\":3260:3263   */\n  dup4\n    /* \"#utility.yul\":3201:3268   */\n  tag_79\n  jump\t// in\ntag_95:\n    /* \"#utility.yul\":3194:3268   */\n  swap2\n  pop\n    /* \"#utility.yul\":3277:3370   */\n  tag_96\n    /* \"#utility.yul\":3366:3369   */\n  dup3\n    /* \"#utility.yul\":3277:3370   */\n  tag_97\n  jump\t// in\ntag_96:\n    /* \"#utility.yul\":3395:3397   */\n  0x20\n    /* \"#utility.yul\":3390:3393   */\n  dup3\n    /* \"#utility.yul\":3386:3398   */\n  add\n    /* \"#utility.yul\":3379:3398   */\n  swap1\n  pop\n    /* \"#utility.yul\":3038:3404   */\n  swap2\n  swap1\n  pop\n  jump\t// out\n    /* \"#utility.yul\":3410:3776   */\ntag_98:\n    /* \"#utility.yul\":3552:3555   */\n  0x00\n    /* \"#utility.yul\":3573:3640   */\n  tag_100\n    /* \"#utility.yul\":3637:3639   */\n  0x17\n    /* \"#utility.yul\":3632:3635   */\n  dup4\n    /* \"#utility.yul\":3573:3640   */\n  tag_79\n  jump\t// in\ntag_100:\n    /* \"#utility.yul\":3566:3640   */\n  swap2\n  pop\n    /* \"#utility.yul\":3649:3742   */\n  tag_101\n    /* \"#utility.yul\":3738:3741   */\n  dup3\n    /* \"#utility.yul\":3649:3742   */\n  tag_102\n  jump\t// in\ntag_101:\n    /* \"#utility.yul\":3767:3769   */\n  0x20\n    /* \"#utility.yul\":3762:3765   */\n  dup3\n    /* \"#utility.yul\":3758:3770   */\n  add\n    /* \"#utility.yul\":3751:3770   */\n  swap1\n  pop\n    /* \"#utility.yul\":3410:3776   */\n  swap2\n  swap1\n  pop\n  jump\t// out\n    /* \"#utility.yul\":3782:4426   */\ntag_25:\n    /* \"#utility.yul\":3979:3983   */\n  0x00\n    /* \"#utility.yul\":4017:4020   */\n  0x80\n    /* \"#utility.yul\":4006:4015   */\n  dup3\n    /* \"#utility.yul\":4002:4021   */\n  add\n    /* \"#utility.yul\":3994:4021   */\n  swap1\n  pop\n    /* \"#utility.yul\":4067:4076   */\n  dup2\n    /* \"#utility.yul\":4061:4065   */\n  dup2\n    /* \"#utility.yul\":4057:4077   */\n  sub\n    /* \"#utility.yul\":4053:4054   */\n  0x00\n    /* \"#utility.yul\":4042:4051   */\n  dup4\n    /* \"#utility.yul\":4038:4055   */\n  add\n    /* \"#utility.yul\":4031:4078   */\n  mstore\n    /* \"#utility.yul\":4095:4173   */\n  tag_104\n    /* \"#utility.yul\":4168:4172   */\n  dup2\n    /* \"#utility.yul\":4159:4165   */\n  dup8\n    /* \"#utility.yul\":4095:4173   */\n  tag_74\n  jump\t// in\ntag_104:\n    /* \"#utility.yul\":4087:4173   */\n  swap1\n  pop\n    /* \"#utility.yul\":4183:4255   */\n  tag_105\n    /* \"#utility.yul\":4251:4253   */\n  0x20\n    /* \"#utility.yul\":4240:4249   */\n  dup4\n    /* \"#utility.yul\":4236:4254   */\n  add\n    /* \"#utility.yul\":4227:4233   */\n  dup7\n    /* \"#utility.yul\":4183:4255   */\n  tag_70\n  jump\t// in\ntag_105:\n    /* \"#utility.yul\":4265:4337   */\n  tag_106\n    /* \"#utility.yul\":4333:4335   */\n  0x40\n    /* \"#utility.yul\":4322:4331   */\n  dup4\n    /* \"#utility.yul\":4318:4336   */\n  add\n    /* \"#utility.yul\":4309:4315   */\n  dup6\n    /* \"#utility.yul\":4265:4337   */\n  tag_70\n  jump\t// in\ntag_106:\n    /* \"#utility.yul\":4347:4419   */\n  tag_107\n    /* \"#utility.yul\":4415:4417   */\n  0x60\n    /* \"#utility.yul\":4404:4413   */\n  dup4\n    /* \"#utility.yul\":4400:4418   */\n  add\n    /* \"#utility.yul\":4391:4397   */\n  dup5\n    /* \"#utility.yul\":4347:4419   */\n  tag_70\n  jump\t// in\ntag_107:\n    /* \"#utility.yul\":3782:4426   */\n  swap6\n  swap5\n  pop\n  pop\n  pop\n  pop\n  pop\n  jump\t// out\n    /* \"#utility.yul\":4432:4851   */\ntag_8:\n    /* \"#utility.yul\":4598:4602   */\n  0x00\n    /* \"#utility.yul\":4636:4638   */\n  0x20\n    /* \"#utility.yul\":4625:4634   */\n  dup3\n    /* \"#utility.yul\":4621:4639   */\n  add\n    /* \"#utility.yul\":4613:4639   */\n  swap1\n  pop\n    /* \"#utility.yul\":4685:4694   */\n  dup2\n    /* \"#utility.yul\":4679:4683   */\n  dup2\n    /* \"#utility.yul\":4675:4695   */\n  sub\n    /* \"#utility.yul\":4671:4672   */\n  0x00\n    /* \"#utility.yul\":4660:4669   */\n  dup4\n    /* \"#utility.yul\":4656:4673   */\n  add\n    /* \"#utility.yul\":4649:4696   */\n  mstore\n    /* \"#utility.yul\":4713:4844   */\n  tag_109\n    /* \"#utility.yul\":4839:4843   */\n  dup2\n    /* \"#utility.yul\":4713:4844   */\n  tag_83\n  jump\t// in\ntag_109:\n    /* \"#utility.yul\":4705:4844   */\n  swap1\n  pop\n    /* \"#utility.yul\":4432:4851   */\n  swap2\n  swap1\n  pop\n  jump\t// out\n    /* \"#utility.yul\":4857:5276   */\ntag_17:\n    /* \"#utility.yul\":5023:5027   */\n  0x00\n    /* \"#utility.yul\":5061:5063   */\n  0x20\n    /* \"#utility.yul\":5050:5059   */\n  dup3\n    /* \"#utility.yul\":5046:5064   */\n  add\n    /* \"#utility.yul\":5038:5064   */\n  swap1\n  pop\n    /* \"#utility.yul\":5110:5119   */\n  dup2\n    /* \"#utility.yul\":5104:5108   */\n  dup2\n    /* \"#utility.yul\":5100:5120   */\n  sub\n    /* \"#utility.yul\":5096:5097   */\n  0x00\n    /* \"#utility.yul\":5085:5094   */\n  dup4\n    /* \"#utility.yul\":5081:5098   */\n  add\n    /* \"#utility.yul\":5074:5121   */\n  mstore\n    /* \"#utility.yul\":5138:5269   */\n  tag_111\n    /* \"#utility.yul\":5264:5268   */\n  dup2\n    /* \"#utility.yul\":5138:5269   */\n  tag_88\n  jump\t// in\ntag_111:\n    /* \"#utility.yul\":5130:5269   */\n  swap1\n  pop\n    /* \"#utility.yul\":4857:5276   */\n  swap2\n  swap1\n  pop\n  jump\t// out\n    /* \"#utility.yul\":5282:5701   */\ntag_14:\n    /* \"#utility.yul\":5448:5452   */\n  0x00\n    /* \"#utility.yul\":5486:5488   */\n  0x20\n    /* \"#utility.yul\":5475:5484   */\n  dup3\n    /* \"#utility.yul\":5471:5489   */\n  add\n    /* \"#utility.yul\":5463:5489   */\n  swap1\n  pop\n    /* \"#utility.yul\":5535:5544   */\n  dup2\n    /* \"#utility.yul\":5529:5533   */\n  dup2\n    /* \"#utility.yul\":5525:5545   */\n  sub\n    /* \"#utility.yul\":5521:5522   */\n  0x00\n    /* \"#utility.yul\":5510:5519   */\n  dup4\n    /* \"#utility.yul\":5506:5523   */\n  add\n    /* \"#utility.yul\":5499:5546   */\n  mstore\n    /* \"#utility.yul\":5563:5694   */\n  tag_113\n    /* \"#utility.yul\":5689:5693   */\n  dup2\n    /* \"#utility.yul\":5563:5694   */\n  tag_93\n  jump\t// in\ntag_113:\n    /* \"#utility.yul\":5555:5694   */\n  swap1\n  pop\n    /* \"#utility.yul\":5282:5701   */\n  swap2\n  swap1\n  pop\n  jump\t// out\n    /* \"#utility.yul\":5707:6126   */\ntag_11:\n    /* \"#utility.yul\":5873:5877   */\n  0x00\n    /* \"#utility.yul\":5911:5913   */\n  0x20\n    /* \"#utility.yul\":5900:5909   */\n  dup3\n    /* \"#utility.yul\":5896:5914   */\n  add\n    /* \"#utility.yul\":5888:5914   */\n  swap1\n  pop\n    /* \"#utility.yul\":5960:5969   */\n  dup2\n    /* \"#utility.yul\":5954:5958   */\n  dup2\n    /* \"#utility.yul\":5950:5970   */\n  sub\n    /* \"#utility.yul\":5946:5947   */\n  0x00\n    /* \"#utility.yul\":5935:5944   */\n  dup4\n    /* \"#utility.yul\":5931:5948   */\n  add\n    /* \"#utility.yul\":5924:5971   */\n  mstore\n    /* \"#utility.yul\":5988:6119   */\n  tag_115\n    /* \"#utility.yul\":6114:6118   */\n  dup2\n    /* \"#utility.yul\":5988:6119   */\n  tag_98\n  jump\t// in\ntag_115:\n    /* \"#utility.yul\":5980:6119   */\n  swap1\n  pop\n    /* \"#utility.yul\":5707:6126   */\n  swap2\n  swap1\n  pop\n  jump\t// out\n    /* \"#utility.yul\":6132:6261   */\ntag_44:\n    /* \"#utility.yul\":6166:6172   */\n  0x00\n    /* \"#utility.yul\":6193:6213   */\n  tag_117\n  tag_118\n  jump\t// in\ntag_117:\n    /* \"#utility.yul\":6183:6213   */\n  swap1\n  pop\n    /* \"#utility.yul\":6222:6255   */\n  tag_119\n    /* \"#utility.yul\":6250:6254   */\n  dup3\n    /* \"#utility.yul\":6242:6248   */\n  dup3\n    /* \"#utility.yul\":6222:6255   */\n  tag_120\n  jump\t// in\ntag_119:\n    /* \"#utility.yul\":6132:6261   */\n  swap2\n  swap1\n  pop\n  jump\t// out\n    /* \"#utility.yul\":6267:6342   */\ntag_118:\n    /* \"#utility.yul\":6300:6306   */\n  0x00\n    /* \"#utility.yul\":6333:6335   */\n  0x40\n    /* \"#utility.yul\":6327:6336   */\n  mload\n    /* \"#utility.yul\":6317:6336   */\n  swap1\n  pop\n    /* \"#utility.yul\":6267:6342   */\n  swap1\n  jump\t// out\n    /* \"#utility.yul\":6348:6656   */\ntag_43:\n    /* \"#utility.yul\":6410:6414   */\n  0x00\n    /* \"#utility.yul\":6500:6518   */\n  0xffffffffffffffff\n    /* \"#utility.yul\":6492:6498   */\n  dup3\n    /* \"#utility.yul\":6489:6519   */\n  gt\n    /* \"#utility.yul\":6486:6542   */\n  iszero\n  tag_123\n  jumpi\n    /* \"#utility.yul\":6522:6540   */\n  tag_124\n  tag_125\n  jump\t// in\ntag_124:\n    /* \"#utility.yul\":6486:6542   */\ntag_123:\n    /* \"#utility.yul\":6560:6589   */\n  tag_126\n    /* \"#utility.yul\":6582:6588   */\n  dup3\n    /* \"#utility.yul\":6560:6589   */\n  tag_82\n  jump\t// in\ntag_126:\n    /* \"#utility.yul\":6552:6589   */\n  swap1\n  pop\n    /* \"#utility.yul\":6644:6648   */\n  0x20\n    /* \"#utility.yul\":6638:6642   */\n  dup2\n    /* \"#utility.yul\":6634:6649   */\n  add\n    /* \"#utility.yul\":6626:6649   */\n  swap1\n  pop\n    /* \"#utility.yul\":6348:6656   */\n  swap2\n  swap1\n  pop\n  jump\t// out\n    /* \"#utility.yul\":6662:6761   */\ntag_77:\n    /* \"#utility.yul\":6714:6720   */\n  0x00\n    /* \"#utility.yul\":6748:6753   */\n  dup2\n    /* \"#utility.yul\":6742:6754   */\n  mload\n    /* \"#utility.yul\":6732:6754   */\n  swap1\n  pop\n    /* \"#utility.yul\":6662:6761   */\n  swap2\n  swap1\n  pop\n  jump\t// out\n    /* \"#utility.yul\":6767:6936   */\ntag_79:\n    /* \"#utility.yul\":6851:6862   */\n  0x00\n    /* \"#utility.yul\":6885:6891   */\n  dup3\n    /* \"#utility.yul\":6880:6883   */\n  dup3\n    /* \"#utility.yul\":6873:6892   */\n  mstore\n    /* \"#utility.yul\":6925:6929   */\n  0x20\n    /* \"#utility.yul\":6920:6923   */\n  dup3\n    /* \"#utility.yul\":6916:6930   */\n  add\n    /* \"#utility.yul\":6901:6930   */\n  swap1\n  pop\n    /* \"#utility.yul\":6767:6936   */\n  swap3\n  swap2\n  pop\n  pop\n  jump\t// out\n    /* \"#utility.yul\":6942:7038   */\ntag_73:\n    /* \"#utility.yul\":6979:6986   */\n  0x00\n    /* \"#utility.yul\":7008:7032   */\n  tag_130\n    /* \"#utility.yul\":7026:7031   */\n  dup3\n    /* \"#utility.yul\":7008:7032   */\n  tag_131\n  jump\t// in\ntag_130:\n    /* \"#utility.yul\":6997:7032   */\n  swap1\n  pop\n    /* \"#utility.yul\":6942:7038   */\n  swap2\n  swap1\n  pop\n  jump\t// out\n    /* \"#utility.yul\":7044:7170   */\ntag_131:\n    /* \"#utility.yul\":7081:7088   */\n  0x00\n    /* \"#utility.yul\":7121:7163   */\n  0xffffffffffffffffffffffffffffffffffffffff\n    /* \"#utility.yul\":7114:7119   */\n  dup3\n    /* \"#utility.yul\":7110:7164   */\n  and\n    /* \"#utility.yul\":7099:7164   */\n  swap1\n  pop\n    /* \"#utility.yul\":7044:7170   */\n  swap2\n  swap1\n  pop\n  jump\t// out\n    /* \"#utility.yul\":7176:7483   */\ntag_49:\n    /* \"#utility.yul\":7244:7245   */\n  0x00\n    /* \"#utility.yul\":7254:7367   */\ntag_134:\n    /* \"#utility.yul\":7268:7274   */\n  dup4\n    /* \"#utility.yul\":7265:7266   */\n  dup2\n    /* \"#utility.yul\":7262:7275   */\n  lt\n    /* \"#utility.yul\":7254:7367   */\n  iszero\n  tag_136\n  jumpi\n    /* \"#utility.yul\":7353:7354   */\n  dup1\n    /* \"#utility.yul\":7348:7351   */\n  dup3\n    /* \"#utility.yul\":7344:7355   */\n  add\n    /* \"#utility.yul\":7338:7356   */\n  mload\n    /* \"#utility.yul\":7334:7335   */\n  dup2\n    /* \"#utility.yul\":7329:7332   */\n  dup5\n    /* \"#utility.yul\":7325:7336   */\n  add\n    /* \"#utility.yul\":7318:7357   */\n  mstore\n    /* \"#utility.yul\":7290:7292   */\n  0x20\n    /* \"#utility.yul\":7287:7288   */\n  dup2\n    /* \"#utility.yul\":7283:7293   */\n  add\n    /* \"#utility.yul\":7278:7293   */\n  swap1\n  pop\n    /* \"#utility.yul\":7254:7367   */\n  jump(tag_134)\ntag_136:\n    /* \"#utility.yul\":7385:7391   */\n  dup4\n    /* \"#utility.yul\":7382:7383   */\n  dup2\n    /* \"#utility.yul\":7379:7392   */\n  gt\n    /* \"#utility.yul\":7376:7477   */\n  iszero\n  tag_137\n  jumpi\n    /* \"#utility.yul\":7465:7466   */\n  0x00\n    /* \"#utility.yul\":7456:7462   */\n  dup5\n    /* \"#utility.yul\":7451:7454   */\n  dup5\n    /* \"#utility.yul\":7447:7463   */\n  add\n    /* \"#utility.yul\":7440:7467   */\n  mstore\n    /* \"#utility.yul\":7376:7477   */\ntag_137:\n    /* \"#utility.yul\":7225:7483   */\n  pop\n    /* \"#utility.yul\":7176:7483   */\n  pop\n  pop\n  pop\n  jump\t// out\n    /* \"#utility.yul\":7489:7809   */\ntag_28:\n    /* \"#utility.yul\":7533:7539   */\n  0x00\n    /* \"#utility.yul\":7570:7571   */\n  0x02\n    /* \"#utility.yul\":7564:7568   */\n  dup3\n    /* \"#utility.yul\":7560:7572   */\n  div\n    /* \"#utility.yul\":7550:7572   */\n  swap1\n  pop\n    /* \"#utility.yul\":7617:7618   */\n  0x01\n    /* \"#utility.yul\":7611:7615   */\n  dup3\n    /* \"#utility.yul\":7607:7619   */\n  and\n    /* \"#utility.yul\":7638:7656   */\n  dup1\n    /* \"#utility.yul\":7628:7709   */\n  tag_139\n  jumpi\n    /* \"#utility.yul\":7694:7698   */\n  0x7f\n    /* \"#utility.yul\":7686:7692   */\n  dup3\n    /* \"#utility.yul\":7682:7699   */\n  and\n    /* \"#utility.yul\":7672:7699   */\n  swap2\n  pop\n    /* \"#utility.yul\":7628:7709   */\ntag_139:\n    /* \"#utility.yul\":7756:7758   */\n  0x20\n    /* \"#utility.yul\":7748:7754   */\n  dup3\n    /* \"#utility.yul\":7745:7759   */\n  lt\n    /* \"#utility.yul\":7725:7743   */\n  dup2\n    /* \"#utility.yul\":7722:7760   */\n  eq\n    /* \"#utility.yul\":7719:7803   */\n  iszero\n  tag_140\n  jumpi\n    /* \"#utility.yul\":7775:7793   */\n  tag_141\n  tag_142\n  jump\t// in\ntag_141:\n    /* \"#utility.yul\":7719:7803   */\ntag_140:\n    /* \"#utility.yul\":7540:7809   */\n  pop\n    /* \"#utility.yul\":7489:7809   */\n  swap2\n  swap1\n  pop\n  jump\t// out\n    /* \"#utility.yul\":7815:8096   */\ntag_120:\n    /* \"#utility.yul\":7898:7925   */\n  tag_144\n    /* \"#utility.yul\":7920:7924   */\n  dup3\n    /* \"#utility.yul\":7898:7925   */\n  tag_82\n  jump\t// in\ntag_144:\n    /* \"#utility.yul\":7890:7896   */\n  dup2\n    /* \"#utility.yul\":7886:7926   */\n  add\n    /* \"#utility.yul\":8028:8034   */\n  dup2\n    /* \"#utility.yul\":8016:8026   */\n  dup2\n    /* \"#utility.yul\":8013:8035   */\n  lt\n    /* \"#utility.yul\":7992:8010   */\n  0xffffffffffffffff\n    /* \"#utility.yul\":7980:7990   */\n  dup3\n    /* \"#utility.yul\":7977:8011   */\n  gt\n    /* \"#utility.yul\":7974:8036   */\n  or\n    /* \"#utility.yul\":7971:8059   */\n  iszero\n  tag_145\n  jumpi\n    /* \"#utility.yul\":8039:8057   */\n  tag_146\n  tag_125\n  jump\t// in\ntag_146:\n    /* \"#utility.yul\":7971:8059   */\ntag_145:\n    /* \"#utility.yul\":8079:8089   */\n  dup1\n    /* \"#utility.yul\":8075:8077   */\n  0x40\n    /* \"#utility.yul\":8068:8090   */\n  mstore\n    /* \"#utility.yul\":7858:8096   */\n  pop\n    /* \"#utility.yul\":7815:8096   */\n  pop\n  pop\n  jump\t// out\n    /* \"#utility.yul\":8102:8282   */\ntag_142:\n    /* \"#utility.yul\":8150:8227   */\n  0x4e487b7100000000000000000000000000000000000000000000000000000000\n    /* \"#utility.yul\":8147:8148   */\n  0x00\n    /* \"#utility.yul\":8140:8228   */\n  mstore\n    /* \"#utility.yul\":8247:8251   */\n  0x22\n    /* \"#utility.yul\":8244:8245   */\n  0x04\n    /* \"#utility.yul\":8237:8252   */\n  mstore\n    /* \"#utility.yul\":8271:8275   */\n  0x24\n    /* \"#utility.yul\":8268:8269   */\n  0x00\n    /* \"#utility.yul\":8261:8276   */\n  revert\n    /* \"#utility.yul\":8288:8468   */\ntag_125:\n    /* \"#utility.yul\":8336:8413   */\n  0x4e487b7100000000000000000000000000000000000000000000000000000000\n    /* \"#utility.yul\":8333:8334   */\n  0x00\n    /* \"#utility.yul\":8326:8414   */\n  mstore\n    /* \"#utility.yul\":8433:8437   */\n  0x41\n    /* \"#utility.yul\":8430:8431   */\n  0x04\n    /* \"#utility.yul\":8423:8438   */\n  mstore\n    /* \"#utility.yul\":8457:8461   */\n  0x24\n    /* \"#utility.yul\":8454:8455   */\n  0x00\n    /* \"#utility.yul\":8447:8462   */\n  revert\n    /* \"#utility.yul\":8474:8591   */\ntag_58:\n    /* \"#utility.yul\":8583:8584   */\n  0x00\n    /* \"#utility.yul\":8580:8581   */\n  dup1\n    /* \"#utility.yul\":8573:8585   */\n  revert\n    /* \"#utility.yul\":8597:8714   */\ntag_47:\n    /* \"#utility.yul\":8706:8707   */\n  0x00\n    /* \"#utility.yul\":8703:8704   */\n  dup1\n    /* \"#utility.yul\":8696:8708   */\n  revert\n    /* \"#utility.yul\":8720:8837   */\ntag_66:\n    /* \"#utility.yul\":8829:8830   */\n  0x00\n    /* \"#utility.yul\":8826:8827   */\n  dup1\n    /* \"#utility.yul\":8819:8831   */\n  revert\n    /* \"#utility.yul\":8843:8960   */\ntag_63:\n    /* \"#utility.yul\":8952:8953   */\n  0x00\n    /* \"#utility.yul\":8949:8950   */\n  dup1\n    /* \"#utility.yul\":8942:8954   */\n  revert\n    /* \"#utility.yul\":8966:9068   */\ntag_82:\n    /* \"#utility.yul\":9007:9013   */\n  0x00\n    /* \"#utility.yul\":9058:9060   */\n  0x1f\n    /* \"#utility.yul\":9054:9061   */\n  not\n    /* \"#utility.yul\":9049:9051   */\n  0x1f\n    /* \"#utility.yul\":9042:9047   */\n  dup4\n    /* \"#utility.yul\":9038:9052   */\n  add\n    /* \"#utility.yul\":9034:9062   */\n  and\n    /* \"#utility.yul\":9024:9062   */\n  swap1\n  pop\n    /* \"#utility.yul\":8966:9068   */\n  swap2\n  swap1\n  pop\n  jump\t// out\n    /* \"#utility.yul\":9074:9247   */\ntag_87:\n    /* \"#utility.yul\":9214:9239   */\n  0x205f6120697320696e76616c6964206164647265737320000000000000000000\n    /* \"#utility.yul\":9210:9211   */\n  0x00\n    /* \"#utility.yul\":9202:9208   */\n  dup3\n    /* \"#utility.yul\":9198:9212   */\n  add\n    /* \"#utility.yul\":9191:9240   */\n  mstore\n    /* \"#utility.yul\":9074:9247   */\n  pop\n  jump\t// out\n    /* \"#utility.yul\":9253:9424   */\ntag_92:\n    /* \"#utility.yul\":9393:9416   */\n  0x205f622063616e206e6f74207665726966696572200000000000000000000000\n    /* \"#utility.yul\":9389:9390   */\n  0x00\n    /* \"#utility.yul\":9381:9387   */\n  dup3\n    /* \"#utility.yul\":9377:9391   */\n  add\n    /* \"#utility.yul\":9370:9417   */\n  mstore\n    /* \"#utility.yul\":9253:9424   */\n  pop\n  jump\t// out\n    /* \"#utility.yul\":9430:9601   */\ntag_97:\n    /* \"#utility.yul\":9570:9593   */\n  0x205f612063616e206e6f74207665726966696572200000000000000000000000\n    /* \"#utility.yul\":9566:9567   */\n  0x00\n    /* \"#utility.yul\":9558:9564   */\n  dup3\n    /* \"#utility.yul\":9554:9568   */\n  add\n    /* \"#utility.yul\":9547:9594   */\n  mstore\n    /* \"#utility.yul\":9430:9601   */\n  pop\n  jump\t// out\n    /* \"#utility.yul\":9607:9780   */\ntag_102:\n    /* \"#utility.yul\":9747:9772   */\n  0x205f6220697320696e76616c6964206164647265737320000000000000000000\n    /* \"#utility.yul\":9743:9744   */\n  0x00\n    /* \"#utility.yul\":9735:9741   */\n  dup3\n    /* \"#utility.yul\":9731:9745   */\n  add\n    /* \"#utility.yul\":9724:9773   */\n  mstore\n    /* \"#utility.yul\":9607:9780   */\n  pop\n  jump\t// out\n    /* \"#utility.yul\":9786:9908   */\ntag_53:\n    /* \"#utility.yul\":9859:9883   */\n  tag_159\n    /* \"#utility.yul\":9877:9882   */\n  dup2\n    /* \"#utility.yul\":9859:9883   */\n  tag_73\n  jump\t// in\ntag_159:\n    /* \"#utility.yul\":9852:9857   */\n  dup2\n    /* \"#utility.yul\":9849:9884   */\n  eq\n    /* \"#utility.yul\":9839:9902   */\n  tag_160\n  jumpi\n    /* \"#utility.yul\":9898:9899   */\n  0x00\n    /* \"#utility.yul\":9895:9896   */\n  dup1\n    /* \"#utility.yul\":9888:9900   */\n  revert\n    /* \"#utility.yul\":9839:9902   */\ntag_160:\n    /* \"#utility.yul\":9786:9908   */\n  pop\n  jump\t// out\n    /* \"marriage/evidence.sol\":447:3943  contract MarrigeEvidence is IEvdence {\r... */\ntag_26:\n  dataSize(sub_0)\n  dup1\n  dataOffset(sub_0)\n  0x00\n  codecopy\n  0x00\n  return\nstop\n\nsub_0: assembly {\n        /* \"marriage/evidence.sol\":447:3943  contract MarrigeEvidence is IEvdence {\r... */\n      mstore(0x40, 0x80)\n      callvalue\n      dup1\n      iszero\n      tag_1\n      jumpi\n      0x00\n      dup1\n      revert\n    tag_1:\n      pop\n      jumpi(tag_2, lt(calldatasize, 0x04))\n      shr(0xe0, calldataload(0x00))\n      dup1\n      0x2ca15122\n      eq\n      tag_3\n      jumpi\n      dup1\n      0x3c68af3e\n      eq\n      tag_4\n      jumpi\n      dup1\n      0x596f21f8\n      eq\n      tag_5\n      jumpi\n      dup1\n      0x63a9c3d7\n      eq\n      tag_6\n      jumpi\n    tag_2:\n      0x00\n      dup1\n      revert\n        /* \"marriage/evidence.sol\":1823:2395  function sign() override external  returns(bool){\r... */\n    tag_3:\n      tag_7\n      tag_8\n      jump\t// in\n    tag_7:\n      mload(0x40)\n      tag_9\n      swap2\n      swap1\n      tag_10\n      jump\t// in\n    tag_9:\n      mload(0x40)\n      dup1\n      swap2\n      sub\n      swap1\n      return\n        /* \"marriage/evidence.sol\":3461:3938  function isAllSigned()public view returns(bool,string memory){\r... */\n    tag_4:\n      tag_11\n      tag_12\n      jump\t// in\n    tag_11:\n      mload(0x40)\n      tag_13\n      swap3\n      swap2\n      swap1\n      tag_14\n      jump\t// in\n    tag_13:\n      mload(0x40)\n      dup1\n      swap2\n      sub\n      swap1\n      return\n        /* \"marriage/evidence.sol\":1604:1770  function getEvidence()override external view returns(string memory,address[] memory,address[] memory){\r... */\n    tag_5:\n      tag_15\n      tag_16\n      jump\t// in\n    tag_15:\n      mload(0x40)\n      tag_17\n      swap4\n      swap3\n      swap2\n      swap1\n      tag_18\n      jump\t// in\n    tag_17:\n      mload(0x40)\n      dup1\n      swap2\n      sub\n      swap1\n      return\n        /* \"marriage/evidence.sol\":2443:2553  function verify(address _signer)override external view returns(bool){\r... */\n    tag_6:\n      tag_19\n      0x04\n      dup1\n      calldatasize\n      sub\n      dup2\n      add\n      swap1\n      tag_20\n      swap2\n      swap1\n      tag_21\n      jump\t// in\n    tag_20:\n      tag_22\n      jump\t// in\n    tag_19:\n      mload(0x40)\n      tag_23\n      swap2\n      swap1\n      tag_10\n      jump\t// in\n    tag_23:\n      mload(0x40)\n      dup1\n      swap2\n      sub\n      swap1\n      return\n        /* \"marriage/evidence.sol\":1823:2395  function sign() override external  returns(bool){\r... */\n    tag_8:\n        /* \"marriage/evidence.sol\":1866:1870  bool */\n      0x00\n        /* \"marriage/evidence.sol\":1936:1954  _verify(tx.origin) */\n      tag_25\n        /* \"marriage/evidence.sol\":1944:1953  tx.origin */\n      origin\n        /* \"marriage/evidence.sol\":1936:1943  _verify */\n      tag_26\n        /* \"marriage/evidence.sol\":1936:1954  _verify(tx.origin) */\n      jump\t// in\n    tag_25:\n        /* \"marriage/evidence.sol\":1928:1979  require(_verify(tx.origin),\" _signer is not valid\") */\n      tag_27\n      jumpi\n      mload(0x40)\n      0x08c379a000000000000000000000000000000000000000000000000000000000\n      dup2\n      mstore\n      0x04\n      add\n      tag_28\n      swap1\n      tag_29\n      jump\t// in\n    tag_28:\n      mload(0x40)\n      dup1\n      swap2\n      sub\n      swap1\n      revert\n    tag_27:\n        /* \"marriage/evidence.sol\":2036:2055  isSigned(tx.origin) */\n      tag_30\n        /* \"marriage/evidence.sol\":2045:2054  tx.origin */\n      origin\n        /* \"marriage/evidence.sol\":2036:2044  isSigned */\n      tag_31\n        /* \"marriage/evidence.sol\":2036:2055  isSigned(tx.origin) */\n      jump\t// in\n    tag_30:\n        /* \"marriage/evidence.sol\":2033:2161  if(isSigned(tx.origin)){\r... */\n      iszero\n      tag_32\n      jumpi\n        /* \"marriage/evidence.sol\":2076:2123  AddRepeatSignaturesEvidence(evidence,tx.origin) */\n      0x57bb3fead2451e6a3a5680e94e3dba9642a2ea6e850811bf18feccc94c5968a9\n        /* \"marriage/evidence.sol\":2104:2112  evidence */\n      0x00\n        /* \"marriage/evidence.sol\":2113:2122  tx.origin */\n      origin\n        /* \"marriage/evidence.sol\":2076:2123  AddRepeatSignaturesEvidence(evidence,tx.origin) */\n      mload(0x40)\n      tag_33\n      swap3\n      swap2\n      swap1\n      tag_34\n      jump\t// in\n    tag_33:\n      mload(0x40)\n      dup1\n      swap2\n      sub\n      swap1\n      log1\n        /* \"marriage/evidence.sol\":2145:2149  true */\n      0x01\n        /* \"marriage/evidence.sol\":2138:2149  return true */\n      swap1\n      pop\n      jump(tag_24)\n        /* \"marriage/evidence.sol\":2033:2161  if(isSigned(tx.origin)){\r... */\n    tag_32:\n        /* \"marriage/evidence.sol\":2275:2282  signers */\n      0x02\n        /* \"marriage/evidence.sol\":2288:2297  tx.origin */\n      origin\n        /* \"marriage/evidence.sol\":2275:2298  signers.push(tx.origin) */\n      swap1\n      dup1\n      0x01\n      dup2\n      sload\n      add\n      dup1\n      dup3\n      sstore\n      dup1\n      swap2\n      pop\n      pop\n      0x01\n      swap1\n      sub\n      swap1\n      0x00\n      mstore\n      keccak256(0x00, 0x20)\n      add\n      0x00\n      swap1\n      swap2\n      swap1\n      swap2\n      swap1\n      swap2\n      0x0100\n      exp\n      dup2\n      sload\n      dup2\n      0xffffffffffffffffffffffffffffffffffffffff\n      mul\n      not\n      and\n      swap1\n      dup4\n      0xffffffffffffffffffffffffffffffffffffffff\n      and\n      mul\n      or\n      swap1\n      sstore\n      pop\n        /* \"marriage/evidence.sol\":2314:2355  AddSignaturesEvidence(evidence,tx.origin) */\n      0xb05e84f77f10ca9cd0a42f11422685a81fb7997e8c2500733527f8c2ee56ab29\n        /* \"marriage/evidence.sol\":2336:2344  evidence */\n      0x00\n        /* \"marriage/evidence.sol\":2345:2354  tx.origin */\n      origin\n        /* \"marriage/evidence.sol\":2314:2355  AddSignaturesEvidence(evidence,tx.origin) */\n      mload(0x40)\n      tag_36\n      swap3\n      swap2\n      swap1\n      tag_34\n      jump\t// in\n    tag_36:\n      mload(0x40)\n      dup1\n      swap2\n      sub\n      swap1\n      log1\n        /* \"marriage/evidence.sol\":2373:2377  true */\n      0x01\n        /* \"marriage/evidence.sol\":2366:2377  return true */\n      swap1\n      pop\n        /* \"marriage/evidence.sol\":1823:2395  function sign() override external  returns(bool){\r... */\n    tag_24:\n      swap1\n      jump\t// out\n        /* \"marriage/evidence.sol\":3461:3938  function isAllSigned()public view returns(bool,string memory){\r... */\n    tag_12:\n        /* \"marriage/evidence.sol\":3503:3507  bool */\n      0x00\n        /* \"marriage/evidence.sol\":3508:3521  string memory */\n      0x60\n        /* \"marriage/evidence.sol\":3589:3598  uint256 i */\n      0x00\n        /* \"marriage/evidence.sol\":3585:3833  for(uint256 i = 0 ; i < needSigners.length; i++ ){\r... */\n    tag_38:\n        /* \"marriage/evidence.sol\":3609:3620  needSigners */\n      0x01\n        /* \"marriage/evidence.sol\":3609:3627  needSigners.length */\n      dup1\n      sload\n      swap1\n      pop\n        /* \"marriage/evidence.sol\":3605:3606  i */\n      dup2\n        /* \"marriage/evidence.sol\":3605:3627  i < needSigners.length */\n      lt\n        /* \"marriage/evidence.sol\":3585:3833  for(uint256 i = 0 ; i < needSigners.length; i++ ){\r... */\n      iszero\n      tag_39\n      jumpi\n        /* \"marriage/evidence.sol\":3705:3729  isSigned(needSigners[i]) */\n      tag_41\n        /* \"marriage/evidence.sol\":3714:3725  needSigners */\n      0x01\n        /* \"marriage/evidence.sol\":3726:3727  i */\n      dup3\n        /* \"marriage/evidence.sol\":3714:3728  needSigners[i] */\n      dup2\n      sload\n      dup2\n      lt\n      tag_42\n      jumpi\n      tag_43\n      tag_44\n      jump\t// in\n    tag_43:\n    tag_42:\n      swap1\n      0x00\n      mstore\n      keccak256(0x00, 0x20)\n      add\n      0x00\n      swap1\n      sload\n      swap1\n      0x0100\n      exp\n      swap1\n      div\n      0xffffffffffffffffffffffffffffffffffffffff\n      and\n        /* \"marriage/evidence.sol\":3705:3713  isSigned */\n      tag_31\n        /* \"marriage/evidence.sol\":3705:3729  isSigned(needSigners[i]) */\n      jump\t// in\n    tag_41:\n        /* \"marriage/evidence.sol\":3701:3822  if(!isSigned(needSigners[i])){\r... */\n      tag_46\n      jumpi\n        /* \"marriage/evidence.sol\":3796:3801  false */\n      0x00\n        /* \"marriage/evidence.sol\":3788:3806  return (false,\" \") */\n      mload(0x40)\n      dup1\n      0x40\n      add\n      0x40\n      mstore\n      dup1\n      0x01\n      dup2\n      mstore\n      0x20\n      add\n      0x2000000000000000000000000000000000000000000000000000000000000000\n      dup2\n      mstore\n      pop\n      swap3\n      pop\n      swap3\n      pop\n      pop\n      jump(tag_37)\n        /* \"marriage/evidence.sol\":3701:3822  if(!isSigned(needSigners[i])){\r... */\n    tag_46:\n        /* \"marriage/evidence.sol\":3629:3632  i++ */\n      dup1\n      dup1\n      tag_47\n      swap1\n      tag_48\n      jump\t// in\n    tag_47:\n      swap2\n      pop\n      pop\n        /* \"marriage/evidence.sol\":3585:3833  for(uint256 i = 0 ; i < needSigners.length; i++ ){\r... */\n      jump(tag_38)\n    tag_39:\n      pop\n        /* \"marriage/evidence.sol\":3916:3920  true */\n      0x01\n        /* \"marriage/evidence.sol\":3921:3929  evidence */\n      0x00\n        /* \"marriage/evidence.sol\":3908:3930  return (true,evidence) */\n      dup1\n      dup1\n      sload\n      tag_49\n      swap1\n      tag_50\n      jump\t// in\n    tag_49:\n      dup1\n      0x1f\n      add\n      0x20\n      dup1\n      swap2\n      div\n      mul\n      0x20\n      add\n      mload(0x40)\n      swap1\n      dup2\n      add\n      0x40\n      mstore\n      dup1\n      swap3\n      swap2\n      swap1\n      dup2\n      dup2\n      mstore\n      0x20\n      add\n      dup3\n      dup1\n      sload\n      tag_51\n      swap1\n      tag_50\n      jump\t// in\n    tag_51:\n      dup1\n      iszero\n      tag_52\n      jumpi\n      dup1\n      0x1f\n      lt\n      tag_53\n      jumpi\n      0x0100\n      dup1\n      dup4\n      sload\n      div\n      mul\n      dup4\n      mstore\n      swap2\n      0x20\n      add\n      swap2\n      jump(tag_52)\n    tag_53:\n      dup3\n      add\n      swap2\n      swap1\n      0x00\n      mstore\n      keccak256(0x00, 0x20)\n      swap1\n    tag_54:\n      dup2\n      sload\n      dup2\n      mstore\n      swap1\n      0x01\n      add\n      swap1\n      0x20\n      add\n      dup1\n      dup4\n      gt\n      tag_54\n      jumpi\n      dup3\n      swap1\n      sub\n      0x1f\n      and\n      dup3\n      add\n      swap2\n    tag_52:\n      pop\n      pop\n      pop\n      pop\n      pop\n      swap1\n      pop\n      swap2\n      pop\n      swap2\n      pop\n        /* \"marriage/evidence.sol\":3461:3938  function isAllSigned()public view returns(bool,string memory){\r... */\n    tag_37:\n      swap1\n      swap2\n      jump\t// out\n        /* \"marriage/evidence.sol\":1604:1770  function getEvidence()override external view returns(string memory,address[] memory,address[] memory){\r... */\n    tag_16:\n        /* \"marriage/evidence.sol\":1657:1670  string memory */\n      0x60\n        /* \"marriage/evidence.sol\":1671:1687  address[] memory */\n      dup1\n        /* \"marriage/evidence.sol\":1688:1704  address[] memory */\n      0x60\n        /* \"marriage/evidence.sol\":1733:1741  evidence */\n      0x00\n        /* \"marriage/evidence.sol\":1742:1753  needSigners */\n      0x01\n        /* \"marriage/evidence.sol\":1754:1761  signers */\n      0x02\n        /* \"marriage/evidence.sol\":1726:1762  return(evidence,needSigners,signers) */\n      dup3\n      dup1\n      sload\n      tag_56\n      swap1\n      tag_50\n      jump\t// in\n    tag_56:\n      dup1\n      0x1f\n      add\n      0x20\n      dup1\n      swap2\n      div\n      mul\n      0x20\n      add\n      mload(0x40)\n      swap1\n      dup2\n      add\n      0x40\n      mstore\n      dup1\n      swap3\n      swap2\n      swap1\n      dup2\n      dup2\n      mstore\n      0x20\n      add\n      dup3\n      dup1\n      sload\n      tag_57\n      swap1\n      tag_50\n      jump\t// in\n    tag_57:\n      dup1\n      iszero\n      tag_58\n      jumpi\n      dup1\n      0x1f\n      lt\n      tag_59\n      jumpi\n      0x0100\n      dup1\n      dup4\n      sload\n      div\n      mul\n      dup4\n      mstore\n      swap2\n      0x20\n      add\n      swap2\n      jump(tag_58)\n    tag_59:\n      dup3\n      add\n      swap2\n      swap1\n      0x00\n      mstore\n      keccak256(0x00, 0x20)\n      swap1\n    tag_60:\n      dup2\n      sload\n      dup2\n      mstore\n      swap1\n      0x01\n      add\n      swap1\n      0x20\n      add\n      dup1\n      dup4\n      gt\n      tag_60\n      jumpi\n      dup3\n      swap1\n      sub\n      0x1f\n      and\n      dup3\n      add\n      swap2\n    tag_58:\n      pop\n      pop\n      pop\n      pop\n      pop\n      swap3\n      pop\n      dup2\n      dup1\n      sload\n      dup1\n      0x20\n      mul\n      0x20\n      add\n      mload(0x40)\n      swap1\n      dup2\n      add\n      0x40\n      mstore\n      dup1\n      swap3\n      swap2\n      swap1\n      dup2\n      dup2\n      mstore\n      0x20\n      add\n      dup3\n      dup1\n      sload\n      dup1\n      iszero\n      tag_61\n      jumpi\n      0x20\n      mul\n      dup3\n      add\n      swap2\n      swap1\n      0x00\n      mstore\n      keccak256(0x00, 0x20)\n      swap1\n    tag_62:\n      dup2\n      0x00\n      swap1\n      sload\n      swap1\n      0x0100\n      exp\n      swap1\n      div\n      0xffffffffffffffffffffffffffffffffffffffff\n      and\n      0xffffffffffffffffffffffffffffffffffffffff\n      and\n      dup2\n      mstore\n      0x20\n      add\n      swap1\n      0x01\n      add\n      swap1\n      dup1\n      dup4\n      gt\n      tag_62\n      jumpi\n    tag_61:\n      pop\n      pop\n      pop\n      pop\n      pop\n      swap2\n      pop\n      dup1\n      dup1\n      sload\n      dup1\n      0x20\n      mul\n      0x20\n      add\n      mload(0x40)\n      swap1\n      dup2\n      add\n      0x40\n      mstore\n      dup1\n      swap3\n      swap2\n      swap1\n      dup2\n      dup2\n      mstore\n      0x20\n      add\n      dup3\n      dup1\n      sload\n      dup1\n      iszero\n      tag_63\n      jumpi\n      0x20\n      mul\n      dup3\n      add\n      swap2\n      swap1\n      0x00\n      mstore\n      keccak256(0x00, 0x20)\n      swap1\n    tag_64:\n      dup2\n      0x00\n      swap1\n      sload\n      swap1\n      0x0100\n      exp\n      swap1\n      div\n      0xffffffffffffffffffffffffffffffffffffffff\n      and\n      0xffffffffffffffffffffffffffffffffffffffff\n      and\n      dup2\n      mstore\n      0x20\n      add\n      swap1\n      0x01\n      add\n      swap1\n      dup1\n      dup4\n      gt\n      tag_64\n      jumpi\n    tag_63:\n      pop\n      pop\n      pop\n      pop\n      pop\n      swap1\n      pop\n      swap3\n      pop\n      swap3\n      pop\n      swap3\n      pop\n        /* \"marriage/evidence.sol\":1604:1770  function getEvidence()override external view returns(string memory,address[] memory,address[] memory){\r... */\n      swap1\n      swap2\n      swap3\n      jump\t// out\n        /* \"marriage/evidence.sol\":2443:2553  function verify(address _signer)override external view returns(bool){\r... */\n    tag_22:\n        /* \"marriage/evidence.sol\":2506:2510  bool */\n      0x00\n        /* \"marriage/evidence.sol\":2529:2545  _verify(_signer) */\n      tag_66\n        /* \"marriage/evidence.sol\":2537:2544  _signer */\n      dup3\n        /* \"marriage/evidence.sol\":2529:2536  _verify */\n      tag_26\n        /* \"marriage/evidence.sol\":2529:2545  _verify(_signer) */\n      jump\t// in\n    tag_66:\n        /* \"marriage/evidence.sol\":2522:2545  return _verify(_signer) */\n      swap1\n      pop\n        /* \"marriage/evidence.sol\":2443:2553  function verify(address _signer)override external view returns(bool){\r... */\n      swap2\n      swap1\n      pop\n      jump\t// out\n        /* \"marriage/evidence.sol\":2622:2958  function _verify(address _signer) internal view returns(bool){\r... */\n    tag_26:\n        /* \"marriage/evidence.sol\":2678:2682  bool */\n      0x00\n        /* \"marriage/evidence.sol\":2699:2708  uint256 i */\n      dup1\n        /* \"marriage/evidence.sol\":2711:2712  0 */\n      0x00\n        /* \"marriage/evidence.sol\":2699:2712  uint256 i = 0 */\n      swap1\n      pop\n        /* \"marriage/evidence.sol\":2695:2887  for(uint256 i = 0 ; i < needSigners.length; i++ ){\r... */\n    tag_68:\n        /* \"marriage/evidence.sol\":2719:2730  needSigners */\n      0x01\n        /* \"marriage/evidence.sol\":2719:2737  needSigners.length */\n      dup1\n      sload\n      swap1\n      pop\n        /* \"marriage/evidence.sol\":2715:2716  i */\n      dup2\n        /* \"marriage/evidence.sol\":2715:2737  i < needSigners.length */\n      lt\n        /* \"marriage/evidence.sol\":2695:2887  for(uint256 i = 0 ; i < needSigners.length; i++ ){\r... */\n      iszero\n      tag_69\n      jumpi\n        /* \"marriage/evidence.sol\":2821:2828  _signer */\n      dup3\n        /* \"marriage/evidence.sol\":2803:2828  needSigners[i] == _signer */\n      0xffffffffffffffffffffffffffffffffffffffff\n      and\n        /* \"marriage/evidence.sol\":2803:2814  needSigners */\n      0x01\n        /* \"marriage/evidence.sol\":2815:2816  i */\n      dup3\n        /* \"marriage/evidence.sol\":2803:2817  needSigners[i] */\n      dup2\n      sload\n      dup2\n      lt\n      tag_71\n      jumpi\n      tag_72\n      tag_44\n      jump\t// in\n    tag_72:\n    tag_71:\n      swap1\n      0x00\n      mstore\n      keccak256(0x00, 0x20)\n      add\n      0x00\n      swap1\n      sload\n      swap1\n      0x0100\n      exp\n      swap1\n      div\n      0xffffffffffffffffffffffffffffffffffffffff\n      and\n        /* \"marriage/evidence.sol\":2803:2828  needSigners[i] == _signer */\n      0xffffffffffffffffffffffffffffffffffffffff\n      and\n      eq\n        /* \"marriage/evidence.sol\":2800:2876  if(needSigners[i] == _signer ){\r... */\n      iszero\n      tag_74\n      jumpi\n        /* \"marriage/evidence.sol\":2856:2860  true */\n      0x01\n        /* \"marriage/evidence.sol\":2849:2860  return true */\n      swap2\n      pop\n      pop\n      jump(tag_67)\n        /* \"marriage/evidence.sol\":2800:2876  if(needSigners[i] == _signer ){\r... */\n    tag_74:\n        /* \"marriage/evidence.sol\":2739:2742  i++ */\n      dup1\n      dup1\n      tag_75\n      swap1\n      tag_48\n      jump\t// in\n    tag_75:\n      swap2\n      pop\n      pop\n        /* \"marriage/evidence.sol\":2695:2887  for(uint256 i = 0 ; i < needSigners.length; i++ ){\r... */\n      jump(tag_68)\n    tag_69:\n      pop\n        /* \"marriage/evidence.sol\":2944:2949  false */\n      0x00\n        /* \"marriage/evidence.sol\":2937:2949  return false */\n      swap1\n      pop\n        /* \"marriage/evidence.sol\":2622:2958  function _verify(address _signer) internal view returns(bool){\r... */\n    tag_67:\n      swap2\n      swap1\n      pop\n      jump\t// out\n        /* \"marriage/evidence.sol\":3002:3398  function isSigned(address _signer)internal view returns(bool){\r... */\n    tag_31:\n        /* \"marriage/evidence.sol\":3058:3062  bool */\n      0x00\n        /* \"marriage/evidence.sol\":3148:3157  uint256 i */\n      dup1\n        /* \"marriage/evidence.sol\":3160:3161  0 */\n      0x00\n        /* \"marriage/evidence.sol\":3148:3161  uint256 i = 0 */\n      swap1\n      pop\n        /* \"marriage/evidence.sol\":3144:3328  for(uint256 i = 0 ; i < signers.length; i++ ){\r... */\n    tag_77:\n        /* \"marriage/evidence.sol\":3168:3175  signers */\n      0x02\n        /* \"marriage/evidence.sol\":3168:3182  signers.length */\n      dup1\n      sload\n      swap1\n      pop\n        /* \"marriage/evidence.sol\":3164:3165  i */\n      dup2\n        /* \"marriage/evidence.sol\":3164:3182  i < signers.length */\n      lt\n        /* \"marriage/evidence.sol\":3144:3328  for(uint256 i = 0 ; i < signers.length; i++ ){\r... */\n      iszero\n      tag_78\n      jumpi\n        /* \"marriage/evidence.sol\":3262:3269  _signer */\n      dup3\n        /* \"marriage/evidence.sol\":3248:3269  signers[i] == _signer */\n      0xffffffffffffffffffffffffffffffffffffffff\n      and\n        /* \"marriage/evidence.sol\":3248:3255  signers */\n      0x02\n        /* \"marriage/evidence.sol\":3256:3257  i */\n      dup3\n        /* \"marriage/evidence.sol\":3248:3258  signers[i] */\n      dup2\n      sload\n      dup2\n      lt\n      tag_80\n      jumpi\n      tag_81\n      tag_44\n      jump\t// in\n    tag_81:\n    tag_80:\n      swap1\n      0x00\n      mstore\n      keccak256(0x00, 0x20)\n      add\n      0x00\n      swap1\n      sload\n      swap1\n      0x0100\n      exp\n      swap1\n      div\n      0xffffffffffffffffffffffffffffffffffffffff\n      and\n        /* \"marriage/evidence.sol\":3248:3269  signers[i] == _signer */\n      0xffffffffffffffffffffffffffffffffffffffff\n      and\n      eq\n        /* \"marriage/evidence.sol\":3245:3317  if(signers[i] == _signer ){\r... */\n      iszero\n      tag_83\n      jumpi\n        /* \"marriage/evidence.sol\":3297:3301  true */\n      0x01\n        /* \"marriage/evidence.sol\":3290:3301  return true */\n      swap2\n      pop\n      pop\n      jump(tag_76)\n        /* \"marriage/evidence.sol\":3245:3317  if(signers[i] == _signer ){\r... */\n    tag_83:\n        /* \"marriage/evidence.sol\":3184:3187  i++ */\n      dup1\n      dup1\n      tag_84\n      swap1\n      tag_48\n      jump\t// in\n    tag_84:\n      swap2\n      pop\n      pop\n        /* \"marriage/evidence.sol\":3144:3328  for(uint256 i = 0 ; i < signers.length; i++ ){\r... */\n      jump(tag_77)\n    tag_78:\n      pop\n        /* \"marriage/evidence.sol\":3385:3390  false */\n      0x00\n        /* \"marriage/evidence.sol\":3378:3390  return false */\n      swap1\n      pop\n        /* \"marriage/evidence.sol\":3002:3398  function isSigned(address _signer)internal view returns(bool){\r... */\n    tag_76:\n      swap2\n      swap1\n      pop\n      jump\t// out\n        /* \"#utility.yul\":7:146   */\n    tag_86:\n        /* \"#utility.yul\":53:58   */\n      0x00\n        /* \"#utility.yul\":91:97   */\n      dup2\n        /* \"#utility.yul\":78:98   */\n      calldataload\n        /* \"#utility.yul\":69:98   */\n      swap1\n      pop\n        /* \"#utility.yul\":107:140   */\n      tag_88\n        /* \"#utility.yul\":134:139   */\n      dup2\n        /* \"#utility.yul\":107:140   */\n      tag_89\n      jump\t// in\n    tag_88:\n        /* \"#utility.yul\":7:146   */\n      swap3\n      swap2\n      pop\n      pop\n      jump\t// out\n        /* \"#utility.yul\":152:481   */\n    tag_21:\n        /* \"#utility.yul\":211:217   */\n      0x00\n        /* \"#utility.yul\":260:262   */\n      0x20\n        /* \"#utility.yul\":248:257   */\n      dup3\n        /* \"#utility.yul\":239:246   */\n      dup5\n        /* \"#utility.yul\":235:258   */\n      sub\n        /* \"#utility.yul\":231:263   */\n      slt\n        /* \"#utility.yul\":228:347   */\n      iszero\n      tag_91\n      jumpi\n        /* \"#utility.yul\":266:345   */\n      tag_92\n      tag_93\n      jump\t// in\n    tag_92:\n        /* \"#utility.yul\":228:347   */\n    tag_91:\n        /* \"#utility.yul\":386:387   */\n      0x00\n        /* \"#utility.yul\":411:464   */\n      tag_94\n        /* \"#utility.yul\":456:463   */\n      dup5\n        /* \"#utility.yul\":447:453   */\n      dup3\n        /* \"#utility.yul\":436:445   */\n      dup6\n        /* \"#utility.yul\":432:454   */\n      add\n        /* \"#utility.yul\":411:464   */\n      tag_86\n      jump\t// in\n    tag_94:\n        /* \"#utility.yul\":401:464   */\n      swap2\n      pop\n        /* \"#utility.yul\":357:474   */\n      pop\n        /* \"#utility.yul\":152:481   */\n      swap3\n      swap2\n      pop\n      pop\n      jump\t// out\n        /* \"#utility.yul\":487:666   */\n    tag_95:\n        /* \"#utility.yul\":556:566   */\n      0x00\n        /* \"#utility.yul\":577:623   */\n      tag_97\n        /* \"#utility.yul\":619:622   */\n      dup4\n        /* \"#utility.yul\":611:617   */\n      dup4\n        /* \"#utility.yul\":577:623   */\n      tag_98\n      jump\t// in\n    tag_97:\n        /* \"#utility.yul\":655:659   */\n      0x20\n        /* \"#utility.yul\":650:653   */\n      dup4\n        /* \"#utility.yul\":646:660   */\n      add\n        /* \"#utility.yul\":632:660   */\n      swap1\n      pop\n        /* \"#utility.yul\":487:666   */\n      swap3\n      swap2\n      pop\n      pop\n      jump\t// out\n        /* \"#utility.yul\":672:780   */\n    tag_98:\n        /* \"#utility.yul\":749:773   */\n      tag_100\n        /* \"#utility.yul\":767:772   */\n      dup2\n        /* \"#utility.yul\":749:773   */\n      tag_101\n      jump\t// in\n    tag_100:\n        /* \"#utility.yul\":744:747   */\n      dup3\n        /* \"#utility.yul\":737:774   */\n      mstore\n        /* \"#utility.yul\":672:780   */\n      pop\n      pop\n      jump\t// out\n        /* \"#utility.yul\":786:904   */\n    tag_102:\n        /* \"#utility.yul\":873:897   */\n      tag_104\n        /* \"#utility.yul\":891:896   */\n      dup2\n        /* \"#utility.yul\":873:897   */\n      tag_101\n      jump\t// in\n    tag_104:\n        /* \"#utility.yul\":868:871   */\n      dup3\n        /* \"#utility.yul\":861:898   */\n      mstore\n        /* \"#utility.yul\":786:904   */\n      pop\n      pop\n      jump\t// out\n        /* \"#utility.yul\":940:1672   */\n    tag_105:\n        /* \"#utility.yul\":1059:1062   */\n      0x00\n        /* \"#utility.yul\":1088:1142   */\n      tag_107\n        /* \"#utility.yul\":1136:1141   */\n      dup3\n        /* \"#utility.yul\":1088:1142   */\n      tag_108\n      jump\t// in\n    tag_107:\n        /* \"#utility.yul\":1158:1244   */\n      tag_109\n        /* \"#utility.yul\":1237:1243   */\n      dup2\n        /* \"#utility.yul\":1232:1235   */\n      dup6\n        /* \"#utility.yul\":1158:1244   */\n      tag_110\n      jump\t// in\n    tag_109:\n        /* \"#utility.yul\":1151:1244   */\n      swap4\n      pop\n        /* \"#utility.yul\":1268:1324   */\n      tag_111\n        /* \"#utility.yul\":1318:1323   */\n      dup4\n        /* \"#utility.yul\":1268:1324   */\n      tag_112\n      jump\t// in\n    tag_111:\n        /* \"#utility.yul\":1347:1354   */\n      dup1\n        /* \"#utility.yul\":1378:1379   */\n      0x00\n        /* \"#utility.yul\":1363:1647   */\n    tag_113:\n        /* \"#utility.yul\":1388:1394   */\n      dup4\n        /* \"#utility.yul\":1385:1386   */\n      dup2\n        /* \"#utility.yul\":1382:1395   */\n      lt\n        /* \"#utility.yul\":1363:1647   */\n      iszero\n      tag_115\n      jumpi\n        /* \"#utility.yul\":1464:1470   */\n      dup2\n        /* \"#utility.yul\":1458:1471   */\n      mload\n        /* \"#utility.yul\":1491:1554   */\n      tag_116\n        /* \"#utility.yul\":1550:1553   */\n      dup9\n        /* \"#utility.yul\":1535:1548   */\n      dup3\n        /* \"#utility.yul\":1491:1554   */\n      tag_95\n      jump\t// in\n    tag_116:\n        /* \"#utility.yul\":1484:1554   */\n      swap8\n      pop\n        /* \"#utility.yul\":1577:1637   */\n      tag_117\n        /* \"#utility.yul\":1630:1636   */\n      dup4\n        /* \"#utility.yul\":1577:1637   */\n      tag_118\n      jump\t// in\n    tag_117:\n        /* \"#utility.yul\":1567:1637   */\n      swap3\n      pop\n        /* \"#utility.yul\":1423:1647   */\n      pop\n        /* \"#utility.yul\":1410:1411   */\n      0x01\n        /* \"#utility.yul\":1407:1408   */\n      dup2\n        /* \"#utility.yul\":1403:1412   */\n      add\n        /* \"#utility.yul\":1398:1412   */\n      swap1\n      pop\n        /* \"#utility.yul\":1363:1647   */\n      jump(tag_113)\n    tag_115:\n        /* \"#utility.yul\":1367:1381   */\n      pop\n        /* \"#utility.yul\":1663:1666   */\n      dup6\n        /* \"#utility.yul\":1656:1666   */\n      swap4\n      pop\n        /* \"#utility.yul\":1064:1672   */\n      pop\n      pop\n      pop\n        /* \"#utility.yul\":940:1672   */\n      swap3\n      swap2\n      pop\n      pop\n      jump\t// out\n        /* \"#utility.yul\":1678:1787   */\n    tag_119:\n        /* \"#utility.yul\":1759:1780   */\n      tag_121\n        /* \"#utility.yul\":1774:1779   */\n      dup2\n        /* \"#utility.yul\":1759:1780   */\n      tag_122\n      jump\t// in\n    tag_121:\n        /* \"#utility.yul\":1754:1757   */\n      dup3\n        /* \"#utility.yul\":1747:1781   */\n      mstore\n        /* \"#utility.yul\":1678:1787   */\n      pop\n      pop\n      jump\t// out\n        /* \"#utility.yul\":1793:2157   */\n    tag_123:\n        /* \"#utility.yul\":1881:1884   */\n      0x00\n        /* \"#utility.yul\":1909:1948   */\n      tag_125\n        /* \"#utility.yul\":1942:1947   */\n      dup3\n        /* \"#utility.yul\":1909:1948   */\n      tag_126\n      jump\t// in\n    tag_125:\n        /* \"#utility.yul\":1964:2035   */\n      tag_127\n        /* \"#utility.yul\":2028:2034   */\n      dup2\n        /* \"#utility.yul\":2023:2026   */\n      dup6\n        /* \"#utility.yul\":1964:2035   */\n      tag_128\n      jump\t// in\n    tag_127:\n        /* \"#utility.yul\":1957:2035   */\n      swap4\n      pop\n        /* \"#utility.yul\":2044:2096   */\n      tag_129\n        /* \"#utility.yul\":2089:2095   */\n      dup2\n        /* \"#utility.yul\":2084:2087   */\n      dup6\n        /* \"#utility.yul\":2077:2081   */\n      0x20\n        /* \"#utility.yul\":2070:2075   */\n      dup7\n        /* \"#utility.yul\":2066:2082   */\n      add\n        /* \"#utility.yul\":2044:2096   */\n      tag_130\n      jump\t// in\n    tag_129:\n        /* \"#utility.yul\":2121:2150   */\n      tag_131\n        /* \"#utility.yul\":2143:2149   */\n      dup2\n        /* \"#utility.yul\":2121:2150   */\n      tag_132\n      jump\t// in\n    tag_131:\n        /* \"#utility.yul\":2116:2119   */\n      dup5\n        /* \"#utility.yul\":2112:2151   */\n      add\n        /* \"#utility.yul\":2105:2151   */\n      swap2\n      pop\n        /* \"#utility.yul\":1885:2157   */\n      pop\n        /* \"#utility.yul\":1793:2157   */\n      swap3\n      swap2\n      pop\n      pop\n      jump\t// out\n        /* \"#utility.yul\":2187:2989   */\n    tag_133:\n        /* \"#utility.yul\":2272:2275   */\n      0x00\n        /* \"#utility.yul\":2309:2314   */\n      dup2\n        /* \"#utility.yul\":2303:2315   */\n      sload\n        /* \"#utility.yul\":2338:2374   */\n      tag_135\n        /* \"#utility.yul\":2364:2373   */\n      dup2\n        /* \"#utility.yul\":2338:2374   */\n      tag_50\n      jump\t// in\n    tag_135:\n        /* \"#utility.yul\":2390:2461   */\n      tag_136\n        /* \"#utility.yul\":2454:2460   */\n      dup2\n        /* \"#utility.yul\":2449:2452   */\n      dup7\n        /* \"#utility.yul\":2390:2461   */\n      tag_128\n      jump\t// in\n    tag_136:\n        /* \"#utility.yul\":2383:2461   */\n      swap5\n      pop\n        /* \"#utility.yul\":2492:2493   */\n      0x01\n        /* \"#utility.yul\":2481:2490   */\n      dup3\n        /* \"#utility.yul\":2477:2494   */\n      and\n        /* \"#utility.yul\":2508:2509   */\n      0x00\n        /* \"#utility.yul\":2503:2638   */\n      dup2\n      eq\n      tag_138\n      jumpi\n        /* \"#utility.yul\":2652:2653   */\n      0x01\n        /* \"#utility.yul\":2647:2983   */\n      dup2\n      eq\n      tag_139\n      jumpi\n        /* \"#utility.yul\":2470:2983   */\n      jump(tag_137)\n        /* \"#utility.yul\":2503:2638   */\n    tag_138:\n        /* \"#utility.yul\":2587:2591   */\n      0xff\n        /* \"#utility.yul\":2583:2592   */\n      not\n        /* \"#utility.yul\":2572:2581   */\n      dup4\n        /* \"#utility.yul\":2568:2593   */\n      and\n        /* \"#utility.yul\":2563:2566   */\n      dup7\n        /* \"#utility.yul\":2556:2594   */\n      mstore\n        /* \"#utility.yul\":2623:2627   */\n      0x20\n        /* \"#utility.yul\":2618:2621   */\n      dup7\n        /* \"#utility.yul\":2614:2628   */\n      add\n        /* \"#utility.yul\":2607:2628   */\n      swap4\n      pop\n        /* \"#utility.yul\":2503:2638   */\n      jump(tag_137)\n        /* \"#utility.yul\":2647:2983   */\n    tag_139:\n        /* \"#utility.yul\":2714:2752   */\n      tag_140\n        /* \"#utility.yul\":2746:2751   */\n      dup6\n        /* \"#utility.yul\":2714:2752   */\n      tag_141\n      jump\t// in\n    tag_140:\n        /* \"#utility.yul\":2774:2775   */\n      0x00\n        /* \"#utility.yul\":2788:2942   */\n    tag_142:\n        /* \"#utility.yul\":2802:2808   */\n      dup4\n        /* \"#utility.yul\":2799:2800   */\n      dup2\n        /* \"#utility.yul\":2796:2809   */\n      lt\n        /* \"#utility.yul\":2788:2942   */\n      iszero\n      tag_144\n      jumpi\n        /* \"#utility.yul\":2876:2883   */\n      dup2\n        /* \"#utility.yul\":2870:2884   */\n      sload\n        /* \"#utility.yul\":2866:2867   */\n      dup2\n        /* \"#utility.yul\":2861:2864   */\n      dup10\n        /* \"#utility.yul\":2857:2868   */\n      add\n        /* \"#utility.yul\":2850:2885   */\n      mstore\n        /* \"#utility.yul\":2926:2927   */\n      0x01\n        /* \"#utility.yul\":2917:2924   */\n      dup3\n        /* \"#utility.yul\":2913:2928   */\n      add\n        /* \"#utility.yul\":2902:2928   */\n      swap2\n      pop\n        /* \"#utility.yul\":2824:2828   */\n      0x20\n        /* \"#utility.yul\":2821:2822   */\n      dup2\n        /* \"#utility.yul\":2817:2829   */\n      add\n        /* \"#utility.yul\":2812:2829   */\n      swap1\n      pop\n        /* \"#utility.yul\":2788:2942   */\n      jump(tag_142)\n    tag_144:\n        /* \"#utility.yul\":2971:2972   */\n      dup1\n        /* \"#utility.yul\":2966:2969   */\n      dup9\n        /* \"#utility.yul\":2962:2973   */\n      add\n        /* \"#utility.yul\":2955:2973   */\n      swap6\n      pop\n        /* \"#utility.yul\":2654:2983   */\n      pop\n      pop\n        /* \"#utility.yul\":2470:2983   */\n    tag_137:\n      pop\n        /* \"#utility.yul\":2276:2989   */\n      pop\n      pop\n        /* \"#utility.yul\":2187:2989   */\n      swap3\n      swap2\n      pop\n      pop\n      jump\t// out\n        /* \"#utility.yul\":2995:3361   */\n    tag_145:\n        /* \"#utility.yul\":3137:3140   */\n      0x00\n        /* \"#utility.yul\":3158:3225   */\n      tag_147\n        /* \"#utility.yul\":3222:3224   */\n      0x15\n        /* \"#utility.yul\":3217:3220   */\n      dup4\n        /* \"#utility.yul\":3158:3225   */\n      tag_128\n      jump\t// in\n    tag_147:\n        /* \"#utility.yul\":3151:3225   */\n      swap2\n      pop\n        /* \"#utility.yul\":3234:3327   */\n      tag_148\n        /* \"#utility.yul\":3323:3326   */\n      dup3\n        /* \"#utility.yul\":3234:3327   */\n      tag_149\n      jump\t// in\n    tag_148:\n        /* \"#utility.yul\":3352:3354   */\n      0x20\n        /* \"#utility.yul\":3347:3350   */\n      dup3\n        /* \"#utility.yul\":3343:3355   */\n      add\n        /* \"#utility.yul\":3336:3355   */\n      swap1\n      pop\n        /* \"#utility.yul\":2995:3361   */\n      swap2\n      swap1\n      pop\n      jump\t// out\n        /* \"#utility.yul\":3367:3577   */\n    tag_10:\n        /* \"#utility.yul\":3454:3458   */\n      0x00\n        /* \"#utility.yul\":3492:3494   */\n      0x20\n        /* \"#utility.yul\":3481:3490   */\n      dup3\n        /* \"#utility.yul\":3477:3495   */\n      add\n        /* \"#utility.yul\":3469:3495   */\n      swap1\n      pop\n        /* \"#utility.yul\":3505:3570   */\n      tag_151\n        /* \"#utility.yul\":3567:3568   */\n      0x00\n        /* \"#utility.yul\":3556:3565   */\n      dup4\n        /* \"#utility.yul\":3552:3569   */\n      add\n        /* \"#utility.yul\":3543:3549   */\n      dup5\n        /* \"#utility.yul\":3505:3570   */\n      tag_119\n      jump\t// in\n    tag_151:\n        /* \"#utility.yul\":3367:3577   */\n      swap3\n      swap2\n      pop\n      pop\n      jump\t// out\n        /* \"#utility.yul\":3583:3994   */\n    tag_14:\n        /* \"#utility.yul\":3718:3722   */\n      0x00\n        /* \"#utility.yul\":3756:3758   */\n      0x40\n        /* \"#utility.yul\":3745:3754   */\n      dup3\n        /* \"#utility.yul\":3741:3759   */\n      add\n        /* \"#utility.yul\":3733:3759   */\n      swap1\n      pop\n        /* \"#utility.yul\":3769:3834   */\n      tag_153\n        /* \"#utility.yul\":3831:3832   */\n      0x00\n        /* \"#utility.yul\":3820:3829   */\n      dup4\n        /* \"#utility.yul\":3816:3833   */\n      add\n        /* \"#utility.yul\":3807:3813   */\n      dup6\n        /* \"#utility.yul\":3769:3834   */\n      tag_119\n      jump\t// in\n    tag_153:\n        /* \"#utility.yul\":3881:3890   */\n      dup2\n        /* \"#utility.yul\":3875:3879   */\n      dup2\n        /* \"#utility.yul\":3871:3891   */\n      sub\n        /* \"#utility.yul\":3866:3868   */\n      0x20\n        /* \"#utility.yul\":3855:3864   */\n      dup4\n        /* \"#utility.yul\":3851:3869   */\n      add\n        /* \"#utility.yul\":3844:3892   */\n      mstore\n        /* \"#utility.yul\":3909:3987   */\n      tag_154\n        /* \"#utility.yul\":3982:3986   */\n      dup2\n        /* \"#utility.yul\":3973:3979   */\n      dup5\n        /* \"#utility.yul\":3909:3987   */\n      tag_123\n      jump\t// in\n    tag_154:\n        /* \"#utility.yul\":3901:3987   */\n      swap1\n      pop\n        /* \"#utility.yul\":3583:3994   */\n      swap4\n      swap3\n      pop\n      pop\n      pop\n      jump\t// out\n        /* \"#utility.yul\":4000:4835   */\n    tag_18:\n        /* \"#utility.yul\":4269:4273   */\n      0x00\n        /* \"#utility.yul\":4307:4309   */\n      0x60\n        /* \"#utility.yul\":4296:4305   */\n      dup3\n        /* \"#utility.yul\":4292:4310   */\n      add\n        /* \"#utility.yul\":4284:4310   */\n      swap1\n      pop\n        /* \"#utility.yul\":4356:4365   */\n      dup2\n        /* \"#utility.yul\":4350:4354   */\n      dup2\n        /* \"#utility.yul\":4346:4366   */\n      sub\n        /* \"#utility.yul\":4342:4343   */\n      0x00\n        /* \"#utility.yul\":4331:4340   */\n      dup4\n        /* \"#utility.yul\":4327:4344   */\n      add\n        /* \"#utility.yul\":4320:4367   */\n      mstore\n        /* \"#utility.yul\":4384:4462   */\n      tag_156\n        /* \"#utility.yul\":4457:4461   */\n      dup2\n        /* \"#utility.yul\":4448:4454   */\n      dup7\n        /* \"#utility.yul\":4384:4462   */\n      tag_123\n      jump\t// in\n    tag_156:\n        /* \"#utility.yul\":4376:4462   */\n      swap1\n      pop\n        /* \"#utility.yul\":4509:4518   */\n      dup2\n        /* \"#utility.yul\":4503:4507   */\n      dup2\n        /* \"#utility.yul\":4499:4519   */\n      sub\n        /* \"#utility.yul\":4494:4496   */\n      0x20\n        /* \"#utility.yul\":4483:4492   */\n      dup4\n        /* \"#utility.yul\":4479:4497   */\n      add\n        /* \"#utility.yul\":4472:4520   */\n      mstore\n        /* \"#utility.yul\":4537:4645   */\n      tag_157\n        /* \"#utility.yul\":4640:4644   */\n      dup2\n        /* \"#utility.yul\":4631:4637   */\n      dup6\n        /* \"#utility.yul\":4537:4645   */\n      tag_105\n      jump\t// in\n    tag_157:\n        /* \"#utility.yul\":4529:4645   */\n      swap1\n      pop\n        /* \"#utility.yul\":4692:4701   */\n      dup2\n        /* \"#utility.yul\":4686:4690   */\n      dup2\n        /* \"#utility.yul\":4682:4702   */\n      sub\n        /* \"#utility.yul\":4677:4679   */\n      0x40\n        /* \"#utility.yul\":4666:4675   */\n      dup4\n        /* \"#utility.yul\":4662:4680   */\n      add\n        /* \"#utility.yul\":4655:4703   */\n      mstore\n        /* \"#utility.yul\":4720:4828   */\n      tag_158\n        /* \"#utility.yul\":4823:4827   */\n      dup2\n        /* \"#utility.yul\":4814:4820   */\n      dup5\n        /* \"#utility.yul\":4720:4828   */\n      tag_105\n      jump\t// in\n    tag_158:\n        /* \"#utility.yul\":4712:4828   */\n      swap1\n      pop\n        /* \"#utility.yul\":4000:4835   */\n      swap5\n      swap4\n      pop\n      pop\n      pop\n      pop\n      jump\t// out\n        /* \"#utility.yul\":4841:5258   */\n    tag_34:\n        /* \"#utility.yul\":4979:4983   */\n      0x00\n        /* \"#utility.yul\":5017:5019   */\n      0x40\n        /* \"#utility.yul\":5006:5015   */\n      dup3\n        /* \"#utility.yul\":5002:5020   */\n      add\n        /* \"#utility.yul\":4994:5020   */\n      swap1\n      pop\n        /* \"#utility.yul\":5066:5075   */\n      dup2\n        /* \"#utility.yul\":5060:5064   */\n      dup2\n        /* \"#utility.yul\":5056:5076   */\n      sub\n        /* \"#utility.yul\":5052:5053   */\n      0x00\n        /* \"#utility.yul\":5041:5050   */\n      dup4\n        /* \"#utility.yul\":5037:5054   */\n      add\n        /* \"#utility.yul\":5030:5077   */\n      mstore\n        /* \"#utility.yul\":5094:5169   */\n      tag_160\n        /* \"#utility.yul\":5164:5168   */\n      dup2\n        /* \"#utility.yul\":5155:5161   */\n      dup6\n        /* \"#utility.yul\":5094:5169   */\n      tag_133\n      jump\t// in\n    tag_160:\n        /* \"#utility.yul\":5086:5169   */\n      swap1\n      pop\n        /* \"#utility.yul\":5179:5251   */\n      tag_161\n        /* \"#utility.yul\":5247:5249   */\n      0x20\n        /* \"#utility.yul\":5236:5245   */\n      dup4\n        /* \"#utility.yul\":5232:5250   */\n      add\n        /* \"#utility.yul\":5223:5229   */\n      dup5\n        /* \"#utility.yul\":5179:5251   */\n      tag_102\n      jump\t// in\n    tag_161:\n        /* \"#utility.yul\":4841:5258   */\n      swap4\n      swap3\n      pop\n      pop\n      pop\n      jump\t// out\n        /* \"#utility.yul\":5264:5683   */\n    tag_29:\n        /* \"#utility.yul\":5430:5434   */\n      0x00\n        /* \"#utility.yul\":5468:5470   */\n      0x20\n        /* \"#utility.yul\":5457:5466   */\n      dup3\n        /* \"#utility.yul\":5453:5471   */\n      add\n        /* \"#utility.yul\":5445:5471   */\n      swap1\n      pop\n        /* \"#utility.yul\":5517:5526   */\n      dup2\n        /* \"#utility.yul\":5511:5515   */\n      dup2\n        /* \"#utility.yul\":5507:5527   */\n      sub\n        /* \"#utility.yul\":5503:5504   */\n      0x00\n        /* \"#utility.yul\":5492:5501   */\n      dup4\n        /* \"#utility.yul\":5488:5505   */\n      add\n        /* \"#utility.yul\":5481:5528   */\n      mstore\n        /* \"#utility.yul\":5545:5676   */\n      tag_163\n        /* \"#utility.yul\":5671:5675   */\n      dup2\n        /* \"#utility.yul\":5545:5676   */\n      tag_145\n      jump\t// in\n    tag_163:\n        /* \"#utility.yul\":5537:5676   */\n      swap1\n      pop\n        /* \"#utility.yul\":5264:5683   */\n      swap2\n      swap1\n      pop\n      jump\t// out\n        /* \"#utility.yul\":5770:5902   */\n    tag_112:\n        /* \"#utility.yul\":5837:5841   */\n      0x00\n        /* \"#utility.yul\":5860:5863   */\n      dup2\n        /* \"#utility.yul\":5852:5863   */\n      swap1\n      pop\n        /* \"#utility.yul\":5890:5894   */\n      0x20\n        /* \"#utility.yul\":5885:5888   */\n      dup3\n        /* \"#utility.yul\":5881:5895   */\n      add\n        /* \"#utility.yul\":5873:5895   */\n      swap1\n      pop\n        /* \"#utility.yul\":5770:5902   */\n      swap2\n      swap1\n      pop\n      jump\t// out\n        /* \"#utility.yul\":5908:6049   */\n    tag_141:\n        /* \"#utility.yul\":5957:5961   */\n      0x00\n        /* \"#utility.yul\":5980:5983   */\n      dup2\n        /* \"#utility.yul\":5972:5983   */\n      swap1\n      pop\n        /* \"#utility.yul\":6003:6006   */\n      dup2\n        /* \"#utility.yul\":6000:6001   */\n      0x00\n        /* \"#utility.yul\":5993:6007   */\n      mstore\n        /* \"#utility.yul\":6037:6041   */\n      0x20\n        /* \"#utility.yul\":6034:6035   */\n      0x00\n        /* \"#utility.yul\":6024:6042   */\n      keccak256\n        /* \"#utility.yul\":6016:6042   */\n      swap1\n      pop\n        /* \"#utility.yul\":5908:6049   */\n      swap2\n      swap1\n      pop\n      jump\t// out\n        /* \"#utility.yul\":6055:6169   */\n    tag_108:\n        /* \"#utility.yul\":6122:6128   */\n      0x00\n        /* \"#utility.yul\":6156:6161   */\n      dup2\n        /* \"#utility.yul\":6150:6162   */\n      mload\n        /* \"#utility.yul\":6140:6162   */\n      swap1\n      pop\n        /* \"#utility.yul\":6055:6169   */\n      swap2\n      swap1\n      pop\n      jump\t// out\n        /* \"#utility.yul\":6175:6274   */\n    tag_126:\n        /* \"#utility.yul\":6227:6233   */\n      0x00\n        /* \"#utility.yul\":6261:6266   */\n      dup2\n        /* \"#utility.yul\":6255:6267   */\n      mload\n        /* \"#utility.yul\":6245:6267   */\n      swap1\n      pop\n        /* \"#utility.yul\":6175:6274   */\n      swap2\n      swap1\n      pop\n      jump\t// out\n        /* \"#utility.yul\":6280:6393   */\n    tag_118:\n        /* \"#utility.yul\":6350:6354   */\n      0x00\n        /* \"#utility.yul\":6382:6386   */\n      0x20\n        /* \"#utility.yul\":6377:6380   */\n      dup3\n        /* \"#utility.yul\":6373:6387   */\n      add\n        /* \"#utility.yul\":6365:6387   */\n      swap1\n      pop\n        /* \"#utility.yul\":6280:6393   */\n      swap2\n      swap1\n      pop\n      jump\t// out\n        /* \"#utility.yul\":6399:6583   */\n    tag_110:\n        /* \"#utility.yul\":6498:6509   */\n      0x00\n        /* \"#utility.yul\":6532:6538   */\n      dup3\n        /* \"#utility.yul\":6527:6530   */\n      dup3\n        /* \"#utility.yul\":6520:6539   */\n      mstore\n        /* \"#utility.yul\":6572:6576   */\n      0x20\n        /* \"#utility.yul\":6567:6570   */\n      dup3\n        /* \"#utility.yul\":6563:6577   */\n      add\n        /* \"#utility.yul\":6548:6577   */\n      swap1\n      pop\n        /* \"#utility.yul\":6399:6583   */\n      swap3\n      swap2\n      pop\n      pop\n      jump\t// out\n        /* \"#utility.yul\":6589:6758   */\n    tag_128:\n        /* \"#utility.yul\":6673:6684   */\n      0x00\n        /* \"#utility.yul\":6707:6713   */\n      dup3\n        /* \"#utility.yul\":6702:6705   */\n      dup3\n        /* \"#utility.yul\":6695:6714   */\n      mstore\n        /* \"#utility.yul\":6747:6751   */\n      0x20\n        /* \"#utility.yul\":6742:6745   */\n      dup3\n        /* \"#utility.yul\":6738:6752   */\n      add\n        /* \"#utility.yul\":6723:6752   */\n      swap1\n      pop\n        /* \"#utility.yul\":6589:6758   */\n      swap3\n      swap2\n      pop\n      pop\n      jump\t// out\n        /* \"#utility.yul\":6764:6860   */\n    tag_101:\n        /* \"#utility.yul\":6801:6808   */\n      0x00\n        /* \"#utility.yul\":6830:6854   */\n      tag_174\n        /* \"#utility.yul\":6848:6853   */\n      dup3\n        /* \"#utility.yul\":6830:6854   */\n      tag_175\n      jump\t// in\n    tag_174:\n        /* \"#utility.yul\":6819:6854   */\n      swap1\n      pop\n        /* \"#utility.yul\":6764:6860   */\n      swap2\n      swap1\n      pop\n      jump\t// out\n        /* \"#utility.yul\":6866:6956   */\n    tag_122:\n        /* \"#utility.yul\":6900:6907   */\n      0x00\n        /* \"#utility.yul\":6943:6948   */\n      dup2\n        /* \"#utility.yul\":6936:6949   */\n      iszero\n        /* \"#utility.yul\":6929:6950   */\n      iszero\n        /* \"#utility.yul\":6918:6950   */\n      swap1\n      pop\n        /* \"#utility.yul\":6866:6956   */\n      swap2\n      swap1\n      pop\n      jump\t// out\n        /* \"#utility.yul\":6962:7088   */\n    tag_175:\n        /* \"#utility.yul\":6999:7006   */\n      0x00\n        /* \"#utility.yul\":7039:7081   */\n      0xffffffffffffffffffffffffffffffffffffffff\n        /* \"#utility.yul\":7032:7037   */\n      dup3\n        /* \"#utility.yul\":7028:7082   */\n      and\n        /* \"#utility.yul\":7017:7082   */\n      swap1\n      pop\n        /* \"#utility.yul\":6962:7088   */\n      swap2\n      swap1\n      pop\n      jump\t// out\n        /* \"#utility.yul\":7094:7171   */\n    tag_178:\n        /* \"#utility.yul\":7131:7138   */\n      0x00\n        /* \"#utility.yul\":7160:7165   */\n      dup2\n        /* \"#utility.yul\":7149:7165   */\n      swap1\n      pop\n        /* \"#utility.yul\":7094:7171   */\n      swap2\n      swap1\n      pop\n      jump\t// out\n        /* \"#utility.yul\":7177:7484   */\n    tag_130:\n        /* \"#utility.yul\":7245:7246   */\n      0x00\n        /* \"#utility.yul\":7255:7368   */\n    tag_181:\n        /* \"#utility.yul\":7269:7275   */\n      dup4\n        /* \"#utility.yul\":7266:7267   */\n      dup2\n        /* \"#utility.yul\":7263:7276   */\n      lt\n        /* \"#utility.yul\":7255:7368   */\n      iszero\n      tag_183\n      jumpi\n        /* \"#utility.yul\":7354:7355   */\n      dup1\n        /* \"#utility.yul\":7349:7352   */\n      dup3\n        /* \"#utility.yul\":7345:7356   */\n      add\n        /* \"#utility.yul\":7339:7357   */\n      mload\n        /* \"#utility.yul\":7335:7336   */\n      dup2\n        /* \"#utility.yul\":7330:7333   */\n      dup5\n        /* \"#utility.yul\":7326:7337   */\n      add\n        /* \"#utility.yul\":7319:7358   */\n      mstore\n        /* \"#utility.yul\":7291:7293   */\n      0x20\n        /* \"#utility.yul\":7288:7289   */\n      dup2\n        /* \"#utility.yul\":7284:7294   */\n      add\n        /* \"#utility.yul\":7279:7294   */\n      swap1\n      pop\n        /* \"#utility.yul\":7255:7368   */\n      jump(tag_181)\n    tag_183:\n        /* \"#utility.yul\":7386:7392   */\n      dup4\n        /* \"#utility.yul\":7383:7384   */\n      dup2\n        /* \"#utility.yul\":7380:7393   */\n      gt\n        /* \"#utility.yul\":7377:7478   */\n      iszero\n      tag_184\n      jumpi\n        /* \"#utility.yul\":7466:7467   */\n      0x00\n        /* \"#utility.yul\":7457:7463   */\n      dup5\n        /* \"#utility.yul\":7452:7455   */\n      dup5\n        /* \"#utility.yul\":7448:7464   */\n      add\n        /* \"#utility.yul\":7441:7468   */\n      mstore\n        /* \"#utility.yul\":7377:7478   */\n    tag_184:\n        /* \"#utility.yul\":7226:7484   */\n      pop\n        /* \"#utility.yul\":7177:7484   */\n      pop\n      pop\n      pop\n      jump\t// out\n        /* \"#utility.yul\":7490:7810   */\n    tag_50:\n        /* \"#utility.yul\":7534:7540   */\n      0x00\n        /* \"#utility.yul\":7571:7572   */\n      0x02\n        /* \"#utility.yul\":7565:7569   */\n      dup3\n        /* \"#utility.yul\":7561:7573   */\n      div\n        /* \"#utility.yul\":7551:7573   */\n      swap1\n      pop\n        /* \"#utility.yul\":7618:7619   */\n      0x01\n        /* \"#utility.yul\":7612:7616   */\n      dup3\n        /* \"#utility.yul\":7608:7620   */\n      and\n        /* \"#utility.yul\":7639:7657   */\n      dup1\n        /* \"#utility.yul\":7629:7710   */\n      tag_186\n      jumpi\n        /* \"#utility.yul\":7695:7699   */\n      0x7f\n        /* \"#utility.yul\":7687:7693   */\n      dup3\n        /* \"#utility.yul\":7683:7700   */\n      and\n        /* \"#utility.yul\":7673:7700   */\n      swap2\n      pop\n        /* \"#utility.yul\":7629:7710   */\n    tag_186:\n        /* \"#utility.yul\":7757:7759   */\n      0x20\n        /* \"#utility.yul\":7749:7755   */\n      dup3\n        /* \"#utility.yul\":7746:7760   */\n      lt\n        /* \"#utility.yul\":7726:7744   */\n      dup2\n        /* \"#utility.yul\":7723:7761   */\n      eq\n        /* \"#utility.yul\":7720:7804   */\n      iszero\n      tag_187\n      jumpi\n        /* \"#utility.yul\":7776:7794   */\n      tag_188\n      tag_189\n      jump\t// in\n    tag_188:\n        /* \"#utility.yul\":7720:7804   */\n    tag_187:\n        /* \"#utility.yul\":7541:7810   */\n      pop\n        /* \"#utility.yul\":7490:7810   */\n      swap2\n      swap1\n      pop\n      jump\t// out\n        /* \"#utility.yul\":7816:8049   */\n    tag_48:\n        /* \"#utility.yul\":7855:7858   */\n      0x00\n        /* \"#utility.yul\":7878:7902   */\n      tag_191\n        /* \"#utility.yul\":7896:7901   */\n      dup3\n        /* \"#utility.yul\":7878:7902   */\n      tag_178\n      jump\t// in\n    tag_191:\n        /* \"#utility.yul\":7869:7902   */\n      swap2\n      pop\n        /* \"#utility.yul\":7924:7990   */\n      0xffffffffffffffffffffffffffffffffffffffffffffffffffffffffffffffff\n        /* \"#utility.yul\":7917:7922   */\n      dup3\n        /* \"#utility.yul\":7914:7991   */\n      eq\n        /* \"#utility.yul\":7911:8014   */\n      iszero\n      tag_192\n      jumpi\n        /* \"#utility.yul\":7994:8012   */\n      tag_193\n      tag_194\n      jump\t// in\n    tag_193:\n        /* \"#utility.yul\":7911:8014   */\n    tag_192:\n        /* \"#utility.yul\":8041:8042   */\n      0x01\n        /* \"#utility.yul\":8034:8039   */\n      dup3\n        /* \"#utility.yul\":8030:8043   */\n      add\n        /* \"#utility.yul\":8023:8043   */\n      swap1\n      pop\n        /* \"#utility.yul\":7816:8049   */\n      swap2\n      swap1\n      pop\n      jump\t// out\n        /* \"#utility.yul\":8055:8235   */\n    tag_194:\n        /* \"#utility.yul\":8103:8180   */\n      0x4e487b7100000000000000000000000000000000000000000000000000000000\n        /* \"#utility.yul\":8100:8101   */\n      0x00\n        /* \"#utility.yul\":8093:8181   */\n      mstore\n        /* \"#utility.yul\":8200:8204   */\n      0x11\n        /* \"#utility.yul\":8197:8198   */\n      0x04\n        /* \"#utility.yul\":8190:8205   */\n      mstore\n        /* \"#utility.yul\":8224:8228   */\n      0x24\n        /* \"#utility.yul\":8221:8222   */\n      0x00\n        /* \"#utility.yul\":8214:8229   */\n      revert\n        /* \"#utility.yul\":8241:8421   */\n    tag_189:\n        /* \"#utility.yul\":8289:8366   */\n      0x4e487b7100000000000000000000000000000000000000000000000000000000\n        /* \"#utility.yul\":8286:8287   */\n      0x00\n        /* \"#utility.yul\":8279:8367   */\n      mstore\n        /* \"#utility.yul\":8386:8390   */\n      0x22\n        /* \"#utility.yul\":8383:8384   */\n      0x04\n        /* \"#utility.yul\":8376:8391   */\n      mstore\n        /* \"#utility.yul\":8410:8414   */\n      0x24\n        /* \"#utility.yul\":8407:8408   */\n      0x00\n        /* \"#utility.yul\":8400:8415   */\n      revert\n        /* \"#utility.yul\":8427:8607   */\n    tag_44:\n        /* \"#utility.yul\":8475:8552   */\n      0x4e487b7100000000000000000000000000000000000000000000000000000000\n        /* \"#utility.yul\":8472:8473   */\n      0x00\n        /* \"#utility.yul\":8465:8553   */\n      mstore\n        /* \"#utility.yul\":8572:8576   */\n      0x32\n        /* \"#utility.yul\":8569:8570   */\n      0x04\n        /* \"#utility.yul\":8562:8577   */\n      mstore\n        /* \"#utility.yul\":8596:8600   */\n      0x24\n        /* \"#utility.yul\":8593:8594   */\n      0x00\n        /* \"#utility.yul\":8586:8601   */\n      revert\n        /* \"#utility.yul\":8736:8853   */\n    tag_93:\n        /* \"#utility.yul\":8845:8846   */\n      0x00\n        /* \"#utility.yul\":8842:8843   */\n      dup1\n        /* \"#utility.yul\":8835:8847   */\n      revert\n        /* \"#utility.yul\":8859:8961   */\n    tag_132:\n        /* \"#utility.yul\":8900:8906   */\n      0x00\n        /* \"#utility.yul\":8951:8953   */\n      0x1f\n        /* \"#utility.yul\":8947:8954   */\n      not\n        /* \"#utility.yul\":8942:8944   */\n      0x1f\n        /* \"#utility.yul\":8935:8940   */\n      dup4\n        /* \"#utility.yul\":8931:8945   */\n      add\n        /* \"#utility.yul\":8927:8955   */\n      and\n        /* \"#utility.yul\":8917:8955   */\n      swap1\n      pop\n        /* \"#utility.yul\":8859:8961   */\n      swap2\n      swap1\n      pop\n      jump\t// out\n        /* \"#utility.yul\":8967:9138   */\n    tag_149:\n        /* \"#utility.yul\":9107:9130   */\n      0x205f7369676e6572206973206e6f742076616c69640000000000000000000000\n        /* \"#utility.yul\":9103:9104   */\n      0x00\n        /* \"#utility.yul\":9095:9101   */\n      dup3\n        /* \"#utility.yul\":9091:9105   */\n      add\n        /* \"#utility.yul\":9084:9131   */\n      mstore\n        /* \"#utility.yul\":8967:9138   */\n      pop\n      jump\t// out\n        /* \"#utility.yul\":9144:9266   */\n    tag_89:\n        /* \"#utility.yul\":9217:9241   */\n      tag_204\n        /* \"#utility.yul\":9235:9240   */\n      dup2\n        /* \"#utility.yul\":9217:9241   */\n      tag_101\n      jump\t// in\n    tag_204:\n        /* \"#utility.yul\":9210:9215   */\n      dup2\n        /* \"#utility.yul\":9207:9242   */\n      eq\n        /* \"#utility.yul\":9197:9260   */\n      tag_205\n      jumpi\n        /* \"#utility.yul\":9256:9257   */\n      0x00\n        /* \"#utility.yul\":9253:9254   */\n      dup1\n        /* \"#utility.yul\":9246:9258   */\n      revert\n        /* \"#utility.yul\":9197:9260   */\n    tag_205:\n        /* \"#utility.yul\":9144:9266   */\n      pop\n      jump\t// out\n\n    auxdata: 0xa2646970667358221220c1a0dc067c5405a10eb191886ed829cfe8845cf7f9eabb2e6637c0a93a3e987264736f6c63430008070033\n}\n",
				"bytecode": {
					"linkReferences": {},
					"object": "60806040523480156200001157600080fd5b50604051620015c9380380620015c9833981810160405281019062000037919062000533565b8173ffffffffffffffffffffffffffffffffffffffff16600073ffffffffffffffffffffffffffffffffffffffff161415620000aa576040517f08c379a0000000000000000000000000000000000000000000000000000000008152600401620000a190620006f0565b60405180910390fd5b8073ffffffffffffffffffffffffffffffffffffffff16600073ffffffffffffffffffffffffffffffffffffffff1614156200011d576040517f08c379a0000000000000000000000000000000000000000000000000000000008152600401620001149062000756565b60405180910390fd5b3273ffffffffffffffffffffffffffffffffffffffff168273ffffffffffffffffffffffffffffffffffffffff1614156200018f576040517f08c379a0000000000000000000000000000000000000000000000000000000008152600401620001869062000734565b60405180910390fd5b3273ffffffffffffffffffffffffffffffffffffffff168173ffffffffffffffffffffffffffffffffffffffff16141562000201576040517f08c379a0000000000000000000000000000000000000000000000000000000008152600401620001f89062000712565b60405180910390fd5b6001329080600181540180825580915050600190039060005260206000200160009091909190916101000a81548173ffffffffffffffffffffffffffffffffffffffff021916908373ffffffffffffffffffffffffffffffffffffffff1602179055506001829080600181540180825580915050600190039060005260206000200160009091909190916101000a81548173ffffffffffffffffffffffffffffffffffffffff021916908373ffffffffffffffffffffffffffffffffffffffff1602179055506001819080600181540180825580915050600190039060005260206000200160009091909190916101000a81548173ffffffffffffffffffffffffffffffffffffffff021916908373ffffffffffffffffffffffffffffffffffffffff1602179055506002329080600181540180825580915050600190039060005260206000200160009091909190916101000a81548173ffffffffffffffffffffffffffffffffffffffff021916908373ffffffffffffffffffffffffffffffffffffffff1602179055508260009080519060200190620003a5929190620003ee565b507fd7fc3f69dcbe2d33b2006f7a3749b47498aa2e68ca623e8100e2642951ec638c83328484604051620003dd94939291906200069c565b60405180910390a150505062000a0a565b828054620003fc906200085d565b90600052602060002090601f0160209004810192826200042057600085556200046c565b82601f106200043b57805160ff19168380011785556200046c565b828001600101855582156200046c579182015b828111156200046b5782518255916020019190600101906200044e565b5b5090506200047b91906200047f565b5090565b5b808211156200049a57600081600090555060010162000480565b5090565b6000620004b5620004af84620007a1565b62000778565b905082815260208101848484011115620004d457620004d36200092c565b5b620004e184828562000827565b509392505050565b600081519050620004fa81620009f0565b92915050565b600082601f83011262000518576200051762000927565b5b81516200052a8482602086016200049e565b91505092915050565b6000806000606084860312156200054f576200054e62000936565b5b600084015167ffffffffffffffff81111562000570576200056f62000931565b5b6200057e8682870162000500565b93505060206200059186828701620004e9565b9250506040620005a486828701620004e9565b9150509250925092565b620005b981620007f3565b82525050565b6000620005cc82620007d7565b620005d88185620007e2565b9350620005ea81856020860162000827565b620005f5816200093b565b840191505092915050565b60006200060f601783620007e2565b91506200061c826200094c565b602082019050919050565b600062000636601583620007e2565b9150620006438262000975565b602082019050919050565b60006200065d601583620007e2565b91506200066a826200099e565b602082019050919050565b600062000684601783620007e2565b91506200069182620009c7565b602082019050919050565b60006080820190508181036000830152620006b88187620005bf565b9050620006c96020830186620005ae565b620006d86040830185620005ae565b620006e76060830184620005ae565b95945050505050565b600060208201905081810360008301526200070b8162000600565b9050919050565b600060208201905081810360008301526200072d8162000627565b9050919050565b600060208201905081810360008301526200074f816200064e565b9050919050565b60006020820190508181036000830152620007718162000675565b9050919050565b60006200078462000797565b905062000792828262000893565b919050565b6000604051905090565b600067ffffffffffffffff821115620007bf57620007be620008f8565b5b620007ca826200093b565b9050602081019050919050565b600081519050919050565b600082825260208201905092915050565b6000620008008262000807565b9050919050565b600073ffffffffffffffffffffffffffffffffffffffff82169050919050565b60005b83811015620008475780820151818401526020810190506200082a565b8381111562000857576000848401525b50505050565b600060028204905060018216806200087657607f821691505b602082108114156200088d576200088c620008c9565b5b50919050565b6200089e826200093b565b810181811067ffffffffffffffff82111715620008c057620008bf620008f8565b5b80604052505050565b7f4e487b7100000000000000000000000000000000000000000000000000000000600052602260045260246000fd5b7f4e487b7100000000000000000000000000000000000000000000000000000000600052604160045260246000fd5b600080fd5b600080fd5b600080fd5b600080fd5b6000601f19601f8301169050919050565b7f205f6120697320696e76616c6964206164647265737320000000000000000000600082015250565b7f205f622063616e206e6f74207665726966696572200000000000000000000000600082015250565b7f205f612063616e206e6f74207665726966696572200000000000000000000000600082015250565b7f205f6220697320696e76616c6964206164647265737320000000000000000000600082015250565b620009fb81620007f3565b811462000a0757600080fd5b50565b610baf8062000a1a6000396000f3fe608060405234801561001057600080fd5b506004361061004c5760003560e01c80632ca15122146100515780633c68af3e1461006f578063596f21f81461008e57806363a9c3d7146100ae575b600080fd5b6100596100de565b604051610066919061084f565b60405180910390f35b61007761021e565b60405161008592919061086a565b60405180910390f35b61009661036c565b6040516100a59392919061089a565b60405180910390f35b6100c860048036038101906100c391906106a3565b61051e565b6040516100d5919061084f565b60405180910390f35b60006100e932610530565b610128576040517f08c379a000000000000000000000000000000000000000000000000000000000815260040161011f90610916565b60405180910390fd5b610131326105df565b15610179577f57bb3fead2451e6a3a5680e94e3dba9642a2ea6e850811bf18feccc94c5968a96000326040516101689291906108e6565b60405180910390a16001905061021b565b6002329080600181540180825580915050600190039060005260206000200160009091909190916101000a81548173ffffffffffffffffffffffffffffffffffffffff021916908373ffffffffffffffffffffffffffffffffffffffff1602179055507fb05e84f77f10ca9cd0a42f11422685a81fb7997e8c2500733527f8c2ee56ab2960003260405161020e9291906108e6565b60405180910390a1600190505b90565b6000606060005b6001805490508110156102d2576102796001828154811061024957610248610af4565b5b9060005260206000200160009054906101000a900473ffffffffffffffffffffffffffffffffffffffff166105df565b6102bf5760006040518060400160405280600181526020017f20000000000000000000000000000000000000000000000000000000000000008152509250925050610368565b80806102ca90610a4d565b915050610225565b50600160008080546102e390610a1b565b80601f016020809104026020016040519081016040528092919081815260200182805461030f90610a1b565b801561035c5780601f106103315761010080835404028352916020019161035c565b820191906000526020600020905b81548152906001019060200180831161033f57829003601f168201915b50505050509050915091505b9091565b606080606060006001600282805461038390610a1b565b80601f01602080910402602001604051908101604052809291908181526020018280546103af90610a1b565b80156103fc5780601f106103d1576101008083540402835291602001916103fc565b820191906000526020600020905b8154815290600101906020018083116103df57829003601f168201915b505050505092508180548060200260200160405190810160405280929190818152602001828054801561048457602002820191906000526020600020905b8160009054906101000a900473ffffffffffffffffffffffffffffffffffffffff1673ffffffffffffffffffffffffffffffffffffffff168152602001906001019080831161043a575b505050505091508080548060200260200160405190810160405280929190818152602001828054801561050c57602002820191906000526020600020905b8160009054906101000a900473ffffffffffffffffffffffffffffffffffffffff1673ffffffffffffffffffffffffffffffffffffffff16815260200190600101908083116104c2575b50505050509050925092509250909192565b600061052982610530565b9050919050565b600080600090505b6001805490508110156105d4578273ffffffffffffffffffffffffffffffffffffffff16600182815481106105705761056f610af4565b5b9060005260206000200160009054906101000a900473ffffffffffffffffffffffffffffffffffffffff1673ffffffffffffffffffffffffffffffffffffffff1614156105c15760019150506105da565b80806105cc90610a4d565b915050610538565b50600090505b919050565b600080600090505b600280549050811015610683578273ffffffffffffffffffffffffffffffffffffffff166002828154811061061f5761061e610af4565b5b9060005260206000200160009054906101000a900473ffffffffffffffffffffffffffffffffffffffff1673ffffffffffffffffffffffffffffffffffffffff161415610670576001915050610689565b808061067b90610a4d565b9150506105e7565b50600090505b919050565b60008135905061069d81610b62565b92915050565b6000602082840312156106b9576106b8610b23565b5b60006106c78482850161068e565b91505092915050565b60006106dc83836106e8565b60208301905092915050565b6106f1816109a0565b82525050565b610700816109a0565b82525050565b60006107118261095b565b61071b818561097e565b935061072683610936565b8060005b8381101561075757815161073e88826106d0565b975061074983610971565b92505060018101905061072a565b5085935050505092915050565b61076d816109b2565b82525050565b600061077e82610966565b610788818561098f565b93506107988185602086016109e8565b6107a181610b28565b840191505092915050565b600081546107b981610a1b565b6107c3818661098f565b945060018216600081146107de57600181146107f057610823565b60ff1983168652602086019350610823565b6107f985610946565b60005b8381101561081b578154818901526001820191506020810190506107fc565b808801955050505b50505092915050565b600061083960158361098f565b915061084482610b39565b602082019050919050565b60006020820190506108646000830184610764565b92915050565b600060408201905061087f6000830185610764565b81810360208301526108918184610773565b90509392505050565b600060608201905081810360008301526108b48186610773565b905081810360208301526108c88185610706565b905081810360408301526108dc8184610706565b9050949350505050565b6000604082019050818103600083015261090081856107ac565b905061090f60208301846106f7565b9392505050565b6000602082019050818103600083015261092f8161082c565b9050919050565b6000819050602082019050919050565b60008190508160005260206000209050919050565b600081519050919050565b600081519050919050565b6000602082019050919050565b600082825260208201905092915050565b600082825260208201905092915050565b60006109ab826109be565b9050919050565b60008115159050919050565b600073ffffffffffffffffffffffffffffffffffffffff82169050919050565b6000819050919050565b60005b83811015610a065780820151818401526020810190506109eb565b83811115610a15576000848401525b50505050565b60006002820490506001821680610a3357607f821691505b60208210811415610a4757610a46610ac5565b5b50919050565b6000610a58826109de565b91507fffffffffffffffffffffffffffffffffffffffffffffffffffffffffffffffff821415610a8b57610a8a610a96565b5b600182019050919050565b7f4e487b7100000000000000000000000000000000000000000000000000000000600052601160045260246000fd5b7f4e487b7100000000000000000000000000000000000000000000000000000000600052602260045260246000fd5b7f4e487b7100000000000000000000000000000000000000000000000000000000600052603260045260246000fd5b600080fd5b6000601f19601f8301169050919050565b7f205f7369676e6572206973206e6f742076616c69640000000000000000000000600082015250565b610b6b816109a0565b8114610b7657600080fd5b5056fea2646970667358221220c1a0dc067c5405a10eb191886ed829cfe8845cf7f9eabb2e6637c0a93a3e987264736f6c63430008070033",
					"opcodes": "PUSH1 0x80 PUSH1 0x40 MSTORE CALLVALUE DUP1 ISZERO PUSH3 0x11 JUMPI PUSH1 0x0 DUP1 REVERT JUMPDEST POP PUSH1 0x40 MLOAD PUSH3 0x15C9 CODESIZE SUB DUP1 PUSH3 0x15C9 DUP4 CODECOPY DUP2 DUP2 ADD PUSH1 0x40 MSTORE DUP2 ADD SWAP1 PUSH3 0x37 SWAP2 SWAP1 PUSH3 0x533 JUMP JUMPDEST DUP2 PUSH20 0xFFFFFFFFFFFFFFFFFFFFFFFFFFFFFFFFFFFFFFFF AND PUSH1 0x0 PUSH20 0xFFFFFFFFFFFFFFFFFFFFFFFFFFFFFFFFFFFFFFFF AND EQ ISZERO PUSH3 0xAA JUMPI PUSH1 0x40 MLOAD PUSH32 0x8C379A000000000000000000000000000000000000000000000000000000000 DUP2 MSTORE PUSH1 0x4 ADD PUSH3 0xA1 SWAP1 PUSH3 0x6F0 JUMP JUMPDEST PUSH1 0x40 MLOAD DUP1 SWAP2 SUB SWAP1 REVERT JUMPDEST DUP1 PUSH20 0xFFFFFFFFFFFFFFFFFFFFFFFFFFFFFFFFFFFFFFFF AND PUSH1 0x0 PUSH20 0xFFFFFFFFFFFFFFFFFFFFFFFFFFFFFFFFFFFFFFFF AND EQ ISZERO PUSH3 0x11D JUMPI PUSH1 0x40 MLOAD PUSH32 0x8C379A000000000000000000000000000000000000000000000000000000000 DUP2 MSTORE PUSH1 0x4 ADD PUSH3 0x114 SWAP1 PUSH3 0x756 JUMP JUMPDEST PUSH1 0x40 MLOAD DUP1 SWAP2 SUB SWAP1 REVERT JUMPDEST ORIGIN PUSH20 0xFFFFFFFFFFFFFFFFFFFFFFFFFFFFFFFFFFFFFFFF AND DUP3 PUSH20 0xFFFFFFFFFFFFFFFFFFFFFFFFFFFFFFFFFFFFFFFF AND EQ ISZERO PUSH3 0x18F JUMPI PUSH1 0x40 MLOAD PUSH32 0x8C379A000000000000000000000000000000000000000000000000000000000 DUP2 MSTORE PUSH1 0x4 ADD PUSH3 0x186 SWAP1 PUSH3 0x734 JUMP JUMPDEST PUSH1 0x40 MLOAD DUP1 SWAP2 SUB SWAP1 REVERT JUMPDEST ORIGIN PUSH20 0xFFFFFFFFFFFFFFFFFFFFFFFFFFFFFFFFFFFFFFFF AND DUP2 PUSH20 0xFFFFFFFFFFFFFFFFFFFFFFFFFFFFFFFFFFFFFFFF AND EQ ISZERO PUSH3 0x201 JUMPI PUSH1 0x40 MLOAD PUSH32 0x8C379A000000000000000000000000000000000000000000000000000000000 DUP2 MSTORE PUSH1 0x4 ADD PUSH3 0x1F8 SWAP1 PUSH3 0x712 JUMP JUMPDEST PUSH1 0x40 MLOAD DUP1 SWAP2 SUB SWAP1 REVERT JUMPDEST PUSH1 0x1 ORIGIN SWAP1 DUP1 PUSH1 0x1 DUP2 SLOAD ADD DUP1 DUP3 SSTORE DUP1 SWAP2 POP POP PUSH1 0x1 SWAP1 SUB SWAP1 PUSH1 0x0 MSTORE PUSH1 0x20 PUSH1 0x0 KECCAK256 ADD PUSH1 0x0 SWAP1 SWAP2 SWAP1 SWAP2 SWAP1 SWAP2 PUSH2 0x100 EXP DUP2 SLOAD DUP2 PUSH20 0xFFFFFFFFFFFFFFFFFFFFFFFFFFFFFFFFFFFFFFFF MUL NOT AND SWAP1 DUP4 PUSH20 0xFFFFFFFFFFFFFFFFFFFFFFFFFFFFFFFFFFFFFFFF AND MUL OR SWAP1 SSTORE POP PUSH1 0x1 DUP3 SWAP1 DUP1 PUSH1 0x1 DUP2 SLOAD ADD DUP1 DUP3 SSTORE DUP1 SWAP2 POP POP PUSH1 0x1 SWAP1 SUB SWAP1 PUSH1 0x0 MSTORE PUSH1 0x20 PUSH1 0x0 KECCAK256 ADD PUSH1 0x0 SWAP1 SWAP2 SWAP1 SWAP2 SWAP1 SWAP2 PUSH2 0x100 EXP DUP2 SLOAD DUP2 PUSH20 0xFFFFFFFFFFFFFFFFFFFFFFFFFFFFFFFFFFFFFFFF MUL NOT AND SWAP1 DUP4 PUSH20 0xFFFFFFFFFFFFFFFFFFFFFFFFFFFFFFFFFFFFFFFF AND MUL OR SWAP1 SSTORE POP PUSH1 0x1 DUP2 SWAP1 DUP1 PUSH1 0x1 DUP2 SLOAD ADD DUP1 DUP3 SSTORE DUP1 SWAP2 POP POP PUSH1 0x1 SWAP1 SUB SWAP1 PUSH1 0x0 MSTORE PUSH1 0x20 PUSH1 0x0 KECCAK256 ADD PUSH1 0x0 SWAP1 SWAP2 SWAP1 SWAP2 SWAP1 SWAP2 PUSH2 0x100 EXP DUP2 SLOAD DUP2 PUSH20 0xFFFFFFFFFFFFFFFFFFFFFFFFFFFFFFFFFFFFFFFF MUL NOT AND SWAP1 DUP4 PUSH20 0xFFFFFFFFFFFFFFFFFFFFFFFFFFFFFFFFFFFFFFFF AND MUL OR SWAP1 SSTORE POP PUSH1 0x2 ORIGIN SWAP1 DUP1 PUSH1 0x1 DUP2 SLOAD ADD DUP1 DUP3 SSTORE DUP1 SWAP2 POP POP PUSH1 0x1 SWAP1 SUB SWAP1 PUSH1 0x0 MSTORE PUSH1 0x20 PUSH1 0x0 KECCAK256 ADD PUSH1 0x0 SWAP1 SWAP2 SWAP1 SWAP2 SWAP1 SWAP2 PUSH2 0x100 EXP DUP2 SLOAD DUP2 PUSH20 0xFFFFFFFFFFFFFFFFFFFFFFFFFFFFFFFFFFFFFFFF MUL NOT AND SWAP1 DUP4 PUSH20 0xFFFFFFFFFFFFFFFFFFFFFFFFFFFFFFFFFFFFFFFF AND MUL OR SWAP1 SSTORE POP DUP3 PUSH1 0x0 SWAP1 DUP1 MLOAD SWAP1 PUSH1 0x20 ADD SWAP1 PUSH3 0x3A5 SWAP3 SWAP2 SWAP1 PUSH3 0x3EE JUMP JUMPDEST POP PUSH32 0xD7FC3F69DCBE2D33B2006F7A3749B47498AA2E68CA623E8100E2642951EC638C DUP4 ORIGIN DUP5 DUP5 PUSH1 0x40 MLOAD PUSH3 0x3DD SWAP5 SWAP4 SWAP3 SWAP2 SWAP1 PUSH3 0x69C JUMP JUMPDEST PUSH1 0x40 MLOAD DUP1 SWAP2 SUB SWAP1 LOG1 POP POP POP PUSH3 0xA0A JUMP JUMPDEST DUP3 DUP1 SLOAD PUSH3 0x3FC SWAP1 PUSH3 0x85D JUMP JUMPDEST SWAP1 PUSH1 0x0 MSTORE PUSH1 0x20 PUSH1 0x0 KECCAK256 SWAP1 PUSH1 0x1F ADD PUSH1 0x20 SWAP1 DIV DUP2 ADD SWAP3 DUP3 PUSH3 0x420 JUMPI PUSH1 0x0 DUP6 SSTORE PUSH3 0x46C JUMP JUMPDEST DUP3 PUSH1 0x1F LT PUSH3 0x43B JUMPI DUP1 MLOAD PUSH1 0xFF NOT AND DUP4 DUP1 ADD OR DUP6 SSTORE PUSH3 0x46C JUMP JUMPDEST DUP3 DUP1 ADD PUSH1 0x1 ADD DUP6 SSTORE DUP3 ISZERO PUSH3 0x46C JUMPI SWAP2 DUP3 ADD JUMPDEST DUP3 DUP2 GT ISZERO PUSH3 0x46B JUMPI DUP3 MLOAD DUP3 SSTORE SWAP2 PUSH1 0x20 ADD SWAP2 SWAP1 PUSH1 0x1 ADD SWAP1 PUSH3 0x44E JUMP JUMPDEST JUMPDEST POP SWAP1 POP PUSH3 0x47B SWAP2 SWAP1 PUSH3 0x47F JUMP JUMPDEST POP SWAP1 JUMP JUMPDEST JUMPDEST DUP1 DUP3 GT ISZERO PUSH3 0x49A JUMPI PUSH1 0x0 DUP2 PUSH1 0x0 SWAP1 SSTORE POP PUSH1 0x1 ADD PUSH3 0x480 JUMP JUMPDEST POP SWAP1 JUMP JUMPDEST PUSH1 0x0 PUSH3 0x4B5 PUSH3 0x4AF DUP5 PUSH3 0x7A1 JUMP JUMPDEST PUSH3 0x778 JUMP JUMPDEST SWAP1 POP DUP3 DUP2 MSTORE PUSH1 0x20 DUP2 ADD DUP5 DUP5 DUP5 ADD GT ISZERO PUSH3 0x4D4 JUMPI PUSH3 0x4D3 PUSH3 0x92C JUMP JUMPDEST JUMPDEST PUSH3 0x4E1 DUP5 DUP3 DUP6 PUSH3 0x827 JUMP JUMPDEST POP SWAP4 SWAP3 POP POP POP JUMP JUMPDEST PUSH1 0x0 DUP2 MLOAD SWAP1 POP PUSH3 0x4FA DUP2 PUSH3 0x9F0 JUMP JUMPDEST SWAP3 SWAP2 POP POP JUMP JUMPDEST PUSH1 0x0 DUP3 PUSH1 0x1F DUP4 ADD SLT PUSH3 0x518 JUMPI PUSH3 0x517 PUSH3 0x927 JUMP JUMPDEST JUMPDEST DUP2 MLOAD PUSH3 0x52A DUP5 DUP3 PUSH1 0x20 DUP7 ADD PUSH3 0x49E JUMP JUMPDEST SWAP2 POP POP SWAP3 SWAP2 POP POP JUMP JUMPDEST PUSH1 0x0 DUP1 PUSH1 0x0 PUSH1 0x60 DUP5 DUP7 SUB SLT ISZERO PUSH3 0x54F JUMPI PUSH3 0x54E PUSH3 0x936 JUMP JUMPDEST JUMPDEST PUSH1 0x0 DUP5 ADD MLOAD PUSH8 0xFFFFFFFFFFFFFFFF DUP2 GT ISZERO PUSH3 0x570 JUMPI PUSH3 0x56F PUSH3 0x931 JUMP JUMPDEST JUMPDEST PUSH3 0x57E DUP7 DUP3 DUP8 ADD PUSH3 0x500 JUMP JUMPDEST SWAP4 POP POP PUSH1 0x20 PUSH3 0x591 DUP7 DUP3 DUP8 ADD PUSH3 0x4E9 JUMP JUMPDEST SWAP3 POP POP PUSH1 0x40 PUSH3 0x5A4 DUP7 DUP3 DUP8 ADD PUSH3 0x4E9 JUMP JUMPDEST SWAP2 POP POP SWAP3 POP SWAP3 POP SWAP3 JUMP JUMPDEST PUSH3 0x5B9 DUP2 PUSH3 0x7F3 JUMP JUMPDEST DUP3 MSTORE POP POP JUMP JUMPDEST PUSH1 0x0 PUSH3 0x5CC DUP3 PUSH3 0x7D7 JUMP JUMPDEST PUSH3 0x5D8 DUP2 DUP6 PUSH3 0x7E2 JUMP JUMPDEST SWAP4 POP PUSH3 0x5EA DUP2 DUP6 PUSH1 0x20 DUP7 ADD PUSH3 0x827 JUMP JUMPDEST PUSH3 0x5F5 DUP2 PUSH3 0x93B JUMP JUMPDEST DUP5 ADD SWAP2 POP POP SWAP3 SWAP2 POP POP JUMP JUMPDEST PUSH1 0x0 PUSH3 0x60F PUSH1 0x17 DUP4 PUSH3 0x7E2 JUMP JUMPDEST SWAP2 POP PUSH3 0x61C DUP3 PUSH3 0x94C JUMP JUMPDEST PUSH1 0x20 DUP3 ADD SWAP1 POP SWAP2 SWAP1 POP JUMP JUMPDEST PUSH1 0x0 PUSH3 0x636 PUSH1 0x15 DUP4 PUSH3 0x7E2 JUMP JUMPDEST SWAP2 POP PUSH3 0x643 DUP3 PUSH3 0x975 JUMP JUMPDEST PUSH1 0x20 DUP3 ADD SWAP1 POP SWAP2 SWAP1 POP JUMP JUMPDEST PUSH1 0x0 PUSH3 0x65D PUSH1 0x15 DUP4 PUSH3 0x7E2 JUMP JUMPDEST SWAP2 POP PUSH3 0x66A DUP3 PUSH3 0x99E JUMP JUMPDEST PUSH1 0x20 DUP3 ADD SWAP1 POP SWAP2 SWAP1 POP JUMP JUMPDEST PUSH1 0x0 PUSH3 0x684 PUSH1 0x17 DUP4 PUSH3 0x7E2 JUMP JUMPDEST SWAP2 POP PUSH3 0x691 DUP3 PUSH3 0x9C7 JUMP JUMPDEST PUSH1 0x20 DUP3 ADD SWAP1 POP SWAP2 SWAP1 POP JUMP JUMPDEST PUSH1 0x0 PUSH1 0x80 DUP3 ADD SWAP1 POP DUP2 DUP2 SUB PUSH1 0x0 DUP4 ADD MSTORE PUSH3 0x6B8 DUP2 DUP8 PUSH3 0x5BF JUMP JUMPDEST SWAP1 POP PUSH3 0x6C9 PUSH1 0x20 DUP4 ADD DUP7 PUSH3 0x5AE JUMP JUMPDEST PUSH3 0x6D8 PUSH1 0x40 DUP4 ADD DUP6 PUSH3 0x5AE JUMP JUMPDEST PUSH3 0x6E7 PUSH1 0x60 DUP4 ADD DUP5 PUSH3 0x5AE JUMP JUMPDEST SWAP6 SWAP5 POP POP POP POP POP JUMP JUMPDEST PUSH1 0x0 PUSH1 0x20 DUP3 ADD SWAP1 POP DUP2 DUP2 SUB PUSH1 0x0 DUP4 ADD MSTORE PUSH3 0x70B DUP2 PUSH3 0x600 JUMP JUMPDEST SWAP1 POP SWAP2 SWAP1 POP JUMP JUMPDEST PUSH1 0x0 PUSH1 0x20 DUP3 ADD SWAP1 POP DUP2 DUP2 SUB PUSH1 0x0 DUP4 ADD MSTORE PUSH3 0x72D DUP2 PUSH3 0x627 JUMP JUMPDEST SWAP1 POP SWAP2 SWAP1 POP JUMP JUMPDEST PUSH1 0x0 PUSH1 0x20 DUP3 ADD SWAP1 POP DUP2 DUP2 SUB PUSH1 0x0 DUP4 ADD MSTORE PUSH3 0x74F DUP2 PUSH3 0x64E JUMP JUMPDEST SWAP1 POP SWAP2 SWAP1 POP JUMP JUMPDEST PUSH1 0x0 PUSH1 0x20 DUP3 ADD SWAP1 POP DUP2 DUP2 SUB PUSH1 0x0 DUP4 ADD MSTORE PUSH3 0x771 DUP2 PUSH3 0x675 JUMP JUMPDEST SWAP1 POP SWAP2 SWAP1 POP JUMP JUMPDEST PUSH1 0x0 PUSH3 0x784 PUSH3 0x797 JUMP JUMPDEST SWAP1 POP PUSH3 0x792 DUP3 DUP3 PUSH3 0x893 JUMP JUMPDEST SWAP2 SWAP1 POP JUMP JUMPDEST PUSH1 0x0 PUSH1 0x40 MLOAD SWAP1 POP SWAP1 JUMP JUMPDEST PUSH1 0x0 PUSH8 0xFFFFFFFFFFFFFFFF DUP3 GT ISZERO PUSH3 0x7BF JUMPI PUSH3 0x7BE PUSH3 0x8F8 JUMP JUMPDEST JUMPDEST PUSH3 0x7CA DUP3 PUSH3 0x93B JUMP JUMPDEST SWAP1 POP PUSH1 0x20 DUP2 ADD SWAP1 POP SWAP2 SWAP1 POP JUMP JUMPDEST PUSH1 0x0 DUP2 MLOAD SWAP1 POP SWAP2 SWAP1 POP JUMP JUMPDEST PUSH1 0x0 DUP3 DUP3 MSTORE PUSH1 0x20 DUP3 ADD SWAP1 POP SWAP3 SWAP2 POP POP JUMP JUMPDEST PUSH1 0x0 PUSH3 0x800 DUP3 PUSH3 0x807 JUMP JUMPDEST SWAP1 POP SWAP2 SWAP1 POP JUMP JUMPDEST PUSH1 0x0 PUSH20 0xFFFFFFFFFFFFFFFFFFFFFFFFFFFFFFFFFFFFFFFF DUP3 AND SWAP1 POP SWAP2 SWAP1 POP JUMP JUMPDEST PUSH1 0x0 JUMPDEST DUP4 DUP2 LT ISZERO PUSH3 0x847 JUMPI DUP1 DUP3 ADD MLOAD DUP2 DUP5 ADD MSTORE PUSH1 0x20 DUP2 ADD SWAP1 POP PUSH3 0x82A JUMP JUMPDEST DUP4 DUP2 GT ISZERO PUSH3 0x857 JUMPI PUSH1 0x0 DUP5 DUP5 ADD MSTORE JUMPDEST POP POP POP POP JUMP JUMPDEST PUSH1 0x0 PUSH1 0x2 DUP3 DIV SWAP1 POP PUSH1 0x1 DUP3 AND DUP1 PUSH3 0x876 JUMPI PUSH1 0x7F DUP3 AND SWAP2 POP JUMPDEST PUSH1 0x20 DUP3 LT DUP2 EQ ISZERO PUSH3 0x88D JUMPI PUSH3 0x88C PUSH3 0x8C9 JUMP JUMPDEST JUMPDEST POP SWAP2 SWAP1 POP JUMP JUMPDEST PUSH3 0x89E DUP3 PUSH3 0x93B JUMP JUMPDEST DUP2 ADD DUP2 DUP2 LT PUSH8 0xFFFFFFFFFFFFFFFF DUP3 GT OR ISZERO PUSH3 0x8C0 JUMPI PUSH3 0x8BF PUSH3 0x8F8 JUMP JUMPDEST JUMPDEST DUP1 PUSH1 0x40 MSTORE POP POP POP JUMP JUMPDEST PUSH32 0x4E487B7100000000000000000000000000000000000000000000000000000000 PUSH1 0x0 MSTORE PUSH1 0x22 PUSH1 0x4 MSTORE PUSH1 0x24 PUSH1 0x0 REVERT JUMPDEST PUSH32 0x4E487B7100000000000000000000000000000000000000000000000000000000 PUSH1 0x0 MSTORE PUSH1 0x41 PUSH1 0x4 MSTORE PUSH1 0x24 PUSH1 0x0 REVERT JUMPDEST PUSH1 0x0 DUP1 REVERT JUMPDEST PUSH1 0x0 DUP1 REVERT JUMPDEST PUSH1 0x0 DUP1 REVERT JUMPDEST PUSH1 0x0 DUP1 REVERT JUMPDEST PUSH1 0x0 PUSH1 0x1F NOT PUSH1 0x1F DUP4 ADD AND SWAP1 POP SWAP2 SWAP1 POP JUMP JUMPDEST PUSH32 0x205F6120697320696E76616C6964206164647265737320000000000000000000 PUSH1 0x0 DUP3 ADD MSTORE POP JUMP JUMPDEST PUSH32 0x205F622063616E206E6F74207665726966696572200000000000000000000000 PUSH1 0x0 DUP3 ADD MSTORE POP JUMP JUMPDEST PUSH32 0x205F612063616E206E6F74207665726966696572200000000000000000000000 PUSH1 0x0 DUP3 ADD MSTORE POP JUMP JUMPDEST PUSH32 0x205F6220697320696E76616C6964206164647265737320000000000000000000 PUSH1 0x0 DUP3 ADD MSTORE POP JUMP JUMPDEST PUSH3 0x9FB DUP2 PUSH3 0x7F3 JUMP JUMPDEST DUP2 EQ PUSH3 0xA07 JUMPI PUSH1 0x0 DUP1 REVERT JUMPDEST POP JUMP JUMPDEST PUSH2 0xBAF DUP1 PUSH3 0xA1A PUSH1 0x0 CODECOPY PUSH1 0x0 RETURN INVALID PUSH1 0x80 PUSH1 0x40 MSTORE CALLVALUE DUP1 ISZERO PUSH2 0x10 JUMPI PUSH1 0x0 DUP1 REVERT JUMPDEST POP PUSH1 0x4 CALLDATASIZE LT PUSH2 0x4C JUMPI PUSH1 0x0 CALLDATALOAD PUSH1 0xE0 SHR DUP1 PUSH4 0x2CA15122 EQ PUSH2 0x51 JUMPI DUP1 PUSH4 0x3C68AF3E EQ PUSH2 0x6F JUMPI DUP1 PUSH4 0x596F21F8 EQ PUSH2 0x8E JUMPI DUP1 PUSH4 0x63A9C3D7 EQ PUSH2 0xAE JUMPI JUMPDEST PUSH1 0x0 DUP1 REVERT JUMPDEST PUSH2 0x59 PUSH2 0xDE JUMP JUMPDEST PUSH1 0x40 MLOAD PUSH2 0x66 SWAP2 SWAP1 PUSH2 0x84F JUMP JUMPDEST PUSH1 0x40 MLOAD DUP1 SWAP2 SUB SWAP1 RETURN JUMPDEST PUSH2 0x77 PUSH2 0x21E JUMP JUMPDEST PUSH1 0x40 MLOAD PUSH2 0x85 SWAP3 SWAP2 SWAP1 PUSH2 0x86A JUMP JUMPDEST PUSH1 0x40 MLOAD DUP1 SWAP2 SUB SWAP1 RETURN JUMPDEST PUSH2 0x96 PUSH2 0x36C JUMP JUMPDEST PUSH1 0x40 MLOAD PUSH2 0xA5 SWAP4 SWAP3 SWAP2 SWAP1 PUSH2 0x89A JUMP JUMPDEST PUSH1 0x40 MLOAD DUP1 SWAP2 SUB SWAP1 RETURN JUMPDEST PUSH2 0xC8 PUSH1 0x4 DUP1 CALLDATASIZE SUB DUP2 ADD SWAP1 PUSH2 0xC3 SWAP2 SWAP1 PUSH2 0x6A3 JUMP JUMPDEST PUSH2 0x51E JUMP JUMPDEST PUSH1 0x40 MLOAD PUSH2 0xD5 SWAP2 SWAP1 PUSH2 0x84F JUMP JUMPDEST PUSH1 0x40 MLOAD DUP1 SWAP2 SUB SWAP1 RETURN JUMPDEST PUSH1 0x0 PUSH2 0xE9 ORIGIN PUSH2 0x530 JUMP JUMPDEST PUSH2 0x128 JUMPI PUSH1 0x40 MLOAD PUSH32 0x8C379A000000000000000000000000000000000000000000000000000000000 DUP2 MSTORE PUSH1 0x4 ADD PUSH2 0x11F SWAP1 PUSH2 0x916 JUMP JUMPDEST PUSH1 0x40 MLOAD DUP1 SWAP2 SUB SWAP1 REVERT JUMPDEST PUSH2 0x131 ORIGIN PUSH2 0x5DF JUMP JUMPDEST ISZERO PUSH2 0x179 JUMPI PUSH32 0x57BB3FEAD2451E6A3A5680E94E3DBA9642A2EA6E850811BF18FECCC94C5968A9 PUSH1 0x0 ORIGIN PUSH1 0x40 MLOAD PUSH2 0x168 SWAP3 SWAP2 SWAP1 PUSH2 0x8E6 JUMP JUMPDEST PUSH1 0x40 MLOAD DUP1 SWAP2 SUB SWAP1 LOG1 PUSH1 0x1 SWAP1 POP PUSH2 0x21B JUMP JUMPDEST PUSH1 0x2 ORIGIN SWAP1 DUP1 PUSH1 0x1 DUP2 SLOAD ADD DUP1 DUP3 SSTORE DUP1 SWAP2 POP POP PUSH1 0x1 SWAP1 SUB SWAP1 PUSH1 0x0 MSTORE PUSH1 0x20 PUSH1 0x0 KECCAK256 ADD PUSH1 0x0 SWAP1 SWAP2 SWAP1 SWAP2 SWAP1 SWAP2 PUSH2 0x100 EXP DUP2 SLOAD DUP2 PUSH20 0xFFFFFFFFFFFFFFFFFFFFFFFFFFFFFFFFFFFFFFFF MUL NOT AND SWAP1 DUP4 PUSH20 0xFFFFFFFFFFFFFFFFFFFFFFFFFFFFFFFFFFFFFFFF AND MUL OR SWAP1 SSTORE POP PUSH32 0xB05E84F77F10CA9CD0A42F11422685A81FB7997E8C2500733527F8C2EE56AB29 PUSH1 0x0 ORIGIN PUSH1 0x40 MLOAD PUSH2 0x20E SWAP3 SWAP2 SWAP1 PUSH2 0x8E6 JUMP JUMPDEST PUSH1 0x40 MLOAD DUP1 SWAP2 SUB SWAP1 LOG1 PUSH1 0x1 SWAP1 POP JUMPDEST SWAP1 JUMP JUMPDEST PUSH1 0x0 PUSH1 0x60 PUSH1 0x0 JUMPDEST PUSH1 0x1 DUP1 SLOAD SWAP1 POP DUP2 LT ISZERO PUSH2 0x2D2 JUMPI PUSH2 0x279 PUSH1 0x1 DUP3 DUP2 SLOAD DUP2 LT PUSH2 0x249 JUMPI PUSH2 0x248 PUSH2 0xAF4 JUMP JUMPDEST JUMPDEST SWAP1 PUSH1 0x0 MSTORE PUSH1 0x20 PUSH1 0x0 KECCAK256 ADD PUSH1 0x0 SWAP1 SLOAD SWAP1 PUSH2 0x100 EXP SWAP1 DIV PUSH20 0xFFFFFFFFFFFFFFFFFFFFFFFFFFFFFFFFFFFFFFFF AND PUSH2 0x5DF JUMP JUMPDEST PUSH2 0x2BF JUMPI PUSH1 0x0 PUSH1 0x40 MLOAD DUP1 PUSH1 0x40 ADD PUSH1 0x40 MSTORE DUP1 PUSH1 0x1 DUP2 MSTORE PUSH1 0x20 ADD PUSH32 0x2000000000000000000000000000000000000000000000000000000000000000 DUP2 MSTORE POP SWAP3 POP SWAP3 POP POP PUSH2 0x368 JUMP JUMPDEST DUP1 DUP1 PUSH2 0x2CA SWAP1 PUSH2 0xA4D JUMP JUMPDEST SWAP2 POP POP PUSH2 0x225 JUMP JUMPDEST POP PUSH1 0x1 PUSH1 0x0 DUP1 DUP1 SLOAD PUSH2 0x2E3 SWAP1 PUSH2 0xA1B JUMP JUMPDEST DUP1 PUSH1 0x1F ADD PUSH1 0x20 DUP1 SWAP2 DIV MUL PUSH1 0x20 ADD PUSH1 0x40 MLOAD SWAP1 DUP2 ADD PUSH1 0x40 MSTORE DUP1 SWAP3 SWAP2 SWAP1 DUP2 DUP2 MSTORE PUSH1 0x20 ADD DUP3 DUP1 SLOAD PUSH2 0x30F SWAP1 PUSH2 0xA1B JUMP JUMPDEST DUP1 ISZERO PUSH2 0x35C JUMPI DUP1 PUSH1 0x1F LT PUSH2 0x331 JUMPI PUSH2 0x100 DUP1 DUP4 SLOAD DIV MUL DUP4 MSTORE SWAP2 PUSH1 0x20 ADD SWAP2 PUSH2 0x35C JUMP JUMPDEST DUP3 ADD SWAP2 SWAP1 PUSH1 0x0 MSTORE PUSH1 0x20 PUSH1 0x0 KECCAK256 SWAP1 JUMPDEST DUP2 SLOAD DUP2 MSTORE SWAP1 PUSH1 0x1 ADD SWAP1 PUSH1 0x20 ADD DUP1 DUP4 GT PUSH2 0x33F JUMPI DUP3 SWAP1 SUB PUSH1 0x1F AND DUP3 ADD SWAP2 JUMPDEST POP POP POP POP POP SWAP1 POP SWAP2 POP SWAP2 POP JUMPDEST SWAP1 SWAP2 JUMP JUMPDEST PUSH1 0x60 DUP1 PUSH1 0x60 PUSH1 0x0 PUSH1 0x1 PUSH1 0x2 DUP3 DUP1 SLOAD PUSH2 0x383 SWAP1 PUSH2 0xA1B JUMP JUMPDEST DUP1 PUSH1 0x1F ADD PUSH1 0x20 DUP1 SWAP2 DIV MUL PUSH1 0x20 ADD PUSH1 0x40 MLOAD SWAP1 DUP2 ADD PUSH1 0x40 MSTORE DUP1 SWAP3 SWAP2 SWAP1 DUP2 DUP2 MSTORE PUSH1 0x20 ADD DUP3 DUP1 SLOAD PUSH2 0x3AF SWAP1 PUSH2 0xA1B JUMP JUMPDEST DUP1 ISZERO PUSH2 0x3FC JUMPI DUP1 PUSH1 0x1F LT PUSH2 0x3D1 JUMPI PUSH2 0x100 DUP1 DUP4 SLOAD DIV MUL DUP4 MSTORE SWAP2 PUSH1 0x20 ADD SWAP2 PUSH2 0x3FC JUMP JUMPDEST DUP3 ADD SWAP2 SWAP1 PUSH1 0x0 MSTORE PUSH1 0x20 PUSH1 0x0 KECCAK256 SWAP1 JUMPDEST DUP2 SLOAD DUP2 MSTORE SWAP1 PUSH1 0x1 ADD SWAP1 PUSH1 0x20 ADD DUP1 DUP4 GT PUSH2 0x3DF JUMPI DUP3 SWAP1 SUB PUSH1 0x1F AND DUP3 ADD SWAP2 JUMPDEST POP POP POP POP POP SWAP3 POP DUP2 DUP1 SLOAD DUP1 PUSH1 0x20 MUL PUSH1 0x20 ADD PUSH1 0x40 MLOAD SWAP1 DUP2 ADD PUSH1 0x40 MSTORE DUP1 SWAP3 SWAP2 SWAP1 DUP2 DUP2 MSTORE PUSH1 0x20 ADD DUP3 DUP1 SLOAD DUP1 ISZERO PUSH2 0x484 JUMPI PUSH1 0x20 MUL DUP3 ADD SWAP2 SWAP1 PUSH1 0x0 MSTORE PUSH1 0x20 PUSH1 0x0 KECCAK256 SWAP1 JUMPDEST DUP2 PUSH1 0x0 SWAP1 SLOAD SWAP1 PUSH2 0x100 EXP SWAP1 DIV PUSH20 0xFFFFFFFFFFFFFFFFFFFFFFFFFFFFFFFFFFFFFFFF AND PUSH20 0xFFFFFFFFFFFFFFFFFFFFFFFFFFFFFFFFFFFFFFFF AND DUP2 MSTORE PUSH1 0x20 ADD SWAP1 PUSH1 0x1 ADD SWAP1 DUP1 DUP4 GT PUSH2 0x43A JUMPI JUMPDEST POP POP POP POP POP SWAP2 POP DUP1 DUP1 SLOAD DUP1 PUSH1 0x20 MUL PUSH1 0x20 ADD PUSH1 0x40 MLOAD SWAP1 DUP2 ADD PUSH1 0x40 MSTORE DUP1 SWAP3 SWAP2 SWAP1 DUP2 DUP2 MSTORE PUSH1 0x20 ADD DUP3 DUP1 SLOAD DUP1 ISZERO PUSH2 0x50C JUMPI PUSH1 0x20 MUL DUP3 ADD SWAP2 SWAP1 PUSH1 0x0 MSTORE PUSH1 0x20 PUSH1 0x0 KECCAK256 SWAP1 JUMPDEST DUP2 PUSH1 0x0 SWAP1 SLOAD SWAP1 PUSH2 0x100 EXP SWAP1 DIV PUSH20 0xFFFFFFFFFFFFFFFFFFFFFFFFFFFFFFFFFFFFFFFF AND PUSH20 0xFFFFFFFFFFFFFFFFFFFFFFFFFFFFFFFFFFFFFFFF AND DUP2 MSTORE PUSH1 0x20 ADD SWAP1 PUSH1 0x1 ADD SWAP1 DUP1 DUP4 GT PUSH2 0x4C2 JUMPI JUMPDEST POP POP POP POP POP SWAP1 POP SWAP3 POP SWAP3 POP SWAP3 POP SWAP1 SWAP2 SWAP3 JUMP JUMPDEST PUSH1 0x0 PUSH2 0x529 DUP3 PUSH2 0x530 JUMP JUMPDEST SWAP1 POP SWAP2 SWAP1 POP JUMP JUMPDEST PUSH1 0x0 DUP1 PUSH1 0x0 SWAP1 POP JUMPDEST PUSH1 0x1 DUP1 SLOAD SWAP1 POP DUP2 LT ISZERO PUSH2 0x5D4 JUMPI DUP3 PUSH20 0xFFFFFFFFFFFFFFFFFFFFFFFFFFFFFFFFFFFFFFFF AND PUSH1 0x1 DUP3 DUP2 SLOAD DUP2 LT PUSH2 0x570 JUMPI PUSH2 0x56F PUSH2 0xAF4 JUMP JUMPDEST JUMPDEST SWAP1 PUSH1 0x0 MSTORE PUSH1 0x20 PUSH1 0x0 KECCAK256 ADD PUSH1 0x0 SWAP1 SLOAD SWAP1 PUSH2 0x100 EXP SWAP1 DIV PUSH20 0xFFFFFFFFFFFFFFFFFFFFFFFFFFFFFFFFFFFFFFFF AND PUSH20 0xFFFFFFFFFFFFFFFFFFFFFFFFFFFFFFFFFFFFFFFF AND EQ ISZERO PUSH2 0x5C1 JUMPI PUSH1 0x1 SWAP2 POP POP PUSH2 0x5DA JUMP JUMPDEST DUP1 DUP1 PUSH2 0x5CC SWAP1 PUSH2 0xA4D JUMP JUMPDEST SWAP2 POP POP PUSH2 0x538 JUMP JUMPDEST POP PUSH1 0x0 SWAP1 POP JUMPDEST SWAP2 SWAP1 POP JUMP JUMPDEST PUSH1 0x0 DUP1 PUSH1 0x0 SWAP1 POP JUMPDEST PUSH1 0x2 DUP1 SLOAD SWAP1 POP DUP2 LT ISZERO PUSH2 0x683 JUMPI DUP3 PUSH20 0xFFFFFFFFFFFFFFFFFFFFFFFFFFFFFFFFFFFFFFFF AND PUSH1 0x2 DUP3 DUP2 SLOAD DUP2 LT PUSH2 0x61F JUMPI PUSH2 0x61E PUSH2 0xAF4 JUMP JUMPDEST JUMPDEST SWAP1 PUSH1 0x0 MSTORE PUSH1 0x20 PUSH1 0x0 KECCAK256 ADD PUSH1 0x0 SWAP1 SLOAD SWAP1 PUSH2 0x100 EXP SWAP1 DIV PUSH20 0xFFFFFFFFFFFFFFFFFFFFFFFFFFFFFFFFFFFFFFFF AND PUSH20 0xFFFFFFFFFFFFFFFFFFFFFFFFFFFFFFFFFFFFFFFF AND EQ ISZERO PUSH2 0x670 JUMPI PUSH1 0x1 SWAP2 POP POP PUSH2 0x689 JUMP JUMPDEST DUP1 DUP1 PUSH2 0x67B SWAP1 PUSH2 0xA4D JUMP JUMPDEST SWAP2 POP POP PUSH2 0x5E7 JUMP JUMPDEST POP PUSH1 0x0 SWAP1 POP JUMPDEST SWAP2 SWAP1 POP JUMP JUMPDEST PUSH1 0x0 DUP2 CALLDATALOAD SWAP1 POP PUSH2 0x69D DUP2 PUSH2 0xB62 JUMP JUMPDEST SWAP3 SWAP2 POP POP JUMP JUMPDEST PUSH1 0x0 PUSH1 0x20 DUP3 DUP5 SUB SLT ISZERO PUSH2 0x6B9 JUMPI PUSH2 0x6B8 PUSH2 0xB23 JUMP JUMPDEST JUMPDEST PUSH1 0x0 PUSH2 0x6C7 DUP5 DUP3 DUP6 ADD PUSH2 0x68E JUMP JUMPDEST SWAP2 POP POP SWAP3 SWAP2 POP POP JUMP JUMPDEST PUSH1 0x0 PUSH2 0x6DC DUP4 DUP4 PUSH2 0x6E8 JUMP JUMPDEST PUSH1 0x20 DUP4 ADD SWAP1 POP SWAP3 SWAP2 POP POP JUMP JUMPDEST PUSH2 0x6F1 DUP2 PUSH2 0x9A0 JUMP JUMPDEST DUP3 MSTORE POP POP JUMP JUMPDEST PUSH2 0x700 DUP2 PUSH2 0x9A0 JUMP JUMPDEST DUP3 MSTORE POP POP JUMP JUMPDEST PUSH1 0x0 PUSH2 0x711 DUP3 PUSH2 0x95B JUMP JUMPDEST PUSH2 0x71B DUP2 DUP6 PUSH2 0x97E JUMP JUMPDEST SWAP4 POP PUSH2 0x726 DUP4 PUSH2 0x936 JUMP JUMPDEST DUP1 PUSH1 0x0 JUMPDEST DUP4 DUP2 LT ISZERO PUSH2 0x757 JUMPI DUP2 MLOAD PUSH2 0x73E DUP9 DUP3 PUSH2 0x6D0 JUMP JUMPDEST SWAP8 POP PUSH2 0x749 DUP4 PUSH2 0x971 JUMP JUMPDEST SWAP3 POP POP PUSH1 0x1 DUP2 ADD SWAP1 POP PUSH2 0x72A JUMP JUMPDEST POP DUP6 SWAP4 POP POP POP POP SWAP3 SWAP2 POP POP JUMP JUMPDEST PUSH2 0x76D DUP2 PUSH2 0x9B2 JUMP JUMPDEST DUP3 MSTORE POP POP JUMP JUMPDEST PUSH1 0x0 PUSH2 0x77E DUP3 PUSH2 0x966 JUMP JUMPDEST PUSH2 0x788 DUP2 DUP6 PUSH2 0x98F JUMP JUMPDEST SWAP4 POP PUSH2 0x798 DUP2 DUP6 PUSH1 0x20 DUP7 ADD PUSH2 0x9E8 JUMP JUMPDEST PUSH2 0x7A1 DUP2 PUSH2 0xB28 JUMP JUMPDEST DUP5 ADD SWAP2 POP POP SWAP3 SWAP2 POP POP JUMP JUMPDEST PUSH1 0x0 DUP2 SLOAD PUSH2 0x7B9 DUP2 PUSH2 0xA1B JUMP JUMPDEST PUSH2 0x7C3 DUP2 DUP7 PUSH2 0x98F JUMP JUMPDEST SWAP5 POP PUSH1 0x1 DUP3 AND PUSH1 0x0 DUP2 EQ PUSH2 0x7DE JUMPI PUSH1 0x1 DUP2 EQ PUSH2 0x7F0 JUMPI PUSH2 0x823 JUMP JUMPDEST PUSH1 0xFF NOT DUP4 AND DUP7 MSTORE PUSH1 0x20 DUP7 ADD SWAP4 POP PUSH2 0x823 JUMP JUMPDEST PUSH2 0x7F9 DUP6 PUSH2 0x946 JUMP JUMPDEST PUSH1 0x0 JUMPDEST DUP4 DUP2 LT ISZERO PUSH2 0x81B JUMPI DUP2 SLOAD DUP2 DUP10 ADD MSTORE PUSH1 0x1 DUP3 ADD SWAP2 POP PUSH1 0x20 DUP2 ADD SWAP1 POP PUSH2 0x7FC JUMP JUMPDEST DUP1 DUP9 ADD SWAP6 POP POP POP JUMPDEST POP POP POP SWAP3 SWAP2 POP POP JUMP JUMPDEST PUSH1 0x0 PUSH2 0x839 PUSH1 0x15 DUP4 PUSH2 0x98F JUMP JUMPDEST SWAP2 POP PUSH2 0x844 DUP3 PUSH2 0xB39 JUMP JUMPDEST PUSH1 0x20 DUP3 ADD SWAP1 POP SWAP2 SWAP1 POP JUMP JUMPDEST PUSH1 0x0 PUSH1 0x20 DUP3 ADD SWAP1 POP PUSH2 0x864 PUSH1 0x0 DUP4 ADD DUP5 PUSH2 0x764 JUMP JUMPDEST SWAP3 SWAP2 POP POP JUMP JUMPDEST PUSH1 0x0 PUSH1 0x40 DUP3 ADD SWAP1 POP PUSH2 0x87F PUSH1 0x0 DUP4 ADD DUP6 PUSH2 0x764 JUMP JUMPDEST DUP2 DUP2 SUB PUSH1 0x20 DUP4 ADD MSTORE PUSH2 0x891 DUP2 DUP5 PUSH2 0x773 JUMP JUMPDEST SWAP1 POP SWAP4 SWAP3 POP POP POP JUMP JUMPDEST PUSH1 0x0 PUSH1 0x60 DUP3 ADD SWAP1 POP DUP2 DUP2 SUB PUSH1 0x0 DUP4 ADD MSTORE PUSH2 0x8B4 DUP2 DUP7 PUSH2 0x773 JUMP JUMPDEST SWAP1 POP DUP2 DUP2 SUB PUSH1 0x20 DUP4 ADD MSTORE PUSH2 0x8C8 DUP2 DUP6 PUSH2 0x706 JUMP JUMPDEST SWAP1 POP DUP2 DUP2 SUB PUSH1 0x40 DUP4 ADD MSTORE PUSH2 0x8DC DUP2 DUP5 PUSH2 0x706 JUMP JUMPDEST SWAP1 POP SWAP5 SWAP4 POP POP POP POP JUMP JUMPDEST PUSH1 0x0 PUSH1 0x40 DUP3 ADD SWAP1 POP DUP2 DUP2 SUB PUSH1 0x0 DUP4 ADD MSTORE PUSH2 0x900 DUP2 DUP6 PUSH2 0x7AC JUMP JUMPDEST SWAP1 POP PUSH2 0x90F PUSH1 0x20 DUP4 ADD DUP5 PUSH2 0x6F7 JUMP JUMPDEST SWAP4 SWAP3 POP POP POP JUMP JUMPDEST PUSH1 0x0 PUSH1 0x20 DUP3 ADD SWAP1 POP DUP2 DUP2 SUB PUSH1 0x0 DUP4 ADD MSTORE PUSH2 0x92F DUP2 PUSH2 0x82C JUMP JUMPDEST SWAP1 POP SWAP2 SWAP1 POP JUMP JUMPDEST PUSH1 0x0 DUP2 SWAP1 POP PUSH1 0x20 DUP3 ADD SWAP1 POP SWAP2 SWAP1 POP JUMP JUMPDEST PUSH1 0x0 DUP2 SWAP1 POP DUP2 PUSH1 0x0 MSTORE PUSH1 0x20 PUSH1 0x0 KECCAK256 SWAP1 POP SWAP2 SWAP1 POP JUMP JUMPDEST PUSH1 0x0 DUP2 MLOAD SWAP1 POP SWAP2 SWAP1 POP JUMP JUMPDEST PUSH1 0x0 DUP2 MLOAD SWAP1 POP SWAP2 SWAP1 POP JUMP JUMPDEST PUSH1 0x0 PUSH1 0x20 DUP3 ADD SWAP1 POP SWAP2 SWAP1 POP JUMP JUMPDEST PUSH1 0x0 DUP3 DUP3 MSTORE PUSH1 0x20 DUP3 ADD SWAP1 POP SWAP3 SWAP2 POP POP JUMP JUMPDEST PUSH1 0x0 DUP3 DUP3 MSTORE PUSH1 0x20 DUP3 ADD SWAP1 POP SWAP3 SWAP2 POP POP JUMP JUMPDEST PUSH1 0x0 PUSH2 0x9AB DUP3 PUSH2 0x9BE JUMP JUMPDEST SWAP1 POP SWAP2 SWAP1 POP JUMP JUMPDEST PUSH1 0x0 DUP2 ISZERO ISZERO SWAP1 POP SWAP2 SWAP1 POP JUMP JUMPDEST PUSH1 0x0 PUSH20 0xFFFFFFFFFFFFFFFFFFFFFFFFFFFFFFFFFFFFFFFF DUP3 AND SWAP1 POP SWAP2 SWAP1 POP JUMP JUMPDEST PUSH1 0x0 DUP2 SWAP1 POP SWAP2 SWAP1 POP JUMP JUMPDEST PUSH1 0x0 JUMPDEST DUP4 DUP2 LT ISZERO PUSH2 0xA06 JUMPI DUP1 DUP3 ADD MLOAD DUP2 DUP5 ADD MSTORE PUSH1 0x20 DUP2 ADD SWAP1 POP PUSH2 0x9EB JUMP JUMPDEST DUP4 DUP2 GT ISZERO PUSH2 0xA15 JUMPI PUSH1 0x0 DUP5 DUP5 ADD MSTORE JUMPDEST POP POP POP POP JUMP JUMPDEST PUSH1 0x0 PUSH1 0x2 DUP3 DIV SWAP1 POP PUSH1 0x1 DUP3 AND DUP1 PUSH2 0xA33 JUMPI PUSH1 0x7F DUP3 AND SWAP2 POP JUMPDEST PUSH1 0x20 DUP3 LT DUP2 EQ ISZERO PUSH2 0xA47 JUMPI PUSH2 0xA46 PUSH2 0xAC5 JUMP JUMPDEST JUMPDEST POP SWAP2 SWAP1 POP JUMP JUMPDEST PUSH1 0x0 PUSH2 0xA58 DUP3 PUSH2 0x9DE JUMP JUMPDEST SWAP2 POP PUSH32 0xFFFFFFFFFFFFFFFFFFFFFFFFFFFFFFFFFFFFFFFFFFFFFFFFFFFFFFFFFFFFFFFF DUP3 EQ ISZERO PUSH2 0xA8B JUMPI PUSH2 0xA8A PUSH2 0xA96 JUMP JUMPDEST JUMPDEST PUSH1 0x1 DUP3 ADD SWAP1 POP SWAP2 SWAP1 POP JUMP JUMPDEST PUSH32 0x4E487B7100000000000000000000000000000000000000000000000000000000 PUSH1 0x0 MSTORE PUSH1 0x11 PUSH1 0x4 MSTORE PUSH1 0x24 PUSH1 0x0 REVERT JUMPDEST PUSH32 0x4E487B7100000000000000000000000000000000000000000000000000000000 PUSH1 0x0 MSTORE PUSH1 0x22 PUSH1 0x4 MSTORE PUSH1 0x24 PUSH1 0x0 REVERT JUMPDEST PUSH32 0x4E487B7100000000000000000000000000000000000000000000000000000000 PUSH1 0x0 MSTORE PUSH1 0x32 PUSH1 0x4 MSTORE PUSH1 0x24 PUSH1 0x0 REVERT JUMPDEST PUSH1 0x0 DUP1 REVERT JUMPDEST PUSH1 0x0 PUSH1 0x1F NOT PUSH1 0x1F DUP4 ADD AND SWAP1 POP SWAP2 SWAP1 POP JUMP JUMPDEST PUSH32 0x205F7369676E6572206973206E6F742076616C69640000000000000000000000 PUSH1 0x0 DUP3 ADD MSTORE POP JUMP JUMPDEST PUSH2 0xB6B DUP2 PUSH2 0x9A0 JUMP JUMPDEST DUP2 EQ PUSH2 0xB76 JUMPI PUSH1 0x0 DUP1 REVERT JUMPDEST POP JUMP INVALID LOG2 PUSH5 0x6970667358 0x22 SLT KECCAK256 0xC1 LOG0 0xDC MOD PUSH29 0x5405A10EB191886ED829CFE8845CF7F9EABB2E6637C0A93A3E98726473 PUSH16 0x6C634300080700330000000000000000 "
				},
				"gasEstimates": {
					"creation": {
						"codeDepositCost": "598200",
						"executionCost": "infinite",
						"totalCost": "infinite"
					},
					"external": {
						"getEvidence()": "infinite",
						"isAllSigned()": "infinite",
						"sign()": "infinite",
						"verify(address)": "infinite"
					},
					"internal": {
						"_verify(address)": "infinite",
						"isSigned(address)": "infinite"
					}
				},
				"methodIdentifiers": {
					"getEvidence()": "596f21f8",
					"isAllSigned()": "3c68af3e",
					"sign()": "2ca15122",
					"verify(address)": "63a9c3d7"
				}
			},
			"storageLayout": {
				"storage": [
					{
						"astId": 29,
						"contract": "marriage/evidence.sol:MarrigeEvidence",
						"label": "evidence",
						"offset": 0,
						"slot": "0",
						"type": "t_string_storage"
					},
					{
						"astId": 32,
						"contract": "marriage/evidence.sol:MarrigeEvidence",
						"label": "needSigners",
						"offset": 0,
						"slot": "1",
						"type": "t_array(t_address)dyn_storage"
					},
					{
						"astId": 35,
						"contract": "marriage/evidence.sol:MarrigeEvidence",
						"label": "signers",
						"offset": 0,
						"slot": "2",
						"type": "t_array(t_address)dyn_storage"
					}
				],
				"types": {
					"t_address": {
						"encoding": "inplace",
						"label": "address",
						"numberOfBytes": "20"
					},
					"t_array(t_address)dyn_storage": {
						"base": "t_address",
						"encoding": "dynamic_array",
						"label": "address[]",
						"numberOfBytes": "32"
					},
					"t_string_storage": {
						"encoding": "bytes",
						"label": "string",
						"numberOfBytes": "32"
					}
				}
			},
			"userdoc": {
				"kind": "user",
				"methods": {},
				"version": 1
			}
		}
	}
}