{
	"data": {
		"bytecode": {
			"linkReferences": {},
			"object": "608060405234801561001057600080fd5b506040516106003803806106008339818101604052810190610032919061008d565b806000806101000a81548173ffffffffffffffffffffffffffffffffffffffff021916908373ffffffffffffffffffffffffffffffffffffffff16021790555050610108565b600081519050610087816100f1565b92915050565b6000602082840312156100a3576100a26100ec565b5b60006100b184828501610078565b91505092915050565b60006100c5826100cc565b9050919050565b600073ffffffffffffffffffffffffffffffffffffffff82169050919050565b600080fd5b6100fa816100ba565b811461010557600080fd5b50565b6104e9806101176000396000f3fe608060405234801561001057600080fd5b50600436106100365760003560e01c806317d7de7c1461003b578063c47f002714610059575b600080fd5b610043610075565b6040516100509190610358565b60405180910390f35b610073600480360381019061006e919061028d565b61011f565b005b606060008054906101000a900473ffffffffffffffffffffffffffffffffffffffff1673ffffffffffffffffffffffffffffffffffffffff166317d7de7c6040518163ffffffff1660e01b815260040160006040518083038186803b1580156100dd57600080fd5b505afa1580156100f1573d6000803e3d6000fd5b505050506040513d6000823e3d601f19601f8201168201806040525081019061011a91906102d6565b905090565b60008054906101000a900473ffffffffffffffffffffffffffffffffffffffff1673ffffffffffffffffffffffffffffffffffffffff1663c47f0027826040518263ffffffff1660e01b81526004016101789190610358565b600060405180830381600087803b15801561019257600080fd5b505af11580156101a6573d6000803e3d6000fd5b5050505050565b60006101c06101bb8461039f565b61037a565b9050828152602081018484840111156101dc576101db610493565b5b6101e78482856103ec565b509392505050565b60006102026101fd8461039f565b61037a565b90508281526020810184848401111561021e5761021d610493565b5b6102298482856103fb565b509392505050565b600082601f8301126102465761024561048e565b5b81356102568482602086016101ad565b91505092915050565b600082601f8301126102745761027361048e565b5b81516102848482602086016101ef565b91505092915050565b6000602082840312156102a3576102a261049d565b5b600082013567ffffffffffffffff8111156102c1576102c0610498565b5b6102cd84828501610231565b91505092915050565b6000602082840312156102ec576102eb61049d565b5b600082015167ffffffffffffffff81111561030a57610309610498565b5b6103168482850161025f565b91505092915050565b600061032a826103d0565b61033481856103db565b93506103448185602086016103fb565b61034d816104a2565b840191505092915050565b60006020820190508181036000830152610372818461031f565b905092915050565b6000610384610395565b9050610390828261042e565b919050565b6000604051905090565b600067ffffffffffffffff8211156103ba576103b961045f565b5b6103c3826104a2565b9050602081019050919050565b600081519050919050565b600082825260208201905092915050565b82818337600083830152505050565b60005b838110156104195780820151818401526020810190506103fe565b83811115610428576000848401525b50505050565b610437826104a2565b810181811067ffffffffffffffff821117156104565761045561045f565b5b80604052505050565b7f4e487b7100000000000000000000000000000000000000000000000000000000600052604160045260246000fd5b600080fd5b600080fd5b600080fd5b600080fd5b6000601f19601f830116905091905056fea2646970667358221220ff5ed1dacf077481e8a4d8c90086c3f20353f7b25334a1e5ff133f6d12b7defb64736f6c63430008070033",
			"opcodes": "PUSH1 0x80 PUSH1 0x40 MSTORE CALLVALUE DUP1 ISZERO PUSH2 0x10 JUMPI PUSH1 0x0 DUP1 REVERT JUMPDEST POP PUSH1 0x40 MLOAD PUSH2 0x600 CODESIZE SUB DUP1 PUSH2 0x600 DUP4 CODECOPY DUP2 DUP2 ADD PUSH1 0x40 MSTORE DUP2 ADD SWAP1 PUSH2 0x32 SWAP2 SWAP1 PUSH2 0x8D JUMP JUMPDEST DUP1 PUSH1 0x0 DUP1 PUSH2 0x100 EXP DUP2 SLOAD DUP2 PUSH20 0xFFFFFFFFFFFFFFFFFFFFFFFFFFFFFFFFFFFFFFFF MUL NOT AND SWAP1 DUP4 PUSH20 0xFFFFFFFFFFFFFFFFFFFFFFFFFFFFFFFFFFFFFFFF AND MUL OR SWAP1 SSTORE POP POP PUSH2 0x108 JUMP JUMPDEST PUSH1 0x0 DUP2 MLOAD SWAP1 POP PUSH2 0x87 DUP2 PUSH2 0xF1 JUMP JUMPDEST SWAP3 SWAP2 POP POP JUMP JUMPDEST PUSH1 0x0 PUSH1 0x20 DUP3 DUP5 SUB SLT ISZERO PUSH2 0xA3 JUMPI PUSH2 0xA2 PUSH2 0xEC JUMP JUMPDEST JUMPDEST PUSH1 0x0 PUSH2 0xB1 DUP5 DUP3 DUP6 ADD PUSH2 0x78 JUMP JUMPDEST SWAP2 POP POP SWAP3 SWAP2 POP POP JUMP JUMPDEST PUSH1 0x0 PUSH2 0xC5 DUP3 PUSH2 0xCC JUMP JUMPDEST SWAP1 POP SWAP2 SWAP1 POP JUMP JUMPDEST PUSH1 0x0 PUSH20 0xFFFFFFFFFFFFFFFFFFFFFFFFFFFFFFFFFFFFFFFF DUP3 AND SWAP1 POP SWAP2 SWAP1 POP JUMP JUMPDEST PUSH1 0x0 DUP1 REVERT JUMPDEST PUSH2 0xFA DUP2 PUSH2 0xBA JUMP JUMPDEST DUP2 EQ PUSH2 0x105 JUMPI PUSH1 0x0 DUP1 REVERT JUMPDEST POP JUMP JUMPDEST PUSH2 0x4E9 DUP1 PUSH2 0x117 PUSH1 0x0 CODECOPY PUSH1 0x0 RETURN INVALID PUSH1 0x80 PUSH1 0x40 MSTORE CALLVALUE DUP1 ISZERO PUSH2 0x10 JUMPI PUSH1 0x0 DUP1 REVERT JUMPDEST POP PUSH1 0x4 CALLDATASIZE LT PUSH2 0x36 JUMPI PUSH1 0x0 CALLDATALOAD PUSH1 0xE0 SHR DUP1 PUSH4 0x17D7DE7C EQ PUSH2 0x3B JUMPI DUP1 PUSH4 0xC47F0027 EQ PUSH2 0x59 JUMPI JUMPDEST PUSH1 0x0 DUP1 REVERT JUMPDEST PUSH2 0x43 PUSH2 0x75 JUMP JUMPDEST PUSH1 0x40 MLOAD PUSH2 0x50 SWAP2 SWAP1 PUSH2 0x358 JUMP JUMPDEST PUSH1 0x40 MLOAD DUP1 SWAP2 SUB SWAP1 RETURN JUMPDEST PUSH2 0x73 PUSH1 0x4 DUP1 CALLDATASIZE SUB DUP2 ADD SWAP1 PUSH2 0x6E SWAP2 SWAP1 PUSH2 0x28D JUMP JUMPDEST PUSH2 0x11F JUMP JUMPDEST STOP JUMPDEST PUSH1 0x60 PUSH1 0x0 DUP1 SLOAD SWAP1 PUSH2 0x100 EXP SWAP1 DIV PUSH20 0xFFFFFFFFFFFFFFFFFFFFFFFFFFFFFFFFFFFFFFFF AND PUSH20 0xFFFFFFFFFFFFFFFFFFFFFFFFFFFFFFFFFFFFFFFF AND PUSH4 0x17D7DE7C PUSH1 0x40 MLOAD DUP2 PUSH4 0xFFFFFFFF AND PUSH1 0xE0 SHL DUP2 MSTORE PUSH1 0x4 ADD PUSH1 0x0 PUSH1 0x40 MLOAD DUP1 DUP4 SUB DUP2 DUP7 DUP1 EXTCODESIZE ISZERO DUP1 ISZERO PUSH2 0xDD JUMPI PUSH1 0x0 DUP1 REVERT JUMPDEST POP GAS STATICCALL ISZERO DUP1 ISZERO PUSH2 0xF1 JUMPI RETURNDATASIZE PUSH1 0x0 DUP1 RETURNDATACOPY RETURNDATASIZE PUSH1 0x0 REVERT JUMPDEST POP POP POP POP PUSH1 0x40 MLOAD RETURNDATASIZE PUSH1 0x0 DUP3 RETURNDATACOPY RETURNDATASIZE PUSH1 0x1F NOT PUSH1 0x1F DUP3 ADD AND DUP3 ADD DUP1 PUSH1 0x40 MSTORE POP DUP2 ADD SWAP1 PUSH2 0x11A SWAP2 SWAP1 PUSH2 0x2D6 JUMP JUMPDEST SWAP1 POP SWAP1 JUMP JUMPDEST PUSH1 0x0 DUP1 SLOAD SWAP1 PUSH2 0x100 EXP SWAP1 DIV PUSH20 0xFFFFFFFFFFFFFFFFFFFFFFFFFFFFFFFFFFFFFFFF AND PUSH20 0xFFFFFFFFFFFFFFFFFFFFFFFFFFFFFFFFFFFFFFFF AND PUSH4 0xC47F0027 DUP3 PUSH1 0x40 MLOAD DUP3 PUSH4 0xFFFFFFFF AND PUSH1 0xE0 SHL DUP2 MSTORE PUSH1 0x4 ADD PUSH2 0x178 SWAP2 SWAP1 PUSH2 0x358 JUMP JUMPDEST PUSH1 0x0 PUSH1 0x40 MLOAD DUP1 DUP4 SUB DUP2 PUSH1 0x0 DUP8 DUP1 EXTCODESIZE ISZERO DUP1 ISZERO PUSH2 0x192 JUMPI PUSH1 0x0 DUP1 REVERT JUMPDEST POP GAS CALL ISZERO DUP1 ISZERO PUSH2 0x1A6 JUMPI RETURNDATASIZE PUSH1 0x0 DUP1 RETURNDATACOPY RETURNDATASIZE PUSH1 0x0 REVERT JUMPDEST POP POP POP POP POP JUMP JUMPDEST PUSH1 0x0 PUSH2 0x1C0 PUSH2 0x1BB DUP5 PUSH2 0x39F JUMP JUMPDEST PUSH2 0x37A JUMP JUMPDEST SWAP1 POP DUP3 DUP2 MSTORE PUSH1 0x20 DUP2 ADD DUP5 DUP5 DUP5 ADD GT ISZERO PUSH2 0x1DC JUMPI PUSH2 0x1DB PUSH2 0x493 JUMP JUMPDEST JUMPDEST PUSH2 0x1E7 DUP5 DUP3 DUP6 PUSH2 0x3EC JUMP JUMPDEST POP SWAP4 SWAP3 POP POP POP JUMP JUMPDEST PUSH1 0x0 PUSH2 0x202 PUSH2 0x1FD DUP5 PUSH2 0x39F JUMP JUMPDEST PUSH2 0x37A JUMP JUMPDEST SWAP1 POP DUP3 DUP2 MSTORE PUSH1 0x20 DUP2 ADD DUP5 DUP5 DUP5 ADD GT ISZERO PUSH2 0x21E JUMPI PUSH2 0x21D PUSH2 0x493 JUMP JUMPDEST JUMPDEST PUSH2 0x229 DUP5 DUP3 DUP6 PUSH2 0x3FB JUMP JUMPDEST POP SWAP4 SWAP3 POP POP POP JUMP JUMPDEST PUSH1 0x0 DUP3 PUSH1 0x1F DUP4 ADD SLT PUSH2 0x246 JUMPI PUSH2 0x245 PUSH2 0x48E JUMP JUMPDEST JUMPDEST DUP2 CALLDATALOAD PUSH2 0x256 DUP5 DUP3 PUSH1 0x20 DUP7 ADD PUSH2 0x1AD JUMP JUMPDEST SWAP2 POP POP SWAP3 SWAP2 POP POP JUMP JUMPDEST PUSH1 0x0 DUP3 PUSH1 0x1F DUP4 ADD SLT PUSH2 0x274 JUMPI PUSH2 0x273 PUSH2 0x48E JUMP JUMPDEST JUMPDEST DUP2 MLOAD PUSH2 0x284 DUP5 DUP3 PUSH1 0x20 DUP7 ADD PUSH2 0x1EF JUMP JUMPDEST SWAP2 POP POP SWAP3 SWAP2 POP POP JUMP JUMPDEST PUSH1 0x0 PUSH1 0x20 DUP3 DUP5 SUB SLT ISZERO PUSH2 0x2A3 JUMPI PUSH2 0x2A2 PUSH2 0x49D JUMP JUMPDEST JUMPDEST PUSH1 0x0 DUP3 ADD CALLDATALOAD PUSH8 0xFFFFFFFFFFFFFFFF DUP2 GT ISZERO PUSH2 0x2C1 JUMPI PUSH2 0x2C0 PUSH2 0x498 JUMP JUMPDEST JUMPDEST PUSH2 0x2CD DUP5 DUP3 DUP6 ADD PUSH2 0x231 JUMP JUMPDEST SWAP2 POP POP SWAP3 SWAP2 POP POP JUMP JUMPDEST PUSH1 0x0 PUSH1 0x20 DUP3 DUP5 SUB SLT ISZERO PUSH2 0x2EC JUMPI PUSH2 0x2EB PUSH2 0x49D JUMP JUMPDEST JUMPDEST PUSH1 0x0 DUP3 ADD MLOAD PUSH8 0xFFFFFFFFFFFFFFFF DUP2 GT ISZERO PUSH2 0x30A JUMPI PUSH2 0x309 PUSH2 0x498 JUMP JUMPDEST JUMPDEST PUSH2 0x316 DUP5 DUP3 DUP6 ADD PUSH2 0x25F JUMP JUMPDEST SWAP2 POP POP SWAP3 SWAP2 POP POP JUMP JUMPDEST PUSH1 0x0 PUSH2 0x32A DUP3 PUSH2 0x3D0 JUMP JUMPDEST PUSH2 0x334 DUP2 DUP6 PUSH2 0x3DB JUMP JUMPDEST SWAP4 POP PUSH2 0x344 DUP2 DUP6 PUSH1 0x20 DUP7 ADD PUSH2 0x3FB JUMP JUMPDEST PUSH2 0x34D DUP2 PUSH2 0x4A2 JUMP JUMPDEST DUP5 ADD SWAP2 POP POP SWAP3 SWAP2 POP POP JUMP JUMPDEST PUSH1 0x0 PUSH1 0x20 DUP3 ADD SWAP1 POP DUP2 DUP2 SUB PUSH1 0x0 DUP4 ADD MSTORE PUSH2 0x372 DUP2 DUP5 PUSH2 0x31F JUMP JUMPDEST SWAP1 POP SWAP3 SWAP2 POP POP JUMP JUMPDEST PUSH1 0x0 PUSH2 0x384 PUSH2 0x395 JUMP JUMPDEST SWAP1 POP PUSH2 0x390 DUP3 DUP3 PUSH2 0x42E JUMP JUMPDEST SWAP2 SWAP1 POP JUMP JUMPDEST PUSH1 0x0 PUSH1 0x40 MLOAD SWAP1 POP SWAP1 JUMP JUMPDEST PUSH1 0x0 PUSH8 0xFFFFFFFFFFFFFFFF DUP3 GT ISZERO PUSH2 0x3BA JUMPI PUSH2 0x3B9 PUSH2 0x45F JUMP JUMPDEST JUMPDEST PUSH2 0x3C3 DUP3 PUSH2 0x4A2 JUMP JUMPDEST SWAP1 POP PUSH1 0x20 DUP2 ADD SWAP1 POP SWAP2 SWAP1 POP JUMP JUMPDEST PUSH1 0x0 DUP2 MLOAD SWAP1 POP SWAP2 SWAP1 POP JUMP JUMPDEST PUSH1 0x0 DUP3 DUP3 MSTORE PUSH1 0x20 DUP3 ADD SWAP1 POP SWAP3 SWAP2 POP POP JUMP JUMPDEST DUP3 DUP2 DUP4 CALLDATACOPY PUSH1 0x0 DUP4 DUP4 ADD MSTORE POP POP POP JUMP JUMPDEST PUSH1 0x0 JUMPDEST DUP4 DUP2 LT ISZERO PUSH2 0x419 JUMPI DUP1 DUP3 ADD MLOAD DUP2 DUP5 ADD MSTORE PUSH1 0x20 DUP2 ADD SWAP1 POP PUSH2 0x3FE JUMP JUMPDEST DUP4 DUP2 GT ISZERO PUSH2 0x428 JUMPI PUSH1 0x0 DUP5 DUP5 ADD MSTORE JUMPDEST POP POP POP POP JUMP JUMPDEST PUSH2 0x437 DUP3 PUSH2 0x4A2 JUMP JUMPDEST DUP2 ADD DUP2 DUP2 LT PUSH8 0xFFFFFFFFFFFFFFFF DUP3 GT OR ISZERO PUSH2 0x456 JUMPI PUSH2 0x455 PUSH2 0x45F JUMP JUMPDEST JUMPDEST DUP1 PUSH1 0x40 MSTORE POP POP POP JUMP JUMPDEST PUSH32 0x4E487B7100000000000000000000000000000000000000000000000000000000 PUSH1 0x0 MSTORE PUSH1 0x41 PUSH1 0x4 MSTORE PUSH1 0x24 PUSH1 0x0 REVERT JUMPDEST PUSH1 0x0 DUP1 REVERT JUMPDEST PUSH1 0x0 DUP1 REVERT JUMPDEST PUSH1 0x0 DUP1 REVERT JUMPDEST PUSH1 0x0 DUP1 REVERT JUMPDEST PUSH1 0x0 PUSH1 0x1F NOT PUSH1 0x1F DUP4 ADD AND SWAP1 POP SWAP2 SWAP1 POP JUMP INVALID LOG2 PUSH5 0x6970667358 0x22 SLT KECCAK256 SELFDESTRUCT 0x5E 0xD1 0xDA 0xCF SMOD PUSH21 0x81E8A4D8C90086C3F20353F7B25334A1E5FF133F6D SLT 0xB7 0xDE 0xFB PUSH5 0x736F6C6343 STOP ADDMOD SMOD STOP CALLER "
		},
		"gasEstimates": {
			"creation": {
				"codeDepositCost": "251400",
				"executionCost": "infinite",
				"totalCost": "infinite"
			},
			"external": {
				"getName()": "infinite",
				"setName(string)": "infinite"
			}
		},
		"methodIdentifiers": {
			"getName()": "17d7de7c",
			"setName(string)": "c47f0027"
		}
	},
	"abi": [
		{
			"inputs": [
				{
					"internalType": "address",
					"name": "addr",
					"type": "address"
				}
			],
			"stateMutability": "nonpayable",
			"type": "constructor"
		},
		{
			"inputs": [],
			"name": "getName",
			"outputs": [
				{
					"internalType": "string",
					"name": "",
					"type": "string"
				}
			],
			"stateMutability": "view",
			"type": "function"
		},
		{
			"inputs": [
				{
					"internalType": "string",
					"name": "_name",
					"type": "string"
				}
			],
			"name": "setName",
			"outputs": [],
			"stateMutability": "nonpayable",
			"type": "function"
		}
	]
}