{
	"data": {
		"bytecode": {
			"linkReferences": {},
			"object": "608060405260405162000be538038062000be5833981810160405281019062000029919062000138565b826000806101000a81548160ff02191690831515021790555081600060016101000a81548160ff021916908360ff1602179055508060018190555033600260006101000a81548173ffffffffffffffffffffffffffffffffffffffff021916908373ffffffffffffffffffffffffffffffffffffffff160217905550348114620000ea576040517f08c379a0000000000000000000000000000000000000000000000000000000008152600401620000e190620001bb565b60405180910390fd5b5050506200028d565b60008151905062000104816200023f565b92915050565b6000815190506200011b8162000259565b92915050565b600081519050620001328162000273565b92915050565b60008060006060848603121562000154576200015362000211565b5b60006200016486828701620000f3565b9350506020620001778682870162000121565b92505060406200018a868287016200010a565b9150509250925092565b6000620001a3601b83620001dd565b9150620001b08262000216565b602082019050919050565b60006020820190508181036000830152620001d68162000194565b9050919050565b600082825260208201905092915050565b60008115159050919050565b6000819050919050565b600060ff82169050919050565b600080fd5b7f207265647061636b657427732062616c616e6365206973206f6b200000000000600082015250565b6200024a81620001ee565b81146200025657600080fd5b50565b6200026481620001fa565b81146200027057600080fd5b50565b6200027e8162000204565b81146200028a57600080fd5b50565b610948806200029d6000396000f3fe6080604052600436106100555760003560e01c806312065fe01461005a57806323e30f5c146100855780635ccdba7b146100b05780636878dfa4146100db57806396c993df14610106578063e015303714610131575b600080fd5b34801561006657600080fd5b5061006f61013b565b60405161007c91906106b7565b60405180910390f35b34801561009157600080fd5b5061009a610143565b6040516100a7919061063c565b60405180910390f35b3480156100bc57600080fd5b506100c5610154565b6040516100d291906106b7565b60405180910390f35b3480156100e757600080fd5b506100f061015a565b6040516100fd91906105ce565b60405180910390f35b34801561011257600080fd5b5061011b610180565b60405161012891906106d2565b60405180910390f35b610139610193565b005b600047905090565b60008054906101000a900460ff1681565b60015481565b600260009054906101000a900473ffffffffffffffffffffffffffffffffffffffff1681565b600060019054906101000a900460ff1681565b60008060019054906101000a900460ff1660ff16116101e7576040517f08c379a00000000000000000000000000000000000000000000000000000000081526004016101de90610677565b60405180910390fd5b60006101f161013b565b11610231576040517f08c379a000000000000000000000000000000000000000000000000000000000815260040161022890610657565b60405180910390fd5b600360003373ffffffffffffffffffffffffffffffffffffffff1673ffffffffffffffffffffffffffffffffffffffff16815260200190815260200160002060009054906101000a900460ff16156102be576040517f08c379a00000000000000000000000000000000000000000000000000000000081526004016102b590610697565b60405180910390fd5b6001600360003373ffffffffffffffffffffffffffffffffffffffff1673ffffffffffffffffffffffffffffffffffffffff16815260200190815260200160002060006101000a81548160ff02191690831515021790555060008054906101000a900460ff161561039e5760008060019054906101000a900460ff1660ff1661034561013b565b61034f91906106fe565b90503373ffffffffffffffffffffffffffffffffffffffff166108fc829081150290604051600060405180830381858888f19350505050158015610397573d6000803e3d6000fd5b50506104ef565b6001600060019054906101000a900460ff1660ff16141561040c573373ffffffffffffffffffffffffffffffffffffffff166108fc6103db61013b565b9081150290604051600060405180830381858888f19350505050158015610406573d6000803e3d6000fd5b506104ee565b6000600a600260009054906101000a900473ffffffffffffffffffffffffffffffffffffffff16600154600060019054906101000a900460ff16423360405160200161045c9594939291906105e9565b6040516020818303038152906040528051906020012060001c61047f9190610808565b90506000600a8261048e61013b565b610498919061072f565b6104a291906106fe565b90503373ffffffffffffffffffffffffffffffffffffffff166108fc829081150290604051600060405180830381858888f193505050501580156104ea573d6000803e3d6000fd5b5050505b5b6000600181819054906101000a900460ff168092919061050e906107de565b91906101000a81548160ff021916908360ff16021790555050565b61053281610789565b82525050565b6105418161079b565b82525050565b60006105546020836106ed565b915061055f82610897565b602082019050919050565b60006105776014836106ed565b9150610582826108c0565b602082019050919050565b600061059a6015836106ed565b91506105a5826108e9565b602082019050919050565b6105b9816107c7565b82525050565b6105c8816107d1565b82525050565b60006020820190506105e36000830184610529565b92915050565b600060a0820190506105fe6000830188610529565b61060b60208301876105b0565b61061860408301866105bf565b61062560608301856105b0565b6106326080830184610529565b9695505050505050565b60006020820190506106516000830184610538565b92915050565b6000602082019050818103600083015261067081610547565b9050919050565b600060208201905081810360008301526106908161056a565b9050919050565b600060208201905081810360008301526106b08161058d565b9050919050565b60006020820190506106cc60008301846105b0565b92915050565b60006020820190506106e760008301846105bf565b92915050565b600082825260208201905092915050565b6000610709826107c7565b9150610714836107c7565b92508261072457610723610868565b5b828204905092915050565b600061073a826107c7565b9150610745836107c7565b9250817fffffffffffffffffffffffffffffffffffffffffffffffffffffffffffffffff048311821515161561077e5761077d610839565b5b828202905092915050565b6000610794826107a7565b9050919050565b60008115159050919050565b600073ffffffffffffffffffffffffffffffffffffffff82169050919050565b6000819050919050565b600060ff82169050919050565b60006107e9826107d1565b915060008214156107fd576107fc610839565b5b600182039050919050565b6000610813826107c7565b915061081e836107c7565b92508261082e5761082d610868565b5b828206905092915050565b7f4e487b7100000000000000000000000000000000000000000000000000000000600052601160045260246000fd5b7f4e487b7100000000000000000000000000000000000000000000000000000000600052601260045260246000fd5b7f20636f6e747261746327732062616c616e6365206d75737420656e6f75676820600082015250565b7f726564207061636b6574206d757374206c656674000000000000000000000000600082015250565b7f207573657220646f6573206e6f74207374616b6520000000000000000000000060008201525056fea26469706673582212205d277a720f1468b6f8fbe9b9c060a60721d7dd513f58c33054001e6fde6a9bb864736f6c63430008070033",
			"opcodes": "PUSH1 0x80 PUSH1 0x40 MSTORE PUSH1 0x40 MLOAD PUSH3 0xBE5 CODESIZE SUB DUP1 PUSH3 0xBE5 DUP4 CODECOPY DUP2 DUP2 ADD PUSH1 0x40 MSTORE DUP2 ADD SWAP1 PUSH3 0x29 SWAP2 SWAP1 PUSH3 0x138 JUMP JUMPDEST DUP3 PUSH1 0x0 DUP1 PUSH2 0x100 EXP DUP2 SLOAD DUP2 PUSH1 0xFF MUL NOT AND SWAP1 DUP4 ISZERO ISZERO MUL OR SWAP1 SSTORE POP DUP2 PUSH1 0x0 PUSH1 0x1 PUSH2 0x100 EXP DUP2 SLOAD DUP2 PUSH1 0xFF MUL NOT AND SWAP1 DUP4 PUSH1 0xFF AND MUL OR SWAP1 SSTORE POP DUP1 PUSH1 0x1 DUP2 SWAP1 SSTORE POP CALLER PUSH1 0x2 PUSH1 0x0 PUSH2 0x100 EXP DUP2 SLOAD DUP2 PUSH20 0xFFFFFFFFFFFFFFFFFFFFFFFFFFFFFFFFFFFFFFFF MUL NOT AND SWAP1 DUP4 PUSH20 0xFFFFFFFFFFFFFFFFFFFFFFFFFFFFFFFFFFFFFFFF AND MUL OR SWAP1 SSTORE POP CALLVALUE DUP2 EQ PUSH3 0xEA JUMPI PUSH1 0x40 MLOAD PUSH32 0x8C379A000000000000000000000000000000000000000000000000000000000 DUP2 MSTORE PUSH1 0x4 ADD PUSH3 0xE1 SWAP1 PUSH3 0x1BB JUMP JUMPDEST PUSH1 0x40 MLOAD DUP1 SWAP2 SUB SWAP1 REVERT JUMPDEST POP POP POP PUSH3 0x28D JUMP JUMPDEST PUSH1 0x0 DUP2 MLOAD SWAP1 POP PUSH3 0x104 DUP2 PUSH3 0x23F JUMP JUMPDEST SWAP3 SWAP2 POP POP JUMP JUMPDEST PUSH1 0x0 DUP2 MLOAD SWAP1 POP PUSH3 0x11B DUP2 PUSH3 0x259 JUMP JUMPDEST SWAP3 SWAP2 POP POP JUMP JUMPDEST PUSH1 0x0 DUP2 MLOAD SWAP1 POP PUSH3 0x132 DUP2 PUSH3 0x273 JUMP JUMPDEST SWAP3 SWAP2 POP POP JUMP JUMPDEST PUSH1 0x0 DUP1 PUSH1 0x0 PUSH1 0x60 DUP5 DUP7 SUB SLT ISZERO PUSH3 0x154 JUMPI PUSH3 0x153 PUSH3 0x211 JUMP JUMPDEST JUMPDEST PUSH1 0x0 PUSH3 0x164 DUP7 DUP3 DUP8 ADD PUSH3 0xF3 JUMP JUMPDEST SWAP4 POP POP PUSH1 0x20 PUSH3 0x177 DUP7 DUP3 DUP8 ADD PUSH3 0x121 JUMP JUMPDEST SWAP3 POP POP PUSH1 0x40 PUSH3 0x18A DUP7 DUP3 DUP8 ADD PUSH3 0x10A JUMP JUMPDEST SWAP2 POP POP SWAP3 POP SWAP3 POP SWAP3 JUMP JUMPDEST PUSH1 0x0 PUSH3 0x1A3 PUSH1 0x1B DUP4 PUSH3 0x1DD JUMP JUMPDEST SWAP2 POP PUSH3 0x1B0 DUP3 PUSH3 0x216 JUMP JUMPDEST PUSH1 0x20 DUP3 ADD SWAP1 POP SWAP2 SWAP1 POP JUMP JUMPDEST PUSH1 0x0 PUSH1 0x20 DUP3 ADD SWAP1 POP DUP2 DUP2 SUB PUSH1 0x0 DUP4 ADD MSTORE PUSH3 0x1D6 DUP2 PUSH3 0x194 JUMP JUMPDEST SWAP1 POP SWAP2 SWAP1 POP JUMP JUMPDEST PUSH1 0x0 DUP3 DUP3 MSTORE PUSH1 0x20 DUP3 ADD SWAP1 POP SWAP3 SWAP2 POP POP JUMP JUMPDEST PUSH1 0x0 DUP2 ISZERO ISZERO SWAP1 POP SWAP2 SWAP1 POP JUMP JUMPDEST PUSH1 0x0 DUP2 SWAP1 POP SWAP2 SWAP1 POP JUMP JUMPDEST PUSH1 0x0 PUSH1 0xFF DUP3 AND SWAP1 POP SWAP2 SWAP1 POP JUMP JUMPDEST PUSH1 0x0 DUP1 REVERT JUMPDEST PUSH32 0x207265647061636B657427732062616C616E6365206973206F6B200000000000 PUSH1 0x0 DUP3 ADD MSTORE POP JUMP JUMPDEST PUSH3 0x24A DUP2 PUSH3 0x1EE JUMP JUMPDEST DUP2 EQ PUSH3 0x256 JUMPI PUSH1 0x0 DUP1 REVERT JUMPDEST POP JUMP JUMPDEST PUSH3 0x264 DUP2 PUSH3 0x1FA JUMP JUMPDEST DUP2 EQ PUSH3 0x270 JUMPI PUSH1 0x0 DUP1 REVERT JUMPDEST POP JUMP JUMPDEST PUSH3 0x27E DUP2 PUSH3 0x204 JUMP JUMPDEST DUP2 EQ PUSH3 0x28A JUMPI PUSH1 0x0 DUP1 REVERT JUMPDEST POP JUMP JUMPDEST PUSH2 0x948 DUP1 PUSH3 0x29D PUSH1 0x0 CODECOPY PUSH1 0x0 RETURN INVALID PUSH1 0x80 PUSH1 0x40 MSTORE PUSH1 0x4 CALLDATASIZE LT PUSH2 0x55 JUMPI PUSH1 0x0 CALLDATALOAD PUSH1 0xE0 SHR DUP1 PUSH4 0x12065FE0 EQ PUSH2 0x5A JUMPI DUP1 PUSH4 0x23E30F5C EQ PUSH2 0x85 JUMPI DUP1 PUSH4 0x5CCDBA7B EQ PUSH2 0xB0 JUMPI DUP1 PUSH4 0x6878DFA4 EQ PUSH2 0xDB JUMPI DUP1 PUSH4 0x96C993DF EQ PUSH2 0x106 JUMPI DUP1 PUSH4 0xE0153037 EQ PUSH2 0x131 JUMPI JUMPDEST PUSH1 0x0 DUP1 REVERT JUMPDEST CALLVALUE DUP1 ISZERO PUSH2 0x66 JUMPI PUSH1 0x0 DUP1 REVERT JUMPDEST POP PUSH2 0x6F PUSH2 0x13B JUMP JUMPDEST PUSH1 0x40 MLOAD PUSH2 0x7C SWAP2 SWAP1 PUSH2 0x6B7 JUMP JUMPDEST PUSH1 0x40 MLOAD DUP1 SWAP2 SUB SWAP1 RETURN JUMPDEST CALLVALUE DUP1 ISZERO PUSH2 0x91 JUMPI PUSH1 0x0 DUP1 REVERT JUMPDEST POP PUSH2 0x9A PUSH2 0x143 JUMP JUMPDEST PUSH1 0x40 MLOAD PUSH2 0xA7 SWAP2 SWAP1 PUSH2 0x63C JUMP JUMPDEST PUSH1 0x40 MLOAD DUP1 SWAP2 SUB SWAP1 RETURN JUMPDEST CALLVALUE DUP1 ISZERO PUSH2 0xBC JUMPI PUSH1 0x0 DUP1 REVERT JUMPDEST POP PUSH2 0xC5 PUSH2 0x154 JUMP JUMPDEST PUSH1 0x40 MLOAD PUSH2 0xD2 SWAP2 SWAP1 PUSH2 0x6B7 JUMP JUMPDEST PUSH1 0x40 MLOAD DUP1 SWAP2 SUB SWAP1 RETURN JUMPDEST CALLVALUE DUP1 ISZERO PUSH2 0xE7 JUMPI PUSH1 0x0 DUP1 REVERT JUMPDEST POP PUSH2 0xF0 PUSH2 0x15A JUMP JUMPDEST PUSH1 0x40 MLOAD PUSH2 0xFD SWAP2 SWAP1 PUSH2 0x5CE JUMP JUMPDEST PUSH1 0x40 MLOAD DUP1 SWAP2 SUB SWAP1 RETURN JUMPDEST CALLVALUE DUP1 ISZERO PUSH2 0x112 JUMPI PUSH1 0x0 DUP1 REVERT JUMPDEST POP PUSH2 0x11B PUSH2 0x180 JUMP JUMPDEST PUSH1 0x40 MLOAD PUSH2 0x128 SWAP2 SWAP1 PUSH2 0x6D2 JUMP JUMPDEST PUSH1 0x40 MLOAD DUP1 SWAP2 SUB SWAP1 RETURN JUMPDEST PUSH2 0x139 PUSH2 0x193 JUMP JUMPDEST STOP JUMPDEST PUSH1 0x0 SELFBALANCE SWAP1 POP SWAP1 JUMP JUMPDEST PUSH1 0x0 DUP1 SLOAD SWAP1 PUSH2 0x100 EXP SWAP1 DIV PUSH1 0xFF AND DUP2 JUMP JUMPDEST PUSH1 0x1 SLOAD DUP2 JUMP JUMPDEST PUSH1 0x2 PUSH1 0x0 SWAP1 SLOAD SWAP1 PUSH2 0x100 EXP SWAP1 DIV PUSH20 0xFFFFFFFFFFFFFFFFFFFFFFFFFFFFFFFFFFFFFFFF AND DUP2 JUMP JUMPDEST PUSH1 0x0 PUSH1 0x1 SWAP1 SLOAD SWAP1 PUSH2 0x100 EXP SWAP1 DIV PUSH1 0xFF AND DUP2 JUMP JUMPDEST PUSH1 0x0 DUP1 PUSH1 0x1 SWAP1 SLOAD SWAP1 PUSH2 0x100 EXP SWAP1 DIV PUSH1 0xFF AND PUSH1 0xFF AND GT PUSH2 0x1E7 JUMPI PUSH1 0x40 MLOAD PUSH32 0x8C379A000000000000000000000000000000000000000000000000000000000 DUP2 MSTORE PUSH1 0x4 ADD PUSH2 0x1DE SWAP1 PUSH2 0x677 JUMP JUMPDEST PUSH1 0x40 MLOAD DUP1 SWAP2 SUB SWAP1 REVERT JUMPDEST PUSH1 0x0 PUSH2 0x1F1 PUSH2 0x13B JUMP JUMPDEST GT PUSH2 0x231 JUMPI PUSH1 0x40 MLOAD PUSH32 0x8C379A000000000000000000000000000000000000000000000000000000000 DUP2 MSTORE PUSH1 0x4 ADD PUSH2 0x228 SWAP1 PUSH2 0x657 JUMP JUMPDEST PUSH1 0x40 MLOAD DUP1 SWAP2 SUB SWAP1 REVERT JUMPDEST PUSH1 0x3 PUSH1 0x0 CALLER PUSH20 0xFFFFFFFFFFFFFFFFFFFFFFFFFFFFFFFFFFFFFFFF AND PUSH20 0xFFFFFFFFFFFFFFFFFFFFFFFFFFFFFFFFFFFFFFFF AND DUP2 MSTORE PUSH1 0x20 ADD SWAP1 DUP2 MSTORE PUSH1 0x20 ADD PUSH1 0x0 KECCAK256 PUSH1 0x0 SWAP1 SLOAD SWAP1 PUSH2 0x100 EXP SWAP1 DIV PUSH1 0xFF AND ISZERO PUSH2 0x2BE JUMPI PUSH1 0x40 MLOAD PUSH32 0x8C379A000000000000000000000000000000000000000000000000000000000 DUP2 MSTORE PUSH1 0x4 ADD PUSH2 0x2B5 SWAP1 PUSH2 0x697 JUMP JUMPDEST PUSH1 0x40 MLOAD DUP1 SWAP2 SUB SWAP1 REVERT JUMPDEST PUSH1 0x1 PUSH1 0x3 PUSH1 0x0 CALLER PUSH20 0xFFFFFFFFFFFFFFFFFFFFFFFFFFFFFFFFFFFFFFFF AND PUSH20 0xFFFFFFFFFFFFFFFFFFFFFFFFFFFFFFFFFFFFFFFF AND DUP2 MSTORE PUSH1 0x20 ADD SWAP1 DUP2 MSTORE PUSH1 0x20 ADD PUSH1 0x0 KECCAK256 PUSH1 0x0 PUSH2 0x100 EXP DUP2 SLOAD DUP2 PUSH1 0xFF MUL NOT AND SWAP1 DUP4 ISZERO ISZERO MUL OR SWAP1 SSTORE POP PUSH1 0x0 DUP1 SLOAD SWAP1 PUSH2 0x100 EXP SWAP1 DIV PUSH1 0xFF AND ISZERO PUSH2 0x39E JUMPI PUSH1 0x0 DUP1 PUSH1 0x1 SWAP1 SLOAD SWAP1 PUSH2 0x100 EXP SWAP1 DIV PUSH1 0xFF AND PUSH1 0xFF AND PUSH2 0x345 PUSH2 0x13B JUMP JUMPDEST PUSH2 0x34F SWAP2 SWAP1 PUSH2 0x6FE JUMP JUMPDEST SWAP1 POP CALLER PUSH20 0xFFFFFFFFFFFFFFFFFFFFFFFFFFFFFFFFFFFFFFFF AND PUSH2 0x8FC DUP3 SWAP1 DUP2 ISZERO MUL SWAP1 PUSH1 0x40 MLOAD PUSH1 0x0 PUSH1 0x40 MLOAD DUP1 DUP4 SUB DUP2 DUP6 DUP9 DUP9 CALL SWAP4 POP POP POP POP ISZERO DUP1 ISZERO PUSH2 0x397 JUMPI RETURNDATASIZE PUSH1 0x0 DUP1 RETURNDATACOPY RETURNDATASIZE PUSH1 0x0 REVERT JUMPDEST POP POP PUSH2 0x4EF JUMP JUMPDEST PUSH1 0x1 PUSH1 0x0 PUSH1 0x1 SWAP1 SLOAD SWAP1 PUSH2 0x100 EXP SWAP1 DIV PUSH1 0xFF AND PUSH1 0xFF AND EQ ISZERO PUSH2 0x40C JUMPI CALLER PUSH20 0xFFFFFFFFFFFFFFFFFFFFFFFFFFFFFFFFFFFFFFFF AND PUSH2 0x8FC PUSH2 0x3DB PUSH2 0x13B JUMP JUMPDEST SWAP1 DUP2 ISZERO MUL SWAP1 PUSH1 0x40 MLOAD PUSH1 0x0 PUSH1 0x40 MLOAD DUP1 DUP4 SUB DUP2 DUP6 DUP9 DUP9 CALL SWAP4 POP POP POP POP ISZERO DUP1 ISZERO PUSH2 0x406 JUMPI RETURNDATASIZE PUSH1 0x0 DUP1 RETURNDATACOPY RETURNDATASIZE PUSH1 0x0 REVERT JUMPDEST POP PUSH2 0x4EE JUMP JUMPDEST PUSH1 0x0 PUSH1 0xA PUSH1 0x2 PUSH1 0x0 SWAP1 SLOAD SWAP1 PUSH2 0x100 EXP SWAP1 DIV PUSH20 0xFFFFFFFFFFFFFFFFFFFFFFFFFFFFFFFFFFFFFFFF AND PUSH1 0x1 SLOAD PUSH1 0x0 PUSH1 0x1 SWAP1 SLOAD SWAP1 PUSH2 0x100 EXP SWAP1 DIV PUSH1 0xFF AND TIMESTAMP CALLER PUSH1 0x40 MLOAD PUSH1 0x20 ADD PUSH2 0x45C SWAP6 SWAP5 SWAP4 SWAP3 SWAP2 SWAP1 PUSH2 0x5E9 JUMP JUMPDEST PUSH1 0x40 MLOAD PUSH1 0x20 DUP2 DUP4 SUB SUB DUP2 MSTORE SWAP1 PUSH1 0x40 MSTORE DUP1 MLOAD SWAP1 PUSH1 0x20 ADD KECCAK256 PUSH1 0x0 SHR PUSH2 0x47F SWAP2 SWAP1 PUSH2 0x808 JUMP JUMPDEST SWAP1 POP PUSH1 0x0 PUSH1 0xA DUP3 PUSH2 0x48E PUSH2 0x13B JUMP JUMPDEST PUSH2 0x498 SWAP2 SWAP1 PUSH2 0x72F JUMP JUMPDEST PUSH2 0x4A2 SWAP2 SWAP1 PUSH2 0x6FE JUMP JUMPDEST SWAP1 POP CALLER PUSH20 0xFFFFFFFFFFFFFFFFFFFFFFFFFFFFFFFFFFFFFFFF AND PUSH2 0x8FC DUP3 SWAP1 DUP2 ISZERO MUL SWAP1 PUSH1 0x40 MLOAD PUSH1 0x0 PUSH1 0x40 MLOAD DUP1 DUP4 SUB DUP2 DUP6 DUP9 DUP9 CALL SWAP4 POP POP POP POP ISZERO DUP1 ISZERO PUSH2 0x4EA JUMPI RETURNDATASIZE PUSH1 0x0 DUP1 RETURNDATACOPY RETURNDATASIZE PUSH1 0x0 REVERT JUMPDEST POP POP POP JUMPDEST JUMPDEST PUSH1 0x0 PUSH1 0x1 DUP2 DUP2 SWAP1 SLOAD SWAP1 PUSH2 0x100 EXP SWAP1 DIV PUSH1 0xFF AND DUP1 SWAP3 SWAP2 SWAP1 PUSH2 0x50E SWAP1 PUSH2 0x7DE JUMP JUMPDEST SWAP2 SWAP1 PUSH2 0x100 EXP DUP2 SLOAD DUP2 PUSH1 0xFF MUL NOT AND SWAP1 DUP4 PUSH1 0xFF AND MUL OR SWAP1 SSTORE POP POP JUMP JUMPDEST PUSH2 0x532 DUP2 PUSH2 0x789 JUMP JUMPDEST DUP3 MSTORE POP POP JUMP JUMPDEST PUSH2 0x541 DUP2 PUSH2 0x79B JUMP JUMPDEST DUP3 MSTORE POP POP JUMP JUMPDEST PUSH1 0x0 PUSH2 0x554 PUSH1 0x20 DUP4 PUSH2 0x6ED JUMP JUMPDEST SWAP2 POP PUSH2 0x55F DUP3 PUSH2 0x897 JUMP JUMPDEST PUSH1 0x20 DUP3 ADD SWAP1 POP SWAP2 SWAP1 POP JUMP JUMPDEST PUSH1 0x0 PUSH2 0x577 PUSH1 0x14 DUP4 PUSH2 0x6ED JUMP JUMPDEST SWAP2 POP PUSH2 0x582 DUP3 PUSH2 0x8C0 JUMP JUMPDEST PUSH1 0x20 DUP3 ADD SWAP1 POP SWAP2 SWAP1 POP JUMP JUMPDEST PUSH1 0x0 PUSH2 0x59A PUSH1 0x15 DUP4 PUSH2 0x6ED JUMP JUMPDEST SWAP2 POP PUSH2 0x5A5 DUP3 PUSH2 0x8E9 JUMP JUMPDEST PUSH1 0x20 DUP3 ADD SWAP1 POP SWAP2 SWAP1 POP JUMP JUMPDEST PUSH2 0x5B9 DUP2 PUSH2 0x7C7 JUMP JUMPDEST DUP3 MSTORE POP POP JUMP JUMPDEST PUSH2 0x5C8 DUP2 PUSH2 0x7D1 JUMP JUMPDEST DUP3 MSTORE POP POP JUMP JUMPDEST PUSH1 0x0 PUSH1 0x20 DUP3 ADD SWAP1 POP PUSH2 0x5E3 PUSH1 0x0 DUP4 ADD DUP5 PUSH2 0x529 JUMP JUMPDEST SWAP3 SWAP2 POP POP JUMP JUMPDEST PUSH1 0x0 PUSH1 0xA0 DUP3 ADD SWAP1 POP PUSH2 0x5FE PUSH1 0x0 DUP4 ADD DUP9 PUSH2 0x529 JUMP JUMPDEST PUSH2 0x60B PUSH1 0x20 DUP4 ADD DUP8 PUSH2 0x5B0 JUMP JUMPDEST PUSH2 0x618 PUSH1 0x40 DUP4 ADD DUP7 PUSH2 0x5BF JUMP JUMPDEST PUSH2 0x625 PUSH1 0x60 DUP4 ADD DUP6 PUSH2 0x5B0 JUMP JUMPDEST PUSH2 0x632 PUSH1 0x80 DUP4 ADD DUP5 PUSH2 0x529 JUMP JUMPDEST SWAP7 SWAP6 POP POP POP POP POP POP JUMP JUMPDEST PUSH1 0x0 PUSH1 0x20 DUP3 ADD SWAP1 POP PUSH2 0x651 PUSH1 0x0 DUP4 ADD DUP5 PUSH2 0x538 JUMP JUMPDEST SWAP3 SWAP2 POP POP JUMP JUMPDEST PUSH1 0x0 PUSH1 0x20 DUP3 ADD SWAP1 POP DUP2 DUP2 SUB PUSH1 0x0 DUP4 ADD MSTORE PUSH2 0x670 DUP2 PUSH2 0x547 JUMP JUMPDEST SWAP1 POP SWAP2 SWAP1 POP JUMP JUMPDEST PUSH1 0x0 PUSH1 0x20 DUP3 ADD SWAP1 POP DUP2 DUP2 SUB PUSH1 0x0 DUP4 ADD MSTORE PUSH2 0x690 DUP2 PUSH2 0x56A JUMP JUMPDEST SWAP1 POP SWAP2 SWAP1 POP JUMP JUMPDEST PUSH1 0x0 PUSH1 0x20 DUP3 ADD SWAP1 POP DUP2 DUP2 SUB PUSH1 0x0 DUP4 ADD MSTORE PUSH2 0x6B0 DUP2 PUSH2 0x58D JUMP JUMPDEST SWAP1 POP SWAP2 SWAP1 POP JUMP JUMPDEST PUSH1 0x0 PUSH1 0x20 DUP3 ADD SWAP1 POP PUSH2 0x6CC PUSH1 0x0 DUP4 ADD DUP5 PUSH2 0x5B0 JUMP JUMPDEST SWAP3 SWAP2 POP POP JUMP JUMPDEST PUSH1 0x0 PUSH1 0x20 DUP3 ADD SWAP1 POP PUSH2 0x6E7 PUSH1 0x0 DUP4 ADD DUP5 PUSH2 0x5BF JUMP JUMPDEST SWAP3 SWAP2 POP POP JUMP JUMPDEST PUSH1 0x0 DUP3 DUP3 MSTORE PUSH1 0x20 DUP3 ADD SWAP1 POP SWAP3 SWAP2 POP POP JUMP JUMPDEST PUSH1 0x0 PUSH2 0x709 DUP3 PUSH2 0x7C7 JUMP JUMPDEST SWAP2 POP PUSH2 0x714 DUP4 PUSH2 0x7C7 JUMP JUMPDEST SWAP3 POP DUP3 PUSH2 0x724 JUMPI PUSH2 0x723 PUSH2 0x868 JUMP JUMPDEST JUMPDEST DUP3 DUP3 DIV SWAP1 POP SWAP3 SWAP2 POP POP JUMP JUMPDEST PUSH1 0x0 PUSH2 0x73A DUP3 PUSH2 0x7C7 JUMP JUMPDEST SWAP2 POP PUSH2 0x745 DUP4 PUSH2 0x7C7 JUMP JUMPDEST SWAP3 POP DUP2 PUSH32 0xFFFFFFFFFFFFFFFFFFFFFFFFFFFFFFFFFFFFFFFFFFFFFFFFFFFFFFFFFFFFFFFF DIV DUP4 GT DUP3 ISZERO ISZERO AND ISZERO PUSH2 0x77E JUMPI PUSH2 0x77D PUSH2 0x839 JUMP JUMPDEST JUMPDEST DUP3 DUP3 MUL SWAP1 POP SWAP3 SWAP2 POP POP JUMP JUMPDEST PUSH1 0x0 PUSH2 0x794 DUP3 PUSH2 0x7A7 JUMP JUMPDEST SWAP1 POP SWAP2 SWAP1 POP JUMP JUMPDEST PUSH1 0x0 DUP2 ISZERO ISZERO SWAP1 POP SWAP2 SWAP1 POP JUMP JUMPDEST PUSH1 0x0 PUSH20 0xFFFFFFFFFFFFFFFFFFFFFFFFFFFFFFFFFFFFFFFF DUP3 AND SWAP1 POP SWAP2 SWAP1 POP JUMP JUMPDEST PUSH1 0x0 DUP2 SWAP1 POP SWAP2 SWAP1 POP JUMP JUMPDEST PUSH1 0x0 PUSH1 0xFF DUP3 AND SWAP1 POP SWAP2 SWAP1 POP JUMP JUMPDEST PUSH1 0x0 PUSH2 0x7E9 DUP3 PUSH2 0x7D1 JUMP JUMPDEST SWAP2 POP PUSH1 0x0 DUP3 EQ ISZERO PUSH2 0x7FD JUMPI PUSH2 0x7FC PUSH2 0x839 JUMP JUMPDEST JUMPDEST PUSH1 0x1 DUP3 SUB SWAP1 POP SWAP2 SWAP1 POP JUMP JUMPDEST PUSH1 0x0 PUSH2 0x813 DUP3 PUSH2 0x7C7 JUMP JUMPDEST SWAP2 POP PUSH2 0x81E DUP4 PUSH2 0x7C7 JUMP JUMPDEST SWAP3 POP DUP3 PUSH2 0x82E JUMPI PUSH2 0x82D PUSH2 0x868 JUMP JUMPDEST JUMPDEST DUP3 DUP3 MOD SWAP1 POP SWAP3 SWAP2 POP POP JUMP JUMPDEST PUSH32 0x4E487B7100000000000000000000000000000000000000000000000000000000 PUSH1 0x0 MSTORE PUSH1 0x11 PUSH1 0x4 MSTORE PUSH1 0x24 PUSH1 0x0 REVERT JUMPDEST PUSH32 0x4E487B7100000000000000000000000000000000000000000000000000000000 PUSH1 0x0 MSTORE PUSH1 0x12 PUSH1 0x4 MSTORE PUSH1 0x24 PUSH1 0x0 REVERT JUMPDEST PUSH32 0x20636F6E747261746327732062616C616E6365206D75737420656E6F75676820 PUSH1 0x0 DUP3 ADD MSTORE POP JUMP JUMPDEST PUSH32 0x726564207061636B6574206D757374206C656674000000000000000000000000 PUSH1 0x0 DUP3 ADD MSTORE POP JUMP JUMPDEST PUSH32 0x207573657220646F6573206E6F74207374616B65200000000000000000000000 PUSH1 0x0 DUP3 ADD MSTORE POP JUMP INVALID LOG2 PUSH5 0x6970667358 0x22 SLT KECCAK256 0x5D 0x27 PUSH27 0x720F1468B6F8FBE9B9C060A60721D7DD513F58C33054001E6FDE6A SWAP12 0xB8 PUSH5 0x736F6C6343 STOP ADDMOD SMOD STOP CALLER "
		},
		"gasEstimates": {
			"creation": {
				"codeDepositCost": "475200",
				"executionCost": "infinite",
				"totalCost": "infinite"
			},
			"external": {
				"getBalance()": "317",
				"rCount()": "2587",
				"rTotalAmount()": "2451",
				"rType()": "2468",
				"stakePacket()": "infinite",
				"tuhao()": "2558"
			}
		},
		"methodIdentifiers": {
			"getBalance()": "12065fe0",
			"rCount()": "96c993df",
			"rTotalAmount()": "5ccdba7b",
			"rType()": "23e30f5c",
			"stakePacket()": "e0153037",
			"tuhao()": "6878dfa4"
		}
	},
	"abi": [
		{
			"inputs": [
				{
					"internalType": "bool",
					"name": "isAvg",
					"type": "bool"
				},
				{
					"internalType": "uint8",
					"name": "_count",
					"type": "uint8"
				},
				{
					"internalType": "uint256",
					"name": "_amount",
					"type": "uint256"
				}
			],
			"stateMutability": "payable",
			"type": "constructor"
		},
		{
			"inputs": [],
			"name": "getBalance",
			"outputs": [
				{
					"internalType": "uint256",
					"name": "",
					"type": "uint256"
				}
			],
			"stateMutability": "view",
			"type": "function"
		},
		{
			"inputs": [],
			"name": "rCount",
			"outputs": [
				{
					"internalType": "uint8",
					"name": "",
					"type": "uint8"
				}
			],
			"stateMutability": "view",
			"type": "function"
		},
		{
			"inputs": [],
			"name": "rTotalAmount",
			"outputs": [
				{
					"internalType": "uint256",
					"name": "",
					"type": "uint256"
				}
			],
			"stateMutability": "view",
			"type": "function"
		},
		{
			"inputs": [],
			"name": "rType",
			"outputs": [
				{
					"internalType": "bool",
					"name": "",
					"type": "bool"
				}
			],
			"stateMutability": "view",
			"type": "function"
		},
		{
			"inputs": [],
			"name": "stakePacket",
			"outputs": [],
			"stateMutability": "payable",
			"type": "function"
		},
		{
			"inputs": [],
			"name": "tuhao",
			"outputs": [
				{
					"internalType": "address",
					"name": "",
					"type": "address"
				}
			],
			"stateMutability": "view",
			"type": "function"
		}
	]
}