{
	"test/04-suction.sol": {
		"suction": {
			"abi": [
				{
					"inputs": [
						{
							"internalType": "address",
							"name": "_seller",
							"type": "address"
						},
						{
							"internalType": "uint256",
							"name": "_starBid",
							"type": "uint256"
						}
					],
					"stateMutability": "nonpayable",
					"type": "constructor"
				},
				{
					"anonymous": false,
					"inputs": [
						{
							"indexed": false,
							"internalType": "address",
							"name": "_highter",
							"type": "address"
						},
						{
							"indexed": false,
							"internalType": "uint256",
							"name": "hightAmount",
							"type": "uint256"
						}
					],
					"name": "BidEvent",
					"type": "event"
				},
				{
					"anonymous": false,
					"inputs": [
						{
							"indexed": false,
							"internalType": "address",
							"name": "_winner",
							"type": "address"
						},
						{
							"indexed": false,
							"internalType": "uint256",
							"name": "_amount",
							"type": "uint256"
						}
					],
					"name": "EndBidEvent",
					"type": "event"
				},
				{
					"inputs": [
						{
							"internalType": "uint256",
							"name": "_amount",
							"type": "uint256"
						}
					],
					"name": "bid",
					"outputs": [],
					"stateMutability": "payable",
					"type": "function"
				},
				{
					"inputs": [],
					"name": "endTime",
					"outputs": [
						{
							"internalType": "uint256",
							"name": "",
							"type": "uint256"
						}
					],
					"stateMutability": "view",
					"type": "function"
				},
				{
					"inputs": [],
					"name": "endbid",
					"outputs": [],
					"stateMutability": "payable",
					"type": "function"
				},
				{
					"inputs": [],
					"name": "hightBid",
					"outputs": [
						{
							"internalType": "uint256",
							"name": "",
							"type": "uint256"
						}
					],
					"stateMutability": "view",
					"type": "function"
				},
				{
					"inputs": [],
					"name": "startBid",
					"outputs": [
						{
							"internalType": "uint256",
							"name": "",
							"type": "uint256"
						}
					],
					"stateMutability": "view",
					"type": "function"
				}
			],
			"devdoc": {
				"kind": "dev",
				"methods": {},
				"version": 1
			},
			"evm": {
				"assembly": "    /* \"test/04-suction.sol\":184:2643  contract suction{   \r... */\n  mstore(0x40, 0x80)\n    /* \"test/04-suction.sol\":822:1150  constructor (address _seller, uint256 _starBid){\r... */\n  callvalue\n  dup1\n  iszero\n  tag_1\n  jumpi\n  0x00\n  dup1\n  revert\ntag_1:\n  pop\n  mload(0x40)\n  sub(codesize, bytecodeSize)\n  dup1\n  bytecodeSize\n  dup4\n  codecopy\n  dup2\n  dup2\n  add\n  0x40\n  mstore\n  dup2\n  add\n  swap1\n  tag_2\n  swap2\n  swap1\n  tag_3\n  jump\t// in\ntag_2:\n    /* \"test/04-suction.sol\":902:912  msg.sender */\n  caller\n    /* \"test/04-suction.sol\":884:889  owner */\n  0x00\n  dup1\n    /* \"test/04-suction.sol\":884:913  owner   = payable(msg.sender) */\n  0x0100\n  exp\n  dup2\n  sload\n  dup2\n  0xffffffffffffffffffffffffffffffffffffffff\n  mul\n  not\n  and\n  swap1\n  dup4\n  0xffffffffffffffffffffffffffffffffffffffff\n  and\n  mul\n  or\n  swap1\n  sstore\n  pop\n    /* \"test/04-suction.sol\":946:953  _seller */\n  dup2\n    /* \"test/04-suction.sol\":928:934  seller */\n  0x01\n  0x00\n    /* \"test/04-suction.sol\":928:954  seller  = payable(_seller) */\n  0x0100\n  exp\n  dup2\n  sload\n  dup2\n  0xffffffffffffffffffffffffffffffffffffffff\n  mul\n  not\n  and\n  swap1\n  dup4\n  0xffffffffffffffffffffffffffffffffffffffff\n  and\n  mul\n  or\n  swap1\n  sstore\n  pop\n    /* \"test/04-suction.sol\":979:987  _starBid */\n  dup1\n    /* \"test/04-suction.sol\":969:977  startBid */\n  0x04\n    /* \"test/04-suction.sol\":969:987  startBid= _starBid */\n  dup2\n  swap1\n  sstore\n  pop\n    /* \"test/04-suction.sol\":1015:1020  false */\n  0x00\n    /* \"test/04-suction.sol\":1002:1012  isFinished */\n  0x06\n  0x00\n    /* \"test/04-suction.sol\":1002:1020  isFinished = false */\n  0x0100\n  exp\n  dup2\n  sload\n  dup2\n  0xff\n  mul\n  not\n  and\n  swap1\n  dup4\n  iszero\n  iszero\n  mul\n  or\n  swap1\n  sstore\n  pop\n    /* \"test/04-suction.sol\":1061:1064  120 */\n  0x78\n    /* \"test/04-suction.sol\":1044:1059  block.timestamp */\n  timestamp\n    /* \"test/04-suction.sol\":1044:1064  block.timestamp +120 */\n  tag_6\n  swap2\n  swap1\n  tag_7\n  jump\t// in\ntag_6:\n    /* \"test/04-suction.sol\":1035:1042  endTime */\n  0x05\n    /* \"test/04-suction.sol\":1035:1064  endTime =block.timestamp +120 */\n  dup2\n  swap1\n  sstore\n  pop\n    /* \"test/04-suction.sol\":1090:1091  0 */\n  0x00\n    /* \"test/04-suction.sol\":1079:1087  hightBid */\n  0x02\n    /* \"test/04-suction.sol\":1079:1091  hightBid = 0 */\n  dup2\n  swap1\n  sstore\n  pop\n    /* \"test/04-suction.sol\":822:1150  constructor (address _seller, uint256 _starBid){\r... */\n  pop\n  pop\n    /* \"test/04-suction.sol\":184:2643  contract suction{   \r... */\n  jump(tag_8)\n    /* \"#utility.yul\":7:150   */\ntag_10:\n    /* \"#utility.yul\":64:69   */\n  0x00\n    /* \"#utility.yul\":95:101   */\n  dup2\n    /* \"#utility.yul\":89:102   */\n  mload\n    /* \"#utility.yul\":80:102   */\n  swap1\n  pop\n    /* \"#utility.yul\":111:144   */\n  tag_12\n    /* \"#utility.yul\":138:143   */\n  dup2\n    /* \"#utility.yul\":111:144   */\n  tag_13\n  jump\t// in\ntag_12:\n    /* \"#utility.yul\":7:150   */\n  swap3\n  swap2\n  pop\n  pop\n  jump\t// out\n    /* \"#utility.yul\":156:299   */\ntag_14:\n    /* \"#utility.yul\":213:218   */\n  0x00\n    /* \"#utility.yul\":244:250   */\n  dup2\n    /* \"#utility.yul\":238:251   */\n  mload\n    /* \"#utility.yul\":229:251   */\n  swap1\n  pop\n    /* \"#utility.yul\":260:293   */\n  tag_16\n    /* \"#utility.yul\":287:292   */\n  dup2\n    /* \"#utility.yul\":260:293   */\n  tag_17\n  jump\t// in\ntag_16:\n    /* \"#utility.yul\":156:299   */\n  swap3\n  swap2\n  pop\n  pop\n  jump\t// out\n    /* \"#utility.yul\":305:812   */\ntag_3:\n    /* \"#utility.yul\":384:390   */\n  0x00\n    /* \"#utility.yul\":392:398   */\n  dup1\n    /* \"#utility.yul\":441:443   */\n  0x40\n    /* \"#utility.yul\":429:438   */\n  dup4\n    /* \"#utility.yul\":420:427   */\n  dup6\n    /* \"#utility.yul\":416:439   */\n  sub\n    /* \"#utility.yul\":412:444   */\n  slt\n    /* \"#utility.yul\":409:528   */\n  iszero\n  tag_19\n  jumpi\n    /* \"#utility.yul\":447:526   */\n  tag_20\n  tag_21\n  jump\t// in\ntag_20:\n    /* \"#utility.yul\":409:528   */\ntag_19:\n    /* \"#utility.yul\":567:568   */\n  0x00\n    /* \"#utility.yul\":592:656   */\n  tag_22\n    /* \"#utility.yul\":648:655   */\n  dup6\n    /* \"#utility.yul\":639:645   */\n  dup3\n    /* \"#utility.yul\":628:637   */\n  dup7\n    /* \"#utility.yul\":624:646   */\n  add\n    /* \"#utility.yul\":592:656   */\n  tag_10\n  jump\t// in\ntag_22:\n    /* \"#utility.yul\":582:656   */\n  swap3\n  pop\n    /* \"#utility.yul\":538:666   */\n  pop\n    /* \"#utility.yul\":705:707   */\n  0x20\n    /* \"#utility.yul\":731:795   */\n  tag_23\n    /* \"#utility.yul\":787:794   */\n  dup6\n    /* \"#utility.yul\":778:784   */\n  dup3\n    /* \"#utility.yul\":767:776   */\n  dup7\n    /* \"#utility.yul\":763:785   */\n  add\n    /* \"#utility.yul\":731:795   */\n  tag_14\n  jump\t// in\ntag_23:\n    /* \"#utility.yul\":721:795   */\n  swap2\n  pop\n    /* \"#utility.yul\":676:805   */\n  pop\n    /* \"#utility.yul\":305:812   */\n  swap3\n  pop\n  swap3\n  swap1\n  pop\n  jump\t// out\n    /* \"#utility.yul\":899:1204   */\ntag_7:\n    /* \"#utility.yul\":939:942   */\n  0x00\n    /* \"#utility.yul\":958:978   */\n  tag_27\n    /* \"#utility.yul\":976:977   */\n  dup3\n    /* \"#utility.yul\":958:978   */\n  tag_28\n  jump\t// in\ntag_27:\n    /* \"#utility.yul\":953:978   */\n  swap2\n  pop\n    /* \"#utility.yul\":992:1012   */\n  tag_29\n    /* \"#utility.yul\":1010:1011   */\n  dup4\n    /* \"#utility.yul\":992:1012   */\n  tag_28\n  jump\t// in\ntag_29:\n    /* \"#utility.yul\":987:1012   */\n  swap3\n  pop\n    /* \"#utility.yul\":1146:1147   */\n  dup3\n    /* \"#utility.yul\":1078:1144   */\n  0xffffffffffffffffffffffffffffffffffffffffffffffffffffffffffffffff\n    /* \"#utility.yul\":1074:1148   */\n  sub\n    /* \"#utility.yul\":1071:1072   */\n  dup3\n    /* \"#utility.yul\":1068:1149   */\n  gt\n    /* \"#utility.yul\":1065:1172   */\n  iszero\n  tag_30\n  jumpi\n    /* \"#utility.yul\":1152:1170   */\n  tag_31\n  tag_32\n  jump\t// in\ntag_31:\n    /* \"#utility.yul\":1065:1172   */\ntag_30:\n    /* \"#utility.yul\":1196:1197   */\n  dup3\n    /* \"#utility.yul\":1193:1194   */\n  dup3\n    /* \"#utility.yul\":1189:1198   */\n  add\n    /* \"#utility.yul\":1182:1198   */\n  swap1\n  pop\n    /* \"#utility.yul\":899:1204   */\n  swap3\n  swap2\n  pop\n  pop\n  jump\t// out\n    /* \"#utility.yul\":1210:1306   */\ntag_33:\n    /* \"#utility.yul\":1247:1254   */\n  0x00\n    /* \"#utility.yul\":1276:1300   */\n  tag_35\n    /* \"#utility.yul\":1294:1299   */\n  dup3\n    /* \"#utility.yul\":1276:1300   */\n  tag_36\n  jump\t// in\ntag_35:\n    /* \"#utility.yul\":1265:1300   */\n  swap1\n  pop\n    /* \"#utility.yul\":1210:1306   */\n  swap2\n  swap1\n  pop\n  jump\t// out\n    /* \"#utility.yul\":1312:1438   */\ntag_36:\n    /* \"#utility.yul\":1349:1356   */\n  0x00\n    /* \"#utility.yul\":1389:1431   */\n  0xffffffffffffffffffffffffffffffffffffffff\n    /* \"#utility.yul\":1382:1387   */\n  dup3\n    /* \"#utility.yul\":1378:1432   */\n  and\n    /* \"#utility.yul\":1367:1432   */\n  swap1\n  pop\n    /* \"#utility.yul\":1312:1438   */\n  swap2\n  swap1\n  pop\n  jump\t// out\n    /* \"#utility.yul\":1444:1521   */\ntag_28:\n    /* \"#utility.yul\":1481:1488   */\n  0x00\n    /* \"#utility.yul\":1510:1515   */\n  dup2\n    /* \"#utility.yul\":1499:1515   */\n  swap1\n  pop\n    /* \"#utility.yul\":1444:1521   */\n  swap2\n  swap1\n  pop\n  jump\t// out\n    /* \"#utility.yul\":1527:1707   */\ntag_32:\n    /* \"#utility.yul\":1575:1652   */\n  0x4e487b7100000000000000000000000000000000000000000000000000000000\n    /* \"#utility.yul\":1572:1573   */\n  0x00\n    /* \"#utility.yul\":1565:1653   */\n  mstore\n    /* \"#utility.yul\":1672:1676   */\n  0x11\n    /* \"#utility.yul\":1669:1670   */\n  0x04\n    /* \"#utility.yul\":1662:1677   */\n  mstore\n    /* \"#utility.yul\":1696:1700   */\n  0x24\n    /* \"#utility.yul\":1693:1694   */\n  0x00\n    /* \"#utility.yul\":1686:1701   */\n  revert\n    /* \"#utility.yul\":1836:1953   */\ntag_21:\n    /* \"#utility.yul\":1945:1946   */\n  0x00\n    /* \"#utility.yul\":1942:1943   */\n  dup1\n    /* \"#utility.yul\":1935:1947   */\n  revert\n    /* \"#utility.yul\":1959:2081   */\ntag_13:\n    /* \"#utility.yul\":2032:2056   */\n  tag_44\n    /* \"#utility.yul\":2050:2055   */\n  dup2\n    /* \"#utility.yul\":2032:2056   */\n  tag_33\n  jump\t// in\ntag_44:\n    /* \"#utility.yul\":2025:2030   */\n  dup2\n    /* \"#utility.yul\":2022:2057   */\n  eq\n    /* \"#utility.yul\":2012:2075   */\n  tag_45\n  jumpi\n    /* \"#utility.yul\":2071:2072   */\n  0x00\n    /* \"#utility.yul\":2068:2069   */\n  dup1\n    /* \"#utility.yul\":2061:2073   */\n  revert\n    /* \"#utility.yul\":2012:2075   */\ntag_45:\n    /* \"#utility.yul\":1959:2081   */\n  pop\n  jump\t// out\n    /* \"#utility.yul\":2087:2209   */\ntag_17:\n    /* \"#utility.yul\":2160:2184   */\n  tag_47\n    /* \"#utility.yul\":2178:2183   */\n  dup2\n    /* \"#utility.yul\":2160:2184   */\n  tag_28\n  jump\t// in\ntag_47:\n    /* \"#utility.yul\":2153:2158   */\n  dup2\n    /* \"#utility.yul\":2150:2185   */\n  eq\n    /* \"#utility.yul\":2140:2203   */\n  tag_48\n  jumpi\n    /* \"#utility.yul\":2199:2200   */\n  0x00\n    /* \"#utility.yul\":2196:2197   */\n  dup1\n    /* \"#utility.yul\":2189:2201   */\n  revert\n    /* \"#utility.yul\":2140:2203   */\ntag_48:\n    /* \"#utility.yul\":2087:2209   */\n  pop\n  jump\t// out\n    /* \"test/04-suction.sol\":184:2643  contract suction{   \r... */\ntag_8:\n  dataSize(sub_0)\n  dup1\n  dataOffset(sub_0)\n  0x00\n  codecopy\n  0x00\n  return\nstop\n\nsub_0: assembly {\n        /* \"test/04-suction.sol\":184:2643  contract suction{   \r... */\n      mstore(0x40, 0x80)\n      jumpi(tag_1, lt(calldatasize, 0x04))\n      shr(0xe0, calldataload(0x00))\n      dup1\n      0x3197cbb6\n      eq\n      tag_2\n      jumpi\n      dup1\n      0x454a2ab3\n      eq\n      tag_3\n      jumpi\n      dup1\n      0x741a6844\n      eq\n      tag_4\n      jumpi\n      dup1\n      0x77c5a4c6\n      eq\n      tag_5\n      jumpi\n      dup1\n      0x79a9f2fe\n      eq\n      tag_6\n      jumpi\n    tag_1:\n      0x00\n      dup1\n      revert\n        /* \"test/04-suction.sol\":522:544  uint256 public endTime */\n    tag_2:\n      callvalue\n      dup1\n      iszero\n      tag_7\n      jumpi\n      0x00\n      dup1\n      revert\n    tag_7:\n      pop\n      tag_8\n      tag_9\n      jump\t// in\n    tag_8:\n      mload(0x40)\n      tag_10\n      swap2\n      swap1\n      tag_11\n      jump\t// in\n    tag_10:\n      mload(0x40)\n      dup1\n      swap2\n      sub\n      swap1\n      return\n        /* \"test/04-suction.sol\":1181:2077  function bid(uint256 _amount) public payable {\r... */\n    tag_3:\n      tag_12\n      0x04\n      dup1\n      calldatasize\n      sub\n      dup2\n      add\n      swap1\n      tag_13\n      swap2\n      swap1\n      tag_14\n      jump\t// in\n    tag_13:\n      tag_15\n      jump\t// in\n    tag_12:\n      stop\n        /* \"test/04-suction.sol\":2113:2636  function endbid () public payable {\r... */\n    tag_4:\n      tag_16\n      tag_17\n      jump\t// in\n    tag_16:\n      stop\n        /* \"test/04-suction.sol\":464:487  uint256 public startBid */\n    tag_5:\n      callvalue\n      dup1\n      iszero\n      tag_18\n      jumpi\n      0x00\n      dup1\n      revert\n    tag_18:\n      pop\n      tag_19\n      tag_20\n      jump\t// in\n    tag_19:\n      mload(0x40)\n      tag_21\n      swap2\n      swap1\n      tag_11\n      jump\t// in\n    tag_21:\n      mload(0x40)\n      dup1\n      swap2\n      sub\n      swap1\n      return\n        /* \"test/04-suction.sol\":330:353  uint256 public hightBid */\n    tag_6:\n      callvalue\n      dup1\n      iszero\n      tag_22\n      jumpi\n      0x00\n      dup1\n      revert\n    tag_22:\n      pop\n      tag_23\n      tag_24\n      jump\t// in\n    tag_23:\n      mload(0x40)\n      tag_25\n      swap2\n      swap1\n      tag_11\n      jump\t// in\n    tag_25:\n      mload(0x40)\n      dup1\n      swap2\n      sub\n      swap1\n      return\n        /* \"test/04-suction.sol\":522:544  uint256 public endTime */\n    tag_9:\n      sload(0x05)\n      dup2\n      jump\t// out\n        /* \"test/04-suction.sol\":1181:2077  function bid(uint256 _amount) public payable {\r... */\n    tag_15:\n        /* \"test/04-suction.sol\":1259:1267  hightBid */\n      sload(0x02)\n        /* \"test/04-suction.sol\":1249:1256  _amount */\n      dup2\n        /* \"test/04-suction.sol\":1249:1267  _amount > hightBid */\n      gt\n        /* \"test/04-suction.sol\":1241:1296  require(_amount > hightBid ,\" amount must > hightBid \") */\n      tag_27\n      jumpi\n      mload(0x40)\n      0x08c379a000000000000000000000000000000000000000000000000000000000\n      dup2\n      mstore\n      0x04\n      add\n      tag_28\n      swap1\n      tag_29\n      jump\t// in\n    tag_28:\n      mload(0x40)\n      dup1\n      swap2\n      sub\n      swap1\n      revert\n    tag_27:\n        /* \"test/04-suction.sol\":1380:1389  msg.value */\n      callvalue\n        /* \"test/04-suction.sol\":1369:1376  _amount */\n      dup2\n        /* \"test/04-suction.sol\":1369:1389  _amount == msg.value */\n      eq\n        /* \"test/04-suction.sol\":1361:1417  require(_amount == msg.value,\"amount must equal value \") */\n      tag_30\n      jumpi\n      mload(0x40)\n      0x08c379a000000000000000000000000000000000000000000000000000000000\n      dup2\n      mstore\n      0x04\n      add\n      tag_31\n      swap1\n      tag_32\n      jump\t// in\n    tag_31:\n      mload(0x40)\n      dup1\n      swap2\n      sub\n      swap1\n      revert\n    tag_30:\n        /* \"test/04-suction.sol\":1486:1496  isFinished */\n      0x06\n      0x00\n      swap1\n      sload\n      swap1\n      0x0100\n      exp\n      swap1\n      div\n      0xff\n      and\n        /* \"test/04-suction.sol\":1485:1496  !isFinished */\n      iszero\n        /* \"test/04-suction.sol\":1477:1526  require(!isFinished,\" auction already finished \") */\n      tag_33\n      jumpi\n      mload(0x40)\n      0x08c379a000000000000000000000000000000000000000000000000000000000\n      dup2\n      mstore\n      0x04\n      add\n      tag_34\n      swap1\n      tag_35\n      jump\t// in\n    tag_34:\n      mload(0x40)\n      dup1\n      swap2\n      sub\n      swap1\n      revert\n    tag_33:\n        /* \"test/04-suction.sol\":1606:1613  endTime */\n      sload(0x05)\n        /* \"test/04-suction.sol\":1587:1602  block.timestamp */\n      timestamp\n        /* \"test/04-suction.sol\":1587:1613  block.timestamp <= endTime */\n      gt\n      iszero\n        /* \"test/04-suction.sol\":1579:1639  require(block.timestamp <= endTime,\" auction not time out \") */\n      tag_36\n      jumpi\n      mload(0x40)\n      0x08c379a000000000000000000000000000000000000000000000000000000000\n      dup2\n      mstore\n      0x04\n      add\n      tag_37\n      swap1\n      tag_38\n      jump\t// in\n    tag_37:\n      mload(0x40)\n      dup1\n      swap2\n      sub\n      swap1\n      revert\n    tag_36:\n        /* \"test/04-suction.sol\":1761:1771  hightBider */\n      0x03\n      0x00\n      swap1\n      sload\n      swap1\n      0x0100\n      exp\n      swap1\n      div\n      0xffffffffffffffffffffffffffffffffffffffff\n      and\n        /* \"test/04-suction.sol\":1747:1771  address(0) != hightBider */\n      0xffffffffffffffffffffffffffffffffffffffff\n      and\n        /* \"test/04-suction.sol\":1755:1756  0 */\n      0x00\n        /* \"test/04-suction.sol\":1747:1771  address(0) != hightBider */\n      0xffffffffffffffffffffffffffffffffffffffff\n      and\n      eq\n        /* \"test/04-suction.sol\":1744:1879  if(address(0) != hightBider){\r... */\n      tag_39\n      jumpi\n        /* \"test/04-suction.sol\":1791:1801  hightBider */\n      0x03\n      0x00\n      swap1\n      sload\n      swap1\n      0x0100\n      exp\n      swap1\n      div\n      0xffffffffffffffffffffffffffffffffffffffff\n      and\n        /* \"test/04-suction.sol\":1791:1810  hightBider.transfer */\n      0xffffffffffffffffffffffffffffffffffffffff\n      and\n        /* \"test/04-suction.sol\":1791:1820  hightBider.transfer(hightBid) */\n      0x08fc\n        /* \"test/04-suction.sol\":1811:1819  hightBid */\n      sload(0x02)\n        /* \"test/04-suction.sol\":1791:1820  hightBider.transfer(hightBid) */\n      swap1\n      dup2\n      iszero\n      mul\n      swap1\n      mload(0x40)\n      0x00\n      mload(0x40)\n      dup1\n      dup4\n      sub\n      dup2\n      dup6\n      dup9\n      dup9\n      call\n      swap4\n      pop\n      pop\n      pop\n      pop\n      iszero\n      dup1\n      iszero\n      tag_41\n      jumpi\n      returndatasize\n      0x00\n      dup1\n      returndatacopy\n      revert(0x00, returndatasize)\n    tag_41:\n      pop\n        /* \"test/04-suction.sol\":1744:1879  if(address(0) != hightBider){\r... */\n    tag_39:\n        /* \"test/04-suction.sol\":1961:1968  _amount */\n      dup1\n        /* \"test/04-suction.sol\":1950:1958  hightBid */\n      0x02\n        /* \"test/04-suction.sol\":1950:1968  hightBid = _amount */\n      dup2\n      swap1\n      sstore\n      pop\n        /* \"test/04-suction.sol\":2004:2014  msg.sender */\n      caller\n        /* \"test/04-suction.sol\":1983:1993  hightBider */\n      0x03\n      0x00\n        /* \"test/04-suction.sol\":1983:2015  hightBider = payable(msg.sender) */\n      0x0100\n      exp\n      dup2\n      sload\n      dup2\n      0xffffffffffffffffffffffffffffffffffffffff\n      mul\n      not\n      and\n      swap1\n      dup4\n      0xffffffffffffffffffffffffffffffffffffffff\n      and\n      mul\n      or\n      swap1\n      sstore\n      pop\n        /* \"test/04-suction.sol\":2037:2065  BidEvent(msg.sender,_amount) */\n      0x0d993d4f8a84158f5329713d6d13ef54e77b325040c887c8b3e565cfd0cd3e21\n        /* \"test/04-suction.sol\":2046:2056  msg.sender */\n      caller\n        /* \"test/04-suction.sol\":2057:2064  _amount */\n      dup3\n        /* \"test/04-suction.sol\":2037:2065  BidEvent(msg.sender,_amount) */\n      mload(0x40)\n      tag_42\n      swap3\n      swap2\n      swap1\n      tag_43\n      jump\t// in\n    tag_42:\n      mload(0x40)\n      dup1\n      swap2\n      sub\n      swap1\n      log1\n        /* \"test/04-suction.sol\":1181:2077  function bid(uint256 _amount) public payable {\r... */\n      pop\n      jump\t// out\n        /* \"test/04-suction.sol\":2113:2636  function endbid () public payable {\r... */\n    tag_17:\n        /* \"test/04-suction.sol\":2171:2181  isFinished */\n      0x06\n      0x00\n      swap1\n      sload\n      swap1\n      0x0100\n      exp\n      swap1\n      div\n      0xff\n      and\n        /* \"test/04-suction.sol\":2170:2181  !isFinished */\n      iszero\n        /* \"test/04-suction.sol\":2162:2211  require(!isFinished,\" auction already finished \") */\n      tag_45\n      jumpi\n      mload(0x40)\n      0x08c379a000000000000000000000000000000000000000000000000000000000\n      dup2\n      mstore\n      0x04\n      add\n      tag_46\n      swap1\n      tag_35\n      jump\t// in\n    tag_46:\n      mload(0x40)\n      dup1\n      swap2\n      sub\n      swap1\n      revert\n    tag_45:\n        /* \"test/04-suction.sol\":2286:2291  owner */\n      0x00\n      dup1\n      sload\n      swap1\n      0x0100\n      exp\n      swap1\n      div\n      0xffffffffffffffffffffffffffffffffffffffff\n      and\n        /* \"test/04-suction.sol\":2272:2291  msg.sender == owner */\n      0xffffffffffffffffffffffffffffffffffffffff\n      and\n        /* \"test/04-suction.sol\":2272:2282  msg.sender */\n      caller\n        /* \"test/04-suction.sol\":2272:2291  msg.sender == owner */\n      0xffffffffffffffffffffffffffffffffffffffff\n      and\n      eq\n        /* \"test/04-suction.sol\":2264:2320  require(msg.sender == owner,\"only ower can end auction\") */\n      tag_47\n      jumpi\n      mload(0x40)\n      0x08c379a000000000000000000000000000000000000000000000000000000000\n      dup2\n      mstore\n      0x04\n      add\n      tag_48\n      swap1\n      tag_49\n      jump\t// in\n    tag_48:\n      mload(0x40)\n      dup1\n      swap2\n      sub\n      swap1\n      revert\n    tag_47:\n        /* \"test/04-suction.sol\":2389:2393  true */\n      0x01\n        /* \"test/04-suction.sol\":2376:2386  isFinished */\n      0x06\n      0x00\n        /* \"test/04-suction.sol\":2376:2393  isFinished = true */\n      0x0100\n      exp\n      dup2\n      sload\n      dup2\n      0xff\n      mul\n      not\n      and\n      swap1\n      dup4\n      iszero\n      iszero\n      mul\n      or\n      swap1\n      sstore\n      pop\n        /* \"test/04-suction.sol\":2534:2540  seller */\n      0x01\n      0x00\n      swap1\n      sload\n      swap1\n      0x0100\n      exp\n      swap1\n      div\n      0xffffffffffffffffffffffffffffffffffffffff\n      and\n        /* \"test/04-suction.sol\":2534:2549  seller.transfer */\n      0xffffffffffffffffffffffffffffffffffffffff\n      and\n        /* \"test/04-suction.sol\":2534:2570  seller.transfer(hightBid * 90 / 100) */\n      0x08fc\n        /* \"test/04-suction.sol\":2566:2569  100 */\n      0x64\n        /* \"test/04-suction.sol\":2561:2563  90 */\n      0x5a\n        /* \"test/04-suction.sol\":2550:2558  hightBid */\n      sload(0x02)\n        /* \"test/04-suction.sol\":2550:2563  hightBid * 90 */\n      tag_50\n      swap2\n      swap1\n      tag_51\n      jump\t// in\n    tag_50:\n        /* \"test/04-suction.sol\":2550:2569  hightBid * 90 / 100 */\n      tag_52\n      swap2\n      swap1\n      tag_53\n      jump\t// in\n    tag_52:\n        /* \"test/04-suction.sol\":2534:2570  seller.transfer(hightBid * 90 / 100) */\n      swap1\n      dup2\n      iszero\n      mul\n      swap1\n      mload(0x40)\n      0x00\n      mload(0x40)\n      dup1\n      dup4\n      sub\n      dup2\n      dup6\n      dup9\n      dup9\n      call\n      swap4\n      pop\n      pop\n      pop\n      pop\n      iszero\n      dup1\n      iszero\n      tag_55\n      jumpi\n      returndatasize\n      0x00\n      dup1\n      returndatacopy\n      revert(0x00, returndatasize)\n    tag_55:\n      pop\n        /* \"test/04-suction.sol\":2592:2624  EndBidEvent(hightBider,hightBid) */\n      0xe5eda6be5d0f3ca93dc458f2f1596956fda411583dd1c009d9a118bf79b3e4ad\n        /* \"test/04-suction.sol\":2604:2614  hightBider */\n      0x03\n      0x00\n      swap1\n      sload\n      swap1\n      0x0100\n      exp\n      swap1\n      div\n      0xffffffffffffffffffffffffffffffffffffffff\n      and\n        /* \"test/04-suction.sol\":2615:2623  hightBid */\n      sload(0x02)\n        /* \"test/04-suction.sol\":2592:2624  EndBidEvent(hightBider,hightBid) */\n      mload(0x40)\n      tag_56\n      swap3\n      swap2\n      swap1\n      tag_57\n      jump\t// in\n    tag_56:\n      mload(0x40)\n      dup1\n      swap2\n      sub\n      swap1\n      log1\n        /* \"test/04-suction.sol\":2113:2636  function endbid () public payable {\r... */\n      jump\t// out\n        /* \"test/04-suction.sol\":464:487  uint256 public startBid */\n    tag_20:\n      sload(0x04)\n      dup2\n      jump\t// out\n        /* \"test/04-suction.sol\":330:353  uint256 public hightBid */\n    tag_24:\n      sload(0x02)\n      dup2\n      jump\t// out\n        /* \"#utility.yul\":7:146   */\n    tag_59:\n        /* \"#utility.yul\":53:58   */\n      0x00\n        /* \"#utility.yul\":91:97   */\n      dup2\n        /* \"#utility.yul\":78:98   */\n      calldataload\n        /* \"#utility.yul\":69:98   */\n      swap1\n      pop\n        /* \"#utility.yul\":107:140   */\n      tag_61\n        /* \"#utility.yul\":134:139   */\n      dup2\n        /* \"#utility.yul\":107:140   */\n      tag_62\n      jump\t// in\n    tag_61:\n        /* \"#utility.yul\":7:146   */\n      swap3\n      swap2\n      pop\n      pop\n      jump\t// out\n        /* \"#utility.yul\":152:481   */\n    tag_14:\n        /* \"#utility.yul\":211:217   */\n      0x00\n        /* \"#utility.yul\":260:262   */\n      0x20\n        /* \"#utility.yul\":248:257   */\n      dup3\n        /* \"#utility.yul\":239:246   */\n      dup5\n        /* \"#utility.yul\":235:258   */\n      sub\n        /* \"#utility.yul\":231:263   */\n      slt\n        /* \"#utility.yul\":228:347   */\n      iszero\n      tag_64\n      jumpi\n        /* \"#utility.yul\":266:345   */\n      tag_65\n      tag_66\n      jump\t// in\n    tag_65:\n        /* \"#utility.yul\":228:347   */\n    tag_64:\n        /* \"#utility.yul\":386:387   */\n      0x00\n        /* \"#utility.yul\":411:464   */\n      tag_67\n        /* \"#utility.yul\":456:463   */\n      dup5\n        /* \"#utility.yul\":447:453   */\n      dup3\n        /* \"#utility.yul\":436:445   */\n      dup6\n        /* \"#utility.yul\":432:454   */\n      add\n        /* \"#utility.yul\":411:464   */\n      tag_59\n      jump\t// in\n    tag_67:\n        /* \"#utility.yul\":401:464   */\n      swap2\n      pop\n        /* \"#utility.yul\":357:474   */\n      pop\n        /* \"#utility.yul\":152:481   */\n      swap3\n      swap2\n      pop\n      pop\n      jump\t// out\n        /* \"#utility.yul\":487:634   */\n    tag_68:\n        /* \"#utility.yul\":582:627   */\n      tag_70\n        /* \"#utility.yul\":621:626   */\n      dup2\n        /* \"#utility.yul\":582:627   */\n      tag_71\n      jump\t// in\n    tag_70:\n        /* \"#utility.yul\":577:580   */\n      dup3\n        /* \"#utility.yul\":570:628   */\n      mstore\n        /* \"#utility.yul\":487:634   */\n      pop\n      pop\n      jump\t// out\n        /* \"#utility.yul\":640:758   */\n    tag_72:\n        /* \"#utility.yul\":727:751   */\n      tag_74\n        /* \"#utility.yul\":745:750   */\n      dup2\n        /* \"#utility.yul\":727:751   */\n      tag_75\n      jump\t// in\n    tag_74:\n        /* \"#utility.yul\":722:725   */\n      dup3\n        /* \"#utility.yul\":715:752   */\n      mstore\n        /* \"#utility.yul\":640:758   */\n      pop\n      pop\n      jump\t// out\n        /* \"#utility.yul\":764:1130   */\n    tag_76:\n        /* \"#utility.yul\":906:909   */\n      0x00\n        /* \"#utility.yul\":927:994   */\n      tag_78\n        /* \"#utility.yul\":991:993   */\n      0x18\n        /* \"#utility.yul\":986:989   */\n      dup4\n        /* \"#utility.yul\":927:994   */\n      tag_79\n      jump\t// in\n    tag_78:\n        /* \"#utility.yul\":920:994   */\n      swap2\n      pop\n        /* \"#utility.yul\":1003:1096   */\n      tag_80\n        /* \"#utility.yul\":1092:1095   */\n      dup3\n        /* \"#utility.yul\":1003:1096   */\n      tag_81\n      jump\t// in\n    tag_80:\n        /* \"#utility.yul\":1121:1123   */\n      0x20\n        /* \"#utility.yul\":1116:1119   */\n      dup3\n        /* \"#utility.yul\":1112:1124   */\n      add\n        /* \"#utility.yul\":1105:1124   */\n      swap1\n      pop\n        /* \"#utility.yul\":764:1130   */\n      swap2\n      swap1\n      pop\n      jump\t// out\n        /* \"#utility.yul\":1136:1502   */\n    tag_82:\n        /* \"#utility.yul\":1278:1281   */\n      0x00\n        /* \"#utility.yul\":1299:1366   */\n      tag_84\n        /* \"#utility.yul\":1363:1365   */\n      0x19\n        /* \"#utility.yul\":1358:1361   */\n      dup4\n        /* \"#utility.yul\":1299:1366   */\n      tag_79\n      jump\t// in\n    tag_84:\n        /* \"#utility.yul\":1292:1366   */\n      swap2\n      pop\n        /* \"#utility.yul\":1375:1468   */\n      tag_85\n        /* \"#utility.yul\":1464:1467   */\n      dup3\n        /* \"#utility.yul\":1375:1468   */\n      tag_86\n      jump\t// in\n    tag_85:\n        /* \"#utility.yul\":1493:1495   */\n      0x20\n        /* \"#utility.yul\":1488:1491   */\n      dup3\n        /* \"#utility.yul\":1484:1496   */\n      add\n        /* \"#utility.yul\":1477:1496   */\n      swap1\n      pop\n        /* \"#utility.yul\":1136:1502   */\n      swap2\n      swap1\n      pop\n      jump\t// out\n        /* \"#utility.yul\":1508:1874   */\n    tag_87:\n        /* \"#utility.yul\":1650:1653   */\n      0x00\n        /* \"#utility.yul\":1671:1738   */\n      tag_89\n        /* \"#utility.yul\":1735:1737   */\n      0x16\n        /* \"#utility.yul\":1730:1733   */\n      dup4\n        /* \"#utility.yul\":1671:1738   */\n      tag_79\n      jump\t// in\n    tag_89:\n        /* \"#utility.yul\":1664:1738   */\n      swap2\n      pop\n        /* \"#utility.yul\":1747:1840   */\n      tag_90\n        /* \"#utility.yul\":1836:1839   */\n      dup3\n        /* \"#utility.yul\":1747:1840   */\n      tag_91\n      jump\t// in\n    tag_90:\n        /* \"#utility.yul\":1865:1867   */\n      0x20\n        /* \"#utility.yul\":1860:1863   */\n      dup3\n        /* \"#utility.yul\":1856:1868   */\n      add\n        /* \"#utility.yul\":1849:1868   */\n      swap1\n      pop\n        /* \"#utility.yul\":1508:1874   */\n      swap2\n      swap1\n      pop\n      jump\t// out\n        /* \"#utility.yul\":1880:2246   */\n    tag_92:\n        /* \"#utility.yul\":2022:2025   */\n      0x00\n        /* \"#utility.yul\":2043:2110   */\n      tag_94\n        /* \"#utility.yul\":2107:2109   */\n      0x1a\n        /* \"#utility.yul\":2102:2105   */\n      dup4\n        /* \"#utility.yul\":2043:2110   */\n      tag_79\n      jump\t// in\n    tag_94:\n        /* \"#utility.yul\":2036:2110   */\n      swap2\n      pop\n        /* \"#utility.yul\":2119:2212   */\n      tag_95\n        /* \"#utility.yul\":2208:2211   */\n      dup3\n        /* \"#utility.yul\":2119:2212   */\n      tag_96\n      jump\t// in\n    tag_95:\n        /* \"#utility.yul\":2237:2239   */\n      0x20\n        /* \"#utility.yul\":2232:2235   */\n      dup3\n        /* \"#utility.yul\":2228:2240   */\n      add\n        /* \"#utility.yul\":2221:2240   */\n      swap1\n      pop\n        /* \"#utility.yul\":1880:2246   */\n      swap2\n      swap1\n      pop\n      jump\t// out\n        /* \"#utility.yul\":2252:2618   */\n    tag_97:\n        /* \"#utility.yul\":2394:2397   */\n      0x00\n        /* \"#utility.yul\":2415:2482   */\n      tag_99\n        /* \"#utility.yul\":2479:2481   */\n      0x18\n        /* \"#utility.yul\":2474:2477   */\n      dup4\n        /* \"#utility.yul\":2415:2482   */\n      tag_79\n      jump\t// in\n    tag_99:\n        /* \"#utility.yul\":2408:2482   */\n      swap2\n      pop\n        /* \"#utility.yul\":2491:2584   */\n      tag_100\n        /* \"#utility.yul\":2580:2583   */\n      dup3\n        /* \"#utility.yul\":2491:2584   */\n      tag_101\n      jump\t// in\n    tag_100:\n        /* \"#utility.yul\":2609:2611   */\n      0x20\n        /* \"#utility.yul\":2604:2607   */\n      dup3\n        /* \"#utility.yul\":2600:2612   */\n      add\n        /* \"#utility.yul\":2593:2612   */\n      swap1\n      pop\n        /* \"#utility.yul\":2252:2618   */\n      swap2\n      swap1\n      pop\n      jump\t// out\n        /* \"#utility.yul\":2624:2742   */\n    tag_102:\n        /* \"#utility.yul\":2711:2735   */\n      tag_104\n        /* \"#utility.yul\":2729:2734   */\n      dup2\n        /* \"#utility.yul\":2711:2735   */\n      tag_105\n      jump\t// in\n    tag_104:\n        /* \"#utility.yul\":2706:2709   */\n      dup3\n        /* \"#utility.yul\":2699:2736   */\n      mstore\n        /* \"#utility.yul\":2624:2742   */\n      pop\n      pop\n      jump\t// out\n        /* \"#utility.yul\":2748:3096   */\n    tag_57:\n        /* \"#utility.yul\":2877:2881   */\n      0x00\n        /* \"#utility.yul\":2915:2917   */\n      0x40\n        /* \"#utility.yul\":2904:2913   */\n      dup3\n        /* \"#utility.yul\":2900:2918   */\n      add\n        /* \"#utility.yul\":2892:2918   */\n      swap1\n      pop\n        /* \"#utility.yul\":2928:3007   */\n      tag_107\n        /* \"#utility.yul\":3004:3005   */\n      0x00\n        /* \"#utility.yul\":2993:3002   */\n      dup4\n        /* \"#utility.yul\":2989:3006   */\n      add\n        /* \"#utility.yul\":2980:2986   */\n      dup6\n        /* \"#utility.yul\":2928:3007   */\n      tag_68\n      jump\t// in\n    tag_107:\n        /* \"#utility.yul\":3017:3089   */\n      tag_108\n        /* \"#utility.yul\":3085:3087   */\n      0x20\n        /* \"#utility.yul\":3074:3083   */\n      dup4\n        /* \"#utility.yul\":3070:3088   */\n      add\n        /* \"#utility.yul\":3061:3067   */\n      dup5\n        /* \"#utility.yul\":3017:3089   */\n      tag_102\n      jump\t// in\n    tag_108:\n        /* \"#utility.yul\":2748:3096   */\n      swap4\n      swap3\n      pop\n      pop\n      pop\n      jump\t// out\n        /* \"#utility.yul\":3102:3434   */\n    tag_43:\n        /* \"#utility.yul\":3223:3227   */\n      0x00\n        /* \"#utility.yul\":3261:3263   */\n      0x40\n        /* \"#utility.yul\":3250:3259   */\n      dup3\n        /* \"#utility.yul\":3246:3264   */\n      add\n        /* \"#utility.yul\":3238:3264   */\n      swap1\n      pop\n        /* \"#utility.yul\":3274:3345   */\n      tag_110\n        /* \"#utility.yul\":3342:3343   */\n      0x00\n        /* \"#utility.yul\":3331:3340   */\n      dup4\n        /* \"#utility.yul\":3327:3344   */\n      add\n        /* \"#utility.yul\":3318:3324   */\n      dup6\n        /* \"#utility.yul\":3274:3345   */\n      tag_72\n      jump\t// in\n    tag_110:\n        /* \"#utility.yul\":3355:3427   */\n      tag_111\n        /* \"#utility.yul\":3423:3425   */\n      0x20\n        /* \"#utility.yul\":3412:3421   */\n      dup4\n        /* \"#utility.yul\":3408:3426   */\n      add\n        /* \"#utility.yul\":3399:3405   */\n      dup5\n        /* \"#utility.yul\":3355:3427   */\n      tag_102\n      jump\t// in\n    tag_111:\n        /* \"#utility.yul\":3102:3434   */\n      swap4\n      swap3\n      pop\n      pop\n      pop\n      jump\t// out\n        /* \"#utility.yul\":3440:3859   */\n    tag_32:\n        /* \"#utility.yul\":3606:3610   */\n      0x00\n        /* \"#utility.yul\":3644:3646   */\n      0x20\n        /* \"#utility.yul\":3633:3642   */\n      dup3\n        /* \"#utility.yul\":3629:3647   */\n      add\n        /* \"#utility.yul\":3621:3647   */\n      swap1\n      pop\n        /* \"#utility.yul\":3693:3702   */\n      dup2\n        /* \"#utility.yul\":3687:3691   */\n      dup2\n        /* \"#utility.yul\":3683:3703   */\n      sub\n        /* \"#utility.yul\":3679:3680   */\n      0x00\n        /* \"#utility.yul\":3668:3677   */\n      dup4\n        /* \"#utility.yul\":3664:3681   */\n      add\n        /* \"#utility.yul\":3657:3704   */\n      mstore\n        /* \"#utility.yul\":3721:3852   */\n      tag_113\n        /* \"#utility.yul\":3847:3851   */\n      dup2\n        /* \"#utility.yul\":3721:3852   */\n      tag_76\n      jump\t// in\n    tag_113:\n        /* \"#utility.yul\":3713:3852   */\n      swap1\n      pop\n        /* \"#utility.yul\":3440:3859   */\n      swap2\n      swap1\n      pop\n      jump\t// out\n        /* \"#utility.yul\":3865:4284   */\n    tag_49:\n        /* \"#utility.yul\":4031:4035   */\n      0x00\n        /* \"#utility.yul\":4069:4071   */\n      0x20\n        /* \"#utility.yul\":4058:4067   */\n      dup3\n        /* \"#utility.yul\":4054:4072   */\n      add\n        /* \"#utility.yul\":4046:4072   */\n      swap1\n      pop\n        /* \"#utility.yul\":4118:4127   */\n      dup2\n        /* \"#utility.yul\":4112:4116   */\n      dup2\n        /* \"#utility.yul\":4108:4128   */\n      sub\n        /* \"#utility.yul\":4104:4105   */\n      0x00\n        /* \"#utility.yul\":4093:4102   */\n      dup4\n        /* \"#utility.yul\":4089:4106   */\n      add\n        /* \"#utility.yul\":4082:4129   */\n      mstore\n        /* \"#utility.yul\":4146:4277   */\n      tag_115\n        /* \"#utility.yul\":4272:4276   */\n      dup2\n        /* \"#utility.yul\":4146:4277   */\n      tag_82\n      jump\t// in\n    tag_115:\n        /* \"#utility.yul\":4138:4277   */\n      swap1\n      pop\n        /* \"#utility.yul\":3865:4284   */\n      swap2\n      swap1\n      pop\n      jump\t// out\n        /* \"#utility.yul\":4290:4709   */\n    tag_38:\n        /* \"#utility.yul\":4456:4460   */\n      0x00\n        /* \"#utility.yul\":4494:4496   */\n      0x20\n        /* \"#utility.yul\":4483:4492   */\n      dup3\n        /* \"#utility.yul\":4479:4497   */\n      add\n        /* \"#utility.yul\":4471:4497   */\n      swap1\n      pop\n        /* \"#utility.yul\":4543:4552   */\n      dup2\n        /* \"#utility.yul\":4537:4541   */\n      dup2\n        /* \"#utility.yul\":4533:4553   */\n      sub\n        /* \"#utility.yul\":4529:4530   */\n      0x00\n        /* \"#utility.yul\":4518:4527   */\n      dup4\n        /* \"#utility.yul\":4514:4531   */\n      add\n        /* \"#utility.yul\":4507:4554   */\n      mstore\n        /* \"#utility.yul\":4571:4702   */\n      tag_117\n        /* \"#utility.yul\":4697:4701   */\n      dup2\n        /* \"#utility.yul\":4571:4702   */\n      tag_87\n      jump\t// in\n    tag_117:\n        /* \"#utility.yul\":4563:4702   */\n      swap1\n      pop\n        /* \"#utility.yul\":4290:4709   */\n      swap2\n      swap1\n      pop\n      jump\t// out\n        /* \"#utility.yul\":4715:5134   */\n    tag_35:\n        /* \"#utility.yul\":4881:4885   */\n      0x00\n        /* \"#utility.yul\":4919:4921   */\n      0x20\n        /* \"#utility.yul\":4908:4917   */\n      dup3\n        /* \"#utility.yul\":4904:4922   */\n      add\n        /* \"#utility.yul\":4896:4922   */\n      swap1\n      pop\n        /* \"#utility.yul\":4968:4977   */\n      dup2\n        /* \"#utility.yul\":4962:4966   */\n      dup2\n        /* \"#utility.yul\":4958:4978   */\n      sub\n        /* \"#utility.yul\":4954:4955   */\n      0x00\n        /* \"#utility.yul\":4943:4952   */\n      dup4\n        /* \"#utility.yul\":4939:4956   */\n      add\n        /* \"#utility.yul\":4932:4979   */\n      mstore\n        /* \"#utility.yul\":4996:5127   */\n      tag_119\n        /* \"#utility.yul\":5122:5126   */\n      dup2\n        /* \"#utility.yul\":4996:5127   */\n      tag_92\n      jump\t// in\n    tag_119:\n        /* \"#utility.yul\":4988:5127   */\n      swap1\n      pop\n        /* \"#utility.yul\":4715:5134   */\n      swap2\n      swap1\n      pop\n      jump\t// out\n        /* \"#utility.yul\":5140:5559   */\n    tag_29:\n        /* \"#utility.yul\":5306:5310   */\n      0x00\n        /* \"#utility.yul\":5344:5346   */\n      0x20\n        /* \"#utility.yul\":5333:5342   */\n      dup3\n        /* \"#utility.yul\":5329:5347   */\n      add\n        /* \"#utility.yul\":5321:5347   */\n      swap1\n      pop\n        /* \"#utility.yul\":5393:5402   */\n      dup2\n        /* \"#utility.yul\":5387:5391   */\n      dup2\n        /* \"#utility.yul\":5383:5403   */\n      sub\n        /* \"#utility.yul\":5379:5380   */\n      0x00\n        /* \"#utility.yul\":5368:5377   */\n      dup4\n        /* \"#utility.yul\":5364:5381   */\n      add\n        /* \"#utility.yul\":5357:5404   */\n      mstore\n        /* \"#utility.yul\":5421:5552   */\n      tag_121\n        /* \"#utility.yul\":5547:5551   */\n      dup2\n        /* \"#utility.yul\":5421:5552   */\n      tag_97\n      jump\t// in\n    tag_121:\n        /* \"#utility.yul\":5413:5552   */\n      swap1\n      pop\n        /* \"#utility.yul\":5140:5559   */\n      swap2\n      swap1\n      pop\n      jump\t// out\n        /* \"#utility.yul\":5565:5787   */\n    tag_11:\n        /* \"#utility.yul\":5658:5662   */\n      0x00\n        /* \"#utility.yul\":5696:5698   */\n      0x20\n        /* \"#utility.yul\":5685:5694   */\n      dup3\n        /* \"#utility.yul\":5681:5699   */\n      add\n        /* \"#utility.yul\":5673:5699   */\n      swap1\n      pop\n        /* \"#utility.yul\":5709:5780   */\n      tag_123\n        /* \"#utility.yul\":5777:5778   */\n      0x00\n        /* \"#utility.yul\":5766:5775   */\n      dup4\n        /* \"#utility.yul\":5762:5779   */\n      add\n        /* \"#utility.yul\":5753:5759   */\n      dup5\n        /* \"#utility.yul\":5709:5780   */\n      tag_102\n      jump\t// in\n    tag_123:\n        /* \"#utility.yul\":5565:5787   */\n      swap3\n      swap2\n      pop\n      pop\n      jump\t// out\n        /* \"#utility.yul\":5874:6043   */\n    tag_79:\n        /* \"#utility.yul\":5958:5969   */\n      0x00\n        /* \"#utility.yul\":5992:5998   */\n      dup3\n        /* \"#utility.yul\":5987:5990   */\n      dup3\n        /* \"#utility.yul\":5980:5999   */\n      mstore\n        /* \"#utility.yul\":6032:6036   */\n      0x20\n        /* \"#utility.yul\":6027:6030   */\n      dup3\n        /* \"#utility.yul\":6023:6037   */\n      add\n        /* \"#utility.yul\":6008:6037   */\n      swap1\n      pop\n        /* \"#utility.yul\":5874:6043   */\n      swap3\n      swap2\n      pop\n      pop\n      jump\t// out\n        /* \"#utility.yul\":6049:6234   */\n    tag_53:\n        /* \"#utility.yul\":6089:6090   */\n      0x00\n        /* \"#utility.yul\":6106:6126   */\n      tag_128\n        /* \"#utility.yul\":6124:6125   */\n      dup3\n        /* \"#utility.yul\":6106:6126   */\n      tag_105\n      jump\t// in\n    tag_128:\n        /* \"#utility.yul\":6101:6126   */\n      swap2\n      pop\n        /* \"#utility.yul\":6140:6160   */\n      tag_129\n        /* \"#utility.yul\":6158:6159   */\n      dup4\n        /* \"#utility.yul\":6140:6160   */\n      tag_105\n      jump\t// in\n    tag_129:\n        /* \"#utility.yul\":6135:6160   */\n      swap3\n      pop\n        /* \"#utility.yul\":6179:6180   */\n      dup3\n        /* \"#utility.yul\":6169:6204   */\n      tag_130\n      jumpi\n        /* \"#utility.yul\":6184:6202   */\n      tag_131\n      tag_132\n      jump\t// in\n    tag_131:\n        /* \"#utility.yul\":6169:6204   */\n    tag_130:\n        /* \"#utility.yul\":6226:6227   */\n      dup3\n        /* \"#utility.yul\":6223:6224   */\n      dup3\n        /* \"#utility.yul\":6219:6228   */\n      div\n        /* \"#utility.yul\":6214:6228   */\n      swap1\n      pop\n        /* \"#utility.yul\":6049:6234   */\n      swap3\n      swap2\n      pop\n      pop\n      jump\t// out\n        /* \"#utility.yul\":6240:6588   */\n    tag_51:\n        /* \"#utility.yul\":6280:6287   */\n      0x00\n        /* \"#utility.yul\":6303:6323   */\n      tag_134\n        /* \"#utility.yul\":6321:6322   */\n      dup3\n        /* \"#utility.yul\":6303:6323   */\n      tag_105\n      jump\t// in\n    tag_134:\n        /* \"#utility.yul\":6298:6323   */\n      swap2\n      pop\n        /* \"#utility.yul\":6337:6357   */\n      tag_135\n        /* \"#utility.yul\":6355:6356   */\n      dup4\n        /* \"#utility.yul\":6337:6357   */\n      tag_105\n      jump\t// in\n    tag_135:\n        /* \"#utility.yul\":6332:6357   */\n      swap3\n      pop\n        /* \"#utility.yul\":6525:6526   */\n      dup2\n        /* \"#utility.yul\":6457:6523   */\n      0xffffffffffffffffffffffffffffffffffffffffffffffffffffffffffffffff\n        /* \"#utility.yul\":6453:6527   */\n      div\n        /* \"#utility.yul\":6450:6451   */\n      dup4\n        /* \"#utility.yul\":6447:6528   */\n      gt\n        /* \"#utility.yul\":6442:6443   */\n      dup3\n        /* \"#utility.yul\":6435:6444   */\n      iszero\n        /* \"#utility.yul\":6428:6445   */\n      iszero\n        /* \"#utility.yul\":6424:6529   */\n      and\n        /* \"#utility.yul\":6421:6552   */\n      iszero\n      tag_136\n      jumpi\n        /* \"#utility.yul\":6532:6550   */\n      tag_137\n      tag_138\n      jump\t// in\n    tag_137:\n        /* \"#utility.yul\":6421:6552   */\n    tag_136:\n        /* \"#utility.yul\":6580:6581   */\n      dup3\n        /* \"#utility.yul\":6577:6578   */\n      dup3\n        /* \"#utility.yul\":6573:6582   */\n      mul\n        /* \"#utility.yul\":6562:6582   */\n      swap1\n      pop\n        /* \"#utility.yul\":6240:6588   */\n      swap3\n      swap2\n      pop\n      pop\n      jump\t// out\n        /* \"#utility.yul\":6594:6690   */\n    tag_75:\n        /* \"#utility.yul\":6631:6638   */\n      0x00\n        /* \"#utility.yul\":6660:6684   */\n      tag_140\n        /* \"#utility.yul\":6678:6683   */\n      dup3\n        /* \"#utility.yul\":6660:6684   */\n      tag_141\n      jump\t// in\n    tag_140:\n        /* \"#utility.yul\":6649:6684   */\n      swap1\n      pop\n        /* \"#utility.yul\":6594:6690   */\n      swap2\n      swap1\n      pop\n      jump\t// out\n        /* \"#utility.yul\":6696:6822   */\n    tag_141:\n        /* \"#utility.yul\":6733:6740   */\n      0x00\n        /* \"#utility.yul\":6773:6815   */\n      0xffffffffffffffffffffffffffffffffffffffff\n        /* \"#utility.yul\":6766:6771   */\n      dup3\n        /* \"#utility.yul\":6762:6816   */\n      and\n        /* \"#utility.yul\":6751:6816   */\n      swap1\n      pop\n        /* \"#utility.yul\":6696:6822   */\n      swap2\n      swap1\n      pop\n      jump\t// out\n        /* \"#utility.yul\":6828:6905   */\n    tag_105:\n        /* \"#utility.yul\":6865:6872   */\n      0x00\n        /* \"#utility.yul\":6894:6899   */\n      dup2\n        /* \"#utility.yul\":6883:6899   */\n      swap1\n      pop\n        /* \"#utility.yul\":6828:6905   */\n      swap2\n      swap1\n      pop\n      jump\t// out\n        /* \"#utility.yul\":6911:7045   */\n    tag_71:\n        /* \"#utility.yul\":6969:6978   */\n      0x00\n        /* \"#utility.yul\":7002:7039   */\n      tag_145\n        /* \"#utility.yul\":7033:7038   */\n      dup3\n        /* \"#utility.yul\":7002:7039   */\n      tag_146\n      jump\t// in\n    tag_145:\n        /* \"#utility.yul\":6989:7039   */\n      swap1\n      pop\n        /* \"#utility.yul\":6911:7045   */\n      swap2\n      swap1\n      pop\n      jump\t// out\n        /* \"#utility.yul\":7051:7177   */\n    tag_146:\n        /* \"#utility.yul\":7101:7110   */\n      0x00\n        /* \"#utility.yul\":7134:7171   */\n      tag_148\n        /* \"#utility.yul\":7165:7170   */\n      dup3\n        /* \"#utility.yul\":7134:7171   */\n      tag_149\n      jump\t// in\n    tag_148:\n        /* \"#utility.yul\":7121:7171   */\n      swap1\n      pop\n        /* \"#utility.yul\":7051:7177   */\n      swap2\n      swap1\n      pop\n      jump\t// out\n        /* \"#utility.yul\":7183:7296   */\n    tag_149:\n        /* \"#utility.yul\":7233:7242   */\n      0x00\n        /* \"#utility.yul\":7266:7290   */\n      tag_151\n        /* \"#utility.yul\":7284:7289   */\n      dup3\n        /* \"#utility.yul\":7266:7290   */\n      tag_141\n      jump\t// in\n    tag_151:\n        /* \"#utility.yul\":7253:7290   */\n      swap1\n      pop\n        /* \"#utility.yul\":7183:7296   */\n      swap2\n      swap1\n      pop\n      jump\t// out\n        /* \"#utility.yul\":7302:7482   */\n    tag_138:\n        /* \"#utility.yul\":7350:7427   */\n      0x4e487b7100000000000000000000000000000000000000000000000000000000\n        /* \"#utility.yul\":7347:7348   */\n      0x00\n        /* \"#utility.yul\":7340:7428   */\n      mstore\n        /* \"#utility.yul\":7447:7451   */\n      0x11\n        /* \"#utility.yul\":7444:7445   */\n      0x04\n        /* \"#utility.yul\":7437:7452   */\n      mstore\n        /* \"#utility.yul\":7471:7475   */\n      0x24\n        /* \"#utility.yul\":7468:7469   */\n      0x00\n        /* \"#utility.yul\":7461:7476   */\n      revert\n        /* \"#utility.yul\":7488:7668   */\n    tag_132:\n        /* \"#utility.yul\":7536:7613   */\n      0x4e487b7100000000000000000000000000000000000000000000000000000000\n        /* \"#utility.yul\":7533:7534   */\n      0x00\n        /* \"#utility.yul\":7526:7614   */\n      mstore\n        /* \"#utility.yul\":7633:7637   */\n      0x12\n        /* \"#utility.yul\":7630:7631   */\n      0x04\n        /* \"#utility.yul\":7623:7638   */\n      mstore\n        /* \"#utility.yul\":7657:7661   */\n      0x24\n        /* \"#utility.yul\":7654:7655   */\n      0x00\n        /* \"#utility.yul\":7647:7662   */\n      revert\n        /* \"#utility.yul\":7797:7914   */\n    tag_66:\n        /* \"#utility.yul\":7906:7907   */\n      0x00\n        /* \"#utility.yul\":7903:7904   */\n      dup1\n        /* \"#utility.yul\":7896:7908   */\n      revert\n        /* \"#utility.yul\":7920:8094   */\n    tag_81:\n        /* \"#utility.yul\":8060:8086   */\n      0x616d6f756e74206d75737420657175616c2076616c7565200000000000000000\n        /* \"#utility.yul\":8056:8057   */\n      0x00\n        /* \"#utility.yul\":8048:8054   */\n      dup3\n        /* \"#utility.yul\":8044:8058   */\n      add\n        /* \"#utility.yul\":8037:8087   */\n      mstore\n        /* \"#utility.yul\":7920:8094   */\n      pop\n      jump\t// out\n        /* \"#utility.yul\":8100:8275   */\n    tag_86:\n        /* \"#utility.yul\":8240:8267   */\n      0x6f6e6c79206f7765722063616e20656e642061756374696f6e00000000000000\n        /* \"#utility.yul\":8236:8237   */\n      0x00\n        /* \"#utility.yul\":8228:8234   */\n      dup3\n        /* \"#utility.yul\":8224:8238   */\n      add\n        /* \"#utility.yul\":8217:8268   */\n      mstore\n        /* \"#utility.yul\":8100:8275   */\n      pop\n      jump\t// out\n        /* \"#utility.yul\":8281:8453   */\n    tag_91:\n        /* \"#utility.yul\":8421:8445   */\n      0x2061756374696f6e206e6f742074696d65206f75742000000000000000000000\n        /* \"#utility.yul\":8417:8418   */\n      0x00\n        /* \"#utility.yul\":8409:8415   */\n      dup3\n        /* \"#utility.yul\":8405:8419   */\n      add\n        /* \"#utility.yul\":8398:8446   */\n      mstore\n        /* \"#utility.yul\":8281:8453   */\n      pop\n      jump\t// out\n        /* \"#utility.yul\":8459:8635   */\n    tag_96:\n        /* \"#utility.yul\":8599:8627   */\n      0x2061756374696f6e20616c72656164792066696e697368656420000000000000\n        /* \"#utility.yul\":8595:8596   */\n      0x00\n        /* \"#utility.yul\":8587:8593   */\n      dup3\n        /* \"#utility.yul\":8583:8597   */\n      add\n        /* \"#utility.yul\":8576:8628   */\n      mstore\n        /* \"#utility.yul\":8459:8635   */\n      pop\n      jump\t// out\n        /* \"#utility.yul\":8641:8815   */\n    tag_101:\n        /* \"#utility.yul\":8781:8807   */\n      0x20616d6f756e74206d757374203e206869676874426964200000000000000000\n        /* \"#utility.yul\":8777:8778   */\n      0x00\n        /* \"#utility.yul\":8769:8775   */\n      dup3\n        /* \"#utility.yul\":8765:8779   */\n      add\n        /* \"#utility.yul\":8758:8808   */\n      mstore\n        /* \"#utility.yul\":8641:8815   */\n      pop\n      jump\t// out\n        /* \"#utility.yul\":8821:8943   */\n    tag_62:\n        /* \"#utility.yul\":8894:8918   */\n      tag_163\n        /* \"#utility.yul\":8912:8917   */\n      dup2\n        /* \"#utility.yul\":8894:8918   */\n      tag_105\n      jump\t// in\n    tag_163:\n        /* \"#utility.yul\":8887:8892   */\n      dup2\n        /* \"#utility.yul\":8884:8919   */\n      eq\n        /* \"#utility.yul\":8874:8937   */\n      tag_164\n      jumpi\n        /* \"#utility.yul\":8933:8934   */\n      0x00\n        /* \"#utility.yul\":8930:8931   */\n      dup1\n        /* \"#utility.yul\":8923:8935   */\n      revert\n        /* \"#utility.yul\":8874:8937   */\n    tag_164:\n        /* \"#utility.yul\":8821:8943   */\n      pop\n      jump\t// out\n\n    auxdata: 0xa264697066735822122038354ea1115afe735eeb602e369338b723d4a59168e1eeb3e815b8a9fd441abc64736f6c63430008070033\n}\n",
				"bytecode": {
					"linkReferences": {},
					"object": "60806040523480156200001157600080fd5b5060405162000c8138038062000c8183398181016040528101906200003791906200012d565b336000806101000a81548173ffffffffffffffffffffffffffffffffffffffff021916908373ffffffffffffffffffffffffffffffffffffffff16021790555081600160006101000a81548173ffffffffffffffffffffffffffffffffffffffff021916908373ffffffffffffffffffffffffffffffffffffffff160217905550806004819055506000600660006101000a81548160ff021916908315150217905550607842620000e9919062000174565b6005819055506000600281905550505062000277565b600081519050620001108162000243565b92915050565b60008151905062000127816200025d565b92915050565b600080604083850312156200014757620001466200023e565b5b60006200015785828601620000ff565b92505060206200016a8582860162000116565b9150509250929050565b6000620001818262000205565b91506200018e8362000205565b9250827fffffffffffffffffffffffffffffffffffffffffffffffffffffffffffffffff03821115620001c657620001c56200020f565b5b828201905092915050565b6000620001de82620001e5565b9050919050565b600073ffffffffffffffffffffffffffffffffffffffff82169050919050565b6000819050919050565b7f4e487b7100000000000000000000000000000000000000000000000000000000600052601160045260246000fd5b600080fd5b6200024e81620001d1565b81146200025a57600080fd5b50565b620002688162000205565b81146200027457600080fd5b50565b6109fa80620002876000396000f3fe60806040526004361061004a5760003560e01c80633197cbb61461004f578063454a2ab31461007a578063741a68441461009657806377c5a4c6146100a057806379a9f2fe146100cb575b600080fd5b34801561005b57600080fd5b506100646100f6565b6040516100719190610754565b60405180910390f35b610094600480360381019061008f9190610559565b6100fc565b005b61009e61035d565b005b3480156100ac57600080fd5b506100b5610538565b6040516100c29190610754565b60405180910390f35b3480156100d757600080fd5b506100e061053e565b6040516100ed9190610754565b60405180910390f35b60055481565b6002548111610140576040517f08c379a000000000000000000000000000000000000000000000000000000000815260040161013790610734565b60405180910390fd5b348114610182576040517f08c379a0000000000000000000000000000000000000000000000000000000008152600401610179906106b4565b60405180910390fd5b600660009054906101000a900460ff16156101d2576040517f08c379a00000000000000000000000000000000000000000000000000000000081526004016101c990610714565b60405180910390fd5b600554421115610217576040517f08c379a000000000000000000000000000000000000000000000000000000000815260040161020e906106f4565b60405180910390fd5b600360009054906101000a900473ffffffffffffffffffffffffffffffffffffffff1673ffffffffffffffffffffffffffffffffffffffff16600073ffffffffffffffffffffffffffffffffffffffff16146102d957600360009054906101000a900473ffffffffffffffffffffffffffffffffffffffff1673ffffffffffffffffffffffffffffffffffffffff166108fc6002549081150290604051600060405180830381858888f193505050501580156102d7573d6000803e3d6000fd5b505b8060028190555033600360006101000a81548173ffffffffffffffffffffffffffffffffffffffff021916908373ffffffffffffffffffffffffffffffffffffffff1602179055507f0d993d4f8a84158f5329713d6d13ef54e77b325040c887c8b3e565cfd0cd3e21338260405161035292919061068b565b60405180910390a150565b600660009054906101000a900460ff16156103ad576040517f08c379a00000000000000000000000000000000000000000000000000000000081526004016103a490610714565b60405180910390fd5b60008054906101000a900473ffffffffffffffffffffffffffffffffffffffff1673ffffffffffffffffffffffffffffffffffffffff163373ffffffffffffffffffffffffffffffffffffffff161461043b576040517f08c379a0000000000000000000000000000000000000000000000000000000008152600401610432906106d4565b60405180910390fd5b6001600660006101000a81548160ff021916908315150217905550600160009054906101000a900473ffffffffffffffffffffffffffffffffffffffff1673ffffffffffffffffffffffffffffffffffffffff166108fc6064605a6002546104a391906107b1565b6104ad9190610780565b9081150290604051600060405180830381858888f193505050501580156104d8573d6000803e3d6000fd5b507fe5eda6be5d0f3ca93dc458f2f1596956fda411583dd1c009d9a118bf79b3e4ad600360009054906101000a900473ffffffffffffffffffffffffffffffffffffffff1660025460405161052e929190610662565b60405180910390a1565b60045481565b60025481565b600081359050610553816109ad565b92915050565b60006020828403121561056f5761056e6108db565b5b600061057d84828501610544565b91505092915050565b61058f81610847565b82525050565b61059e8161080b565b82525050565b60006105b160188361076f565b91506105bc826108e0565b602082019050919050565b60006105d460198361076f565b91506105df82610909565b602082019050919050565b60006105f760168361076f565b915061060282610932565b602082019050919050565b600061061a601a8361076f565b91506106258261095b565b602082019050919050565b600061063d60188361076f565b915061064882610984565b602082019050919050565b61065c8161083d565b82525050565b60006040820190506106776000830185610586565b6106846020830184610653565b9392505050565b60006040820190506106a06000830185610595565b6106ad6020830184610653565b9392505050565b600060208201905081810360008301526106cd816105a4565b9050919050565b600060208201905081810360008301526106ed816105c7565b9050919050565b6000602082019050818103600083015261070d816105ea565b9050919050565b6000602082019050818103600083015261072d8161060d565b9050919050565b6000602082019050818103600083015261074d81610630565b9050919050565b60006020820190506107696000830184610653565b92915050565b600082825260208201905092915050565b600061078b8261083d565b91506107968361083d565b9250826107a6576107a56108ac565b5b828204905092915050565b60006107bc8261083d565b91506107c78361083d565b9250817fffffffffffffffffffffffffffffffffffffffffffffffffffffffffffffffff0483118215151615610800576107ff61087d565b5b828202905092915050565b60006108168261081d565b9050919050565b600073ffffffffffffffffffffffffffffffffffffffff82169050919050565b6000819050919050565b600061085282610859565b9050919050565b60006108648261086b565b9050919050565b60006108768261081d565b9050919050565b7f4e487b7100000000000000000000000000000000000000000000000000000000600052601160045260246000fd5b7f4e487b7100000000000000000000000000000000000000000000000000000000600052601260045260246000fd5b600080fd5b7f616d6f756e74206d75737420657175616c2076616c7565200000000000000000600082015250565b7f6f6e6c79206f7765722063616e20656e642061756374696f6e00000000000000600082015250565b7f2061756374696f6e206e6f742074696d65206f75742000000000000000000000600082015250565b7f2061756374696f6e20616c72656164792066696e697368656420000000000000600082015250565b7f20616d6f756e74206d757374203e206869676874426964200000000000000000600082015250565b6109b68161083d565b81146109c157600080fd5b5056fea264697066735822122038354ea1115afe735eeb602e369338b723d4a59168e1eeb3e815b8a9fd441abc64736f6c63430008070033",
					"opcodes": "PUSH1 0x80 PUSH1 0x40 MSTORE CALLVALUE DUP1 ISZERO PUSH3 0x11 JUMPI PUSH1 0x0 DUP1 REVERT JUMPDEST POP PUSH1 0x40 MLOAD PUSH3 0xC81 CODESIZE SUB DUP1 PUSH3 0xC81 DUP4 CODECOPY DUP2 DUP2 ADD PUSH1 0x40 MSTORE DUP2 ADD SWAP1 PUSH3 0x37 SWAP2 SWAP1 PUSH3 0x12D JUMP JUMPDEST CALLER PUSH1 0x0 DUP1 PUSH2 0x100 EXP DUP2 SLOAD DUP2 PUSH20 0xFFFFFFFFFFFFFFFFFFFFFFFFFFFFFFFFFFFFFFFF MUL NOT AND SWAP1 DUP4 PUSH20 0xFFFFFFFFFFFFFFFFFFFFFFFFFFFFFFFFFFFFFFFF AND MUL OR SWAP1 SSTORE POP DUP2 PUSH1 0x1 PUSH1 0x0 PUSH2 0x100 EXP DUP2 SLOAD DUP2 PUSH20 0xFFFFFFFFFFFFFFFFFFFFFFFFFFFFFFFFFFFFFFFF MUL NOT AND SWAP1 DUP4 PUSH20 0xFFFFFFFFFFFFFFFFFFFFFFFFFFFFFFFFFFFFFFFF AND MUL OR SWAP1 SSTORE POP DUP1 PUSH1 0x4 DUP2 SWAP1 SSTORE POP PUSH1 0x0 PUSH1 0x6 PUSH1 0x0 PUSH2 0x100 EXP DUP2 SLOAD DUP2 PUSH1 0xFF MUL NOT AND SWAP1 DUP4 ISZERO ISZERO MUL OR SWAP1 SSTORE POP PUSH1 0x78 TIMESTAMP PUSH3 0xE9 SWAP2 SWAP1 PUSH3 0x174 JUMP JUMPDEST PUSH1 0x5 DUP2 SWAP1 SSTORE POP PUSH1 0x0 PUSH1 0x2 DUP2 SWAP1 SSTORE POP POP POP PUSH3 0x277 JUMP JUMPDEST PUSH1 0x0 DUP2 MLOAD SWAP1 POP PUSH3 0x110 DUP2 PUSH3 0x243 JUMP JUMPDEST SWAP3 SWAP2 POP POP JUMP JUMPDEST PUSH1 0x0 DUP2 MLOAD SWAP1 POP PUSH3 0x127 DUP2 PUSH3 0x25D JUMP JUMPDEST SWAP3 SWAP2 POP POP JUMP JUMPDEST PUSH1 0x0 DUP1 PUSH1 0x40 DUP4 DUP6 SUB SLT ISZERO PUSH3 0x147 JUMPI PUSH3 0x146 PUSH3 0x23E JUMP JUMPDEST JUMPDEST PUSH1 0x0 PUSH3 0x157 DUP6 DUP3 DUP7 ADD PUSH3 0xFF JUMP JUMPDEST SWAP3 POP POP PUSH1 0x20 PUSH3 0x16A DUP6 DUP3 DUP7 ADD PUSH3 0x116 JUMP JUMPDEST SWAP2 POP POP SWAP3 POP SWAP3 SWAP1 POP JUMP JUMPDEST PUSH1 0x0 PUSH3 0x181 DUP3 PUSH3 0x205 JUMP JUMPDEST SWAP2 POP PUSH3 0x18E DUP4 PUSH3 0x205 JUMP JUMPDEST SWAP3 POP DUP3 PUSH32 0xFFFFFFFFFFFFFFFFFFFFFFFFFFFFFFFFFFFFFFFFFFFFFFFFFFFFFFFFFFFFFFFF SUB DUP3 GT ISZERO PUSH3 0x1C6 JUMPI PUSH3 0x1C5 PUSH3 0x20F JUMP JUMPDEST JUMPDEST DUP3 DUP3 ADD SWAP1 POP SWAP3 SWAP2 POP POP JUMP JUMPDEST PUSH1 0x0 PUSH3 0x1DE DUP3 PUSH3 0x1E5 JUMP JUMPDEST SWAP1 POP SWAP2 SWAP1 POP JUMP JUMPDEST PUSH1 0x0 PUSH20 0xFFFFFFFFFFFFFFFFFFFFFFFFFFFFFFFFFFFFFFFF DUP3 AND SWAP1 POP SWAP2 SWAP1 POP JUMP JUMPDEST PUSH1 0x0 DUP2 SWAP1 POP SWAP2 SWAP1 POP JUMP JUMPDEST PUSH32 0x4E487B7100000000000000000000000000000000000000000000000000000000 PUSH1 0x0 MSTORE PUSH1 0x11 PUSH1 0x4 MSTORE PUSH1 0x24 PUSH1 0x0 REVERT JUMPDEST PUSH1 0x0 DUP1 REVERT JUMPDEST PUSH3 0x24E DUP2 PUSH3 0x1D1 JUMP JUMPDEST DUP2 EQ PUSH3 0x25A JUMPI PUSH1 0x0 DUP1 REVERT JUMPDEST POP JUMP JUMPDEST PUSH3 0x268 DUP2 PUSH3 0x205 JUMP JUMPDEST DUP2 EQ PUSH3 0x274 JUMPI PUSH1 0x0 DUP1 REVERT JUMPDEST POP JUMP JUMPDEST PUSH2 0x9FA DUP1 PUSH3 0x287 PUSH1 0x0 CODECOPY PUSH1 0x0 RETURN INVALID PUSH1 0x80 PUSH1 0x40 MSTORE PUSH1 0x4 CALLDATASIZE LT PUSH2 0x4A JUMPI PUSH1 0x0 CALLDATALOAD PUSH1 0xE0 SHR DUP1 PUSH4 0x3197CBB6 EQ PUSH2 0x4F JUMPI DUP1 PUSH4 0x454A2AB3 EQ PUSH2 0x7A JUMPI DUP1 PUSH4 0x741A6844 EQ PUSH2 0x96 JUMPI DUP1 PUSH4 0x77C5A4C6 EQ PUSH2 0xA0 JUMPI DUP1 PUSH4 0x79A9F2FE EQ PUSH2 0xCB JUMPI JUMPDEST PUSH1 0x0 DUP1 REVERT JUMPDEST CALLVALUE DUP1 ISZERO PUSH2 0x5B JUMPI PUSH1 0x0 DUP1 REVERT JUMPDEST POP PUSH2 0x64 PUSH2 0xF6 JUMP JUMPDEST PUSH1 0x40 MLOAD PUSH2 0x71 SWAP2 SWAP1 PUSH2 0x754 JUMP JUMPDEST PUSH1 0x40 MLOAD DUP1 SWAP2 SUB SWAP1 RETURN JUMPDEST PUSH2 0x94 PUSH1 0x4 DUP1 CALLDATASIZE SUB DUP2 ADD SWAP1 PUSH2 0x8F SWAP2 SWAP1 PUSH2 0x559 JUMP JUMPDEST PUSH2 0xFC JUMP JUMPDEST STOP JUMPDEST PUSH2 0x9E PUSH2 0x35D JUMP JUMPDEST STOP JUMPDEST CALLVALUE DUP1 ISZERO PUSH2 0xAC JUMPI PUSH1 0x0 DUP1 REVERT JUMPDEST POP PUSH2 0xB5 PUSH2 0x538 JUMP JUMPDEST PUSH1 0x40 MLOAD PUSH2 0xC2 SWAP2 SWAP1 PUSH2 0x754 JUMP JUMPDEST PUSH1 0x40 MLOAD DUP1 SWAP2 SUB SWAP1 RETURN JUMPDEST CALLVALUE DUP1 ISZERO PUSH2 0xD7 JUMPI PUSH1 0x0 DUP1 REVERT JUMPDEST POP PUSH2 0xE0 PUSH2 0x53E JUMP JUMPDEST PUSH1 0x40 MLOAD PUSH2 0xED SWAP2 SWAP1 PUSH2 0x754 JUMP JUMPDEST PUSH1 0x40 MLOAD DUP1 SWAP2 SUB SWAP1 RETURN JUMPDEST PUSH1 0x5 SLOAD DUP2 JUMP JUMPDEST PUSH1 0x2 SLOAD DUP2 GT PUSH2 0x140 JUMPI PUSH1 0x40 MLOAD PUSH32 0x8C379A000000000000000000000000000000000000000000000000000000000 DUP2 MSTORE PUSH1 0x4 ADD PUSH2 0x137 SWAP1 PUSH2 0x734 JUMP JUMPDEST PUSH1 0x40 MLOAD DUP1 SWAP2 SUB SWAP1 REVERT JUMPDEST CALLVALUE DUP2 EQ PUSH2 0x182 JUMPI PUSH1 0x40 MLOAD PUSH32 0x8C379A000000000000000000000000000000000000000000000000000000000 DUP2 MSTORE PUSH1 0x4 ADD PUSH2 0x179 SWAP1 PUSH2 0x6B4 JUMP JUMPDEST PUSH1 0x40 MLOAD DUP1 SWAP2 SUB SWAP1 REVERT JUMPDEST PUSH1 0x6 PUSH1 0x0 SWAP1 SLOAD SWAP1 PUSH2 0x100 EXP SWAP1 DIV PUSH1 0xFF AND ISZERO PUSH2 0x1D2 JUMPI PUSH1 0x40 MLOAD PUSH32 0x8C379A000000000000000000000000000000000000000000000000000000000 DUP2 MSTORE PUSH1 0x4 ADD PUSH2 0x1C9 SWAP1 PUSH2 0x714 JUMP JUMPDEST PUSH1 0x40 MLOAD DUP1 SWAP2 SUB SWAP1 REVERT JUMPDEST PUSH1 0x5 SLOAD TIMESTAMP GT ISZERO PUSH2 0x217 JUMPI PUSH1 0x40 MLOAD PUSH32 0x8C379A000000000000000000000000000000000000000000000000000000000 DUP2 MSTORE PUSH1 0x4 ADD PUSH2 0x20E SWAP1 PUSH2 0x6F4 JUMP JUMPDEST PUSH1 0x40 MLOAD DUP1 SWAP2 SUB SWAP1 REVERT JUMPDEST PUSH1 0x3 PUSH1 0x0 SWAP1 SLOAD SWAP1 PUSH2 0x100 EXP SWAP1 DIV PUSH20 0xFFFFFFFFFFFFFFFFFFFFFFFFFFFFFFFFFFFFFFFF AND PUSH20 0xFFFFFFFFFFFFFFFFFFFFFFFFFFFFFFFFFFFFFFFF AND PUSH1 0x0 PUSH20 0xFFFFFFFFFFFFFFFFFFFFFFFFFFFFFFFFFFFFFFFF AND EQ PUSH2 0x2D9 JUMPI PUSH1 0x3 PUSH1 0x0 SWAP1 SLOAD SWAP1 PUSH2 0x100 EXP SWAP1 DIV PUSH20 0xFFFFFFFFFFFFFFFFFFFFFFFFFFFFFFFFFFFFFFFF AND PUSH20 0xFFFFFFFFFFFFFFFFFFFFFFFFFFFFFFFFFFFFFFFF AND PUSH2 0x8FC PUSH1 0x2 SLOAD SWAP1 DUP2 ISZERO MUL SWAP1 PUSH1 0x40 MLOAD PUSH1 0x0 PUSH1 0x40 MLOAD DUP1 DUP4 SUB DUP2 DUP6 DUP9 DUP9 CALL SWAP4 POP POP POP POP ISZERO DUP1 ISZERO PUSH2 0x2D7 JUMPI RETURNDATASIZE PUSH1 0x0 DUP1 RETURNDATACOPY RETURNDATASIZE PUSH1 0x0 REVERT JUMPDEST POP JUMPDEST DUP1 PUSH1 0x2 DUP2 SWAP1 SSTORE POP CALLER PUSH1 0x3 PUSH1 0x0 PUSH2 0x100 EXP DUP2 SLOAD DUP2 PUSH20 0xFFFFFFFFFFFFFFFFFFFFFFFFFFFFFFFFFFFFFFFF MUL NOT AND SWAP1 DUP4 PUSH20 0xFFFFFFFFFFFFFFFFFFFFFFFFFFFFFFFFFFFFFFFF AND MUL OR SWAP1 SSTORE POP PUSH32 0xD993D4F8A84158F5329713D6D13EF54E77B325040C887C8B3E565CFD0CD3E21 CALLER DUP3 PUSH1 0x40 MLOAD PUSH2 0x352 SWAP3 SWAP2 SWAP1 PUSH2 0x68B JUMP JUMPDEST PUSH1 0x40 MLOAD DUP1 SWAP2 SUB SWAP1 LOG1 POP JUMP JUMPDEST PUSH1 0x6 PUSH1 0x0 SWAP1 SLOAD SWAP1 PUSH2 0x100 EXP SWAP1 DIV PUSH1 0xFF AND ISZERO PUSH2 0x3AD JUMPI PUSH1 0x40 MLOAD PUSH32 0x8C379A000000000000000000000000000000000000000000000000000000000 DUP2 MSTORE PUSH1 0x4 ADD PUSH2 0x3A4 SWAP1 PUSH2 0x714 JUMP JUMPDEST PUSH1 0x40 MLOAD DUP1 SWAP2 SUB SWAP1 REVERT JUMPDEST PUSH1 0x0 DUP1 SLOAD SWAP1 PUSH2 0x100 EXP SWAP1 DIV PUSH20 0xFFFFFFFFFFFFFFFFFFFFFFFFFFFFFFFFFFFFFFFF AND PUSH20 0xFFFFFFFFFFFFFFFFFFFFFFFFFFFFFFFFFFFFFFFF AND CALLER PUSH20 0xFFFFFFFFFFFFFFFFFFFFFFFFFFFFFFFFFFFFFFFF AND EQ PUSH2 0x43B JUMPI PUSH1 0x40 MLOAD PUSH32 0x8C379A000000000000000000000000000000000000000000000000000000000 DUP2 MSTORE PUSH1 0x4 ADD PUSH2 0x432 SWAP1 PUSH2 0x6D4 JUMP JUMPDEST PUSH1 0x40 MLOAD DUP1 SWAP2 SUB SWAP1 REVERT JUMPDEST PUSH1 0x1 PUSH1 0x6 PUSH1 0x0 PUSH2 0x100 EXP DUP2 SLOAD DUP2 PUSH1 0xFF MUL NOT AND SWAP1 DUP4 ISZERO ISZERO MUL OR SWAP1 SSTORE POP PUSH1 0x1 PUSH1 0x0 SWAP1 SLOAD SWAP1 PUSH2 0x100 EXP SWAP1 DIV PUSH20 0xFFFFFFFFFFFFFFFFFFFFFFFFFFFFFFFFFFFFFFFF AND PUSH20 0xFFFFFFFFFFFFFFFFFFFFFFFFFFFFFFFFFFFFFFFF AND PUSH2 0x8FC PUSH1 0x64 PUSH1 0x5A PUSH1 0x2 SLOAD PUSH2 0x4A3 SWAP2 SWAP1 PUSH2 0x7B1 JUMP JUMPDEST PUSH2 0x4AD SWAP2 SWAP1 PUSH2 0x780 JUMP JUMPDEST SWAP1 DUP2 ISZERO MUL SWAP1 PUSH1 0x40 MLOAD PUSH1 0x0 PUSH1 0x40 MLOAD DUP1 DUP4 SUB DUP2 DUP6 DUP9 DUP9 CALL SWAP4 POP POP POP POP ISZERO DUP1 ISZERO PUSH2 0x4D8 JUMPI RETURNDATASIZE PUSH1 0x0 DUP1 RETURNDATACOPY RETURNDATASIZE PUSH1 0x0 REVERT JUMPDEST POP PUSH32 0xE5EDA6BE5D0F3CA93DC458F2F1596956FDA411583DD1C009D9A118BF79B3E4AD PUSH1 0x3 PUSH1 0x0 SWAP1 SLOAD SWAP1 PUSH2 0x100 EXP SWAP1 DIV PUSH20 0xFFFFFFFFFFFFFFFFFFFFFFFFFFFFFFFFFFFFFFFF AND PUSH1 0x2 SLOAD PUSH1 0x40 MLOAD PUSH2 0x52E SWAP3 SWAP2 SWAP1 PUSH2 0x662 JUMP JUMPDEST PUSH1 0x40 MLOAD DUP1 SWAP2 SUB SWAP1 LOG1 JUMP JUMPDEST PUSH1 0x4 SLOAD DUP2 JUMP JUMPDEST PUSH1 0x2 SLOAD DUP2 JUMP JUMPDEST PUSH1 0x0 DUP2 CALLDATALOAD SWAP1 POP PUSH2 0x553 DUP2 PUSH2 0x9AD JUMP JUMPDEST SWAP3 SWAP2 POP POP JUMP JUMPDEST PUSH1 0x0 PUSH1 0x20 DUP3 DUP5 SUB SLT ISZERO PUSH2 0x56F JUMPI PUSH2 0x56E PUSH2 0x8DB JUMP JUMPDEST JUMPDEST PUSH1 0x0 PUSH2 0x57D DUP5 DUP3 DUP6 ADD PUSH2 0x544 JUMP JUMPDEST SWAP2 POP POP SWAP3 SWAP2 POP POP JUMP JUMPDEST PUSH2 0x58F DUP2 PUSH2 0x847 JUMP JUMPDEST DUP3 MSTORE POP POP JUMP JUMPDEST PUSH2 0x59E DUP2 PUSH2 0x80B JUMP JUMPDEST DUP3 MSTORE POP POP JUMP JUMPDEST PUSH1 0x0 PUSH2 0x5B1 PUSH1 0x18 DUP4 PUSH2 0x76F JUMP JUMPDEST SWAP2 POP PUSH2 0x5BC DUP3 PUSH2 0x8E0 JUMP JUMPDEST PUSH1 0x20 DUP3 ADD SWAP1 POP SWAP2 SWAP1 POP JUMP JUMPDEST PUSH1 0x0 PUSH2 0x5D4 PUSH1 0x19 DUP4 PUSH2 0x76F JUMP JUMPDEST SWAP2 POP PUSH2 0x5DF DUP3 PUSH2 0x909 JUMP JUMPDEST PUSH1 0x20 DUP3 ADD SWAP1 POP SWAP2 SWAP1 POP JUMP JUMPDEST PUSH1 0x0 PUSH2 0x5F7 PUSH1 0x16 DUP4 PUSH2 0x76F JUMP JUMPDEST SWAP2 POP PUSH2 0x602 DUP3 PUSH2 0x932 JUMP JUMPDEST PUSH1 0x20 DUP3 ADD SWAP1 POP SWAP2 SWAP1 POP JUMP JUMPDEST PUSH1 0x0 PUSH2 0x61A PUSH1 0x1A DUP4 PUSH2 0x76F JUMP JUMPDEST SWAP2 POP PUSH2 0x625 DUP3 PUSH2 0x95B JUMP JUMPDEST PUSH1 0x20 DUP3 ADD SWAP1 POP SWAP2 SWAP1 POP JUMP JUMPDEST PUSH1 0x0 PUSH2 0x63D PUSH1 0x18 DUP4 PUSH2 0x76F JUMP JUMPDEST SWAP2 POP PUSH2 0x648 DUP3 PUSH2 0x984 JUMP JUMPDEST PUSH1 0x20 DUP3 ADD SWAP1 POP SWAP2 SWAP1 POP JUMP JUMPDEST PUSH2 0x65C DUP2 PUSH2 0x83D JUMP JUMPDEST DUP3 MSTORE POP POP JUMP JUMPDEST PUSH1 0x0 PUSH1 0x40 DUP3 ADD SWAP1 POP PUSH2 0x677 PUSH1 0x0 DUP4 ADD DUP6 PUSH2 0x586 JUMP JUMPDEST PUSH2 0x684 PUSH1 0x20 DUP4 ADD DUP5 PUSH2 0x653 JUMP JUMPDEST SWAP4 SWAP3 POP POP POP JUMP JUMPDEST PUSH1 0x0 PUSH1 0x40 DUP3 ADD SWAP1 POP PUSH2 0x6A0 PUSH1 0x0 DUP4 ADD DUP6 PUSH2 0x595 JUMP JUMPDEST PUSH2 0x6AD PUSH1 0x20 DUP4 ADD DUP5 PUSH2 0x653 JUMP JUMPDEST SWAP4 SWAP3 POP POP POP JUMP JUMPDEST PUSH1 0x0 PUSH1 0x20 DUP3 ADD SWAP1 POP DUP2 DUP2 SUB PUSH1 0x0 DUP4 ADD MSTORE PUSH2 0x6CD DUP2 PUSH2 0x5A4 JUMP JUMPDEST SWAP1 POP SWAP2 SWAP1 POP JUMP JUMPDEST PUSH1 0x0 PUSH1 0x20 DUP3 ADD SWAP1 POP DUP2 DUP2 SUB PUSH1 0x0 DUP4 ADD MSTORE PUSH2 0x6ED DUP2 PUSH2 0x5C7 JUMP JUMPDEST SWAP1 POP SWAP2 SWAP1 POP JUMP JUMPDEST PUSH1 0x0 PUSH1 0x20 DUP3 ADD SWAP1 POP DUP2 DUP2 SUB PUSH1 0x0 DUP4 ADD MSTORE PUSH2 0x70D DUP2 PUSH2 0x5EA JUMP JUMPDEST SWAP1 POP SWAP2 SWAP1 POP JUMP JUMPDEST PUSH1 0x0 PUSH1 0x20 DUP3 ADD SWAP1 POP DUP2 DUP2 SUB PUSH1 0x0 DUP4 ADD MSTORE PUSH2 0x72D DUP2 PUSH2 0x60D JUMP JUMPDEST SWAP1 POP SWAP2 SWAP1 POP JUMP JUMPDEST PUSH1 0x0 PUSH1 0x20 DUP3 ADD SWAP1 POP DUP2 DUP2 SUB PUSH1 0x0 DUP4 ADD MSTORE PUSH2 0x74D DUP2 PUSH2 0x630 JUMP JUMPDEST SWAP1 POP SWAP2 SWAP1 POP JUMP JUMPDEST PUSH1 0x0 PUSH1 0x20 DUP3 ADD SWAP1 POP PUSH2 0x769 PUSH1 0x0 DUP4 ADD DUP5 PUSH2 0x653 JUMP JUMPDEST SWAP3 SWAP2 POP POP JUMP JUMPDEST PUSH1 0x0 DUP3 DUP3 MSTORE PUSH1 0x20 DUP3 ADD SWAP1 POP SWAP3 SWAP2 POP POP JUMP JUMPDEST PUSH1 0x0 PUSH2 0x78B DUP3 PUSH2 0x83D JUMP JUMPDEST SWAP2 POP PUSH2 0x796 DUP4 PUSH2 0x83D JUMP JUMPDEST SWAP3 POP DUP3 PUSH2 0x7A6 JUMPI PUSH2 0x7A5 PUSH2 0x8AC JUMP JUMPDEST JUMPDEST DUP3 DUP3 DIV SWAP1 POP SWAP3 SWAP2 POP POP JUMP JUMPDEST PUSH1 0x0 PUSH2 0x7BC DUP3 PUSH2 0x83D JUMP JUMPDEST SWAP2 POP PUSH2 0x7C7 DUP4 PUSH2 0x83D JUMP JUMPDEST SWAP3 POP DUP2 PUSH32 0xFFFFFFFFFFFFFFFFFFFFFFFFFFFFFFFFFFFFFFFFFFFFFFFFFFFFFFFFFFFFFFFF DIV DUP4 GT DUP3 ISZERO ISZERO AND ISZERO PUSH2 0x800 JUMPI PUSH2 0x7FF PUSH2 0x87D JUMP JUMPDEST JUMPDEST DUP3 DUP3 MUL SWAP1 POP SWAP3 SWAP2 POP POP JUMP JUMPDEST PUSH1 0x0 PUSH2 0x816 DUP3 PUSH2 0x81D JUMP JUMPDEST SWAP1 POP SWAP2 SWAP1 POP JUMP JUMPDEST PUSH1 0x0 PUSH20 0xFFFFFFFFFFFFFFFFFFFFFFFFFFFFFFFFFFFFFFFF DUP3 AND SWAP1 POP SWAP2 SWAP1 POP JUMP JUMPDEST PUSH1 0x0 DUP2 SWAP1 POP SWAP2 SWAP1 POP JUMP JUMPDEST PUSH1 0x0 PUSH2 0x852 DUP3 PUSH2 0x859 JUMP JUMPDEST SWAP1 POP SWAP2 SWAP1 POP JUMP JUMPDEST PUSH1 0x0 PUSH2 0x864 DUP3 PUSH2 0x86B JUMP JUMPDEST SWAP1 POP SWAP2 SWAP1 POP JUMP JUMPDEST PUSH1 0x0 PUSH2 0x876 DUP3 PUSH2 0x81D JUMP JUMPDEST SWAP1 POP SWAP2 SWAP1 POP JUMP JUMPDEST PUSH32 0x4E487B7100000000000000000000000000000000000000000000000000000000 PUSH1 0x0 MSTORE PUSH1 0x11 PUSH1 0x4 MSTORE PUSH1 0x24 PUSH1 0x0 REVERT JUMPDEST PUSH32 0x4E487B7100000000000000000000000000000000000000000000000000000000 PUSH1 0x0 MSTORE PUSH1 0x12 PUSH1 0x4 MSTORE PUSH1 0x24 PUSH1 0x0 REVERT JUMPDEST PUSH1 0x0 DUP1 REVERT JUMPDEST PUSH32 0x616D6F756E74206D75737420657175616C2076616C7565200000000000000000 PUSH1 0x0 DUP3 ADD MSTORE POP JUMP JUMPDEST PUSH32 0x6F6E6C79206F7765722063616E20656E642061756374696F6E00000000000000 PUSH1 0x0 DUP3 ADD MSTORE POP JUMP JUMPDEST PUSH32 0x2061756374696F6E206E6F742074696D65206F75742000000000000000000000 PUSH1 0x0 DUP3 ADD MSTORE POP JUMP JUMPDEST PUSH32 0x2061756374696F6E20616C72656164792066696E697368656420000000000000 PUSH1 0x0 DUP3 ADD MSTORE POP JUMP JUMPDEST PUSH32 0x20616D6F756E74206D757374203E206869676874426964200000000000000000 PUSH1 0x0 DUP3 ADD MSTORE POP JUMP JUMPDEST PUSH2 0x9B6 DUP2 PUSH2 0x83D JUMP JUMPDEST DUP2 EQ PUSH2 0x9C1 JUMPI PUSH1 0x0 DUP1 REVERT JUMPDEST POP JUMP INVALID LOG2 PUSH5 0x6970667358 0x22 SLT KECCAK256 CODESIZE CALLDATALOAD 0x4E LOG1 GT GAS INVALID PUSH20 0x5EEB602E369338B723D4A59168E1EEB3E815B8A9 REVERT DIFFICULTY BYTE 0xBC PUSH5 0x736F6C6343 STOP ADDMOD SMOD STOP CALLER "
				},
				"gasEstimates": {
					"creation": {
						"codeDepositCost": "510800",
						"executionCost": "infinite",
						"totalCost": "infinite"
					},
					"external": {
						"bid(uint256)": "infinite",
						"endTime()": "2407",
						"endbid()": "infinite",
						"hightBid()": "2495",
						"startBid()": "2473"
					}
				},
				"methodIdentifiers": {
					"bid(uint256)": "454a2ab3",
					"endTime()": "3197cbb6",
					"endbid()": "741a6844",
					"hightBid()": "79a9f2fe",
					"startBid()": "77c5a4c6"
				}
			},
			"storageLayout": {
				"storage": [
					{
						"astId": 3,
						"contract": "test/04-suction.sol:suction",
						"label": "owner",
						"offset": 0,
						"slot": "0",
						"type": "t_address_payable"
					},
					{
						"astId": 5,
						"contract": "test/04-suction.sol:suction",
						"label": "seller",
						"offset": 0,
						"slot": "1",
						"type": "t_address_payable"
					},
					{
						"astId": 7,
						"contract": "test/04-suction.sol:suction",
						"label": "hightBid",
						"offset": 0,
						"slot": "2",
						"type": "t_uint256"
					},
					{
						"astId": 9,
						"contract": "test/04-suction.sol:suction",
						"label": "hightBider",
						"offset": 0,
						"slot": "3",
						"type": "t_address_payable"
					},
					{
						"astId": 11,
						"contract": "test/04-suction.sol:suction",
						"label": "startBid",
						"offset": 0,
						"slot": "4",
						"type": "t_uint256"
					},
					{
						"astId": 13,
						"contract": "test/04-suction.sol:suction",
						"label": "endTime",
						"offset": 0,
						"slot": "5",
						"type": "t_uint256"
					},
					{
						"astId": 15,
						"contract": "test/04-suction.sol:suction",
						"label": "isFinished",
						"offset": 0,
						"slot": "6",
						"type": "t_bool"
					}
				],
				"types": {
					"t_address_payable": {
						"encoding": "inplace",
						"label": "address payable",
						"numberOfBytes": "20"
					},
					"t_bool": {
						"encoding": "inplace",
						"label": "bool",
						"numberOfBytes": "1"
					},
					"t_uint256": {
						"encoding": "inplace",
						"label": "uint256",
						"numberOfBytes": "32"
					}
				}
			},
			"userdoc": {
				"kind": "user",
				"methods": {},
				"version": 1
			}
		}
	}
}