{
	"bank/01-bank.sol": {
		"bank_demo": {
			"abi": [
				{
					"inputs": [
						{
							"internalType": "string",
							"name": "_name",
							"type": "string"
						}
					],
					"stateMutability": "nonpayable",
					"type": "constructor"
				},
				{
					"inputs": [],
					"name": "admin",
					"outputs": [
						{
							"internalType": "address",
							"name": "",
							"type": "address"
						}
					],
					"stateMutability": "view",
					"type": "function"
				},
				{
					"inputs": [
						{
							"internalType": "address",
							"name": "_who",
							"type": "address"
						}
					],
					"name": "balanceof",
					"outputs": [
						{
							"internalType": "uint256",
							"name": "",
							"type": "uint256"
						}
					],
					"stateMutability": "view",
					"type": "function"
				},
				{
					"inputs": [],
					"name": "bankName",
					"outputs": [
						{
							"internalType": "string",
							"name": "",
							"type": "string"
						}
					],
					"stateMutability": "view",
					"type": "function"
				},
				{
					"inputs": [
						{
							"internalType": "uint256",
							"name": "_amount",
							"type": "uint256"
						}
					],
					"name": "deposit",
					"outputs": [],
					"stateMutability": "payable",
					"type": "function"
				},
				{
					"inputs": [],
					"name": "getBalance",
					"outputs": [
						{
							"internalType": "uint256",
							"name": "",
							"type": "uint256"
						},
						{
							"internalType": "uint256",
							"name": "",
							"type": "uint256"
						}
					],
					"stateMutability": "view",
					"type": "function"
				},
				{
					"inputs": [
						{
							"internalType": "address",
							"name": "_to",
							"type": "address"
						},
						{
							"internalType": "uint256",
							"name": "_amount",
							"type": "uint256"
						}
					],
					"name": "transfer",
					"outputs": [],
					"stateMutability": "nonpayable",
					"type": "function"
				},
				{
					"inputs": [
						{
							"internalType": "uint256",
							"name": "_amount",
							"type": "uint256"
						}
					],
					"name": "withdraw",
					"outputs": [],
					"stateMutability": "payable",
					"type": "function"
				}
			],
			"devdoc": {
				"kind": "dev",
				"methods": {},
				"version": 1
			},
			"evm": {
				"assembly": "    /* \"bank/01-bank.sol\":141:2405  contract bank_demo{\r... */\n  mstore(0x40, 0x80)\n    /* \"bank/01-bank.sol\":363:468  constructor(string memory _name){\r... */\n  callvalue\n  dup1\n  iszero\n  tag_1\n  jumpi\n  0x00\n  dup1\n  revert\ntag_1:\n  pop\n  mload(0x40)\n  sub(codesize, bytecodeSize)\n  dup1\n  bytecodeSize\n  dup4\n  codecopy\n  dup2\n  dup2\n  add\n  0x40\n  mstore\n  dup2\n  add\n  swap1\n  tag_2\n  swap2\n  swap1\n  tag_3\n  jump\t// in\ntag_2:\n    /* \"bank/01-bank.sol\":420:425  _name */\n  dup1\n    /* \"bank/01-bank.sol\":406:414  bankName */\n  0x00\n    /* \"bank/01-bank.sol\":406:425  bankName    = _name */\n  swap1\n  dup1\n  mload\n  swap1\n  0x20\n  add\n  swap1\n  tag_6\n  swap3\n  swap2\n  swap1\n  tag_7\n  jump\t// in\ntag_6:\n  pop\n    /* \"bank/01-bank.sol\":450:460  msg.sender */\n  caller\n    /* \"bank/01-bank.sol\":436:441  admin */\n  0x02\n  0x00\n    /* \"bank/01-bank.sol\":436:460  admin       = msg.sender */\n  0x0100\n  exp\n  dup2\n  sload\n  dup2\n  0xffffffffffffffffffffffffffffffffffffffff\n  mul\n  not\n  and\n  swap1\n  dup4\n  0xffffffffffffffffffffffffffffffffffffffff\n  and\n  mul\n  or\n  swap1\n  sstore\n  pop\n    /* \"bank/01-bank.sol\":363:468  constructor(string memory _name){\r... */\n  pop\n    /* \"bank/01-bank.sol\":141:2405  contract bank_demo{\r... */\n  jump(tag_8)\ntag_7:\n  dup3\n  dup1\n  sload\n  tag_9\n  swap1\n  tag_10\n  jump\t// in\ntag_9:\n  swap1\n  0x00\n  mstore\n  keccak256(0x00, 0x20)\n  swap1\n  0x1f\n  add\n  0x20\n  swap1\n  div\n  dup2\n  add\n  swap3\n  dup3\n  tag_12\n  jumpi\n  0x00\n  dup6\n  sstore\n  jump(tag_11)\ntag_12:\n  dup3\n  0x1f\n  lt\n  tag_13\n  jumpi\n  dup1\n  mload\n  not(0xff)\n  and\n  dup4\n  dup1\n  add\n  or\n  dup6\n  sstore\n  jump(tag_11)\ntag_13:\n  dup3\n  dup1\n  add\n  0x01\n  add\n  dup6\n  sstore\n  dup3\n  iszero\n  tag_11\n  jumpi\n  swap2\n  dup3\n  add\ntag_14:\n  dup3\n  dup2\n  gt\n  iszero\n  tag_15\n  jumpi\n  dup3\n  mload\n  dup3\n  sstore\n  swap2\n  0x20\n  add\n  swap2\n  swap1\n  0x01\n  add\n  swap1\n  jump(tag_14)\ntag_15:\ntag_11:\n  pop\n  swap1\n  pop\n  tag_16\n  swap2\n  swap1\n  tag_17\n  jump\t// in\ntag_16:\n  pop\n  swap1\n  jump\t// out\ntag_17:\ntag_18:\n  dup1\n  dup3\n  gt\n  iszero\n  tag_19\n  jumpi\n  0x00\n  dup2\n  0x00\n  swap1\n  sstore\n  pop\n  0x01\n  add\n  jump(tag_18)\ntag_19:\n  pop\n  swap1\n  jump\t// out\n    /* \"#utility.yul\":7:428   */\ntag_21:\n    /* \"#utility.yul\":96:101   */\n  0x00\n    /* \"#utility.yul\":121:187   */\n  tag_23\n    /* \"#utility.yul\":137:186   */\n  tag_24\n    /* \"#utility.yul\":179:185   */\n  dup5\n    /* \"#utility.yul\":137:186   */\n  tag_25\n  jump\t// in\ntag_24:\n    /* \"#utility.yul\":121:187   */\n  tag_26\n  jump\t// in\ntag_23:\n    /* \"#utility.yul\":112:187   */\n  swap1\n  pop\n    /* \"#utility.yul\":210:216   */\n  dup3\n    /* \"#utility.yul\":203:208   */\n  dup2\n    /* \"#utility.yul\":196:217   */\n  mstore\n    /* \"#utility.yul\":248:252   */\n  0x20\n    /* \"#utility.yul\":241:246   */\n  dup2\n    /* \"#utility.yul\":237:253   */\n  add\n    /* \"#utility.yul\":286:289   */\n  dup5\n    /* \"#utility.yul\":277:283   */\n  dup5\n    /* \"#utility.yul\":272:275   */\n  dup5\n    /* \"#utility.yul\":268:284   */\n  add\n    /* \"#utility.yul\":265:290   */\n  gt\n    /* \"#utility.yul\":262:374   */\n  iszero\n  tag_27\n  jumpi\n    /* \"#utility.yul\":293:372   */\n  tag_28\n  tag_29\n  jump\t// in\ntag_28:\n    /* \"#utility.yul\":262:374   */\ntag_27:\n    /* \"#utility.yul\":383:422   */\n  tag_30\n    /* \"#utility.yul\":415:421   */\n  dup5\n    /* \"#utility.yul\":410:413   */\n  dup3\n    /* \"#utility.yul\":405:408   */\n  dup6\n    /* \"#utility.yul\":383:422   */\n  tag_31\n  jump\t// in\ntag_30:\n    /* \"#utility.yul\":102:428   */\n  pop\n    /* \"#utility.yul\":7:428   */\n  swap4\n  swap3\n  pop\n  pop\n  pop\n  jump\t// out\n    /* \"#utility.yul\":448:803   */\ntag_32:\n    /* \"#utility.yul\":515:520   */\n  0x00\n    /* \"#utility.yul\":564:567   */\n  dup3\n    /* \"#utility.yul\":557:561   */\n  0x1f\n    /* \"#utility.yul\":549:555   */\n  dup4\n    /* \"#utility.yul\":545:562   */\n  add\n    /* \"#utility.yul\":541:568   */\n  slt\n    /* \"#utility.yul\":531:653   */\n  tag_34\n  jumpi\n    /* \"#utility.yul\":572:651   */\n  tag_35\n  tag_36\n  jump\t// in\ntag_35:\n    /* \"#utility.yul\":531:653   */\ntag_34:\n    /* \"#utility.yul\":682:688   */\n  dup2\n    /* \"#utility.yul\":676:689   */\n  mload\n    /* \"#utility.yul\":707:797   */\n  tag_37\n    /* \"#utility.yul\":793:796   */\n  dup5\n    /* \"#utility.yul\":785:791   */\n  dup3\n    /* \"#utility.yul\":778:782   */\n  0x20\n    /* \"#utility.yul\":770:776   */\n  dup7\n    /* \"#utility.yul\":766:783   */\n  add\n    /* \"#utility.yul\":707:797   */\n  tag_21\n  jump\t// in\ntag_37:\n    /* \"#utility.yul\":698:797   */\n  swap2\n  pop\n    /* \"#utility.yul\":521:803   */\n  pop\n    /* \"#utility.yul\":448:803   */\n  swap3\n  swap2\n  pop\n  pop\n  jump\t// out\n    /* \"#utility.yul\":809:1333   */\ntag_3:\n    /* \"#utility.yul\":889:895   */\n  0x00\n    /* \"#utility.yul\":938:940   */\n  0x20\n    /* \"#utility.yul\":926:935   */\n  dup3\n    /* \"#utility.yul\":917:924   */\n  dup5\n    /* \"#utility.yul\":913:936   */\n  sub\n    /* \"#utility.yul\":909:941   */\n  slt\n    /* \"#utility.yul\":906:1025   */\n  iszero\n  tag_39\n  jumpi\n    /* \"#utility.yul\":944:1023   */\n  tag_40\n  tag_41\n  jump\t// in\ntag_40:\n    /* \"#utility.yul\":906:1025   */\ntag_39:\n    /* \"#utility.yul\":1085:1086   */\n  0x00\n    /* \"#utility.yul\":1074:1083   */\n  dup3\n    /* \"#utility.yul\":1070:1087   */\n  add\n    /* \"#utility.yul\":1064:1088   */\n  mload\n    /* \"#utility.yul\":1115:1133   */\n  0xffffffffffffffff\n    /* \"#utility.yul\":1107:1113   */\n  dup2\n    /* \"#utility.yul\":1104:1134   */\n  gt\n    /* \"#utility.yul\":1101:1218   */\n  iszero\n  tag_42\n  jumpi\n    /* \"#utility.yul\":1137:1216   */\n  tag_43\n  tag_44\n  jump\t// in\ntag_43:\n    /* \"#utility.yul\":1101:1218   */\ntag_42:\n    /* \"#utility.yul\":1242:1316   */\n  tag_45\n    /* \"#utility.yul\":1308:1315   */\n  dup5\n    /* \"#utility.yul\":1299:1305   */\n  dup3\n    /* \"#utility.yul\":1288:1297   */\n  dup6\n    /* \"#utility.yul\":1284:1306   */\n  add\n    /* \"#utility.yul\":1242:1316   */\n  tag_32\n  jump\t// in\ntag_45:\n    /* \"#utility.yul\":1232:1316   */\n  swap2\n  pop\n    /* \"#utility.yul\":1035:1326   */\n  pop\n    /* \"#utility.yul\":809:1333   */\n  swap3\n  swap2\n  pop\n  pop\n  jump\t// out\n    /* \"#utility.yul\":1339:1468   */\ntag_26:\n    /* \"#utility.yul\":1373:1379   */\n  0x00\n    /* \"#utility.yul\":1400:1420   */\n  tag_47\n  tag_48\n  jump\t// in\ntag_47:\n    /* \"#utility.yul\":1390:1420   */\n  swap1\n  pop\n    /* \"#utility.yul\":1429:1462   */\n  tag_49\n    /* \"#utility.yul\":1457:1461   */\n  dup3\n    /* \"#utility.yul\":1449:1455   */\n  dup3\n    /* \"#utility.yul\":1429:1462   */\n  tag_50\n  jump\t// in\ntag_49:\n    /* \"#utility.yul\":1339:1468   */\n  swap2\n  swap1\n  pop\n  jump\t// out\n    /* \"#utility.yul\":1474:1549   */\ntag_48:\n    /* \"#utility.yul\":1507:1513   */\n  0x00\n    /* \"#utility.yul\":1540:1542   */\n  0x40\n    /* \"#utility.yul\":1534:1543   */\n  mload\n    /* \"#utility.yul\":1524:1543   */\n  swap1\n  pop\n    /* \"#utility.yul\":1474:1549   */\n  swap1\n  jump\t// out\n    /* \"#utility.yul\":1555:1863   */\ntag_25:\n    /* \"#utility.yul\":1617:1621   */\n  0x00\n    /* \"#utility.yul\":1707:1725   */\n  0xffffffffffffffff\n    /* \"#utility.yul\":1699:1705   */\n  dup3\n    /* \"#utility.yul\":1696:1726   */\n  gt\n    /* \"#utility.yul\":1693:1749   */\n  iszero\n  tag_53\n  jumpi\n    /* \"#utility.yul\":1729:1747   */\n  tag_54\n  tag_55\n  jump\t// in\ntag_54:\n    /* \"#utility.yul\":1693:1749   */\ntag_53:\n    /* \"#utility.yul\":1767:1796   */\n  tag_56\n    /* \"#utility.yul\":1789:1795   */\n  dup3\n    /* \"#utility.yul\":1767:1796   */\n  tag_57\n  jump\t// in\ntag_56:\n    /* \"#utility.yul\":1759:1796   */\n  swap1\n  pop\n    /* \"#utility.yul\":1851:1855   */\n  0x20\n    /* \"#utility.yul\":1845:1849   */\n  dup2\n    /* \"#utility.yul\":1841:1856   */\n  add\n    /* \"#utility.yul\":1833:1856   */\n  swap1\n  pop\n    /* \"#utility.yul\":1555:1863   */\n  swap2\n  swap1\n  pop\n  jump\t// out\n    /* \"#utility.yul\":1869:2176   */\ntag_31:\n    /* \"#utility.yul\":1937:1938   */\n  0x00\n    /* \"#utility.yul\":1947:2060   */\ntag_59:\n    /* \"#utility.yul\":1961:1967   */\n  dup4\n    /* \"#utility.yul\":1958:1959   */\n  dup2\n    /* \"#utility.yul\":1955:1968   */\n  lt\n    /* \"#utility.yul\":1947:2060   */\n  iszero\n  tag_61\n  jumpi\n    /* \"#utility.yul\":2046:2047   */\n  dup1\n    /* \"#utility.yul\":2041:2044   */\n  dup3\n    /* \"#utility.yul\":2037:2048   */\n  add\n    /* \"#utility.yul\":2031:2049   */\n  mload\n    /* \"#utility.yul\":2027:2028   */\n  dup2\n    /* \"#utility.yul\":2022:2025   */\n  dup5\n    /* \"#utility.yul\":2018:2029   */\n  add\n    /* \"#utility.yul\":2011:2050   */\n  mstore\n    /* \"#utility.yul\":1983:1985   */\n  0x20\n    /* \"#utility.yul\":1980:1981   */\n  dup2\n    /* \"#utility.yul\":1976:1986   */\n  add\n    /* \"#utility.yul\":1971:1986   */\n  swap1\n  pop\n    /* \"#utility.yul\":1947:2060   */\n  jump(tag_59)\ntag_61:\n    /* \"#utility.yul\":2078:2084   */\n  dup4\n    /* \"#utility.yul\":2075:2076   */\n  dup2\n    /* \"#utility.yul\":2072:2085   */\n  gt\n    /* \"#utility.yul\":2069:2170   */\n  iszero\n  tag_62\n  jumpi\n    /* \"#utility.yul\":2158:2159   */\n  0x00\n    /* \"#utility.yul\":2149:2155   */\n  dup5\n    /* \"#utility.yul\":2144:2147   */\n  dup5\n    /* \"#utility.yul\":2140:2156   */\n  add\n    /* \"#utility.yul\":2133:2160   */\n  mstore\n    /* \"#utility.yul\":2069:2170   */\ntag_62:\n    /* \"#utility.yul\":1918:2176   */\n  pop\n    /* \"#utility.yul\":1869:2176   */\n  pop\n  pop\n  pop\n  jump\t// out\n    /* \"#utility.yul\":2182:2502   */\ntag_10:\n    /* \"#utility.yul\":2226:2232   */\n  0x00\n    /* \"#utility.yul\":2263:2264   */\n  0x02\n    /* \"#utility.yul\":2257:2261   */\n  dup3\n    /* \"#utility.yul\":2253:2265   */\n  div\n    /* \"#utility.yul\":2243:2265   */\n  swap1\n  pop\n    /* \"#utility.yul\":2310:2311   */\n  0x01\n    /* \"#utility.yul\":2304:2308   */\n  dup3\n    /* \"#utility.yul\":2300:2312   */\n  and\n    /* \"#utility.yul\":2331:2349   */\n  dup1\n    /* \"#utility.yul\":2321:2402   */\n  tag_64\n  jumpi\n    /* \"#utility.yul\":2387:2391   */\n  0x7f\n    /* \"#utility.yul\":2379:2385   */\n  dup3\n    /* \"#utility.yul\":2375:2392   */\n  and\n    /* \"#utility.yul\":2365:2392   */\n  swap2\n  pop\n    /* \"#utility.yul\":2321:2402   */\ntag_64:\n    /* \"#utility.yul\":2449:2451   */\n  0x20\n    /* \"#utility.yul\":2441:2447   */\n  dup3\n    /* \"#utility.yul\":2438:2452   */\n  lt\n    /* \"#utility.yul\":2418:2436   */\n  dup2\n    /* \"#utility.yul\":2415:2453   */\n  eq\n    /* \"#utility.yul\":2412:2496   */\n  iszero\n  tag_65\n  jumpi\n    /* \"#utility.yul\":2468:2486   */\n  tag_66\n  tag_67\n  jump\t// in\ntag_66:\n    /* \"#utility.yul\":2412:2496   */\ntag_65:\n    /* \"#utility.yul\":2233:2502   */\n  pop\n    /* \"#utility.yul\":2182:2502   */\n  swap2\n  swap1\n  pop\n  jump\t// out\n    /* \"#utility.yul\":2508:2789   */\ntag_50:\n    /* \"#utility.yul\":2591:2618   */\n  tag_69\n    /* \"#utility.yul\":2613:2617   */\n  dup3\n    /* \"#utility.yul\":2591:2618   */\n  tag_57\n  jump\t// in\ntag_69:\n    /* \"#utility.yul\":2583:2589   */\n  dup2\n    /* \"#utility.yul\":2579:2619   */\n  add\n    /* \"#utility.yul\":2721:2727   */\n  dup2\n    /* \"#utility.yul\":2709:2719   */\n  dup2\n    /* \"#utility.yul\":2706:2728   */\n  lt\n    /* \"#utility.yul\":2685:2703   */\n  0xffffffffffffffff\n    /* \"#utility.yul\":2673:2683   */\n  dup3\n    /* \"#utility.yul\":2670:2704   */\n  gt\n    /* \"#utility.yul\":2667:2729   */\n  or\n    /* \"#utility.yul\":2664:2752   */\n  iszero\n  tag_70\n  jumpi\n    /* \"#utility.yul\":2732:2750   */\n  tag_71\n  tag_55\n  jump\t// in\ntag_71:\n    /* \"#utility.yul\":2664:2752   */\ntag_70:\n    /* \"#utility.yul\":2772:2782   */\n  dup1\n    /* \"#utility.yul\":2768:2770   */\n  0x40\n    /* \"#utility.yul\":2761:2783   */\n  mstore\n    /* \"#utility.yul\":2551:2789   */\n  pop\n    /* \"#utility.yul\":2508:2789   */\n  pop\n  pop\n  jump\t// out\n    /* \"#utility.yul\":2795:2975   */\ntag_67:\n    /* \"#utility.yul\":2843:2920   */\n  0x4e487b7100000000000000000000000000000000000000000000000000000000\n    /* \"#utility.yul\":2840:2841   */\n  0x00\n    /* \"#utility.yul\":2833:2921   */\n  mstore\n    /* \"#utility.yul\":2940:2944   */\n  0x22\n    /* \"#utility.yul\":2937:2938   */\n  0x04\n    /* \"#utility.yul\":2930:2945   */\n  mstore\n    /* \"#utility.yul\":2964:2968   */\n  0x24\n    /* \"#utility.yul\":2961:2962   */\n  0x00\n    /* \"#utility.yul\":2954:2969   */\n  revert\n    /* \"#utility.yul\":2981:3161   */\ntag_55:\n    /* \"#utility.yul\":3029:3106   */\n  0x4e487b7100000000000000000000000000000000000000000000000000000000\n    /* \"#utility.yul\":3026:3027   */\n  0x00\n    /* \"#utility.yul\":3019:3107   */\n  mstore\n    /* \"#utility.yul\":3126:3130   */\n  0x41\n    /* \"#utility.yul\":3123:3124   */\n  0x04\n    /* \"#utility.yul\":3116:3131   */\n  mstore\n    /* \"#utility.yul\":3150:3154   */\n  0x24\n    /* \"#utility.yul\":3147:3148   */\n  0x00\n    /* \"#utility.yul\":3140:3155   */\n  revert\n    /* \"#utility.yul\":3167:3284   */\ntag_36:\n    /* \"#utility.yul\":3276:3277   */\n  0x00\n    /* \"#utility.yul\":3273:3274   */\n  dup1\n    /* \"#utility.yul\":3266:3278   */\n  revert\n    /* \"#utility.yul\":3290:3407   */\ntag_29:\n    /* \"#utility.yul\":3399:3400   */\n  0x00\n    /* \"#utility.yul\":3396:3397   */\n  dup1\n    /* \"#utility.yul\":3389:3401   */\n  revert\n    /* \"#utility.yul\":3413:3530   */\ntag_44:\n    /* \"#utility.yul\":3522:3523   */\n  0x00\n    /* \"#utility.yul\":3519:3520   */\n  dup1\n    /* \"#utility.yul\":3512:3524   */\n  revert\n    /* \"#utility.yul\":3536:3653   */\ntag_41:\n    /* \"#utility.yul\":3645:3646   */\n  0x00\n    /* \"#utility.yul\":3642:3643   */\n  dup1\n    /* \"#utility.yul\":3635:3647   */\n  revert\n    /* \"#utility.yul\":3659:3761   */\ntag_57:\n    /* \"#utility.yul\":3700:3706   */\n  0x00\n    /* \"#utility.yul\":3751:3753   */\n  0x1f\n    /* \"#utility.yul\":3747:3754   */\n  not\n    /* \"#utility.yul\":3742:3744   */\n  0x1f\n    /* \"#utility.yul\":3735:3740   */\n  dup4\n    /* \"#utility.yul\":3731:3745   */\n  add\n    /* \"#utility.yul\":3727:3755   */\n  and\n    /* \"#utility.yul\":3717:3755   */\n  swap1\n  pop\n    /* \"#utility.yul\":3659:3761   */\n  swap2\n  swap1\n  pop\n  jump\t// out\n    /* \"bank/01-bank.sol\":141:2405  contract bank_demo{\r... */\ntag_8:\n  dataSize(sub_0)\n  dup1\n  dataOffset(sub_0)\n  0x00\n  codecopy\n  0x00\n  return\nstop\n\nsub_0: assembly {\n        /* \"bank/01-bank.sol\":141:2405  contract bank_demo{\r... */\n      mstore(0x40, 0x80)\n      jumpi(tag_1, lt(calldatasize, 0x04))\n      shr(0xe0, calldataload(0x00))\n      dup1\n      0x3d64125b\n      gt\n      tag_9\n      jumpi\n      dup1\n      0x3d64125b\n      eq\n      tag_5\n      jumpi\n      dup1\n      0xa9059cbb\n      eq\n      tag_6\n      jumpi\n      dup1\n      0xb6b55f25\n      eq\n      tag_7\n      jumpi\n      dup1\n      0xf851a440\n      eq\n      tag_8\n      jumpi\n      jump(tag_1)\n    tag_9:\n      dup1\n      0x12065fe0\n      eq\n      tag_2\n      jumpi\n      dup1\n      0x27d35801\n      eq\n      tag_3\n      jumpi\n      dup1\n      0x2e1a7d4d\n      eq\n      tag_4\n      jumpi\n    tag_1:\n      0x00\n      dup1\n      revert\n        /* \"bank/01-bank.sol\":2282:2402  function getBalance()public view returns(uint256, uint256){\r... */\n    tag_2:\n      callvalue\n      dup1\n      iszero\n      tag_10\n      jumpi\n      0x00\n      dup1\n      revert\n    tag_10:\n      pop\n      tag_11\n      tag_12\n      jump\t// in\n    tag_11:\n      mload(0x40)\n      tag_13\n      swap3\n      swap2\n      swap1\n      tag_14\n      jump\t// in\n    tag_13:\n      mload(0x40)\n      dup1\n      swap2\n      sub\n      swap1\n      return\n        /* \"bank/01-bank.sol\":166:188  string public bankName */\n    tag_3:\n      callvalue\n      dup1\n      iszero\n      tag_15\n      jumpi\n      0x00\n      dup1\n      revert\n    tag_15:\n      pop\n      tag_16\n      tag_17\n      jump\t// in\n    tag_16:\n      mload(0x40)\n      tag_18\n      swap2\n      swap1\n      tag_19\n      jump\t// in\n    tag_18:\n      mload(0x40)\n      dup1\n      swap2\n      sub\n      swap1\n      return\n        /* \"bank/01-bank.sol\":1001:1523  function withdraw(uint256 _amount)public payable{\r... */\n    tag_4:\n      tag_20\n      0x04\n      dup1\n      calldatasize\n      sub\n      dup2\n      add\n      swap1\n      tag_21\n      swap2\n      swap1\n      tag_22\n      jump\t// in\n    tag_21:\n      tag_23\n      jump\t// in\n    tag_20:\n      stop\n        /* \"bank/01-bank.sol\":2151:2251  function balanceof(address _who)public view returns(uint256){\r... */\n    tag_5:\n      callvalue\n      dup1\n      iszero\n      tag_24\n      jumpi\n      0x00\n      dup1\n      revert\n    tag_24:\n      pop\n      tag_25\n      0x04\n      dup1\n      calldatasize\n      sub\n      dup2\n      add\n      swap1\n      tag_26\n      swap2\n      swap1\n      tag_27\n      jump\t// in\n    tag_26:\n      tag_28\n      jump\t// in\n    tag_25:\n      mload(0x40)\n      tag_29\n      swap2\n      swap1\n      tag_30\n      jump\t// in\n    tag_29:\n      mload(0x40)\n      dup1\n      swap2\n      sub\n      swap1\n      return\n        /* \"bank/01-bank.sol\":1572:2112  function transfer(address _to, uint256 _amount)public {\r... */\n    tag_6:\n      callvalue\n      dup1\n      iszero\n      tag_31\n      jumpi\n      0x00\n      dup1\n      revert\n    tag_31:\n      pop\n      tag_32\n      0x04\n      dup1\n      calldatasize\n      sub\n      dup2\n      add\n      swap1\n      tag_33\n      swap2\n      swap1\n      tag_34\n      jump\t// in\n    tag_33:\n      tag_35\n      jump\t// in\n    tag_32:\n      stop\n        /* \"bank/01-bank.sol\":495:974  function deposit(uint256 _amount) public payable{\r... */\n    tag_7:\n      tag_36\n      0x04\n      dup1\n      calldatasize\n      sub\n      dup2\n      add\n      swap1\n      tag_37\n      swap2\n      swap1\n      tag_22\n      jump\t// in\n    tag_37:\n      tag_38\n      jump\t// in\n    tag_36:\n      stop\n        /* \"bank/01-bank.sol\":261:281  address public admin */\n    tag_8:\n      callvalue\n      dup1\n      iszero\n      tag_39\n      jumpi\n      0x00\n      dup1\n      revert\n    tag_39:\n      pop\n      tag_40\n      tag_41\n      jump\t// in\n    tag_40:\n      mload(0x40)\n      tag_42\n      swap2\n      swap1\n      tag_43\n      jump\t// in\n    tag_42:\n      mload(0x40)\n      dup1\n      swap2\n      sub\n      swap1\n      return\n        /* \"bank/01-bank.sol\":2282:2402  function getBalance()public view returns(uint256, uint256){\r... */\n    tag_12:\n        /* \"bank/01-bank.sol\":2323:2330  uint256 */\n      0x00\n        /* \"bank/01-bank.sol\":2332:2339  uint256 */\n      dup1\n        /* \"bank/01-bank.sol\":2359:2380  address(this).balance */\n      selfbalance\n        /* \"bank/01-bank.sol\":2382:2393  totalAmount */\n      sload(0x01)\n        /* \"bank/01-bank.sol\":2351:2394  return (address(this).balance, totalAmount) */\n      swap2\n      pop\n      swap2\n      pop\n        /* \"bank/01-bank.sol\":2282:2402  function getBalance()public view returns(uint256, uint256){\r... */\n      swap1\n      swap2\n      jump\t// out\n        /* \"bank/01-bank.sol\":166:188  string public bankName */\n    tag_17:\n      0x00\n      dup1\n      sload\n      tag_45\n      swap1\n      tag_46\n      jump\t// in\n    tag_45:\n      dup1\n      0x1f\n      add\n      0x20\n      dup1\n      swap2\n      div\n      mul\n      0x20\n      add\n      mload(0x40)\n      swap1\n      dup2\n      add\n      0x40\n      mstore\n      dup1\n      swap3\n      swap2\n      swap1\n      dup2\n      dup2\n      mstore\n      0x20\n      add\n      dup3\n      dup1\n      sload\n      tag_47\n      swap1\n      tag_46\n      jump\t// in\n    tag_47:\n      dup1\n      iszero\n      tag_48\n      jumpi\n      dup1\n      0x1f\n      lt\n      tag_49\n      jumpi\n      0x0100\n      dup1\n      dup4\n      sload\n      div\n      mul\n      dup4\n      mstore\n      swap2\n      0x20\n      add\n      swap2\n      jump(tag_48)\n    tag_49:\n      dup3\n      add\n      swap2\n      swap1\n      0x00\n      mstore\n      keccak256(0x00, 0x20)\n      swap1\n    tag_50:\n      dup2\n      sload\n      dup2\n      mstore\n      swap1\n      0x01\n      add\n      swap1\n      0x20\n      add\n      dup1\n      dup4\n      gt\n      tag_50\n      jumpi\n      dup3\n      swap1\n      sub\n      0x1f\n      and\n      dup3\n      add\n      swap2\n    tag_48:\n      pop\n      pop\n      pop\n      pop\n      pop\n      dup2\n      jump\t// out\n        /* \"bank/01-bank.sol\":1001:1523  function withdraw(uint256 _amount)public payable{\r... */\n    tag_23:\n        /* \"bank/01-bank.sol\":1078:1079  0 */\n      0x00\n        /* \"bank/01-bank.sol\":1068:1075  _amount */\n      dup2\n        /* \"bank/01-bank.sol\":1068:1079  _amount > 0 */\n      gt\n        /* \"bank/01-bank.sol\":1060:1100  require(_amount > 0,\" amount must > 0 \") */\n      tag_52\n      jumpi\n      mload(0x40)\n      0x08c379a000000000000000000000000000000000000000000000000000000000\n      dup2\n      mstore\n      0x04\n      add\n      tag_53\n      swap1\n      tag_54\n      jump\t// in\n    tag_53:\n      mload(0x40)\n      dup1\n      swap2\n      sub\n      swap1\n      revert\n    tag_52:\n        /* \"bank/01-bank.sol\":1143:1150  _amount */\n      dup1\n        /* \"bank/01-bank.sol\":1119:1127  balances */\n      0x03\n        /* \"bank/01-bank.sol\":1119:1139  balances[msg.sender] */\n      0x00\n        /* \"bank/01-bank.sol\":1128:1138  msg.sender */\n      caller\n        /* \"bank/01-bank.sol\":1119:1139  balances[msg.sender] */\n      0xffffffffffffffffffffffffffffffffffffffff\n      and\n      0xffffffffffffffffffffffffffffffffffffffff\n      and\n      dup2\n      mstore\n      0x20\n      add\n      swap1\n      dup2\n      mstore\n      0x20\n      add\n      0x00\n      keccak256\n      sload\n        /* \"bank/01-bank.sol\":1119:1150  balances[msg.sender] >= _amount */\n      lt\n      iszero\n        /* \"bank/01-bank.sol\":1111:1179  require(balances[msg.sender] >= _amount,\"user's balance not enough\") */\n      tag_55\n      jumpi\n      mload(0x40)\n      0x08c379a000000000000000000000000000000000000000000000000000000000\n      dup2\n      mstore\n      0x04\n      add\n      tag_56\n      swap1\n      tag_57\n      jump\t// in\n    tag_56:\n      mload(0x40)\n      dup1\n      swap2\n      sub\n      swap1\n      revert\n    tag_55:\n        /* \"bank/01-bank.sol\":1253:1260  _amount */\n      dup1\n        /* \"bank/01-bank.sol\":1229:1237  balances */\n      0x03\n        /* \"bank/01-bank.sol\":1229:1249  balances[msg.sender] */\n      0x00\n        /* \"bank/01-bank.sol\":1238:1248  msg.sender */\n      caller\n        /* \"bank/01-bank.sol\":1229:1249  balances[msg.sender] */\n      0xffffffffffffffffffffffffffffffffffffffff\n      and\n      0xffffffffffffffffffffffffffffffffffffffff\n      and\n      dup2\n      mstore\n      0x20\n      add\n      swap1\n      dup2\n      mstore\n      0x20\n      add\n      0x00\n      keccak256\n      0x00\n        /* \"bank/01-bank.sol\":1229:1260  balances[msg.sender] -= _amount */\n      dup3\n      dup3\n      sload\n      tag_58\n      swap2\n      swap1\n      tag_59\n      jump\t// in\n    tag_58:\n      swap3\n      pop\n      pop\n      dup2\n      swap1\n      sstore\n      pop\n        /* \"bank/01-bank.sol\":1297:1307  msg.sender */\n      caller\n        /* \"bank/01-bank.sol\":1289:1317  payable(msg.sender).transfer */\n      0xffffffffffffffffffffffffffffffffffffffff\n      and\n        /* \"bank/01-bank.sol\":1289:1326  payable(msg.sender).transfer(_amount) */\n      0x08fc\n        /* \"bank/01-bank.sol\":1318:1325  _amount */\n      dup3\n        /* \"bank/01-bank.sol\":1289:1326  payable(msg.sender).transfer(_amount) */\n      swap1\n      dup2\n      iszero\n      mul\n      swap1\n      mload(0x40)\n      0x00\n      mload(0x40)\n      dup1\n      dup4\n      sub\n      dup2\n      dup6\n      dup9\n      dup9\n      call\n      swap4\n      pop\n      pop\n      pop\n      pop\n      iszero\n      dup1\n      iszero\n      tag_61\n      jumpi\n      returndatasize\n      0x00\n      dup1\n      returndatacopy\n      revert(0x00, returndatasize)\n    tag_61:\n      pop\n        /* \"bank/01-bank.sol\":1367:1374  _amount */\n      dup1\n        /* \"bank/01-bank.sol\":1352:1363  totalAmount */\n      0x01\n      0x00\n        /* \"bank/01-bank.sol\":1352:1374  totalAmount -= _amount */\n      dup3\n      dup3\n      sload\n      tag_62\n      swap2\n      swap1\n      tag_59\n      jump\t// in\n    tag_62:\n      swap3\n      pop\n      pop\n      dup2\n      swap1\n      sstore\n      pop\n        /* \"bank/01-bank.sol\":1450:1461  totalAmount */\n      sload(0x01)\n        /* \"bank/01-bank.sol\":1425:1446  address(this).balance */\n      selfbalance\n        /* \"bank/01-bank.sol\":1425:1461  address(this).balance == totalAmount */\n      eq\n        /* \"bank/01-bank.sol\":1417:1487  require(address(this).balance == totalAmount,\"bank's balance must ok\") */\n      tag_63\n      jumpi\n      mload(0x40)\n      0x08c379a000000000000000000000000000000000000000000000000000000000\n      dup2\n      mstore\n      0x04\n      add\n      tag_64\n      swap1\n      tag_65\n      jump\t// in\n    tag_64:\n      mload(0x40)\n      dup1\n      swap2\n      sub\n      swap1\n      revert\n    tag_63:\n        /* \"bank/01-bank.sol\":1001:1523  function withdraw(uint256 _amount)public payable{\r... */\n      pop\n      jump\t// out\n        /* \"bank/01-bank.sol\":2151:2251  function balanceof(address _who)public view returns(uint256){\r... */\n    tag_28:\n        /* \"bank/01-bank.sol\":2203:2210  uint256 */\n      0x00\n        /* \"bank/01-bank.sol\":2229:2237  balances */\n      0x03\n        /* \"bank/01-bank.sol\":2229:2243  balances[_who] */\n      0x00\n        /* \"bank/01-bank.sol\":2238:2242  _who */\n      dup4\n        /* \"bank/01-bank.sol\":2229:2243  balances[_who] */\n      0xffffffffffffffffffffffffffffffffffffffff\n      and\n      0xffffffffffffffffffffffffffffffffffffffff\n      and\n      dup2\n      mstore\n      0x20\n      add\n      swap1\n      dup2\n      mstore\n      0x20\n      add\n      0x00\n      keccak256\n      sload\n        /* \"bank/01-bank.sol\":2222:2243  return balances[_who] */\n      swap1\n      pop\n        /* \"bank/01-bank.sol\":2151:2251  function balanceof(address _who)public view returns(uint256){\r... */\n      swap2\n      swap1\n      pop\n      jump\t// out\n        /* \"bank/01-bank.sol\":1572:2112  function transfer(address _to, uint256 _amount)public {\r... */\n    tag_35:\n        /* \"bank/01-bank.sol\":1655:1656  0 */\n      0x00\n        /* \"bank/01-bank.sol\":1645:1652  _amount */\n      dup2\n        /* \"bank/01-bank.sol\":1645:1656  _amount > 0 */\n      gt\n        /* \"bank/01-bank.sol\":1637:1677  require(_amount > 0,\" amount must > 0 \") */\n      tag_68\n      jumpi\n      mload(0x40)\n      0x08c379a000000000000000000000000000000000000000000000000000000000\n      dup2\n      mstore\n      0x04\n      add\n      tag_69\n      swap1\n      tag_54\n      jump\t// in\n    tag_69:\n      mload(0x40)\n      dup1\n      swap2\n      sub\n      swap1\n      revert\n    tag_68:\n        /* \"bank/01-bank.sol\":1710:1713  _to */\n      dup2\n        /* \"bank/01-bank.sol\":1696:1713  address(0) != _to */\n      0xffffffffffffffffffffffffffffffffffffffff\n      and\n        /* \"bank/01-bank.sol\":1704:1705  0 */\n      0x00\n        /* \"bank/01-bank.sol\":1696:1713  address(0) != _to */\n      0xffffffffffffffffffffffffffffffffffffffff\n      and\n      eq\n      iszero\n        /* \"bank/01-bank.sol\":1688:1738  require(address(0) != _to,\"to address must valid\") */\n      tag_70\n      jumpi\n      mload(0x40)\n      0x08c379a000000000000000000000000000000000000000000000000000000000\n      dup2\n      mstore\n      0x04\n      add\n      tag_71\n      swap1\n      tag_72\n      jump\t// in\n    tag_71:\n      mload(0x40)\n      dup1\n      swap2\n      sub\n      swap1\n      revert\n    tag_70:\n        /* \"bank/01-bank.sol\":1811:1818  _amount */\n      dup1\n        /* \"bank/01-bank.sol\":1787:1795  balances */\n      0x03\n        /* \"bank/01-bank.sol\":1787:1807  balances[msg.sender] */\n      0x00\n        /* \"bank/01-bank.sol\":1796:1806  msg.sender */\n      caller\n        /* \"bank/01-bank.sol\":1787:1807  balances[msg.sender] */\n      0xffffffffffffffffffffffffffffffffffffffff\n      and\n      0xffffffffffffffffffffffffffffffffffffffff\n      and\n      dup2\n      mstore\n      0x20\n      add\n      swap1\n      dup2\n      mstore\n      0x20\n      add\n      0x00\n      keccak256\n      sload\n        /* \"bank/01-bank.sol\":1787:1818  balances[msg.sender] >= _amount */\n      lt\n      iszero\n        /* \"bank/01-bank.sol\":1779:1847  require(balances[msg.sender] >= _amount,\"user's balance not enough\") */\n      tag_73\n      jumpi\n      mload(0x40)\n      0x08c379a000000000000000000000000000000000000000000000000000000000\n      dup2\n      mstore\n      0x04\n      add\n      tag_74\n      swap1\n      tag_57\n      jump\t// in\n    tag_74:\n      mload(0x40)\n      dup1\n      swap2\n      sub\n      swap1\n      revert\n    tag_73:\n        /* \"bank/01-bank.sol\":1946:1953  _amount */\n      dup1\n        /* \"bank/01-bank.sol\":1922:1930  balances */\n      0x03\n        /* \"bank/01-bank.sol\":1922:1942  balances[msg.sender] */\n      0x00\n        /* \"bank/01-bank.sol\":1931:1941  msg.sender */\n      caller\n        /* \"bank/01-bank.sol\":1922:1942  balances[msg.sender] */\n      0xffffffffffffffffffffffffffffffffffffffff\n      and\n      0xffffffffffffffffffffffffffffffffffffffff\n      and\n      dup2\n      mstore\n      0x20\n      add\n      swap1\n      dup2\n      mstore\n      0x20\n      add\n      0x00\n      keccak256\n      0x00\n        /* \"bank/01-bank.sol\":1922:1953  balances[msg.sender] -= _amount */\n      dup3\n      dup3\n      sload\n      tag_75\n      swap2\n      swap1\n      tag_59\n      jump\t// in\n    tag_75:\n      swap3\n      pop\n      pop\n      dup2\n      swap1\n      sstore\n      pop\n        /* \"bank/01-bank.sol\":1984:1991  _amount */\n      dup1\n        /* \"bank/01-bank.sol\":1967:1975  balances */\n      0x03\n        /* \"bank/01-bank.sol\":1967:1980  balances[_to] */\n      0x00\n        /* \"bank/01-bank.sol\":1976:1979  _to */\n      dup5\n        /* \"bank/01-bank.sol\":1967:1980  balances[_to] */\n      0xffffffffffffffffffffffffffffffffffffffff\n      and\n      0xffffffffffffffffffffffffffffffffffffffff\n      and\n      dup2\n      mstore\n      0x20\n      add\n      swap1\n      dup2\n      mstore\n      0x20\n      add\n      0x00\n      keccak256\n      0x00\n        /* \"bank/01-bank.sol\":1967:1991  balances[_to] += _amount */\n      dup3\n      dup3\n      sload\n      tag_76\n      swap2\n      swap1\n      tag_77\n      jump\t// in\n    tag_76:\n      swap3\n      pop\n      pop\n      dup2\n      swap1\n      sstore\n      pop\n        /* \"bank/01-bank.sol\":2045:2056  totalAmount */\n      sload(0x01)\n        /* \"bank/01-bank.sol\":2020:2041  address(this).balance */\n      selfbalance\n        /* \"bank/01-bank.sol\":2020:2056  address(this).balance == totalAmount */\n      eq\n        /* \"bank/01-bank.sol\":2012:2082  require(address(this).balance == totalAmount,\"bank's balance must ok\") */\n      tag_78\n      jumpi\n      mload(0x40)\n      0x08c379a000000000000000000000000000000000000000000000000000000000\n      dup2\n      mstore\n      0x04\n      add\n      tag_79\n      swap1\n      tag_65\n      jump\t// in\n    tag_79:\n      mload(0x40)\n      dup1\n      swap2\n      sub\n      swap1\n      revert\n    tag_78:\n        /* \"bank/01-bank.sol\":1572:2112  function transfer(address _to, uint256 _amount)public {\r... */\n      pop\n      pop\n      jump\t// out\n        /* \"bank/01-bank.sol\":495:974  function deposit(uint256 _amount) public payable{\r... */\n    tag_38:\n        /* \"bank/01-bank.sol\":621:622  0 */\n      0x00\n        /* \"bank/01-bank.sol\":611:618  _amount */\n      dup2\n        /* \"bank/01-bank.sol\":611:622  _amount > 0 */\n      gt\n        /* \"bank/01-bank.sol\":603:643  require(_amount > 0,\" amount must > 0 \") */\n      tag_81\n      jumpi\n      mload(0x40)\n      0x08c379a000000000000000000000000000000000000000000000000000000000\n      dup2\n      mstore\n      0x04\n      add\n      tag_82\n      swap1\n      tag_54\n      jump\t// in\n    tag_82:\n      mload(0x40)\n      dup1\n      swap2\n      sub\n      swap1\n      revert\n    tag_81:\n        /* \"bank/01-bank.sol\":675:682  _amount */\n      dup1\n        /* \"bank/01-bank.sol\":662:671  msg.value */\n      callvalue\n        /* \"bank/01-bank.sol\":662:682  msg.value == _amount */\n      eq\n        /* \"bank/01-bank.sol\":654:715  require(msg.value == _amount,\" msg.value must equal amount\" ) */\n      tag_83\n      jumpi\n      mload(0x40)\n      0x08c379a000000000000000000000000000000000000000000000000000000000\n      dup2\n      mstore\n      0x04\n      add\n      tag_84\n      swap1\n      tag_85\n      jump\t// in\n    tag_84:\n      mload(0x40)\n      dup1\n      swap2\n      sub\n      swap1\n      revert\n    tag_83:\n        /* \"bank/01-bank.sol\":750:757  _amount */\n      dup1\n        /* \"bank/01-bank.sol\":726:734  balances */\n      0x03\n        /* \"bank/01-bank.sol\":726:746  balances[msg.sender] */\n      0x00\n        /* \"bank/01-bank.sol\":735:745  msg.sender */\n      caller\n        /* \"bank/01-bank.sol\":726:746  balances[msg.sender] */\n      0xffffffffffffffffffffffffffffffffffffffff\n      and\n      0xffffffffffffffffffffffffffffffffffffffff\n      and\n      dup2\n      mstore\n      0x20\n      add\n      swap1\n      dup2\n      mstore\n      0x20\n      add\n      0x00\n      keccak256\n      0x00\n        /* \"bank/01-bank.sol\":726:757  balances[msg.sender] += _amount */\n      dup3\n      dup3\n      sload\n      tag_86\n      swap2\n      swap1\n      tag_77\n      jump\t// in\n    tag_86:\n      swap3\n      pop\n      pop\n      dup2\n      swap1\n      sstore\n      pop\n        /* \"bank/01-bank.sol\":822:829  _amount */\n      dup1\n        /* \"bank/01-bank.sol\":807:818  totalAmount */\n      0x01\n      0x00\n        /* \"bank/01-bank.sol\":807:829  totalAmount += _amount */\n      dup3\n      dup3\n      sload\n      tag_87\n      swap2\n      swap1\n      tag_77\n      jump\t// in\n    tag_87:\n      swap3\n      pop\n      pop\n      dup2\n      swap1\n      sstore\n      pop\n        /* \"bank/01-bank.sol\":905:916  totalAmount */\n      sload(0x01)\n        /* \"bank/01-bank.sol\":880:901  address(this).balance */\n      selfbalance\n        /* \"bank/01-bank.sol\":880:916  address(this).balance == totalAmount */\n      eq\n        /* \"bank/01-bank.sol\":872:942  require(address(this).balance == totalAmount,\"bank's balance must ok\") */\n      tag_88\n      jumpi\n      mload(0x40)\n      0x08c379a000000000000000000000000000000000000000000000000000000000\n      dup2\n      mstore\n      0x04\n      add\n      tag_89\n      swap1\n      tag_65\n      jump\t// in\n    tag_89:\n      mload(0x40)\n      dup1\n      swap2\n      sub\n      swap1\n      revert\n    tag_88:\n        /* \"bank/01-bank.sol\":495:974  function deposit(uint256 _amount) public payable{\r... */\n      pop\n      jump\t// out\n        /* \"bank/01-bank.sol\":261:281  address public admin */\n    tag_41:\n      0x02\n      0x00\n      swap1\n      sload\n      swap1\n      0x0100\n      exp\n      swap1\n      div\n      0xffffffffffffffffffffffffffffffffffffffff\n      and\n      dup2\n      jump\t// out\n        /* \"#utility.yul\":7:146   */\n    tag_91:\n        /* \"#utility.yul\":53:58   */\n      0x00\n        /* \"#utility.yul\":91:97   */\n      dup2\n        /* \"#utility.yul\":78:98   */\n      calldataload\n        /* \"#utility.yul\":69:98   */\n      swap1\n      pop\n        /* \"#utility.yul\":107:140   */\n      tag_93\n        /* \"#utility.yul\":134:139   */\n      dup2\n        /* \"#utility.yul\":107:140   */\n      tag_94\n      jump\t// in\n    tag_93:\n        /* \"#utility.yul\":7:146   */\n      swap3\n      swap2\n      pop\n      pop\n      jump\t// out\n        /* \"#utility.yul\":152:291   */\n    tag_95:\n        /* \"#utility.yul\":198:203   */\n      0x00\n        /* \"#utility.yul\":236:242   */\n      dup2\n        /* \"#utility.yul\":223:243   */\n      calldataload\n        /* \"#utility.yul\":214:243   */\n      swap1\n      pop\n        /* \"#utility.yul\":252:285   */\n      tag_97\n        /* \"#utility.yul\":279:284   */\n      dup2\n        /* \"#utility.yul\":252:285   */\n      tag_98\n      jump\t// in\n    tag_97:\n        /* \"#utility.yul\":152:291   */\n      swap3\n      swap2\n      pop\n      pop\n      jump\t// out\n        /* \"#utility.yul\":297:626   */\n    tag_27:\n        /* \"#utility.yul\":356:362   */\n      0x00\n        /* \"#utility.yul\":405:407   */\n      0x20\n        /* \"#utility.yul\":393:402   */\n      dup3\n        /* \"#utility.yul\":384:391   */\n      dup5\n        /* \"#utility.yul\":380:403   */\n      sub\n        /* \"#utility.yul\":376:408   */\n      slt\n        /* \"#utility.yul\":373:492   */\n      iszero\n      tag_100\n      jumpi\n        /* \"#utility.yul\":411:490   */\n      tag_101\n      tag_102\n      jump\t// in\n    tag_101:\n        /* \"#utility.yul\":373:492   */\n    tag_100:\n        /* \"#utility.yul\":531:532   */\n      0x00\n        /* \"#utility.yul\":556:609   */\n      tag_103\n        /* \"#utility.yul\":601:608   */\n      dup5\n        /* \"#utility.yul\":592:598   */\n      dup3\n        /* \"#utility.yul\":581:590   */\n      dup6\n        /* \"#utility.yul\":577:599   */\n      add\n        /* \"#utility.yul\":556:609   */\n      tag_91\n      jump\t// in\n    tag_103:\n        /* \"#utility.yul\":546:609   */\n      swap2\n      pop\n        /* \"#utility.yul\":502:619   */\n      pop\n        /* \"#utility.yul\":297:626   */\n      swap3\n      swap2\n      pop\n      pop\n      jump\t// out\n        /* \"#utility.yul\":632:1106   */\n    tag_34:\n        /* \"#utility.yul\":700:706   */\n      0x00\n        /* \"#utility.yul\":708:714   */\n      dup1\n        /* \"#utility.yul\":757:759   */\n      0x40\n        /* \"#utility.yul\":745:754   */\n      dup4\n        /* \"#utility.yul\":736:743   */\n      dup6\n        /* \"#utility.yul\":732:755   */\n      sub\n        /* \"#utility.yul\":728:760   */\n      slt\n        /* \"#utility.yul\":725:844   */\n      iszero\n      tag_105\n      jumpi\n        /* \"#utility.yul\":763:842   */\n      tag_106\n      tag_102\n      jump\t// in\n    tag_106:\n        /* \"#utility.yul\":725:844   */\n    tag_105:\n        /* \"#utility.yul\":883:884   */\n      0x00\n        /* \"#utility.yul\":908:961   */\n      tag_107\n        /* \"#utility.yul\":953:960   */\n      dup6\n        /* \"#utility.yul\":944:950   */\n      dup3\n        /* \"#utility.yul\":933:942   */\n      dup7\n        /* \"#utility.yul\":929:951   */\n      add\n        /* \"#utility.yul\":908:961   */\n      tag_91\n      jump\t// in\n    tag_107:\n        /* \"#utility.yul\":898:961   */\n      swap3\n      pop\n        /* \"#utility.yul\":854:971   */\n      pop\n        /* \"#utility.yul\":1010:1012   */\n      0x20\n        /* \"#utility.yul\":1036:1089   */\n      tag_108\n        /* \"#utility.yul\":1081:1088   */\n      dup6\n        /* \"#utility.yul\":1072:1078   */\n      dup3\n        /* \"#utility.yul\":1061:1070   */\n      dup7\n        /* \"#utility.yul\":1057:1079   */\n      add\n        /* \"#utility.yul\":1036:1089   */\n      tag_95\n      jump\t// in\n    tag_108:\n        /* \"#utility.yul\":1026:1089   */\n      swap2\n      pop\n        /* \"#utility.yul\":981:1099   */\n      pop\n        /* \"#utility.yul\":632:1106   */\n      swap3\n      pop\n      swap3\n      swap1\n      pop\n      jump\t// out\n        /* \"#utility.yul\":1112:1441   */\n    tag_22:\n        /* \"#utility.yul\":1171:1177   */\n      0x00\n        /* \"#utility.yul\":1220:1222   */\n      0x20\n        /* \"#utility.yul\":1208:1217   */\n      dup3\n        /* \"#utility.yul\":1199:1206   */\n      dup5\n        /* \"#utility.yul\":1195:1218   */\n      sub\n        /* \"#utility.yul\":1191:1223   */\n      slt\n        /* \"#utility.yul\":1188:1307   */\n      iszero\n      tag_110\n      jumpi\n        /* \"#utility.yul\":1226:1305   */\n      tag_111\n      tag_102\n      jump\t// in\n    tag_111:\n        /* \"#utility.yul\":1188:1307   */\n    tag_110:\n        /* \"#utility.yul\":1346:1347   */\n      0x00\n        /* \"#utility.yul\":1371:1424   */\n      tag_112\n        /* \"#utility.yul\":1416:1423   */\n      dup5\n        /* \"#utility.yul\":1407:1413   */\n      dup3\n        /* \"#utility.yul\":1396:1405   */\n      dup6\n        /* \"#utility.yul\":1392:1414   */\n      add\n        /* \"#utility.yul\":1371:1424   */\n      tag_95\n      jump\t// in\n    tag_112:\n        /* \"#utility.yul\":1361:1424   */\n      swap2\n      pop\n        /* \"#utility.yul\":1317:1434   */\n      pop\n        /* \"#utility.yul\":1112:1441   */\n      swap3\n      swap2\n      pop\n      pop\n      jump\t// out\n        /* \"#utility.yul\":1447:1565   */\n    tag_113:\n        /* \"#utility.yul\":1534:1558   */\n      tag_115\n        /* \"#utility.yul\":1552:1557   */\n      dup2\n        /* \"#utility.yul\":1534:1558   */\n      tag_116\n      jump\t// in\n    tag_115:\n        /* \"#utility.yul\":1529:1532   */\n      dup3\n        /* \"#utility.yul\":1522:1559   */\n      mstore\n        /* \"#utility.yul\":1447:1565   */\n      pop\n      pop\n      jump\t// out\n        /* \"#utility.yul\":1571:1935   */\n    tag_117:\n        /* \"#utility.yul\":1659:1662   */\n      0x00\n        /* \"#utility.yul\":1687:1726   */\n      tag_119\n        /* \"#utility.yul\":1720:1725   */\n      dup3\n        /* \"#utility.yul\":1687:1726   */\n      tag_120\n      jump\t// in\n    tag_119:\n        /* \"#utility.yul\":1742:1813   */\n      tag_121\n        /* \"#utility.yul\":1806:1812   */\n      dup2\n        /* \"#utility.yul\":1801:1804   */\n      dup6\n        /* \"#utility.yul\":1742:1813   */\n      tag_122\n      jump\t// in\n    tag_121:\n        /* \"#utility.yul\":1735:1813   */\n      swap4\n      pop\n        /* \"#utility.yul\":1822:1874   */\n      tag_123\n        /* \"#utility.yul\":1867:1873   */\n      dup2\n        /* \"#utility.yul\":1862:1865   */\n      dup6\n        /* \"#utility.yul\":1855:1859   */\n      0x20\n        /* \"#utility.yul\":1848:1853   */\n      dup7\n        /* \"#utility.yul\":1844:1860   */\n      add\n        /* \"#utility.yul\":1822:1874   */\n      tag_124\n      jump\t// in\n    tag_123:\n        /* \"#utility.yul\":1899:1928   */\n      tag_125\n        /* \"#utility.yul\":1921:1927   */\n      dup2\n        /* \"#utility.yul\":1899:1928   */\n      tag_126\n      jump\t// in\n    tag_125:\n        /* \"#utility.yul\":1894:1897   */\n      dup5\n        /* \"#utility.yul\":1890:1929   */\n      add\n        /* \"#utility.yul\":1883:1929   */\n      swap2\n      pop\n        /* \"#utility.yul\":1663:1935   */\n      pop\n        /* \"#utility.yul\":1571:1935   */\n      swap3\n      swap2\n      pop\n      pop\n      jump\t// out\n        /* \"#utility.yul\":1941:2307   */\n    tag_127:\n        /* \"#utility.yul\":2083:2086   */\n      0x00\n        /* \"#utility.yul\":2104:2171   */\n      tag_129\n        /* \"#utility.yul\":2168:2170   */\n      0x15\n        /* \"#utility.yul\":2163:2166   */\n      dup4\n        /* \"#utility.yul\":2104:2171   */\n      tag_122\n      jump\t// in\n    tag_129:\n        /* \"#utility.yul\":2097:2171   */\n      swap2\n      pop\n        /* \"#utility.yul\":2180:2273   */\n      tag_130\n        /* \"#utility.yul\":2269:2272   */\n      dup3\n        /* \"#utility.yul\":2180:2273   */\n      tag_131\n      jump\t// in\n    tag_130:\n        /* \"#utility.yul\":2298:2300   */\n      0x20\n        /* \"#utility.yul\":2293:2296   */\n      dup3\n        /* \"#utility.yul\":2289:2301   */\n      add\n        /* \"#utility.yul\":2282:2301   */\n      swap1\n      pop\n        /* \"#utility.yul\":1941:2307   */\n      swap2\n      swap1\n      pop\n      jump\t// out\n        /* \"#utility.yul\":2313:2679   */\n    tag_132:\n        /* \"#utility.yul\":2455:2458   */\n      0x00\n        /* \"#utility.yul\":2476:2543   */\n      tag_134\n        /* \"#utility.yul\":2540:2542   */\n      0x1c\n        /* \"#utility.yul\":2535:2538   */\n      dup4\n        /* \"#utility.yul\":2476:2543   */\n      tag_122\n      jump\t// in\n    tag_134:\n        /* \"#utility.yul\":2469:2543   */\n      swap2\n      pop\n        /* \"#utility.yul\":2552:2645   */\n      tag_135\n        /* \"#utility.yul\":2641:2644   */\n      dup3\n        /* \"#utility.yul\":2552:2645   */\n      tag_136\n      jump\t// in\n    tag_135:\n        /* \"#utility.yul\":2670:2672   */\n      0x20\n        /* \"#utility.yul\":2665:2668   */\n      dup3\n        /* \"#utility.yul\":2661:2673   */\n      add\n        /* \"#utility.yul\":2654:2673   */\n      swap1\n      pop\n        /* \"#utility.yul\":2313:2679   */\n      swap2\n      swap1\n      pop\n      jump\t// out\n        /* \"#utility.yul\":2685:3051   */\n    tag_137:\n        /* \"#utility.yul\":2827:2830   */\n      0x00\n        /* \"#utility.yul\":2848:2915   */\n      tag_139\n        /* \"#utility.yul\":2912:2914   */\n      0x19\n        /* \"#utility.yul\":2907:2910   */\n      dup4\n        /* \"#utility.yul\":2848:2915   */\n      tag_122\n      jump\t// in\n    tag_139:\n        /* \"#utility.yul\":2841:2915   */\n      swap2\n      pop\n        /* \"#utility.yul\":2924:3017   */\n      tag_140\n        /* \"#utility.yul\":3013:3016   */\n      dup3\n        /* \"#utility.yul\":2924:3017   */\n      tag_141\n      jump\t// in\n    tag_140:\n        /* \"#utility.yul\":3042:3044   */\n      0x20\n        /* \"#utility.yul\":3037:3040   */\n      dup3\n        /* \"#utility.yul\":3033:3045   */\n      add\n        /* \"#utility.yul\":3026:3045   */\n      swap1\n      pop\n        /* \"#utility.yul\":2685:3051   */\n      swap2\n      swap1\n      pop\n      jump\t// out\n        /* \"#utility.yul\":3057:3423   */\n    tag_142:\n        /* \"#utility.yul\":3199:3202   */\n      0x00\n        /* \"#utility.yul\":3220:3287   */\n      tag_144\n        /* \"#utility.yul\":3284:3286   */\n      0x11\n        /* \"#utility.yul\":3279:3282   */\n      dup4\n        /* \"#utility.yul\":3220:3287   */\n      tag_122\n      jump\t// in\n    tag_144:\n        /* \"#utility.yul\":3213:3287   */\n      swap2\n      pop\n        /* \"#utility.yul\":3296:3389   */\n      tag_145\n        /* \"#utility.yul\":3385:3388   */\n      dup3\n        /* \"#utility.yul\":3296:3389   */\n      tag_146\n      jump\t// in\n    tag_145:\n        /* \"#utility.yul\":3414:3416   */\n      0x20\n        /* \"#utility.yul\":3409:3412   */\n      dup3\n        /* \"#utility.yul\":3405:3417   */\n      add\n        /* \"#utility.yul\":3398:3417   */\n      swap1\n      pop\n        /* \"#utility.yul\":3057:3423   */\n      swap2\n      swap1\n      pop\n      jump\t// out\n        /* \"#utility.yul\":3429:3795   */\n    tag_147:\n        /* \"#utility.yul\":3571:3574   */\n      0x00\n        /* \"#utility.yul\":3592:3659   */\n      tag_149\n        /* \"#utility.yul\":3656:3658   */\n      0x16\n        /* \"#utility.yul\":3651:3654   */\n      dup4\n        /* \"#utility.yul\":3592:3659   */\n      tag_122\n      jump\t// in\n    tag_149:\n        /* \"#utility.yul\":3585:3659   */\n      swap2\n      pop\n        /* \"#utility.yul\":3668:3761   */\n      tag_150\n        /* \"#utility.yul\":3757:3760   */\n      dup3\n        /* \"#utility.yul\":3668:3761   */\n      tag_151\n      jump\t// in\n    tag_150:\n        /* \"#utility.yul\":3786:3788   */\n      0x20\n        /* \"#utility.yul\":3781:3784   */\n      dup3\n        /* \"#utility.yul\":3777:3789   */\n      add\n        /* \"#utility.yul\":3770:3789   */\n      swap1\n      pop\n        /* \"#utility.yul\":3429:3795   */\n      swap2\n      swap1\n      pop\n      jump\t// out\n        /* \"#utility.yul\":3801:3919   */\n    tag_152:\n        /* \"#utility.yul\":3888:3912   */\n      tag_154\n        /* \"#utility.yul\":3906:3911   */\n      dup2\n        /* \"#utility.yul\":3888:3912   */\n      tag_155\n      jump\t// in\n    tag_154:\n        /* \"#utility.yul\":3883:3886   */\n      dup3\n        /* \"#utility.yul\":3876:3913   */\n      mstore\n        /* \"#utility.yul\":3801:3919   */\n      pop\n      pop\n      jump\t// out\n        /* \"#utility.yul\":3925:4147   */\n    tag_43:\n        /* \"#utility.yul\":4018:4022   */\n      0x00\n        /* \"#utility.yul\":4056:4058   */\n      0x20\n        /* \"#utility.yul\":4045:4054   */\n      dup3\n        /* \"#utility.yul\":4041:4059   */\n      add\n        /* \"#utility.yul\":4033:4059   */\n      swap1\n      pop\n        /* \"#utility.yul\":4069:4140   */\n      tag_157\n        /* \"#utility.yul\":4137:4138   */\n      0x00\n        /* \"#utility.yul\":4126:4135   */\n      dup4\n        /* \"#utility.yul\":4122:4139   */\n      add\n        /* \"#utility.yul\":4113:4119   */\n      dup5\n        /* \"#utility.yul\":4069:4140   */\n      tag_113\n      jump\t// in\n    tag_157:\n        /* \"#utility.yul\":3925:4147   */\n      swap3\n      swap2\n      pop\n      pop\n      jump\t// out\n        /* \"#utility.yul\":4153:4466   */\n    tag_19:\n        /* \"#utility.yul\":4266:4270   */\n      0x00\n        /* \"#utility.yul\":4304:4306   */\n      0x20\n        /* \"#utility.yul\":4293:4302   */\n      dup3\n        /* \"#utility.yul\":4289:4307   */\n      add\n        /* \"#utility.yul\":4281:4307   */\n      swap1\n      pop\n        /* \"#utility.yul\":4353:4362   */\n      dup2\n        /* \"#utility.yul\":4347:4351   */\n      dup2\n        /* \"#utility.yul\":4343:4363   */\n      sub\n        /* \"#utility.yul\":4339:4340   */\n      0x00\n        /* \"#utility.yul\":4328:4337   */\n      dup4\n        /* \"#utility.yul\":4324:4341   */\n      add\n        /* \"#utility.yul\":4317:4364   */\n      mstore\n        /* \"#utility.yul\":4381:4459   */\n      tag_159\n        /* \"#utility.yul\":4454:4458   */\n      dup2\n        /* \"#utility.yul\":4445:4451   */\n      dup5\n        /* \"#utility.yul\":4381:4459   */\n      tag_117\n      jump\t// in\n    tag_159:\n        /* \"#utility.yul\":4373:4459   */\n      swap1\n      pop\n        /* \"#utility.yul\":4153:4466   */\n      swap3\n      swap2\n      pop\n      pop\n      jump\t// out\n        /* \"#utility.yul\":4472:4891   */\n    tag_72:\n        /* \"#utility.yul\":4638:4642   */\n      0x00\n        /* \"#utility.yul\":4676:4678   */\n      0x20\n        /* \"#utility.yul\":4665:4674   */\n      dup3\n        /* \"#utility.yul\":4661:4679   */\n      add\n        /* \"#utility.yul\":4653:4679   */\n      swap1\n      pop\n        /* \"#utility.yul\":4725:4734   */\n      dup2\n        /* \"#utility.yul\":4719:4723   */\n      dup2\n        /* \"#utility.yul\":4715:4735   */\n      sub\n        /* \"#utility.yul\":4711:4712   */\n      0x00\n        /* \"#utility.yul\":4700:4709   */\n      dup4\n        /* \"#utility.yul\":4696:4713   */\n      add\n        /* \"#utility.yul\":4689:4736   */\n      mstore\n        /* \"#utility.yul\":4753:4884   */\n      tag_161\n        /* \"#utility.yul\":4879:4883   */\n      dup2\n        /* \"#utility.yul\":4753:4884   */\n      tag_127\n      jump\t// in\n    tag_161:\n        /* \"#utility.yul\":4745:4884   */\n      swap1\n      pop\n        /* \"#utility.yul\":4472:4891   */\n      swap2\n      swap1\n      pop\n      jump\t// out\n        /* \"#utility.yul\":4897:5316   */\n    tag_85:\n        /* \"#utility.yul\":5063:5067   */\n      0x00\n        /* \"#utility.yul\":5101:5103   */\n      0x20\n        /* \"#utility.yul\":5090:5099   */\n      dup3\n        /* \"#utility.yul\":5086:5104   */\n      add\n        /* \"#utility.yul\":5078:5104   */\n      swap1\n      pop\n        /* \"#utility.yul\":5150:5159   */\n      dup2\n        /* \"#utility.yul\":5144:5148   */\n      dup2\n        /* \"#utility.yul\":5140:5160   */\n      sub\n        /* \"#utility.yul\":5136:5137   */\n      0x00\n        /* \"#utility.yul\":5125:5134   */\n      dup4\n        /* \"#utility.yul\":5121:5138   */\n      add\n        /* \"#utility.yul\":5114:5161   */\n      mstore\n        /* \"#utility.yul\":5178:5309   */\n      tag_163\n        /* \"#utility.yul\":5304:5308   */\n      dup2\n        /* \"#utility.yul\":5178:5309   */\n      tag_132\n      jump\t// in\n    tag_163:\n        /* \"#utility.yul\":5170:5309   */\n      swap1\n      pop\n        /* \"#utility.yul\":4897:5316   */\n      swap2\n      swap1\n      pop\n      jump\t// out\n        /* \"#utility.yul\":5322:5741   */\n    tag_57:\n        /* \"#utility.yul\":5488:5492   */\n      0x00\n        /* \"#utility.yul\":5526:5528   */\n      0x20\n        /* \"#utility.yul\":5515:5524   */\n      dup3\n        /* \"#utility.yul\":5511:5529   */\n      add\n        /* \"#utility.yul\":5503:5529   */\n      swap1\n      pop\n        /* \"#utility.yul\":5575:5584   */\n      dup2\n        /* \"#utility.yul\":5569:5573   */\n      dup2\n        /* \"#utility.yul\":5565:5585   */\n      sub\n        /* \"#utility.yul\":5561:5562   */\n      0x00\n        /* \"#utility.yul\":5550:5559   */\n      dup4\n        /* \"#utility.yul\":5546:5563   */\n      add\n        /* \"#utility.yul\":5539:5586   */\n      mstore\n        /* \"#utility.yul\":5603:5734   */\n      tag_165\n        /* \"#utility.yul\":5729:5733   */\n      dup2\n        /* \"#utility.yul\":5603:5734   */\n      tag_137\n      jump\t// in\n    tag_165:\n        /* \"#utility.yul\":5595:5734   */\n      swap1\n      pop\n        /* \"#utility.yul\":5322:5741   */\n      swap2\n      swap1\n      pop\n      jump\t// out\n        /* \"#utility.yul\":5747:6166   */\n    tag_54:\n        /* \"#utility.yul\":5913:5917   */\n      0x00\n        /* \"#utility.yul\":5951:5953   */\n      0x20\n        /* \"#utility.yul\":5940:5949   */\n      dup3\n        /* \"#utility.yul\":5936:5954   */\n      add\n        /* \"#utility.yul\":5928:5954   */\n      swap1\n      pop\n        /* \"#utility.yul\":6000:6009   */\n      dup2\n        /* \"#utility.yul\":5994:5998   */\n      dup2\n        /* \"#utility.yul\":5990:6010   */\n      sub\n        /* \"#utility.yul\":5986:5987   */\n      0x00\n        /* \"#utility.yul\":5975:5984   */\n      dup4\n        /* \"#utility.yul\":5971:5988   */\n      add\n        /* \"#utility.yul\":5964:6011   */\n      mstore\n        /* \"#utility.yul\":6028:6159   */\n      tag_167\n        /* \"#utility.yul\":6154:6158   */\n      dup2\n        /* \"#utility.yul\":6028:6159   */\n      tag_142\n      jump\t// in\n    tag_167:\n        /* \"#utility.yul\":6020:6159   */\n      swap1\n      pop\n        /* \"#utility.yul\":5747:6166   */\n      swap2\n      swap1\n      pop\n      jump\t// out\n        /* \"#utility.yul\":6172:6591   */\n    tag_65:\n        /* \"#utility.yul\":6338:6342   */\n      0x00\n        /* \"#utility.yul\":6376:6378   */\n      0x20\n        /* \"#utility.yul\":6365:6374   */\n      dup3\n        /* \"#utility.yul\":6361:6379   */\n      add\n        /* \"#utility.yul\":6353:6379   */\n      swap1\n      pop\n        /* \"#utility.yul\":6425:6434   */\n      dup2\n        /* \"#utility.yul\":6419:6423   */\n      dup2\n        /* \"#utility.yul\":6415:6435   */\n      sub\n        /* \"#utility.yul\":6411:6412   */\n      0x00\n        /* \"#utility.yul\":6400:6409   */\n      dup4\n        /* \"#utility.yul\":6396:6413   */\n      add\n        /* \"#utility.yul\":6389:6436   */\n      mstore\n        /* \"#utility.yul\":6453:6584   */\n      tag_169\n        /* \"#utility.yul\":6579:6583   */\n      dup2\n        /* \"#utility.yul\":6453:6584   */\n      tag_147\n      jump\t// in\n    tag_169:\n        /* \"#utility.yul\":6445:6584   */\n      swap1\n      pop\n        /* \"#utility.yul\":6172:6591   */\n      swap2\n      swap1\n      pop\n      jump\t// out\n        /* \"#utility.yul\":6597:6819   */\n    tag_30:\n        /* \"#utility.yul\":6690:6694   */\n      0x00\n        /* \"#utility.yul\":6728:6730   */\n      0x20\n        /* \"#utility.yul\":6717:6726   */\n      dup3\n        /* \"#utility.yul\":6713:6731   */\n      add\n        /* \"#utility.yul\":6705:6731   */\n      swap1\n      pop\n        /* \"#utility.yul\":6741:6812   */\n      tag_171\n        /* \"#utility.yul\":6809:6810   */\n      0x00\n        /* \"#utility.yul\":6798:6807   */\n      dup4\n        /* \"#utility.yul\":6794:6811   */\n      add\n        /* \"#utility.yul\":6785:6791   */\n      dup5\n        /* \"#utility.yul\":6741:6812   */\n      tag_152\n      jump\t// in\n    tag_171:\n        /* \"#utility.yul\":6597:6819   */\n      swap3\n      swap2\n      pop\n      pop\n      jump\t// out\n        /* \"#utility.yul\":6825:7157   */\n    tag_14:\n        /* \"#utility.yul\":6946:6950   */\n      0x00\n        /* \"#utility.yul\":6984:6986   */\n      0x40\n        /* \"#utility.yul\":6973:6982   */\n      dup3\n        /* \"#utility.yul\":6969:6987   */\n      add\n        /* \"#utility.yul\":6961:6987   */\n      swap1\n      pop\n        /* \"#utility.yul\":6997:7068   */\n      tag_173\n        /* \"#utility.yul\":7065:7066   */\n      0x00\n        /* \"#utility.yul\":7054:7063   */\n      dup4\n        /* \"#utility.yul\":7050:7067   */\n      add\n        /* \"#utility.yul\":7041:7047   */\n      dup6\n        /* \"#utility.yul\":6997:7068   */\n      tag_152\n      jump\t// in\n    tag_173:\n        /* \"#utility.yul\":7078:7150   */\n      tag_174\n        /* \"#utility.yul\":7146:7148   */\n      0x20\n        /* \"#utility.yul\":7135:7144   */\n      dup4\n        /* \"#utility.yul\":7131:7149   */\n      add\n        /* \"#utility.yul\":7122:7128   */\n      dup5\n        /* \"#utility.yul\":7078:7150   */\n      tag_152\n      jump\t// in\n    tag_174:\n        /* \"#utility.yul\":6825:7157   */\n      swap4\n      swap3\n      pop\n      pop\n      pop\n      jump\t// out\n        /* \"#utility.yul\":7244:7343   */\n    tag_120:\n        /* \"#utility.yul\":7296:7302   */\n      0x00\n        /* \"#utility.yul\":7330:7335   */\n      dup2\n        /* \"#utility.yul\":7324:7336   */\n      mload\n        /* \"#utility.yul\":7314:7336   */\n      swap1\n      pop\n        /* \"#utility.yul\":7244:7343   */\n      swap2\n      swap1\n      pop\n      jump\t// out\n        /* \"#utility.yul\":7349:7518   */\n    tag_122:\n        /* \"#utility.yul\":7433:7444   */\n      0x00\n        /* \"#utility.yul\":7467:7473   */\n      dup3\n        /* \"#utility.yul\":7462:7465   */\n      dup3\n        /* \"#utility.yul\":7455:7474   */\n      mstore\n        /* \"#utility.yul\":7507:7511   */\n      0x20\n        /* \"#utility.yul\":7502:7505   */\n      dup3\n        /* \"#utility.yul\":7498:7512   */\n      add\n        /* \"#utility.yul\":7483:7512   */\n      swap1\n      pop\n        /* \"#utility.yul\":7349:7518   */\n      swap3\n      swap2\n      pop\n      pop\n      jump\t// out\n        /* \"#utility.yul\":7524:7829   */\n    tag_77:\n        /* \"#utility.yul\":7564:7567   */\n      0x00\n        /* \"#utility.yul\":7583:7603   */\n      tag_180\n        /* \"#utility.yul\":7601:7602   */\n      dup3\n        /* \"#utility.yul\":7583:7603   */\n      tag_155\n      jump\t// in\n    tag_180:\n        /* \"#utility.yul\":7578:7603   */\n      swap2\n      pop\n        /* \"#utility.yul\":7617:7637   */\n      tag_181\n        /* \"#utility.yul\":7635:7636   */\n      dup4\n        /* \"#utility.yul\":7617:7637   */\n      tag_155\n      jump\t// in\n    tag_181:\n        /* \"#utility.yul\":7612:7637   */\n      swap3\n      pop\n        /* \"#utility.yul\":7771:7772   */\n      dup3\n        /* \"#utility.yul\":7703:7769   */\n      0xffffffffffffffffffffffffffffffffffffffffffffffffffffffffffffffff\n        /* \"#utility.yul\":7699:7773   */\n      sub\n        /* \"#utility.yul\":7696:7697   */\n      dup3\n        /* \"#utility.yul\":7693:7774   */\n      gt\n        /* \"#utility.yul\":7690:7797   */\n      iszero\n      tag_182\n      jumpi\n        /* \"#utility.yul\":7777:7795   */\n      tag_183\n      tag_184\n      jump\t// in\n    tag_183:\n        /* \"#utility.yul\":7690:7797   */\n    tag_182:\n        /* \"#utility.yul\":7821:7822   */\n      dup3\n        /* \"#utility.yul\":7818:7819   */\n      dup3\n        /* \"#utility.yul\":7814:7823   */\n      add\n        /* \"#utility.yul\":7807:7823   */\n      swap1\n      pop\n        /* \"#utility.yul\":7524:7829   */\n      swap3\n      swap2\n      pop\n      pop\n      jump\t// out\n        /* \"#utility.yul\":7835:8026   */\n    tag_59:\n        /* \"#utility.yul\":7875:7879   */\n      0x00\n        /* \"#utility.yul\":7895:7915   */\n      tag_186\n        /* \"#utility.yul\":7913:7914   */\n      dup3\n        /* \"#utility.yul\":7895:7915   */\n      tag_155\n      jump\t// in\n    tag_186:\n        /* \"#utility.yul\":7890:7915   */\n      swap2\n      pop\n        /* \"#utility.yul\":7929:7949   */\n      tag_187\n        /* \"#utility.yul\":7947:7948   */\n      dup4\n        /* \"#utility.yul\":7929:7949   */\n      tag_155\n      jump\t// in\n    tag_187:\n        /* \"#utility.yul\":7924:7949   */\n      swap3\n      pop\n        /* \"#utility.yul\":7968:7969   */\n      dup3\n        /* \"#utility.yul\":7965:7966   */\n      dup3\n        /* \"#utility.yul\":7962:7970   */\n      lt\n        /* \"#utility.yul\":7959:7993   */\n      iszero\n      tag_188\n      jumpi\n        /* \"#utility.yul\":7973:7991   */\n      tag_189\n      tag_184\n      jump\t// in\n    tag_189:\n        /* \"#utility.yul\":7959:7993   */\n    tag_188:\n        /* \"#utility.yul\":8018:8019   */\n      dup3\n        /* \"#utility.yul\":8015:8016   */\n      dup3\n        /* \"#utility.yul\":8011:8020   */\n      sub\n        /* \"#utility.yul\":8003:8020   */\n      swap1\n      pop\n        /* \"#utility.yul\":7835:8026   */\n      swap3\n      swap2\n      pop\n      pop\n      jump\t// out\n        /* \"#utility.yul\":8032:8128   */\n    tag_116:\n        /* \"#utility.yul\":8069:8076   */\n      0x00\n        /* \"#utility.yul\":8098:8122   */\n      tag_191\n        /* \"#utility.yul\":8116:8121   */\n      dup3\n        /* \"#utility.yul\":8098:8122   */\n      tag_192\n      jump\t// in\n    tag_191:\n        /* \"#utility.yul\":8087:8122   */\n      swap1\n      pop\n        /* \"#utility.yul\":8032:8128   */\n      swap2\n      swap1\n      pop\n      jump\t// out\n        /* \"#utility.yul\":8134:8260   */\n    tag_192:\n        /* \"#utility.yul\":8171:8178   */\n      0x00\n        /* \"#utility.yul\":8211:8253   */\n      0xffffffffffffffffffffffffffffffffffffffff\n        /* \"#utility.yul\":8204:8209   */\n      dup3\n        /* \"#utility.yul\":8200:8254   */\n      and\n        /* \"#utility.yul\":8189:8254   */\n      swap1\n      pop\n        /* \"#utility.yul\":8134:8260   */\n      swap2\n      swap1\n      pop\n      jump\t// out\n        /* \"#utility.yul\":8266:8343   */\n    tag_155:\n        /* \"#utility.yul\":8303:8310   */\n      0x00\n        /* \"#utility.yul\":8332:8337   */\n      dup2\n        /* \"#utility.yul\":8321:8337   */\n      swap1\n      pop\n        /* \"#utility.yul\":8266:8343   */\n      swap2\n      swap1\n      pop\n      jump\t// out\n        /* \"#utility.yul\":8349:8656   */\n    tag_124:\n        /* \"#utility.yul\":8417:8418   */\n      0x00\n        /* \"#utility.yul\":8427:8540   */\n    tag_196:\n        /* \"#utility.yul\":8441:8447   */\n      dup4\n        /* \"#utility.yul\":8438:8439   */\n      dup2\n        /* \"#utility.yul\":8435:8448   */\n      lt\n        /* \"#utility.yul\":8427:8540   */\n      iszero\n      tag_198\n      jumpi\n        /* \"#utility.yul\":8526:8527   */\n      dup1\n        /* \"#utility.yul\":8521:8524   */\n      dup3\n        /* \"#utility.yul\":8517:8528   */\n      add\n        /* \"#utility.yul\":8511:8529   */\n      mload\n        /* \"#utility.yul\":8507:8508   */\n      dup2\n        /* \"#utility.yul\":8502:8505   */\n      dup5\n        /* \"#utility.yul\":8498:8509   */\n      add\n        /* \"#utility.yul\":8491:8530   */\n      mstore\n        /* \"#utility.yul\":8463:8465   */\n      0x20\n        /* \"#utility.yul\":8460:8461   */\n      dup2\n        /* \"#utility.yul\":8456:8466   */\n      add\n        /* \"#utility.yul\":8451:8466   */\n      swap1\n      pop\n        /* \"#utility.yul\":8427:8540   */\n      jump(tag_196)\n    tag_198:\n        /* \"#utility.yul\":8558:8564   */\n      dup4\n        /* \"#utility.yul\":8555:8556   */\n      dup2\n        /* \"#utility.yul\":8552:8565   */\n      gt\n        /* \"#utility.yul\":8549:8650   */\n      iszero\n      tag_199\n      jumpi\n        /* \"#utility.yul\":8638:8639   */\n      0x00\n        /* \"#utility.yul\":8629:8635   */\n      dup5\n        /* \"#utility.yul\":8624:8627   */\n      dup5\n        /* \"#utility.yul\":8620:8636   */\n      add\n        /* \"#utility.yul\":8613:8640   */\n      mstore\n        /* \"#utility.yul\":8549:8650   */\n    tag_199:\n        /* \"#utility.yul\":8398:8656   */\n      pop\n        /* \"#utility.yul\":8349:8656   */\n      pop\n      pop\n      pop\n      jump\t// out\n        /* \"#utility.yul\":8662:8982   */\n    tag_46:\n        /* \"#utility.yul\":8706:8712   */\n      0x00\n        /* \"#utility.yul\":8743:8744   */\n      0x02\n        /* \"#utility.yul\":8737:8741   */\n      dup3\n        /* \"#utility.yul\":8733:8745   */\n      div\n        /* \"#utility.yul\":8723:8745   */\n      swap1\n      pop\n        /* \"#utility.yul\":8790:8791   */\n      0x01\n        /* \"#utility.yul\":8784:8788   */\n      dup3\n        /* \"#utility.yul\":8780:8792   */\n      and\n        /* \"#utility.yul\":8811:8829   */\n      dup1\n        /* \"#utility.yul\":8801:8882   */\n      tag_201\n      jumpi\n        /* \"#utility.yul\":8867:8871   */\n      0x7f\n        /* \"#utility.yul\":8859:8865   */\n      dup3\n        /* \"#utility.yul\":8855:8872   */\n      and\n        /* \"#utility.yul\":8845:8872   */\n      swap2\n      pop\n        /* \"#utility.yul\":8801:8882   */\n    tag_201:\n        /* \"#utility.yul\":8929:8931   */\n      0x20\n        /* \"#utility.yul\":8921:8927   */\n      dup3\n        /* \"#utility.yul\":8918:8932   */\n      lt\n        /* \"#utility.yul\":8898:8916   */\n      dup2\n        /* \"#utility.yul\":8895:8933   */\n      eq\n        /* \"#utility.yul\":8892:8976   */\n      iszero\n      tag_202\n      jumpi\n        /* \"#utility.yul\":8948:8966   */\n      tag_203\n      tag_204\n      jump\t// in\n    tag_203:\n        /* \"#utility.yul\":8892:8976   */\n    tag_202:\n        /* \"#utility.yul\":8713:8982   */\n      pop\n        /* \"#utility.yul\":8662:8982   */\n      swap2\n      swap1\n      pop\n      jump\t// out\n        /* \"#utility.yul\":8988:9168   */\n    tag_184:\n        /* \"#utility.yul\":9036:9113   */\n      0x4e487b7100000000000000000000000000000000000000000000000000000000\n        /* \"#utility.yul\":9033:9034   */\n      0x00\n        /* \"#utility.yul\":9026:9114   */\n      mstore\n        /* \"#utility.yul\":9133:9137   */\n      0x11\n        /* \"#utility.yul\":9130:9131   */\n      0x04\n        /* \"#utility.yul\":9123:9138   */\n      mstore\n        /* \"#utility.yul\":9157:9161   */\n      0x24\n        /* \"#utility.yul\":9154:9155   */\n      0x00\n        /* \"#utility.yul\":9147:9162   */\n      revert\n        /* \"#utility.yul\":9174:9354   */\n    tag_204:\n        /* \"#utility.yul\":9222:9299   */\n      0x4e487b7100000000000000000000000000000000000000000000000000000000\n        /* \"#utility.yul\":9219:9220   */\n      0x00\n        /* \"#utility.yul\":9212:9300   */\n      mstore\n        /* \"#utility.yul\":9319:9323   */\n      0x22\n        /* \"#utility.yul\":9316:9317   */\n      0x04\n        /* \"#utility.yul\":9309:9324   */\n      mstore\n        /* \"#utility.yul\":9343:9347   */\n      0x24\n        /* \"#utility.yul\":9340:9341   */\n      0x00\n        /* \"#utility.yul\":9333:9348   */\n      revert\n        /* \"#utility.yul\":9483:9600   */\n    tag_102:\n        /* \"#utility.yul\":9592:9593   */\n      0x00\n        /* \"#utility.yul\":9589:9590   */\n      dup1\n        /* \"#utility.yul\":9582:9594   */\n      revert\n        /* \"#utility.yul\":9606:9708   */\n    tag_126:\n        /* \"#utility.yul\":9647:9653   */\n      0x00\n        /* \"#utility.yul\":9698:9700   */\n      0x1f\n        /* \"#utility.yul\":9694:9701   */\n      not\n        /* \"#utility.yul\":9689:9691   */\n      0x1f\n        /* \"#utility.yul\":9682:9687   */\n      dup4\n        /* \"#utility.yul\":9678:9692   */\n      add\n        /* \"#utility.yul\":9674:9702   */\n      and\n        /* \"#utility.yul\":9664:9702   */\n      swap1\n      pop\n        /* \"#utility.yul\":9606:9708   */\n      swap2\n      swap1\n      pop\n      jump\t// out\n        /* \"#utility.yul\":9714:9885   */\n    tag_131:\n        /* \"#utility.yul\":9854:9877   */\n      0x746f2061646472657373206d7573742076616c69640000000000000000000000\n        /* \"#utility.yul\":9850:9851   */\n      0x00\n        /* \"#utility.yul\":9842:9848   */\n      dup3\n        /* \"#utility.yul\":9838:9852   */\n      add\n        /* \"#utility.yul\":9831:9878   */\n      mstore\n        /* \"#utility.yul\":9714:9885   */\n      pop\n      jump\t// out\n        /* \"#utility.yul\":9891:10069   */\n    tag_136:\n        /* \"#utility.yul\":10031:10061   */\n      0x206d73672e76616c7565206d75737420657175616c20616d6f756e7400000000\n        /* \"#utility.yul\":10027:10028   */\n      0x00\n        /* \"#utility.yul\":10019:10025   */\n      dup3\n        /* \"#utility.yul\":10015:10029   */\n      add\n        /* \"#utility.yul\":10008:10062   */\n      mstore\n        /* \"#utility.yul\":9891:10069   */\n      pop\n      jump\t// out\n        /* \"#utility.yul\":10075:10250   */\n    tag_141:\n        /* \"#utility.yul\":10215:10242   */\n      0x7573657227732062616c616e6365206e6f7420656e6f75676800000000000000\n        /* \"#utility.yul\":10211:10212   */\n      0x00\n        /* \"#utility.yul\":10203:10209   */\n      dup3\n        /* \"#utility.yul\":10199:10213   */\n      add\n        /* \"#utility.yul\":10192:10243   */\n      mstore\n        /* \"#utility.yul\":10075:10250   */\n      pop\n      jump\t// out\n        /* \"#utility.yul\":10256:10423   */\n    tag_146:\n        /* \"#utility.yul\":10396:10415   */\n      0x20616d6f756e74206d757374203e203020000000000000000000000000000000\n        /* \"#utility.yul\":10392:10393   */\n      0x00\n        /* \"#utility.yul\":10384:10390   */\n      dup3\n        /* \"#utility.yul\":10380:10394   */\n      add\n        /* \"#utility.yul\":10373:10416   */\n      mstore\n        /* \"#utility.yul\":10256:10423   */\n      pop\n      jump\t// out\n        /* \"#utility.yul\":10429:10601   */\n    tag_151:\n        /* \"#utility.yul\":10569:10593   */\n      0x62616e6b27732062616c616e6365206d757374206f6b00000000000000000000\n        /* \"#utility.yul\":10565:10566   */\n      0x00\n        /* \"#utility.yul\":10557:10563   */\n      dup3\n        /* \"#utility.yul\":10553:10567   */\n      add\n        /* \"#utility.yul\":10546:10594   */\n      mstore\n        /* \"#utility.yul\":10429:10601   */\n      pop\n      jump\t// out\n        /* \"#utility.yul\":10607:10729   */\n    tag_94:\n        /* \"#utility.yul\":10680:10704   */\n      tag_217\n        /* \"#utility.yul\":10698:10703   */\n      dup2\n        /* \"#utility.yul\":10680:10704   */\n      tag_116\n      jump\t// in\n    tag_217:\n        /* \"#utility.yul\":10673:10678   */\n      dup2\n        /* \"#utility.yul\":10670:10705   */\n      eq\n        /* \"#utility.yul\":10660:10723   */\n      tag_218\n      jumpi\n        /* \"#utility.yul\":10719:10720   */\n      0x00\n        /* \"#utility.yul\":10716:10717   */\n      dup1\n        /* \"#utility.yul\":10709:10721   */\n      revert\n        /* \"#utility.yul\":10660:10723   */\n    tag_218:\n        /* \"#utility.yul\":10607:10729   */\n      pop\n      jump\t// out\n        /* \"#utility.yul\":10735:10857   */\n    tag_98:\n        /* \"#utility.yul\":10808:10832   */\n      tag_220\n        /* \"#utility.yul\":10826:10831   */\n      dup2\n        /* \"#utility.yul\":10808:10832   */\n      tag_155\n      jump\t// in\n    tag_220:\n        /* \"#utility.yul\":10801:10806   */\n      dup2\n        /* \"#utility.yul\":10798:10833   */\n      eq\n        /* \"#utility.yul\":10788:10851   */\n      tag_221\n      jumpi\n        /* \"#utility.yul\":10847:10848   */\n      0x00\n        /* \"#utility.yul\":10844:10845   */\n      dup1\n        /* \"#utility.yul\":10837:10849   */\n      revert\n        /* \"#utility.yul\":10788:10851   */\n    tag_221:\n        /* \"#utility.yul\":10735:10857   */\n      pop\n      jump\t// out\n\n    auxdata: 0xa264697066735822122054e381968bd642b872ae9962e151feb3796dbcd53558ec4db988e2ca08c0639164736f6c63430008070033\n}\n",
				"bytecode": {
					"linkReferences": {},
					"object": "60806040523480156200001157600080fd5b5060405162001149380380620011498339818101604052810190620000379190620001c6565b80600090805190602001906200004f92919062000098565b5033600260006101000a81548173ffffffffffffffffffffffffffffffffffffffff021916908373ffffffffffffffffffffffffffffffffffffffff160217905550506200039b565b828054620000a690620002ac565b90600052602060002090601f016020900481019282620000ca576000855562000116565b82601f10620000e557805160ff191683800117855562000116565b8280016001018555821562000116579182015b8281111562000115578251825591602001919060010190620000f8565b5b50905062000125919062000129565b5090565b5b80821115620001445760008160009055506001016200012a565b5090565b60006200015f620001598462000240565b62000217565b9050828152602081018484840111156200017e576200017d6200037b565b5b6200018b84828562000276565b509392505050565b600082601f830112620001ab57620001aa62000376565b5b8151620001bd84826020860162000148565b91505092915050565b600060208284031215620001df57620001de62000385565b5b600082015167ffffffffffffffff8111156200020057620001ff62000380565b5b6200020e8482850162000193565b91505092915050565b60006200022362000236565b9050620002318282620002e2565b919050565b6000604051905090565b600067ffffffffffffffff8211156200025e576200025d62000347565b5b62000269826200038a565b9050602081019050919050565b60005b838110156200029657808201518184015260208101905062000279565b83811115620002a6576000848401525b50505050565b60006002820490506001821680620002c557607f821691505b60208210811415620002dc57620002db62000318565b5b50919050565b620002ed826200038a565b810181811067ffffffffffffffff821117156200030f576200030e62000347565b5b80604052505050565b7f4e487b7100000000000000000000000000000000000000000000000000000000600052602260045260246000fd5b7f4e487b7100000000000000000000000000000000000000000000000000000000600052604160045260246000fd5b600080fd5b600080fd5b600080fd5b600080fd5b6000601f19601f8301169050919050565b610d9e80620003ab6000396000f3fe6080604052600436106100705760003560e01c80633d64125b1161004e5780633d64125b146100e8578063a9059cbb14610125578063b6b55f251461014e578063f851a4401461016a57610070565b806312065fe01461007557806327d35801146100a15780632e1a7d4d146100cc575b600080fd5b34801561008157600080fd5b5061008a610195565b604051610098929190610a89565b60405180910390f35b3480156100ad57600080fd5b506100b66101a4565b6040516100c391906109ac565b60405180910390f35b6100e660048036038101906100e1919061085e565b610232565b005b3480156100f457600080fd5b5061010f600480360381019061010a91906107f1565b6103f4565b60405161011c9190610a6e565b60405180910390f35b34801561013157600080fd5b5061014c6004803603810190610147919061081e565b61043d565b005b6101686004803603810190610163919061085e565b610666565b005b34801561017657600080fd5b5061017f6107a1565b60405161018c9190610991565b60405180910390f35b60008047600154915091509091565b600080546101b190610bc7565b80601f01602080910402602001604051908101604052809291908181526020018280546101dd90610bc7565b801561022a5780601f106101ff5761010080835404028352916020019161022a565b820191906000526020600020905b81548152906001019060200180831161020d57829003601f168201915b505050505081565b60008111610275576040517f08c379a000000000000000000000000000000000000000000000000000000000815260040161026c90610a2e565b60405180910390fd5b80600360003373ffffffffffffffffffffffffffffffffffffffff1673ffffffffffffffffffffffffffffffffffffffff1681526020019081526020016000205410156102f7576040517f08c379a00000000000000000000000000000000000000000000000000000000081526004016102ee90610a0e565b60405180910390fd5b80600360003373ffffffffffffffffffffffffffffffffffffffff1673ffffffffffffffffffffffffffffffffffffffff16815260200190815260200160002060008282546103469190610b24565b925050819055503373ffffffffffffffffffffffffffffffffffffffff166108fc829081150290604051600060405180830381858888f19350505050158015610393573d6000803e3d6000fd5b5080600160008282546103a69190610b24565b9250508190555060015447146103f1576040517f08c379a00000000000000000000000000000000000000000000000000000000081526004016103e890610a4e565b60405180910390fd5b50565b6000600360008373ffffffffffffffffffffffffffffffffffffffff1673ffffffffffffffffffffffffffffffffffffffff168152602001908152602001600020549050919050565b60008111610480576040517f08c379a000000000000000000000000000000000000000000000000000000000815260040161047790610a2e565b60405180910390fd5b8173ffffffffffffffffffffffffffffffffffffffff16600073ffffffffffffffffffffffffffffffffffffffff1614156104f0576040517f08c379a00000000000000000000000000000000000000000000000000000000081526004016104e7906109ce565b60405180910390fd5b80600360003373ffffffffffffffffffffffffffffffffffffffff1673ffffffffffffffffffffffffffffffffffffffff168152602001908152602001600020541015610572576040517f08c379a000000000000000000000000000000000000000000000000000000000815260040161056990610a0e565b60405180910390fd5b80600360003373ffffffffffffffffffffffffffffffffffffffff1673ffffffffffffffffffffffffffffffffffffffff16815260200190815260200160002060008282546105c19190610b24565b9250508190555080600360008473ffffffffffffffffffffffffffffffffffffffff1673ffffffffffffffffffffffffffffffffffffffff16815260200190815260200160002060008282546106179190610ace565b925050819055506001544714610662576040517f08c379a000000000000000000000000000000000000000000000000000000000815260040161065990610a4e565b60405180910390fd5b5050565b600081116106a9576040517f08c379a00000000000000000000000000000000000000000000000000000000081526004016106a090610a2e565b60405180910390fd5b8034146106eb576040517f08c379a00000000000000000000000000000000000000000000000000000000081526004016106e2906109ee565b60405180910390fd5b80600360003373ffffffffffffffffffffffffffffffffffffffff1673ffffffffffffffffffffffffffffffffffffffff168152602001908152602001600020600082825461073a9190610ace565b9250508190555080600160008282546107539190610ace565b92505081905550600154471461079e576040517f08c379a000000000000000000000000000000000000000000000000000000000815260040161079590610a4e565b60405180910390fd5b50565b600260009054906101000a900473ffffffffffffffffffffffffffffffffffffffff1681565b6000813590506107d681610d3a565b92915050565b6000813590506107eb81610d51565b92915050565b60006020828403121561080757610806610c57565b5b6000610815848285016107c7565b91505092915050565b6000806040838503121561083557610834610c57565b5b6000610843858286016107c7565b9250506020610854858286016107dc565b9150509250929050565b60006020828403121561087457610873610c57565b5b6000610882848285016107dc565b91505092915050565b61089481610b58565b82525050565b60006108a582610ab2565b6108af8185610abd565b93506108bf818560208601610b94565b6108c881610c5c565b840191505092915050565b60006108e0601583610abd565b91506108eb82610c6d565b602082019050919050565b6000610903601c83610abd565b915061090e82610c96565b602082019050919050565b6000610926601983610abd565b915061093182610cbf565b602082019050919050565b6000610949601183610abd565b915061095482610ce8565b602082019050919050565b600061096c601683610abd565b915061097782610d11565b602082019050919050565b61098b81610b8a565b82525050565b60006020820190506109a6600083018461088b565b92915050565b600060208201905081810360008301526109c6818461089a565b905092915050565b600060208201905081810360008301526109e7816108d3565b9050919050565b60006020820190508181036000830152610a07816108f6565b9050919050565b60006020820190508181036000830152610a2781610919565b9050919050565b60006020820190508181036000830152610a478161093c565b9050919050565b60006020820190508181036000830152610a678161095f565b9050919050565b6000602082019050610a836000830184610982565b92915050565b6000604082019050610a9e6000830185610982565b610aab6020830184610982565b9392505050565b600081519050919050565b600082825260208201905092915050565b6000610ad982610b8a565b9150610ae483610b8a565b9250827fffffffffffffffffffffffffffffffffffffffffffffffffffffffffffffffff03821115610b1957610b18610bf9565b5b828201905092915050565b6000610b2f82610b8a565b9150610b3a83610b8a565b925082821015610b4d57610b4c610bf9565b5b828203905092915050565b6000610b6382610b6a565b9050919050565b600073ffffffffffffffffffffffffffffffffffffffff82169050919050565b6000819050919050565b60005b83811015610bb2578082015181840152602081019050610b97565b83811115610bc1576000848401525b50505050565b60006002820490506001821680610bdf57607f821691505b60208210811415610bf357610bf2610c28565b5b50919050565b7f4e487b7100000000000000000000000000000000000000000000000000000000600052601160045260246000fd5b7f4e487b7100000000000000000000000000000000000000000000000000000000600052602260045260246000fd5b600080fd5b6000601f19601f8301169050919050565b7f746f2061646472657373206d7573742076616c69640000000000000000000000600082015250565b7f206d73672e76616c7565206d75737420657175616c20616d6f756e7400000000600082015250565b7f7573657227732062616c616e6365206e6f7420656e6f75676800000000000000600082015250565b7f20616d6f756e74206d757374203e203020000000000000000000000000000000600082015250565b7f62616e6b27732062616c616e6365206d757374206f6b00000000000000000000600082015250565b610d4381610b58565b8114610d4e57600080fd5b50565b610d5a81610b8a565b8114610d6557600080fd5b5056fea264697066735822122054e381968bd642b872ae9962e151feb3796dbcd53558ec4db988e2ca08c0639164736f6c63430008070033",
					"opcodes": "PUSH1 0x80 PUSH1 0x40 MSTORE CALLVALUE DUP1 ISZERO PUSH3 0x11 JUMPI PUSH1 0x0 DUP1 REVERT JUMPDEST POP PUSH1 0x40 MLOAD PUSH3 0x1149 CODESIZE SUB DUP1 PUSH3 0x1149 DUP4 CODECOPY DUP2 DUP2 ADD PUSH1 0x40 MSTORE DUP2 ADD SWAP1 PUSH3 0x37 SWAP2 SWAP1 PUSH3 0x1C6 JUMP JUMPDEST DUP1 PUSH1 0x0 SWAP1 DUP1 MLOAD SWAP1 PUSH1 0x20 ADD SWAP1 PUSH3 0x4F SWAP3 SWAP2 SWAP1 PUSH3 0x98 JUMP JUMPDEST POP CALLER PUSH1 0x2 PUSH1 0x0 PUSH2 0x100 EXP DUP2 SLOAD DUP2 PUSH20 0xFFFFFFFFFFFFFFFFFFFFFFFFFFFFFFFFFFFFFFFF MUL NOT AND SWAP1 DUP4 PUSH20 0xFFFFFFFFFFFFFFFFFFFFFFFFFFFFFFFFFFFFFFFF AND MUL OR SWAP1 SSTORE POP POP PUSH3 0x39B JUMP JUMPDEST DUP3 DUP1 SLOAD PUSH3 0xA6 SWAP1 PUSH3 0x2AC JUMP JUMPDEST SWAP1 PUSH1 0x0 MSTORE PUSH1 0x20 PUSH1 0x0 KECCAK256 SWAP1 PUSH1 0x1F ADD PUSH1 0x20 SWAP1 DIV DUP2 ADD SWAP3 DUP3 PUSH3 0xCA JUMPI PUSH1 0x0 DUP6 SSTORE PUSH3 0x116 JUMP JUMPDEST DUP3 PUSH1 0x1F LT PUSH3 0xE5 JUMPI DUP1 MLOAD PUSH1 0xFF NOT AND DUP4 DUP1 ADD OR DUP6 SSTORE PUSH3 0x116 JUMP JUMPDEST DUP3 DUP1 ADD PUSH1 0x1 ADD DUP6 SSTORE DUP3 ISZERO PUSH3 0x116 JUMPI SWAP2 DUP3 ADD JUMPDEST DUP3 DUP2 GT ISZERO PUSH3 0x115 JUMPI DUP3 MLOAD DUP3 SSTORE SWAP2 PUSH1 0x20 ADD SWAP2 SWAP1 PUSH1 0x1 ADD SWAP1 PUSH3 0xF8 JUMP JUMPDEST JUMPDEST POP SWAP1 POP PUSH3 0x125 SWAP2 SWAP1 PUSH3 0x129 JUMP JUMPDEST POP SWAP1 JUMP JUMPDEST JUMPDEST DUP1 DUP3 GT ISZERO PUSH3 0x144 JUMPI PUSH1 0x0 DUP2 PUSH1 0x0 SWAP1 SSTORE POP PUSH1 0x1 ADD PUSH3 0x12A JUMP JUMPDEST POP SWAP1 JUMP JUMPDEST PUSH1 0x0 PUSH3 0x15F PUSH3 0x159 DUP5 PUSH3 0x240 JUMP JUMPDEST PUSH3 0x217 JUMP JUMPDEST SWAP1 POP DUP3 DUP2 MSTORE PUSH1 0x20 DUP2 ADD DUP5 DUP5 DUP5 ADD GT ISZERO PUSH3 0x17E JUMPI PUSH3 0x17D PUSH3 0x37B JUMP JUMPDEST JUMPDEST PUSH3 0x18B DUP5 DUP3 DUP6 PUSH3 0x276 JUMP JUMPDEST POP SWAP4 SWAP3 POP POP POP JUMP JUMPDEST PUSH1 0x0 DUP3 PUSH1 0x1F DUP4 ADD SLT PUSH3 0x1AB JUMPI PUSH3 0x1AA PUSH3 0x376 JUMP JUMPDEST JUMPDEST DUP2 MLOAD PUSH3 0x1BD DUP5 DUP3 PUSH1 0x20 DUP7 ADD PUSH3 0x148 JUMP JUMPDEST SWAP2 POP POP SWAP3 SWAP2 POP POP JUMP JUMPDEST PUSH1 0x0 PUSH1 0x20 DUP3 DUP5 SUB SLT ISZERO PUSH3 0x1DF JUMPI PUSH3 0x1DE PUSH3 0x385 JUMP JUMPDEST JUMPDEST PUSH1 0x0 DUP3 ADD MLOAD PUSH8 0xFFFFFFFFFFFFFFFF DUP2 GT ISZERO PUSH3 0x200 JUMPI PUSH3 0x1FF PUSH3 0x380 JUMP JUMPDEST JUMPDEST PUSH3 0x20E DUP5 DUP3 DUP6 ADD PUSH3 0x193 JUMP JUMPDEST SWAP2 POP POP SWAP3 SWAP2 POP POP JUMP JUMPDEST PUSH1 0x0 PUSH3 0x223 PUSH3 0x236 JUMP JUMPDEST SWAP1 POP PUSH3 0x231 DUP3 DUP3 PUSH3 0x2E2 JUMP JUMPDEST SWAP2 SWAP1 POP JUMP JUMPDEST PUSH1 0x0 PUSH1 0x40 MLOAD SWAP1 POP SWAP1 JUMP JUMPDEST PUSH1 0x0 PUSH8 0xFFFFFFFFFFFFFFFF DUP3 GT ISZERO PUSH3 0x25E JUMPI PUSH3 0x25D PUSH3 0x347 JUMP JUMPDEST JUMPDEST PUSH3 0x269 DUP3 PUSH3 0x38A JUMP JUMPDEST SWAP1 POP PUSH1 0x20 DUP2 ADD SWAP1 POP SWAP2 SWAP1 POP JUMP JUMPDEST PUSH1 0x0 JUMPDEST DUP4 DUP2 LT ISZERO PUSH3 0x296 JUMPI DUP1 DUP3 ADD MLOAD DUP2 DUP5 ADD MSTORE PUSH1 0x20 DUP2 ADD SWAP1 POP PUSH3 0x279 JUMP JUMPDEST DUP4 DUP2 GT ISZERO PUSH3 0x2A6 JUMPI PUSH1 0x0 DUP5 DUP5 ADD MSTORE JUMPDEST POP POP POP POP JUMP JUMPDEST PUSH1 0x0 PUSH1 0x2 DUP3 DIV SWAP1 POP PUSH1 0x1 DUP3 AND DUP1 PUSH3 0x2C5 JUMPI PUSH1 0x7F DUP3 AND SWAP2 POP JUMPDEST PUSH1 0x20 DUP3 LT DUP2 EQ ISZERO PUSH3 0x2DC JUMPI PUSH3 0x2DB PUSH3 0x318 JUMP JUMPDEST JUMPDEST POP SWAP2 SWAP1 POP JUMP JUMPDEST PUSH3 0x2ED DUP3 PUSH3 0x38A JUMP JUMPDEST DUP2 ADD DUP2 DUP2 LT PUSH8 0xFFFFFFFFFFFFFFFF DUP3 GT OR ISZERO PUSH3 0x30F JUMPI PUSH3 0x30E PUSH3 0x347 JUMP JUMPDEST JUMPDEST DUP1 PUSH1 0x40 MSTORE POP POP POP JUMP JUMPDEST PUSH32 0x4E487B7100000000000000000000000000000000000000000000000000000000 PUSH1 0x0 MSTORE PUSH1 0x22 PUSH1 0x4 MSTORE PUSH1 0x24 PUSH1 0x0 REVERT JUMPDEST PUSH32 0x4E487B7100000000000000000000000000000000000000000000000000000000 PUSH1 0x0 MSTORE PUSH1 0x41 PUSH1 0x4 MSTORE PUSH1 0x24 PUSH1 0x0 REVERT JUMPDEST PUSH1 0x0 DUP1 REVERT JUMPDEST PUSH1 0x0 DUP1 REVERT JUMPDEST PUSH1 0x0 DUP1 REVERT JUMPDEST PUSH1 0x0 DUP1 REVERT JUMPDEST PUSH1 0x0 PUSH1 0x1F NOT PUSH1 0x1F DUP4 ADD AND SWAP1 POP SWAP2 SWAP1 POP JUMP JUMPDEST PUSH2 0xD9E DUP1 PUSH3 0x3AB PUSH1 0x0 CODECOPY PUSH1 0x0 RETURN INVALID PUSH1 0x80 PUSH1 0x40 MSTORE PUSH1 0x4 CALLDATASIZE LT PUSH2 0x70 JUMPI PUSH1 0x0 CALLDATALOAD PUSH1 0xE0 SHR DUP1 PUSH4 0x3D64125B GT PUSH2 0x4E JUMPI DUP1 PUSH4 0x3D64125B EQ PUSH2 0xE8 JUMPI DUP1 PUSH4 0xA9059CBB EQ PUSH2 0x125 JUMPI DUP1 PUSH4 0xB6B55F25 EQ PUSH2 0x14E JUMPI DUP1 PUSH4 0xF851A440 EQ PUSH2 0x16A JUMPI PUSH2 0x70 JUMP JUMPDEST DUP1 PUSH4 0x12065FE0 EQ PUSH2 0x75 JUMPI DUP1 PUSH4 0x27D35801 EQ PUSH2 0xA1 JUMPI DUP1 PUSH4 0x2E1A7D4D EQ PUSH2 0xCC JUMPI JUMPDEST PUSH1 0x0 DUP1 REVERT JUMPDEST CALLVALUE DUP1 ISZERO PUSH2 0x81 JUMPI PUSH1 0x0 DUP1 REVERT JUMPDEST POP PUSH2 0x8A PUSH2 0x195 JUMP JUMPDEST PUSH1 0x40 MLOAD PUSH2 0x98 SWAP3 SWAP2 SWAP1 PUSH2 0xA89 JUMP JUMPDEST PUSH1 0x40 MLOAD DUP1 SWAP2 SUB SWAP1 RETURN JUMPDEST CALLVALUE DUP1 ISZERO PUSH2 0xAD JUMPI PUSH1 0x0 DUP1 REVERT JUMPDEST POP PUSH2 0xB6 PUSH2 0x1A4 JUMP JUMPDEST PUSH1 0x40 MLOAD PUSH2 0xC3 SWAP2 SWAP1 PUSH2 0x9AC JUMP JUMPDEST PUSH1 0x40 MLOAD DUP1 SWAP2 SUB SWAP1 RETURN JUMPDEST PUSH2 0xE6 PUSH1 0x4 DUP1 CALLDATASIZE SUB DUP2 ADD SWAP1 PUSH2 0xE1 SWAP2 SWAP1 PUSH2 0x85E JUMP JUMPDEST PUSH2 0x232 JUMP JUMPDEST STOP JUMPDEST CALLVALUE DUP1 ISZERO PUSH2 0xF4 JUMPI PUSH1 0x0 DUP1 REVERT JUMPDEST POP PUSH2 0x10F PUSH1 0x4 DUP1 CALLDATASIZE SUB DUP2 ADD SWAP1 PUSH2 0x10A SWAP2 SWAP1 PUSH2 0x7F1 JUMP JUMPDEST PUSH2 0x3F4 JUMP JUMPDEST PUSH1 0x40 MLOAD PUSH2 0x11C SWAP2 SWAP1 PUSH2 0xA6E JUMP JUMPDEST PUSH1 0x40 MLOAD DUP1 SWAP2 SUB SWAP1 RETURN JUMPDEST CALLVALUE DUP1 ISZERO PUSH2 0x131 JUMPI PUSH1 0x0 DUP1 REVERT JUMPDEST POP PUSH2 0x14C PUSH1 0x4 DUP1 CALLDATASIZE SUB DUP2 ADD SWAP1 PUSH2 0x147 SWAP2 SWAP1 PUSH2 0x81E JUMP JUMPDEST PUSH2 0x43D JUMP JUMPDEST STOP JUMPDEST PUSH2 0x168 PUSH1 0x4 DUP1 CALLDATASIZE SUB DUP2 ADD SWAP1 PUSH2 0x163 SWAP2 SWAP1 PUSH2 0x85E JUMP JUMPDEST PUSH2 0x666 JUMP JUMPDEST STOP JUMPDEST CALLVALUE DUP1 ISZERO PUSH2 0x176 JUMPI PUSH1 0x0 DUP1 REVERT JUMPDEST POP PUSH2 0x17F PUSH2 0x7A1 JUMP JUMPDEST PUSH1 0x40 MLOAD PUSH2 0x18C SWAP2 SWAP1 PUSH2 0x991 JUMP JUMPDEST PUSH1 0x40 MLOAD DUP1 SWAP2 SUB SWAP1 RETURN JUMPDEST PUSH1 0x0 DUP1 SELFBALANCE PUSH1 0x1 SLOAD SWAP2 POP SWAP2 POP SWAP1 SWAP2 JUMP JUMPDEST PUSH1 0x0 DUP1 SLOAD PUSH2 0x1B1 SWAP1 PUSH2 0xBC7 JUMP JUMPDEST DUP1 PUSH1 0x1F ADD PUSH1 0x20 DUP1 SWAP2 DIV MUL PUSH1 0x20 ADD PUSH1 0x40 MLOAD SWAP1 DUP2 ADD PUSH1 0x40 MSTORE DUP1 SWAP3 SWAP2 SWAP1 DUP2 DUP2 MSTORE PUSH1 0x20 ADD DUP3 DUP1 SLOAD PUSH2 0x1DD SWAP1 PUSH2 0xBC7 JUMP JUMPDEST DUP1 ISZERO PUSH2 0x22A JUMPI DUP1 PUSH1 0x1F LT PUSH2 0x1FF JUMPI PUSH2 0x100 DUP1 DUP4 SLOAD DIV MUL DUP4 MSTORE SWAP2 PUSH1 0x20 ADD SWAP2 PUSH2 0x22A JUMP JUMPDEST DUP3 ADD SWAP2 SWAP1 PUSH1 0x0 MSTORE PUSH1 0x20 PUSH1 0x0 KECCAK256 SWAP1 JUMPDEST DUP2 SLOAD DUP2 MSTORE SWAP1 PUSH1 0x1 ADD SWAP1 PUSH1 0x20 ADD DUP1 DUP4 GT PUSH2 0x20D JUMPI DUP3 SWAP1 SUB PUSH1 0x1F AND DUP3 ADD SWAP2 JUMPDEST POP POP POP POP POP DUP2 JUMP JUMPDEST PUSH1 0x0 DUP2 GT PUSH2 0x275 JUMPI PUSH1 0x40 MLOAD PUSH32 0x8C379A000000000000000000000000000000000000000000000000000000000 DUP2 MSTORE PUSH1 0x4 ADD PUSH2 0x26C SWAP1 PUSH2 0xA2E JUMP JUMPDEST PUSH1 0x40 MLOAD DUP1 SWAP2 SUB SWAP1 REVERT JUMPDEST DUP1 PUSH1 0x3 PUSH1 0x0 CALLER PUSH20 0xFFFFFFFFFFFFFFFFFFFFFFFFFFFFFFFFFFFFFFFF AND PUSH20 0xFFFFFFFFFFFFFFFFFFFFFFFFFFFFFFFFFFFFFFFF AND DUP2 MSTORE PUSH1 0x20 ADD SWAP1 DUP2 MSTORE PUSH1 0x20 ADD PUSH1 0x0 KECCAK256 SLOAD LT ISZERO PUSH2 0x2F7 JUMPI PUSH1 0x40 MLOAD PUSH32 0x8C379A000000000000000000000000000000000000000000000000000000000 DUP2 MSTORE PUSH1 0x4 ADD PUSH2 0x2EE SWAP1 PUSH2 0xA0E JUMP JUMPDEST PUSH1 0x40 MLOAD DUP1 SWAP2 SUB SWAP1 REVERT JUMPDEST DUP1 PUSH1 0x3 PUSH1 0x0 CALLER PUSH20 0xFFFFFFFFFFFFFFFFFFFFFFFFFFFFFFFFFFFFFFFF AND PUSH20 0xFFFFFFFFFFFFFFFFFFFFFFFFFFFFFFFFFFFFFFFF AND DUP2 MSTORE PUSH1 0x20 ADD SWAP1 DUP2 MSTORE PUSH1 0x20 ADD PUSH1 0x0 KECCAK256 PUSH1 0x0 DUP3 DUP3 SLOAD PUSH2 0x346 SWAP2 SWAP1 PUSH2 0xB24 JUMP JUMPDEST SWAP3 POP POP DUP2 SWAP1 SSTORE POP CALLER PUSH20 0xFFFFFFFFFFFFFFFFFFFFFFFFFFFFFFFFFFFFFFFF AND PUSH2 0x8FC DUP3 SWAP1 DUP2 ISZERO MUL SWAP1 PUSH1 0x40 MLOAD PUSH1 0x0 PUSH1 0x40 MLOAD DUP1 DUP4 SUB DUP2 DUP6 DUP9 DUP9 CALL SWAP4 POP POP POP POP ISZERO DUP1 ISZERO PUSH2 0x393 JUMPI RETURNDATASIZE PUSH1 0x0 DUP1 RETURNDATACOPY RETURNDATASIZE PUSH1 0x0 REVERT JUMPDEST POP DUP1 PUSH1 0x1 PUSH1 0x0 DUP3 DUP3 SLOAD PUSH2 0x3A6 SWAP2 SWAP1 PUSH2 0xB24 JUMP JUMPDEST SWAP3 POP POP DUP2 SWAP1 SSTORE POP PUSH1 0x1 SLOAD SELFBALANCE EQ PUSH2 0x3F1 JUMPI PUSH1 0x40 MLOAD PUSH32 0x8C379A000000000000000000000000000000000000000000000000000000000 DUP2 MSTORE PUSH1 0x4 ADD PUSH2 0x3E8 SWAP1 PUSH2 0xA4E JUMP JUMPDEST PUSH1 0x40 MLOAD DUP1 SWAP2 SUB SWAP1 REVERT JUMPDEST POP JUMP JUMPDEST PUSH1 0x0 PUSH1 0x3 PUSH1 0x0 DUP4 PUSH20 0xFFFFFFFFFFFFFFFFFFFFFFFFFFFFFFFFFFFFFFFF AND PUSH20 0xFFFFFFFFFFFFFFFFFFFFFFFFFFFFFFFFFFFFFFFF AND DUP2 MSTORE PUSH1 0x20 ADD SWAP1 DUP2 MSTORE PUSH1 0x20 ADD PUSH1 0x0 KECCAK256 SLOAD SWAP1 POP SWAP2 SWAP1 POP JUMP JUMPDEST PUSH1 0x0 DUP2 GT PUSH2 0x480 JUMPI PUSH1 0x40 MLOAD PUSH32 0x8C379A000000000000000000000000000000000000000000000000000000000 DUP2 MSTORE PUSH1 0x4 ADD PUSH2 0x477 SWAP1 PUSH2 0xA2E JUMP JUMPDEST PUSH1 0x40 MLOAD DUP1 SWAP2 SUB SWAP1 REVERT JUMPDEST DUP2 PUSH20 0xFFFFFFFFFFFFFFFFFFFFFFFFFFFFFFFFFFFFFFFF AND PUSH1 0x0 PUSH20 0xFFFFFFFFFFFFFFFFFFFFFFFFFFFFFFFFFFFFFFFF AND EQ ISZERO PUSH2 0x4F0 JUMPI PUSH1 0x40 MLOAD PUSH32 0x8C379A000000000000000000000000000000000000000000000000000000000 DUP2 MSTORE PUSH1 0x4 ADD PUSH2 0x4E7 SWAP1 PUSH2 0x9CE JUMP JUMPDEST PUSH1 0x40 MLOAD DUP1 SWAP2 SUB SWAP1 REVERT JUMPDEST DUP1 PUSH1 0x3 PUSH1 0x0 CALLER PUSH20 0xFFFFFFFFFFFFFFFFFFFFFFFFFFFFFFFFFFFFFFFF AND PUSH20 0xFFFFFFFFFFFFFFFFFFFFFFFFFFFFFFFFFFFFFFFF AND DUP2 MSTORE PUSH1 0x20 ADD SWAP1 DUP2 MSTORE PUSH1 0x20 ADD PUSH1 0x0 KECCAK256 SLOAD LT ISZERO PUSH2 0x572 JUMPI PUSH1 0x40 MLOAD PUSH32 0x8C379A000000000000000000000000000000000000000000000000000000000 DUP2 MSTORE PUSH1 0x4 ADD PUSH2 0x569 SWAP1 PUSH2 0xA0E JUMP JUMPDEST PUSH1 0x40 MLOAD DUP1 SWAP2 SUB SWAP1 REVERT JUMPDEST DUP1 PUSH1 0x3 PUSH1 0x0 CALLER PUSH20 0xFFFFFFFFFFFFFFFFFFFFFFFFFFFFFFFFFFFFFFFF AND PUSH20 0xFFFFFFFFFFFFFFFFFFFFFFFFFFFFFFFFFFFFFFFF AND DUP2 MSTORE PUSH1 0x20 ADD SWAP1 DUP2 MSTORE PUSH1 0x20 ADD PUSH1 0x0 KECCAK256 PUSH1 0x0 DUP3 DUP3 SLOAD PUSH2 0x5C1 SWAP2 SWAP1 PUSH2 0xB24 JUMP JUMPDEST SWAP3 POP POP DUP2 SWAP1 SSTORE POP DUP1 PUSH1 0x3 PUSH1 0x0 DUP5 PUSH20 0xFFFFFFFFFFFFFFFFFFFFFFFFFFFFFFFFFFFFFFFF AND PUSH20 0xFFFFFFFFFFFFFFFFFFFFFFFFFFFFFFFFFFFFFFFF AND DUP2 MSTORE PUSH1 0x20 ADD SWAP1 DUP2 MSTORE PUSH1 0x20 ADD PUSH1 0x0 KECCAK256 PUSH1 0x0 DUP3 DUP3 SLOAD PUSH2 0x617 SWAP2 SWAP1 PUSH2 0xACE JUMP JUMPDEST SWAP3 POP POP DUP2 SWAP1 SSTORE POP PUSH1 0x1 SLOAD SELFBALANCE EQ PUSH2 0x662 JUMPI PUSH1 0x40 MLOAD PUSH32 0x8C379A000000000000000000000000000000000000000000000000000000000 DUP2 MSTORE PUSH1 0x4 ADD PUSH2 0x659 SWAP1 PUSH2 0xA4E JUMP JUMPDEST PUSH1 0x40 MLOAD DUP1 SWAP2 SUB SWAP1 REVERT JUMPDEST POP POP JUMP JUMPDEST PUSH1 0x0 DUP2 GT PUSH2 0x6A9 JUMPI PUSH1 0x40 MLOAD PUSH32 0x8C379A000000000000000000000000000000000000000000000000000000000 DUP2 MSTORE PUSH1 0x4 ADD PUSH2 0x6A0 SWAP1 PUSH2 0xA2E JUMP JUMPDEST PUSH1 0x40 MLOAD DUP1 SWAP2 SUB SWAP1 REVERT JUMPDEST DUP1 CALLVALUE EQ PUSH2 0x6EB JUMPI PUSH1 0x40 MLOAD PUSH32 0x8C379A000000000000000000000000000000000000000000000000000000000 DUP2 MSTORE PUSH1 0x4 ADD PUSH2 0x6E2 SWAP1 PUSH2 0x9EE JUMP JUMPDEST PUSH1 0x40 MLOAD DUP1 SWAP2 SUB SWAP1 REVERT JUMPDEST DUP1 PUSH1 0x3 PUSH1 0x0 CALLER PUSH20 0xFFFFFFFFFFFFFFFFFFFFFFFFFFFFFFFFFFFFFFFF AND PUSH20 0xFFFFFFFFFFFFFFFFFFFFFFFFFFFFFFFFFFFFFFFF AND DUP2 MSTORE PUSH1 0x20 ADD SWAP1 DUP2 MSTORE PUSH1 0x20 ADD PUSH1 0x0 KECCAK256 PUSH1 0x0 DUP3 DUP3 SLOAD PUSH2 0x73A SWAP2 SWAP1 PUSH2 0xACE JUMP JUMPDEST SWAP3 POP POP DUP2 SWAP1 SSTORE POP DUP1 PUSH1 0x1 PUSH1 0x0 DUP3 DUP3 SLOAD PUSH2 0x753 SWAP2 SWAP1 PUSH2 0xACE JUMP JUMPDEST SWAP3 POP POP DUP2 SWAP1 SSTORE POP PUSH1 0x1 SLOAD SELFBALANCE EQ PUSH2 0x79E JUMPI PUSH1 0x40 MLOAD PUSH32 0x8C379A000000000000000000000000000000000000000000000000000000000 DUP2 MSTORE PUSH1 0x4 ADD PUSH2 0x795 SWAP1 PUSH2 0xA4E JUMP JUMPDEST PUSH1 0x40 MLOAD DUP1 SWAP2 SUB SWAP1 REVERT JUMPDEST POP JUMP JUMPDEST PUSH1 0x2 PUSH1 0x0 SWAP1 SLOAD SWAP1 PUSH2 0x100 EXP SWAP1 DIV PUSH20 0xFFFFFFFFFFFFFFFFFFFFFFFFFFFFFFFFFFFFFFFF AND DUP2 JUMP JUMPDEST PUSH1 0x0 DUP2 CALLDATALOAD SWAP1 POP PUSH2 0x7D6 DUP2 PUSH2 0xD3A JUMP JUMPDEST SWAP3 SWAP2 POP POP JUMP JUMPDEST PUSH1 0x0 DUP2 CALLDATALOAD SWAP1 POP PUSH2 0x7EB DUP2 PUSH2 0xD51 JUMP JUMPDEST SWAP3 SWAP2 POP POP JUMP JUMPDEST PUSH1 0x0 PUSH1 0x20 DUP3 DUP5 SUB SLT ISZERO PUSH2 0x807 JUMPI PUSH2 0x806 PUSH2 0xC57 JUMP JUMPDEST JUMPDEST PUSH1 0x0 PUSH2 0x815 DUP5 DUP3 DUP6 ADD PUSH2 0x7C7 JUMP JUMPDEST SWAP2 POP POP SWAP3 SWAP2 POP POP JUMP JUMPDEST PUSH1 0x0 DUP1 PUSH1 0x40 DUP4 DUP6 SUB SLT ISZERO PUSH2 0x835 JUMPI PUSH2 0x834 PUSH2 0xC57 JUMP JUMPDEST JUMPDEST PUSH1 0x0 PUSH2 0x843 DUP6 DUP3 DUP7 ADD PUSH2 0x7C7 JUMP JUMPDEST SWAP3 POP POP PUSH1 0x20 PUSH2 0x854 DUP6 DUP3 DUP7 ADD PUSH2 0x7DC JUMP JUMPDEST SWAP2 POP POP SWAP3 POP SWAP3 SWAP1 POP JUMP JUMPDEST PUSH1 0x0 PUSH1 0x20 DUP3 DUP5 SUB SLT ISZERO PUSH2 0x874 JUMPI PUSH2 0x873 PUSH2 0xC57 JUMP JUMPDEST JUMPDEST PUSH1 0x0 PUSH2 0x882 DUP5 DUP3 DUP6 ADD PUSH2 0x7DC JUMP JUMPDEST SWAP2 POP POP SWAP3 SWAP2 POP POP JUMP JUMPDEST PUSH2 0x894 DUP2 PUSH2 0xB58 JUMP JUMPDEST DUP3 MSTORE POP POP JUMP JUMPDEST PUSH1 0x0 PUSH2 0x8A5 DUP3 PUSH2 0xAB2 JUMP JUMPDEST PUSH2 0x8AF DUP2 DUP6 PUSH2 0xABD JUMP JUMPDEST SWAP4 POP PUSH2 0x8BF DUP2 DUP6 PUSH1 0x20 DUP7 ADD PUSH2 0xB94 JUMP JUMPDEST PUSH2 0x8C8 DUP2 PUSH2 0xC5C JUMP JUMPDEST DUP5 ADD SWAP2 POP POP SWAP3 SWAP2 POP POP JUMP JUMPDEST PUSH1 0x0 PUSH2 0x8E0 PUSH1 0x15 DUP4 PUSH2 0xABD JUMP JUMPDEST SWAP2 POP PUSH2 0x8EB DUP3 PUSH2 0xC6D JUMP JUMPDEST PUSH1 0x20 DUP3 ADD SWAP1 POP SWAP2 SWAP1 POP JUMP JUMPDEST PUSH1 0x0 PUSH2 0x903 PUSH1 0x1C DUP4 PUSH2 0xABD JUMP JUMPDEST SWAP2 POP PUSH2 0x90E DUP3 PUSH2 0xC96 JUMP JUMPDEST PUSH1 0x20 DUP3 ADD SWAP1 POP SWAP2 SWAP1 POP JUMP JUMPDEST PUSH1 0x0 PUSH2 0x926 PUSH1 0x19 DUP4 PUSH2 0xABD JUMP JUMPDEST SWAP2 POP PUSH2 0x931 DUP3 PUSH2 0xCBF JUMP JUMPDEST PUSH1 0x20 DUP3 ADD SWAP1 POP SWAP2 SWAP1 POP JUMP JUMPDEST PUSH1 0x0 PUSH2 0x949 PUSH1 0x11 DUP4 PUSH2 0xABD JUMP JUMPDEST SWAP2 POP PUSH2 0x954 DUP3 PUSH2 0xCE8 JUMP JUMPDEST PUSH1 0x20 DUP3 ADD SWAP1 POP SWAP2 SWAP1 POP JUMP JUMPDEST PUSH1 0x0 PUSH2 0x96C PUSH1 0x16 DUP4 PUSH2 0xABD JUMP JUMPDEST SWAP2 POP PUSH2 0x977 DUP3 PUSH2 0xD11 JUMP JUMPDEST PUSH1 0x20 DUP3 ADD SWAP1 POP SWAP2 SWAP1 POP JUMP JUMPDEST PUSH2 0x98B DUP2 PUSH2 0xB8A JUMP JUMPDEST DUP3 MSTORE POP POP JUMP JUMPDEST PUSH1 0x0 PUSH1 0x20 DUP3 ADD SWAP1 POP PUSH2 0x9A6 PUSH1 0x0 DUP4 ADD DUP5 PUSH2 0x88B JUMP JUMPDEST SWAP3 SWAP2 POP POP JUMP JUMPDEST PUSH1 0x0 PUSH1 0x20 DUP3 ADD SWAP1 POP DUP2 DUP2 SUB PUSH1 0x0 DUP4 ADD MSTORE PUSH2 0x9C6 DUP2 DUP5 PUSH2 0x89A JUMP JUMPDEST SWAP1 POP SWAP3 SWAP2 POP POP JUMP JUMPDEST PUSH1 0x0 PUSH1 0x20 DUP3 ADD SWAP1 POP DUP2 DUP2 SUB PUSH1 0x0 DUP4 ADD MSTORE PUSH2 0x9E7 DUP2 PUSH2 0x8D3 JUMP JUMPDEST SWAP1 POP SWAP2 SWAP1 POP JUMP JUMPDEST PUSH1 0x0 PUSH1 0x20 DUP3 ADD SWAP1 POP DUP2 DUP2 SUB PUSH1 0x0 DUP4 ADD MSTORE PUSH2 0xA07 DUP2 PUSH2 0x8F6 JUMP JUMPDEST SWAP1 POP SWAP2 SWAP1 POP JUMP JUMPDEST PUSH1 0x0 PUSH1 0x20 DUP3 ADD SWAP1 POP DUP2 DUP2 SUB PUSH1 0x0 DUP4 ADD MSTORE PUSH2 0xA27 DUP2 PUSH2 0x919 JUMP JUMPDEST SWAP1 POP SWAP2 SWAP1 POP JUMP JUMPDEST PUSH1 0x0 PUSH1 0x20 DUP3 ADD SWAP1 POP DUP2 DUP2 SUB PUSH1 0x0 DUP4 ADD MSTORE PUSH2 0xA47 DUP2 PUSH2 0x93C JUMP JUMPDEST SWAP1 POP SWAP2 SWAP1 POP JUMP JUMPDEST PUSH1 0x0 PUSH1 0x20 DUP3 ADD SWAP1 POP DUP2 DUP2 SUB PUSH1 0x0 DUP4 ADD MSTORE PUSH2 0xA67 DUP2 PUSH2 0x95F JUMP JUMPDEST SWAP1 POP SWAP2 SWAP1 POP JUMP JUMPDEST PUSH1 0x0 PUSH1 0x20 DUP3 ADD SWAP1 POP PUSH2 0xA83 PUSH1 0x0 DUP4 ADD DUP5 PUSH2 0x982 JUMP JUMPDEST SWAP3 SWAP2 POP POP JUMP JUMPDEST PUSH1 0x0 PUSH1 0x40 DUP3 ADD SWAP1 POP PUSH2 0xA9E PUSH1 0x0 DUP4 ADD DUP6 PUSH2 0x982 JUMP JUMPDEST PUSH2 0xAAB PUSH1 0x20 DUP4 ADD DUP5 PUSH2 0x982 JUMP JUMPDEST SWAP4 SWAP3 POP POP POP JUMP JUMPDEST PUSH1 0x0 DUP2 MLOAD SWAP1 POP SWAP2 SWAP1 POP JUMP JUMPDEST PUSH1 0x0 DUP3 DUP3 MSTORE PUSH1 0x20 DUP3 ADD SWAP1 POP SWAP3 SWAP2 POP POP JUMP JUMPDEST PUSH1 0x0 PUSH2 0xAD9 DUP3 PUSH2 0xB8A JUMP JUMPDEST SWAP2 POP PUSH2 0xAE4 DUP4 PUSH2 0xB8A JUMP JUMPDEST SWAP3 POP DUP3 PUSH32 0xFFFFFFFFFFFFFFFFFFFFFFFFFFFFFFFFFFFFFFFFFFFFFFFFFFFFFFFFFFFFFFFF SUB DUP3 GT ISZERO PUSH2 0xB19 JUMPI PUSH2 0xB18 PUSH2 0xBF9 JUMP JUMPDEST JUMPDEST DUP3 DUP3 ADD SWAP1 POP SWAP3 SWAP2 POP POP JUMP JUMPDEST PUSH1 0x0 PUSH2 0xB2F DUP3 PUSH2 0xB8A JUMP JUMPDEST SWAP2 POP PUSH2 0xB3A DUP4 PUSH2 0xB8A JUMP JUMPDEST SWAP3 POP DUP3 DUP3 LT ISZERO PUSH2 0xB4D JUMPI PUSH2 0xB4C PUSH2 0xBF9 JUMP JUMPDEST JUMPDEST DUP3 DUP3 SUB SWAP1 POP SWAP3 SWAP2 POP POP JUMP JUMPDEST PUSH1 0x0 PUSH2 0xB63 DUP3 PUSH2 0xB6A JUMP JUMPDEST SWAP1 POP SWAP2 SWAP1 POP JUMP JUMPDEST PUSH1 0x0 PUSH20 0xFFFFFFFFFFFFFFFFFFFFFFFFFFFFFFFFFFFFFFFF DUP3 AND SWAP1 POP SWAP2 SWAP1 POP JUMP JUMPDEST PUSH1 0x0 DUP2 SWAP1 POP SWAP2 SWAP1 POP JUMP JUMPDEST PUSH1 0x0 JUMPDEST DUP4 DUP2 LT ISZERO PUSH2 0xBB2 JUMPI DUP1 DUP3 ADD MLOAD DUP2 DUP5 ADD MSTORE PUSH1 0x20 DUP2 ADD SWAP1 POP PUSH2 0xB97 JUMP JUMPDEST DUP4 DUP2 GT ISZERO PUSH2 0xBC1 JUMPI PUSH1 0x0 DUP5 DUP5 ADD MSTORE JUMPDEST POP POP POP POP JUMP JUMPDEST PUSH1 0x0 PUSH1 0x2 DUP3 DIV SWAP1 POP PUSH1 0x1 DUP3 AND DUP1 PUSH2 0xBDF JUMPI PUSH1 0x7F DUP3 AND SWAP2 POP JUMPDEST PUSH1 0x20 DUP3 LT DUP2 EQ ISZERO PUSH2 0xBF3 JUMPI PUSH2 0xBF2 PUSH2 0xC28 JUMP JUMPDEST JUMPDEST POP SWAP2 SWAP1 POP JUMP JUMPDEST PUSH32 0x4E487B7100000000000000000000000000000000000000000000000000000000 PUSH1 0x0 MSTORE PUSH1 0x11 PUSH1 0x4 MSTORE PUSH1 0x24 PUSH1 0x0 REVERT JUMPDEST PUSH32 0x4E487B7100000000000000000000000000000000000000000000000000000000 PUSH1 0x0 MSTORE PUSH1 0x22 PUSH1 0x4 MSTORE PUSH1 0x24 PUSH1 0x0 REVERT JUMPDEST PUSH1 0x0 DUP1 REVERT JUMPDEST PUSH1 0x0 PUSH1 0x1F NOT PUSH1 0x1F DUP4 ADD AND SWAP1 POP SWAP2 SWAP1 POP JUMP JUMPDEST PUSH32 0x746F2061646472657373206D7573742076616C69640000000000000000000000 PUSH1 0x0 DUP3 ADD MSTORE POP JUMP JUMPDEST PUSH32 0x206D73672E76616C7565206D75737420657175616C20616D6F756E7400000000 PUSH1 0x0 DUP3 ADD MSTORE POP JUMP JUMPDEST PUSH32 0x7573657227732062616C616E6365206E6F7420656E6F75676800000000000000 PUSH1 0x0 DUP3 ADD MSTORE POP JUMP JUMPDEST PUSH32 0x20616D6F756E74206D757374203E203020000000000000000000000000000000 PUSH1 0x0 DUP3 ADD MSTORE POP JUMP JUMPDEST PUSH32 0x62616E6B27732062616C616E6365206D757374206F6B00000000000000000000 PUSH1 0x0 DUP3 ADD MSTORE POP JUMP JUMPDEST PUSH2 0xD43 DUP2 PUSH2 0xB58 JUMP JUMPDEST DUP2 EQ PUSH2 0xD4E JUMPI PUSH1 0x0 DUP1 REVERT JUMPDEST POP JUMP JUMPDEST PUSH2 0xD5A DUP2 PUSH2 0xB8A JUMP JUMPDEST DUP2 EQ PUSH2 0xD65 JUMPI PUSH1 0x0 DUP1 REVERT JUMPDEST POP JUMP INVALID LOG2 PUSH5 0x6970667358 0x22 SLT KECCAK256 SLOAD 0xE3 DUP2 SWAP7 DUP12 0xD6 TIMESTAMP 0xB8 PUSH19 0xAE9962E151FEB3796DBCD53558EC4DB988E2CA ADDMOD 0xC0 PUSH4 0x9164736F PUSH13 0x63430008070033000000000000 "
				},
				"gasEstimates": {
					"creation": {
						"codeDepositCost": "697200",
						"executionCost": "infinite",
						"totalCost": "infinite"
					},
					"external": {
						"admin()": "2580",
						"balanceof(address)": "2841",
						"bankName()": "infinite",
						"deposit(uint256)": "infinite",
						"getBalance()": "infinite",
						"transfer(address,uint256)": "infinite",
						"withdraw(uint256)": "infinite"
					}
				},
				"methodIdentifiers": {
					"admin()": "f851a440",
					"balanceof(address)": "3d64125b",
					"bankName()": "27d35801",
					"deposit(uint256)": "b6b55f25",
					"getBalance()": "12065fe0",
					"transfer(address,uint256)": "a9059cbb",
					"withdraw(uint256)": "2e1a7d4d"
				}
			},
			"storageLayout": {
				"storage": [
					{
						"astId": 3,
						"contract": "bank/01-bank.sol:bank_demo",
						"label": "bankName",
						"offset": 0,
						"slot": "0",
						"type": "t_string_storage"
					},
					{
						"astId": 5,
						"contract": "bank/01-bank.sol:bank_demo",
						"label": "totalAmount",
						"offset": 0,
						"slot": "1",
						"type": "t_uint256"
					},
					{
						"astId": 7,
						"contract": "bank/01-bank.sol:bank_demo",
						"label": "admin",
						"offset": 0,
						"slot": "2",
						"type": "t_address"
					},
					{
						"astId": 11,
						"contract": "bank/01-bank.sol:bank_demo",
						"label": "balances",
						"offset": 0,
						"slot": "3",
						"type": "t_mapping(t_address,t_uint256)"
					}
				],
				"types": {
					"t_address": {
						"encoding": "inplace",
						"label": "address",
						"numberOfBytes": "20"
					},
					"t_mapping(t_address,t_uint256)": {
						"encoding": "mapping",
						"key": "t_address",
						"label": "mapping(address => uint256)",
						"numberOfBytes": "32",
						"value": "t_uint256"
					},
					"t_string_storage": {
						"encoding": "bytes",
						"label": "string",
						"numberOfBytes": "32"
					},
					"t_uint256": {
						"encoding": "inplace",
						"label": "uint256",
						"numberOfBytes": "32"
					}
				}
			},
			"userdoc": {
				"kind": "user",
				"methods": {},
				"version": 1
			}
		}
	}
}