{
	"test/07-register.sol": {
		"register_demo": {
			"abi": [
				{
					"inputs": [],
					"stateMutability": "nonpayable",
					"type": "constructor"
				},
				{
					"inputs": [
						{
							"internalType": "string",
							"name": "_nameKey",
							"type": "string"
						},
						{
							"internalType": "address",
							"name": "_addr",
							"type": "address"
						},
						{
							"internalType": "string",
							"name": "_ver",
							"type": "string"
						}
					],
					"name": "addContract",
					"outputs": [],
					"stateMutability": "nonpayable",
					"type": "function"
				},
				{
					"inputs": [
						{
							"internalType": "string",
							"name": "_nameKey",
							"type": "string"
						}
					],
					"name": "getInfo",
					"outputs": [
						{
							"components": [
								{
									"internalType": "address",
									"name": "builder",
									"type": "address"
								},
								{
									"internalType": "address",
									"name": "crtAddr",
									"type": "address"
								},
								{
									"internalType": "string",
									"name": "version",
									"type": "string"
								}
							],
							"internalType": "struct ContratInfo",
							"name": "",
							"type": "tuple"
						}
					],
					"stateMutability": "view",
					"type": "function"
				}
			],
			"devdoc": {
				"kind": "dev",
				"methods": {},
				"version": 1
			},
			"evm": {
				"assembly": "    /* \"test/07-register.sol\":218:1036  contract register_demo{\r... */\n  mstore(0x40, 0x80)\n    /* \"test/07-register.sol\":339:389  constructor(){\r... */\n  callvalue\n  dup1\n  iszero\n  tag_1\n  jumpi\n  0x00\n  dup1\n  revert\ntag_1:\n  pop\n    /* \"test/07-register.sol\":371:381  msg.sender */\n  caller\n    /* \"test/07-register.sol\":363:368  owner */\n  0x01\n  0x00\n    /* \"test/07-register.sol\":363:381  owner = msg.sender */\n  0x0100\n  exp\n  dup2\n  sload\n  dup2\n  0xffffffffffffffffffffffffffffffffffffffff\n  mul\n  not\n  and\n  swap1\n  dup4\n  0xffffffffffffffffffffffffffffffffffffffff\n  and\n  mul\n  or\n  swap1\n  sstore\n  pop\n    /* \"test/07-register.sol\":218:1036  contract register_demo{\r... */\n  dataSize(sub_0)\n  dup1\n  dataOffset(sub_0)\n  0x00\n  codecopy\n  0x00\n  return\nstop\n\nsub_0: assembly {\n        /* \"test/07-register.sol\":218:1036  contract register_demo{\r... */\n      mstore(0x40, 0x80)\n      callvalue\n      dup1\n      iszero\n      tag_1\n      jumpi\n      0x00\n      dup1\n      revert\n    tag_1:\n      pop\n      jumpi(tag_2, lt(calldatasize, 0x04))\n      shr(0xe0, calldataload(0x00))\n      dup1\n      0x7d6929e0\n      eq\n      tag_3\n      jumpi\n      dup1\n      0x7ee005ab\n      eq\n      tag_4\n      jumpi\n    tag_2:\n      0x00\n      dup1\n      revert\n        /* \"test/07-register.sol\":397:900  function  addContract(string memory _nameKey,address _addr, string memory _ver)public{\r... */\n    tag_3:\n      tag_5\n      0x04\n      dup1\n      calldatasize\n      sub\n      dup2\n      add\n      swap1\n      tag_6\n      swap2\n      swap1\n      tag_7\n      jump\t// in\n    tag_6:\n      tag_8\n      jump\t// in\n    tag_5:\n      stop\n        /* \"test/07-register.sol\":908:1033  function getInfo(string memory _nameKey) public view returns(ContratInfo memory){\r... */\n    tag_4:\n      tag_9\n      0x04\n      dup1\n      calldatasize\n      sub\n      dup2\n      add\n      swap1\n      tag_10\n      swap2\n      swap1\n      tag_11\n      jump\t// in\n    tag_10:\n      tag_12\n      jump\t// in\n    tag_9:\n      mload(0x40)\n      tag_13\n      swap2\n      swap1\n      tag_14\n      jump\t// in\n    tag_13:\n      mload(0x40)\n      dup1\n      swap2\n      sub\n      swap1\n      return\n        /* \"test/07-register.sol\":397:900  function  addContract(string memory _nameKey,address _addr, string memory _ver)public{\r... */\n    tag_8:\n        /* \"test/07-register.sol\":578:579  0 */\n      0x00\n        /* \"test/07-register.sol\":539:580  contracts[_nameKey].crtAddr == address(0) */\n      0xffffffffffffffffffffffffffffffffffffffff\n      and\n        /* \"test/07-register.sol\":539:548  contracts */\n      0x00\n        /* \"test/07-register.sol\":549:557  _nameKey */\n      dup5\n        /* \"test/07-register.sol\":539:558  contracts[_nameKey] */\n      mload(0x40)\n      tag_16\n      swap2\n      swap1\n      tag_17\n      jump\t// in\n    tag_16:\n      swap1\n      dup2\n      mstore\n      0x20\n      add\n      mload(0x40)\n      dup1\n      swap2\n      sub\n      swap1\n      keccak256\n        /* \"test/07-register.sol\":539:566  contracts[_nameKey].crtAddr */\n      0x01\n      add\n      0x00\n      swap1\n      sload\n      swap1\n      0x0100\n      exp\n      swap1\n      div\n      0xffffffffffffffffffffffffffffffffffffffff\n      and\n        /* \"test/07-register.sol\":539:580  contracts[_nameKey].crtAddr == address(0) */\n      0xffffffffffffffffffffffffffffffffffffffff\n      and\n      eq\n        /* \"test/07-register.sol\":536:893  if(contracts[_nameKey].crtAddr == address(0)){\r... */\n      iszero\n      tag_18\n      jumpi\n        /* \"test/07-register.sol\":655:665  msg.sender */\n      caller\n        /* \"test/07-register.sol\":625:634  contracts */\n      0x00\n        /* \"test/07-register.sol\":635:643  _nameKey */\n      dup5\n        /* \"test/07-register.sol\":625:644  contracts[_nameKey] */\n      mload(0x40)\n      tag_19\n      swap2\n      swap1\n      tag_17\n      jump\t// in\n    tag_19:\n      swap1\n      dup2\n      mstore\n      0x20\n      add\n      mload(0x40)\n      dup1\n      swap2\n      sub\n      swap1\n      keccak256\n        /* \"test/07-register.sol\":625:652  contracts[_nameKey].builder */\n      0x00\n      add\n      0x00\n        /* \"test/07-register.sol\":625:665  contracts[_nameKey].builder = msg.sender */\n      0x0100\n      exp\n      dup2\n      sload\n      dup2\n      0xffffffffffffffffffffffffffffffffffffffff\n      mul\n      not\n      and\n      swap1\n      dup4\n      0xffffffffffffffffffffffffffffffffffffffff\n      and\n      mul\n      or\n      swap1\n      sstore\n      pop\n        /* \"test/07-register.sol\":710:715  _addr */\n      dup2\n        /* \"test/07-register.sol\":680:689  contracts */\n      0x00\n        /* \"test/07-register.sol\":690:698  _nameKey */\n      dup5\n        /* \"test/07-register.sol\":680:699  contracts[_nameKey] */\n      mload(0x40)\n      tag_20\n      swap2\n      swap1\n      tag_17\n      jump\t// in\n    tag_20:\n      swap1\n      dup2\n      mstore\n      0x20\n      add\n      mload(0x40)\n      dup1\n      swap2\n      sub\n      swap1\n      keccak256\n        /* \"test/07-register.sol\":680:707  contracts[_nameKey].crtAddr */\n      0x01\n      add\n      0x00\n        /* \"test/07-register.sol\":680:715  contracts[_nameKey].crtAddr = _addr */\n      0x0100\n      exp\n      dup2\n      sload\n      dup2\n      0xffffffffffffffffffffffffffffffffffffffff\n      mul\n      not\n      and\n      swap1\n      dup4\n      0xffffffffffffffffffffffffffffffffffffffff\n      and\n      mul\n      or\n      swap1\n      sstore\n      pop\n        /* \"test/07-register.sol\":761:765  _ver */\n      dup1\n        /* \"test/07-register.sol\":730:739  contracts */\n      0x00\n        /* \"test/07-register.sol\":740:748  _nameKey */\n      dup5\n        /* \"test/07-register.sol\":730:749  contracts[_nameKey] */\n      mload(0x40)\n      tag_21\n      swap2\n      swap1\n      tag_17\n      jump\t// in\n    tag_21:\n      swap1\n      dup2\n      mstore\n      0x20\n      add\n      mload(0x40)\n      dup1\n      swap2\n      sub\n      swap1\n      keccak256\n        /* \"test/07-register.sol\":730:757  contracts[_nameKey].version */\n      0x02\n      add\n        /* \"test/07-register.sol\":730:765  contracts[_nameKey].version =  _ver */\n      swap1\n      dup1\n      mload\n      swap1\n      0x20\n      add\n      swap1\n      tag_22\n      swap3\n      swap2\n      swap1\n      tag_23\n      jump\t// in\n    tag_22:\n      pop\n        /* \"test/07-register.sol\":536:893  if(contracts[_nameKey].crtAddr == address(0)){\r... */\n      jump(tag_24)\n    tag_18:\n        /* \"test/07-register.sol\":826:831  _addr */\n      dup2\n        /* \"test/07-register.sol\":796:805  contracts */\n      0x00\n        /* \"test/07-register.sol\":806:814  _nameKey */\n      dup5\n        /* \"test/07-register.sol\":796:815  contracts[_nameKey] */\n      mload(0x40)\n      tag_25\n      swap2\n      swap1\n      tag_17\n      jump\t// in\n    tag_25:\n      swap1\n      dup2\n      mstore\n      0x20\n      add\n      mload(0x40)\n      dup1\n      swap2\n      sub\n      swap1\n      keccak256\n        /* \"test/07-register.sol\":796:823  contracts[_nameKey].crtAddr */\n      0x01\n      add\n      0x00\n        /* \"test/07-register.sol\":796:831  contracts[_nameKey].crtAddr = _addr */\n      0x0100\n      exp\n      dup2\n      sload\n      dup2\n      0xffffffffffffffffffffffffffffffffffffffff\n      mul\n      not\n      and\n      swap1\n      dup4\n      0xffffffffffffffffffffffffffffffffffffffff\n      and\n      mul\n      or\n      swap1\n      sstore\n      pop\n        /* \"test/07-register.sol\":877:881  _ver */\n      dup1\n        /* \"test/07-register.sol\":846:855  contracts */\n      0x00\n        /* \"test/07-register.sol\":856:864  _nameKey */\n      dup5\n        /* \"test/07-register.sol\":846:865  contracts[_nameKey] */\n      mload(0x40)\n      tag_26\n      swap2\n      swap1\n      tag_17\n      jump\t// in\n    tag_26:\n      swap1\n      dup2\n      mstore\n      0x20\n      add\n      mload(0x40)\n      dup1\n      swap2\n      sub\n      swap1\n      keccak256\n        /* \"test/07-register.sol\":846:873  contracts[_nameKey].version */\n      0x02\n      add\n        /* \"test/07-register.sol\":846:881  contracts[_nameKey].version =  _ver */\n      swap1\n      dup1\n      mload\n      swap1\n      0x20\n      add\n      swap1\n      tag_27\n      swap3\n      swap2\n      swap1\n      tag_23\n      jump\t// in\n    tag_27:\n      pop\n        /* \"test/07-register.sol\":536:893  if(contracts[_nameKey].crtAddr == address(0)){\r... */\n    tag_24:\n        /* \"test/07-register.sol\":397:900  function  addContract(string memory _nameKey,address _addr, string memory _ver)public{\r... */\n      pop\n      pop\n      pop\n      jump\t// out\n        /* \"test/07-register.sol\":908:1033  function getInfo(string memory _nameKey) public view returns(ContratInfo memory){\r... */\n    tag_12:\n        /* \"test/07-register.sol\":969:987  ContratInfo memory */\n      tag_28\n      tag_29\n      jump\t// in\n    tag_28:\n        /* \"test/07-register.sol\":1006:1015  contracts */\n      0x00\n        /* \"test/07-register.sol\":1016:1024  _nameKey */\n      dup3\n        /* \"test/07-register.sol\":1006:1025  contracts[_nameKey] */\n      mload(0x40)\n      tag_31\n      swap2\n      swap1\n      tag_17\n      jump\t// in\n    tag_31:\n      swap1\n      dup2\n      mstore\n      0x20\n      add\n      mload(0x40)\n      dup1\n      swap2\n      sub\n      swap1\n      keccak256\n        /* \"test/07-register.sol\":999:1025  return contracts[_nameKey] */\n      mload(0x40)\n      dup1\n      0x60\n      add\n      0x40\n      mstore\n      swap1\n      dup2\n      0x00\n      dup3\n      add\n      0x00\n      swap1\n      sload\n      swap1\n      0x0100\n      exp\n      swap1\n      div\n      0xffffffffffffffffffffffffffffffffffffffff\n      and\n      0xffffffffffffffffffffffffffffffffffffffff\n      and\n      0xffffffffffffffffffffffffffffffffffffffff\n      and\n      dup2\n      mstore\n      0x20\n      add\n      0x01\n      dup3\n      add\n      0x00\n      swap1\n      sload\n      swap1\n      0x0100\n      exp\n      swap1\n      div\n      0xffffffffffffffffffffffffffffffffffffffff\n      and\n      0xffffffffffffffffffffffffffffffffffffffff\n      and\n      0xffffffffffffffffffffffffffffffffffffffff\n      and\n      dup2\n      mstore\n      0x20\n      add\n      0x02\n      dup3\n      add\n      dup1\n      sload\n      tag_32\n      swap1\n      tag_33\n      jump\t// in\n    tag_32:\n      dup1\n      0x1f\n      add\n      0x20\n      dup1\n      swap2\n      div\n      mul\n      0x20\n      add\n      mload(0x40)\n      swap1\n      dup2\n      add\n      0x40\n      mstore\n      dup1\n      swap3\n      swap2\n      swap1\n      dup2\n      dup2\n      mstore\n      0x20\n      add\n      dup3\n      dup1\n      sload\n      tag_34\n      swap1\n      tag_33\n      jump\t// in\n    tag_34:\n      dup1\n      iszero\n      tag_35\n      jumpi\n      dup1\n      0x1f\n      lt\n      tag_36\n      jumpi\n      0x0100\n      dup1\n      dup4\n      sload\n      div\n      mul\n      dup4\n      mstore\n      swap2\n      0x20\n      add\n      swap2\n      jump(tag_35)\n    tag_36:\n      dup3\n      add\n      swap2\n      swap1\n      0x00\n      mstore\n      keccak256(0x00, 0x20)\n      swap1\n    tag_37:\n      dup2\n      sload\n      dup2\n      mstore\n      swap1\n      0x01\n      add\n      swap1\n      0x20\n      add\n      dup1\n      dup4\n      gt\n      tag_37\n      jumpi\n      dup3\n      swap1\n      sub\n      0x1f\n      and\n      dup3\n      add\n      swap2\n    tag_35:\n      pop\n      pop\n      pop\n      pop\n      pop\n      dup2\n      mstore\n      pop\n      pop\n      swap1\n      pop\n        /* \"test/07-register.sol\":908:1033  function getInfo(string memory _nameKey) public view returns(ContratInfo memory){\r... */\n      swap2\n      swap1\n      pop\n      jump\t// out\n    tag_23:\n      dup3\n      dup1\n      sload\n      tag_38\n      swap1\n      tag_33\n      jump\t// in\n    tag_38:\n      swap1\n      0x00\n      mstore\n      keccak256(0x00, 0x20)\n      swap1\n      0x1f\n      add\n      0x20\n      swap1\n      div\n      dup2\n      add\n      swap3\n      dup3\n      tag_40\n      jumpi\n      0x00\n      dup6\n      sstore\n      jump(tag_39)\n    tag_40:\n      dup3\n      0x1f\n      lt\n      tag_41\n      jumpi\n      dup1\n      mload\n      not(0xff)\n      and\n      dup4\n      dup1\n      add\n      or\n      dup6\n      sstore\n      jump(tag_39)\n    tag_41:\n      dup3\n      dup1\n      add\n      0x01\n      add\n      dup6\n      sstore\n      dup3\n      iszero\n      tag_39\n      jumpi\n      swap2\n      dup3\n      add\n    tag_42:\n      dup3\n      dup2\n      gt\n      iszero\n      tag_43\n      jumpi\n      dup3\n      mload\n      dup3\n      sstore\n      swap2\n      0x20\n      add\n      swap2\n      swap1\n      0x01\n      add\n      swap1\n      jump(tag_42)\n    tag_43:\n    tag_39:\n      pop\n      swap1\n      pop\n      tag_44\n      swap2\n      swap1\n      tag_45\n      jump\t// in\n    tag_44:\n      pop\n      swap1\n      jump\t// out\n    tag_29:\n      mload(0x40)\n      dup1\n      0x60\n      add\n      0x40\n      mstore\n      dup1\n      and(0xffffffffffffffffffffffffffffffffffffffff, 0x00)\n      dup2\n      mstore\n      0x20\n      add\n      and(0xffffffffffffffffffffffffffffffffffffffff, 0x00)\n      dup2\n      mstore\n      0x20\n      add\n      0x60\n      dup2\n      mstore\n      pop\n      swap1\n      jump\t// out\n    tag_45:\n    tag_46:\n      dup1\n      dup3\n      gt\n      iszero\n      tag_47\n      jumpi\n      0x00\n      dup2\n      0x00\n      swap1\n      sstore\n      pop\n      0x01\n      add\n      jump(tag_46)\n    tag_47:\n      pop\n      swap1\n      jump\t// out\n        /* \"#utility.yul\":7:419   */\n    tag_49:\n        /* \"#utility.yul\":85:90   */\n      0x00\n        /* \"#utility.yul\":110:176   */\n      tag_51\n        /* \"#utility.yul\":126:175   */\n      tag_52\n        /* \"#utility.yul\":168:174   */\n      dup5\n        /* \"#utility.yul\":126:175   */\n      tag_53\n      jump\t// in\n    tag_52:\n        /* \"#utility.yul\":110:176   */\n      tag_54\n      jump\t// in\n    tag_51:\n        /* \"#utility.yul\":101:176   */\n      swap1\n      pop\n        /* \"#utility.yul\":199:205   */\n      dup3\n        /* \"#utility.yul\":192:197   */\n      dup2\n        /* \"#utility.yul\":185:206   */\n      mstore\n        /* \"#utility.yul\":237:241   */\n      0x20\n        /* \"#utility.yul\":230:235   */\n      dup2\n        /* \"#utility.yul\":226:242   */\n      add\n        /* \"#utility.yul\":275:278   */\n      dup5\n        /* \"#utility.yul\":266:272   */\n      dup5\n        /* \"#utility.yul\":261:264   */\n      dup5\n        /* \"#utility.yul\":257:273   */\n      add\n        /* \"#utility.yul\":254:279   */\n      gt\n        /* \"#utility.yul\":251:363   */\n      iszero\n      tag_55\n      jumpi\n        /* \"#utility.yul\":282:361   */\n      tag_56\n      tag_57\n      jump\t// in\n    tag_56:\n        /* \"#utility.yul\":251:363   */\n    tag_55:\n        /* \"#utility.yul\":372:413   */\n      tag_58\n        /* \"#utility.yul\":406:412   */\n      dup5\n        /* \"#utility.yul\":401:404   */\n      dup3\n        /* \"#utility.yul\":396:399   */\n      dup6\n        /* \"#utility.yul\":372:413   */\n      tag_59\n      jump\t// in\n    tag_58:\n        /* \"#utility.yul\":91:419   */\n      pop\n        /* \"#utility.yul\":7:419   */\n      swap4\n      swap3\n      pop\n      pop\n      pop\n      jump\t// out\n        /* \"#utility.yul\":425:564   */\n    tag_60:\n        /* \"#utility.yul\":471:476   */\n      0x00\n        /* \"#utility.yul\":509:515   */\n      dup2\n        /* \"#utility.yul\":496:516   */\n      calldataload\n        /* \"#utility.yul\":487:516   */\n      swap1\n      pop\n        /* \"#utility.yul\":525:558   */\n      tag_62\n        /* \"#utility.yul\":552:557   */\n      dup2\n        /* \"#utility.yul\":525:558   */\n      tag_63\n      jump\t// in\n    tag_62:\n        /* \"#utility.yul\":425:564   */\n      swap3\n      swap2\n      pop\n      pop\n      jump\t// out\n        /* \"#utility.yul\":584:924   */\n    tag_64:\n        /* \"#utility.yul\":640:645   */\n      0x00\n        /* \"#utility.yul\":689:692   */\n      dup3\n        /* \"#utility.yul\":682:686   */\n      0x1f\n        /* \"#utility.yul\":674:680   */\n      dup4\n        /* \"#utility.yul\":670:687   */\n      add\n        /* \"#utility.yul\":666:693   */\n      slt\n        /* \"#utility.yul\":656:778   */\n      tag_66\n      jumpi\n        /* \"#utility.yul\":697:776   */\n      tag_67\n      tag_68\n      jump\t// in\n    tag_67:\n        /* \"#utility.yul\":656:778   */\n    tag_66:\n        /* \"#utility.yul\":814:820   */\n      dup2\n        /* \"#utility.yul\":801:821   */\n      calldataload\n        /* \"#utility.yul\":839:918   */\n      tag_69\n        /* \"#utility.yul\":914:917   */\n      dup5\n        /* \"#utility.yul\":906:912   */\n      dup3\n        /* \"#utility.yul\":899:903   */\n      0x20\n        /* \"#utility.yul\":891:897   */\n      dup7\n        /* \"#utility.yul\":887:904   */\n      add\n        /* \"#utility.yul\":839:918   */\n      tag_49\n      jump\t// in\n    tag_69:\n        /* \"#utility.yul\":830:918   */\n      swap2\n      pop\n        /* \"#utility.yul\":646:924   */\n      pop\n        /* \"#utility.yul\":584:924   */\n      swap3\n      swap2\n      pop\n      pop\n      jump\t// out\n        /* \"#utility.yul\":930:1439   */\n    tag_11:\n        /* \"#utility.yul\":999:1005   */\n      0x00\n        /* \"#utility.yul\":1048:1050   */\n      0x20\n        /* \"#utility.yul\":1036:1045   */\n      dup3\n        /* \"#utility.yul\":1027:1034   */\n      dup5\n        /* \"#utility.yul\":1023:1046   */\n      sub\n        /* \"#utility.yul\":1019:1051   */\n      slt\n        /* \"#utility.yul\":1016:1135   */\n      iszero\n      tag_71\n      jumpi\n        /* \"#utility.yul\":1054:1133   */\n      tag_72\n      tag_73\n      jump\t// in\n    tag_72:\n        /* \"#utility.yul\":1016:1135   */\n    tag_71:\n        /* \"#utility.yul\":1202:1203   */\n      0x00\n        /* \"#utility.yul\":1191:1200   */\n      dup3\n        /* \"#utility.yul\":1187:1204   */\n      add\n        /* \"#utility.yul\":1174:1205   */\n      calldataload\n        /* \"#utility.yul\":1232:1250   */\n      0xffffffffffffffff\n        /* \"#utility.yul\":1224:1230   */\n      dup2\n        /* \"#utility.yul\":1221:1251   */\n      gt\n        /* \"#utility.yul\":1218:1335   */\n      iszero\n      tag_74\n      jumpi\n        /* \"#utility.yul\":1254:1333   */\n      tag_75\n      tag_76\n      jump\t// in\n    tag_75:\n        /* \"#utility.yul\":1218:1335   */\n    tag_74:\n        /* \"#utility.yul\":1359:1422   */\n      tag_77\n        /* \"#utility.yul\":1414:1421   */\n      dup5\n        /* \"#utility.yul\":1405:1411   */\n      dup3\n        /* \"#utility.yul\":1394:1403   */\n      dup6\n        /* \"#utility.yul\":1390:1412   */\n      add\n        /* \"#utility.yul\":1359:1422   */\n      tag_64\n      jump\t// in\n    tag_77:\n        /* \"#utility.yul\":1349:1422   */\n      swap2\n      pop\n        /* \"#utility.yul\":1145:1432   */\n      pop\n        /* \"#utility.yul\":930:1439   */\n      swap3\n      swap2\n      pop\n      pop\n      jump\t// out\n        /* \"#utility.yul\":1445:2424   */\n    tag_7:\n        /* \"#utility.yul\":1542:1548   */\n      0x00\n        /* \"#utility.yul\":1550:1556   */\n      dup1\n        /* \"#utility.yul\":1558:1564   */\n      0x00\n        /* \"#utility.yul\":1607:1609   */\n      0x60\n        /* \"#utility.yul\":1595:1604   */\n      dup5\n        /* \"#utility.yul\":1586:1593   */\n      dup7\n        /* \"#utility.yul\":1582:1605   */\n      sub\n        /* \"#utility.yul\":1578:1610   */\n      slt\n        /* \"#utility.yul\":1575:1694   */\n      iszero\n      tag_79\n      jumpi\n        /* \"#utility.yul\":1613:1692   */\n      tag_80\n      tag_73\n      jump\t// in\n    tag_80:\n        /* \"#utility.yul\":1575:1694   */\n    tag_79:\n        /* \"#utility.yul\":1761:1762   */\n      0x00\n        /* \"#utility.yul\":1750:1759   */\n      dup5\n        /* \"#utility.yul\":1746:1763   */\n      add\n        /* \"#utility.yul\":1733:1764   */\n      calldataload\n        /* \"#utility.yul\":1791:1809   */\n      0xffffffffffffffff\n        /* \"#utility.yul\":1783:1789   */\n      dup2\n        /* \"#utility.yul\":1780:1810   */\n      gt\n        /* \"#utility.yul\":1777:1894   */\n      iszero\n      tag_81\n      jumpi\n        /* \"#utility.yul\":1813:1892   */\n      tag_82\n      tag_76\n      jump\t// in\n    tag_82:\n        /* \"#utility.yul\":1777:1894   */\n    tag_81:\n        /* \"#utility.yul\":1918:1981   */\n      tag_83\n        /* \"#utility.yul\":1973:1980   */\n      dup7\n        /* \"#utility.yul\":1964:1970   */\n      dup3\n        /* \"#utility.yul\":1953:1962   */\n      dup8\n        /* \"#utility.yul\":1949:1971   */\n      add\n        /* \"#utility.yul\":1918:1981   */\n      tag_64\n      jump\t// in\n    tag_83:\n        /* \"#utility.yul\":1908:1981   */\n      swap4\n      pop\n        /* \"#utility.yul\":1704:1991   */\n      pop\n        /* \"#utility.yul\":2030:2032   */\n      0x20\n        /* \"#utility.yul\":2056:2109   */\n      tag_84\n        /* \"#utility.yul\":2101:2108   */\n      dup7\n        /* \"#utility.yul\":2092:2098   */\n      dup3\n        /* \"#utility.yul\":2081:2090   */\n      dup8\n        /* \"#utility.yul\":2077:2099   */\n      add\n        /* \"#utility.yul\":2056:2109   */\n      tag_60\n      jump\t// in\n    tag_84:\n        /* \"#utility.yul\":2046:2109   */\n      swap3\n      pop\n        /* \"#utility.yul\":2001:2119   */\n      pop\n        /* \"#utility.yul\":2186:2188   */\n      0x40\n        /* \"#utility.yul\":2175:2184   */\n      dup5\n        /* \"#utility.yul\":2171:2189   */\n      add\n        /* \"#utility.yul\":2158:2190   */\n      calldataload\n        /* \"#utility.yul\":2217:2235   */\n      0xffffffffffffffff\n        /* \"#utility.yul\":2209:2215   */\n      dup2\n        /* \"#utility.yul\":2206:2236   */\n      gt\n        /* \"#utility.yul\":2203:2320   */\n      iszero\n      tag_85\n      jumpi\n        /* \"#utility.yul\":2239:2318   */\n      tag_86\n      tag_76\n      jump\t// in\n    tag_86:\n        /* \"#utility.yul\":2203:2320   */\n    tag_85:\n        /* \"#utility.yul\":2344:2407   */\n      tag_87\n        /* \"#utility.yul\":2399:2406   */\n      dup7\n        /* \"#utility.yul\":2390:2396   */\n      dup3\n        /* \"#utility.yul\":2379:2388   */\n      dup8\n        /* \"#utility.yul\":2375:2397   */\n      add\n        /* \"#utility.yul\":2344:2407   */\n      tag_64\n      jump\t// in\n    tag_87:\n        /* \"#utility.yul\":2334:2407   */\n      swap2\n      pop\n        /* \"#utility.yul\":2129:2417   */\n      pop\n        /* \"#utility.yul\":1445:2424   */\n      swap3\n      pop\n      swap3\n      pop\n      swap3\n      jump\t// out\n        /* \"#utility.yul\":2430:2538   */\n    tag_88:\n        /* \"#utility.yul\":2507:2531   */\n      tag_90\n        /* \"#utility.yul\":2525:2530   */\n      dup2\n        /* \"#utility.yul\":2507:2531   */\n      tag_91\n      jump\t// in\n    tag_90:\n        /* \"#utility.yul\":2502:2505   */\n      dup3\n        /* \"#utility.yul\":2495:2532   */\n      mstore\n        /* \"#utility.yul\":2430:2538   */\n      pop\n      pop\n      jump\t// out\n        /* \"#utility.yul\":2544:2888   */\n    tag_92:\n        /* \"#utility.yul\":2622:2625   */\n      0x00\n        /* \"#utility.yul\":2650:2689   */\n      tag_94\n        /* \"#utility.yul\":2683:2688   */\n      dup3\n        /* \"#utility.yul\":2650:2689   */\n      tag_95\n      jump\t// in\n    tag_94:\n        /* \"#utility.yul\":2705:2766   */\n      tag_96\n        /* \"#utility.yul\":2759:2765   */\n      dup2\n        /* \"#utility.yul\":2754:2757   */\n      dup6\n        /* \"#utility.yul\":2705:2766   */\n      tag_97\n      jump\t// in\n    tag_96:\n        /* \"#utility.yul\":2698:2766   */\n      swap4\n      pop\n        /* \"#utility.yul\":2775:2827   */\n      tag_98\n        /* \"#utility.yul\":2820:2826   */\n      dup2\n        /* \"#utility.yul\":2815:2818   */\n      dup6\n        /* \"#utility.yul\":2808:2812   */\n      0x20\n        /* \"#utility.yul\":2801:2806   */\n      dup7\n        /* \"#utility.yul\":2797:2813   */\n      add\n        /* \"#utility.yul\":2775:2827   */\n      tag_99\n      jump\t// in\n    tag_98:\n        /* \"#utility.yul\":2852:2881   */\n      tag_100\n        /* \"#utility.yul\":2874:2880   */\n      dup2\n        /* \"#utility.yul\":2852:2881   */\n      tag_101\n      jump\t// in\n    tag_100:\n        /* \"#utility.yul\":2847:2850   */\n      dup5\n        /* \"#utility.yul\":2843:2882   */\n      add\n        /* \"#utility.yul\":2836:2882   */\n      swap2\n      pop\n        /* \"#utility.yul\":2626:2888   */\n      pop\n        /* \"#utility.yul\":2544:2888   */\n      swap3\n      swap2\n      pop\n      pop\n      jump\t// out\n        /* \"#utility.yul\":2894:3271   */\n    tag_102:\n        /* \"#utility.yul\":3000:3003   */\n      0x00\n        /* \"#utility.yul\":3028:3067   */\n      tag_104\n        /* \"#utility.yul\":3061:3066   */\n      dup3\n        /* \"#utility.yul\":3028:3067   */\n      tag_95\n      jump\t// in\n    tag_104:\n        /* \"#utility.yul\":3083:3172   */\n      tag_105\n        /* \"#utility.yul\":3165:3171   */\n      dup2\n        /* \"#utility.yul\":3160:3163   */\n      dup6\n        /* \"#utility.yul\":3083:3172   */\n      tag_106\n      jump\t// in\n    tag_105:\n        /* \"#utility.yul\":3076:3172   */\n      swap4\n      pop\n        /* \"#utility.yul\":3181:3233   */\n      tag_107\n        /* \"#utility.yul\":3226:3232   */\n      dup2\n        /* \"#utility.yul\":3221:3224   */\n      dup6\n        /* \"#utility.yul\":3214:3218   */\n      0x20\n        /* \"#utility.yul\":3207:3212   */\n      dup7\n        /* \"#utility.yul\":3203:3219   */\n      add\n        /* \"#utility.yul\":3181:3233   */\n      tag_99\n      jump\t// in\n    tag_107:\n        /* \"#utility.yul\":3258:3264   */\n      dup1\n        /* \"#utility.yul\":3253:3256   */\n      dup5\n        /* \"#utility.yul\":3249:3265   */\n      add\n        /* \"#utility.yul\":3242:3265   */\n      swap2\n      pop\n        /* \"#utility.yul\":3004:3271   */\n      pop\n        /* \"#utility.yul\":2894:3271   */\n      swap3\n      swap2\n      pop\n      pop\n      jump\t// out\n        /* \"#utility.yul\":3325:4116   */\n    tag_108:\n        /* \"#utility.yul\":3446:3449   */\n      0x00\n        /* \"#utility.yul\":3482:3486   */\n      0x60\n        /* \"#utility.yul\":3477:3480   */\n      dup4\n        /* \"#utility.yul\":3473:3487   */\n      add\n        /* \"#utility.yul\":3572:3576   */\n      0x00\n        /* \"#utility.yul\":3565:3570   */\n      dup4\n        /* \"#utility.yul\":3561:3577   */\n      add\n        /* \"#utility.yul\":3555:3578   */\n      mload\n        /* \"#utility.yul\":3591:3654   */\n      tag_110\n        /* \"#utility.yul\":3648:3652   */\n      0x00\n        /* \"#utility.yul\":3643:3646   */\n      dup7\n        /* \"#utility.yul\":3639:3653   */\n      add\n        /* \"#utility.yul\":3625:3637   */\n      dup3\n        /* \"#utility.yul\":3591:3654   */\n      tag_88\n      jump\t// in\n    tag_110:\n        /* \"#utility.yul\":3497:3664   */\n      pop\n        /* \"#utility.yul\":3749:3753   */\n      0x20\n        /* \"#utility.yul\":3742:3747   */\n      dup4\n        /* \"#utility.yul\":3738:3754   */\n      add\n        /* \"#utility.yul\":3732:3755   */\n      mload\n        /* \"#utility.yul\":3768:3831   */\n      tag_111\n        /* \"#utility.yul\":3825:3829   */\n      0x20\n        /* \"#utility.yul\":3820:3823   */\n      dup7\n        /* \"#utility.yul\":3816:3830   */\n      add\n        /* \"#utility.yul\":3802:3814   */\n      dup3\n        /* \"#utility.yul\":3768:3831   */\n      tag_88\n      jump\t// in\n    tag_111:\n        /* \"#utility.yul\":3674:3841   */\n      pop\n        /* \"#utility.yul\":3926:3930   */\n      0x40\n        /* \"#utility.yul\":3919:3924   */\n      dup4\n        /* \"#utility.yul\":3915:3931   */\n      add\n        /* \"#utility.yul\":3909:3932   */\n      mload\n        /* \"#utility.yul\":3979:3982   */\n      dup5\n        /* \"#utility.yul\":3973:3977   */\n      dup3\n        /* \"#utility.yul\":3969:3983   */\n      sub\n        /* \"#utility.yul\":3962:3966   */\n      0x40\n        /* \"#utility.yul\":3957:3960   */\n      dup7\n        /* \"#utility.yul\":3953:3967   */\n      add\n        /* \"#utility.yul\":3946:3984   */\n      mstore\n        /* \"#utility.yul\":4005:4078   */\n      tag_112\n        /* \"#utility.yul\":4073:4077   */\n      dup3\n        /* \"#utility.yul\":4059:4071   */\n      dup3\n        /* \"#utility.yul\":4005:4078   */\n      tag_92\n      jump\t// in\n    tag_112:\n        /* \"#utility.yul\":3997:4078   */\n      swap2\n      pop\n        /* \"#utility.yul\":3851:4089   */\n      pop\n        /* \"#utility.yul\":4106:4110   */\n      dup1\n        /* \"#utility.yul\":4099:4110   */\n      swap2\n      pop\n        /* \"#utility.yul\":3451:4116   */\n      pop\n        /* \"#utility.yul\":3325:4116   */\n      swap3\n      swap2\n      pop\n      pop\n      jump\t// out\n        /* \"#utility.yul\":4122:4397   */\n    tag_17:\n        /* \"#utility.yul\":4254:4257   */\n      0x00\n        /* \"#utility.yul\":4276:4371   */\n      tag_114\n        /* \"#utility.yul\":4367:4370   */\n      dup3\n        /* \"#utility.yul\":4358:4364   */\n      dup5\n        /* \"#utility.yul\":4276:4371   */\n      tag_102\n      jump\t// in\n    tag_114:\n        /* \"#utility.yul\":4269:4371   */\n      swap2\n      pop\n        /* \"#utility.yul\":4388:4391   */\n      dup2\n        /* \"#utility.yul\":4381:4391   */\n      swap1\n      pop\n        /* \"#utility.yul\":4122:4397   */\n      swap3\n      swap2\n      pop\n      pop\n      jump\t// out\n        /* \"#utility.yul\":4403:4780   */\n    tag_14:\n        /* \"#utility.yul\":4548:4552   */\n      0x00\n        /* \"#utility.yul\":4586:4588   */\n      0x20\n        /* \"#utility.yul\":4575:4584   */\n      dup3\n        /* \"#utility.yul\":4571:4589   */\n      add\n        /* \"#utility.yul\":4563:4589   */\n      swap1\n      pop\n        /* \"#utility.yul\":4635:4644   */\n      dup2\n        /* \"#utility.yul\":4629:4633   */\n      dup2\n        /* \"#utility.yul\":4625:4645   */\n      sub\n        /* \"#utility.yul\":4621:4622   */\n      0x00\n        /* \"#utility.yul\":4610:4619   */\n      dup4\n        /* \"#utility.yul\":4606:4623   */\n      add\n        /* \"#utility.yul\":4599:4646   */\n      mstore\n        /* \"#utility.yul\":4663:4773   */\n      tag_116\n        /* \"#utility.yul\":4768:4772   */\n      dup2\n        /* \"#utility.yul\":4759:4765   */\n      dup5\n        /* \"#utility.yul\":4663:4773   */\n      tag_108\n      jump\t// in\n    tag_116:\n        /* \"#utility.yul\":4655:4773   */\n      swap1\n      pop\n        /* \"#utility.yul\":4403:4780   */\n      swap3\n      swap2\n      pop\n      pop\n      jump\t// out\n        /* \"#utility.yul\":4786:4915   */\n    tag_54:\n        /* \"#utility.yul\":4820:4826   */\n      0x00\n        /* \"#utility.yul\":4847:4867   */\n      tag_118\n      tag_119\n      jump\t// in\n    tag_118:\n        /* \"#utility.yul\":4837:4867   */\n      swap1\n      pop\n        /* \"#utility.yul\":4876:4909   */\n      tag_120\n        /* \"#utility.yul\":4904:4908   */\n      dup3\n        /* \"#utility.yul\":4896:4902   */\n      dup3\n        /* \"#utility.yul\":4876:4909   */\n      tag_121\n      jump\t// in\n    tag_120:\n        /* \"#utility.yul\":4786:4915   */\n      swap2\n      swap1\n      pop\n      jump\t// out\n        /* \"#utility.yul\":4921:4996   */\n    tag_119:\n        /* \"#utility.yul\":4954:4960   */\n      0x00\n        /* \"#utility.yul\":4987:4989   */\n      0x40\n        /* \"#utility.yul\":4981:4990   */\n      mload\n        /* \"#utility.yul\":4971:4990   */\n      swap1\n      pop\n        /* \"#utility.yul\":4921:4996   */\n      swap1\n      jump\t// out\n        /* \"#utility.yul\":5002:5310   */\n    tag_53:\n        /* \"#utility.yul\":5064:5068   */\n      0x00\n        /* \"#utility.yul\":5154:5172   */\n      0xffffffffffffffff\n        /* \"#utility.yul\":5146:5152   */\n      dup3\n        /* \"#utility.yul\":5143:5173   */\n      gt\n        /* \"#utility.yul\":5140:5196   */\n      iszero\n      tag_124\n      jumpi\n        /* \"#utility.yul\":5176:5194   */\n      tag_125\n      tag_126\n      jump\t// in\n    tag_125:\n        /* \"#utility.yul\":5140:5196   */\n    tag_124:\n        /* \"#utility.yul\":5214:5243   */\n      tag_127\n        /* \"#utility.yul\":5236:5242   */\n      dup3\n        /* \"#utility.yul\":5214:5243   */\n      tag_101\n      jump\t// in\n    tag_127:\n        /* \"#utility.yul\":5206:5243   */\n      swap1\n      pop\n        /* \"#utility.yul\":5298:5302   */\n      0x20\n        /* \"#utility.yul\":5292:5296   */\n      dup2\n        /* \"#utility.yul\":5288:5303   */\n      add\n        /* \"#utility.yul\":5280:5303   */\n      swap1\n      pop\n        /* \"#utility.yul\":5002:5310   */\n      swap2\n      swap1\n      pop\n      jump\t// out\n        /* \"#utility.yul\":5316:5415   */\n    tag_95:\n        /* \"#utility.yul\":5368:5374   */\n      0x00\n        /* \"#utility.yul\":5402:5407   */\n      dup2\n        /* \"#utility.yul\":5396:5408   */\n      mload\n        /* \"#utility.yul\":5386:5408   */\n      swap1\n      pop\n        /* \"#utility.yul\":5316:5415   */\n      swap2\n      swap1\n      pop\n      jump\t// out\n        /* \"#utility.yul\":5421:5580   */\n    tag_97:\n        /* \"#utility.yul\":5495:5506   */\n      0x00\n        /* \"#utility.yul\":5529:5535   */\n      dup3\n        /* \"#utility.yul\":5524:5527   */\n      dup3\n        /* \"#utility.yul\":5517:5536   */\n      mstore\n        /* \"#utility.yul\":5569:5573   */\n      0x20\n        /* \"#utility.yul\":5564:5567   */\n      dup3\n        /* \"#utility.yul\":5560:5574   */\n      add\n        /* \"#utility.yul\":5545:5574   */\n      swap1\n      pop\n        /* \"#utility.yul\":5421:5580   */\n      swap3\n      swap2\n      pop\n      pop\n      jump\t// out\n        /* \"#utility.yul\":5586:5734   */\n    tag_106:\n        /* \"#utility.yul\":5688:5699   */\n      0x00\n        /* \"#utility.yul\":5725:5728   */\n      dup2\n        /* \"#utility.yul\":5710:5728   */\n      swap1\n      pop\n        /* \"#utility.yul\":5586:5734   */\n      swap3\n      swap2\n      pop\n      pop\n      jump\t// out\n        /* \"#utility.yul\":5740:5836   */\n    tag_91:\n        /* \"#utility.yul\":5777:5784   */\n      0x00\n        /* \"#utility.yul\":5806:5830   */\n      tag_132\n        /* \"#utility.yul\":5824:5829   */\n      dup3\n        /* \"#utility.yul\":5806:5830   */\n      tag_133\n      jump\t// in\n    tag_132:\n        /* \"#utility.yul\":5795:5830   */\n      swap1\n      pop\n        /* \"#utility.yul\":5740:5836   */\n      swap2\n      swap1\n      pop\n      jump\t// out\n        /* \"#utility.yul\":5842:5968   */\n    tag_133:\n        /* \"#utility.yul\":5879:5886   */\n      0x00\n        /* \"#utility.yul\":5919:5961   */\n      0xffffffffffffffffffffffffffffffffffffffff\n        /* \"#utility.yul\":5912:5917   */\n      dup3\n        /* \"#utility.yul\":5908:5962   */\n      and\n        /* \"#utility.yul\":5897:5962   */\n      swap1\n      pop\n        /* \"#utility.yul\":5842:5968   */\n      swap2\n      swap1\n      pop\n      jump\t// out\n        /* \"#utility.yul\":5974:6128   */\n    tag_59:\n        /* \"#utility.yul\":6058:6064   */\n      dup3\n        /* \"#utility.yul\":6053:6056   */\n      dup2\n        /* \"#utility.yul\":6048:6051   */\n      dup4\n        /* \"#utility.yul\":6035:6065   */\n      calldatacopy\n        /* \"#utility.yul\":6120:6121   */\n      0x00\n        /* \"#utility.yul\":6111:6117   */\n      dup4\n        /* \"#utility.yul\":6106:6109   */\n      dup4\n        /* \"#utility.yul\":6102:6118   */\n      add\n        /* \"#utility.yul\":6095:6122   */\n      mstore\n        /* \"#utility.yul\":5974:6128   */\n      pop\n      pop\n      pop\n      jump\t// out\n        /* \"#utility.yul\":6134:6441   */\n    tag_99:\n        /* \"#utility.yul\":6202:6203   */\n      0x00\n        /* \"#utility.yul\":6212:6325   */\n    tag_137:\n        /* \"#utility.yul\":6226:6232   */\n      dup4\n        /* \"#utility.yul\":6223:6224   */\n      dup2\n        /* \"#utility.yul\":6220:6233   */\n      lt\n        /* \"#utility.yul\":6212:6325   */\n      iszero\n      tag_139\n      jumpi\n        /* \"#utility.yul\":6311:6312   */\n      dup1\n        /* \"#utility.yul\":6306:6309   */\n      dup3\n        /* \"#utility.yul\":6302:6313   */\n      add\n        /* \"#utility.yul\":6296:6314   */\n      mload\n        /* \"#utility.yul\":6292:6293   */\n      dup2\n        /* \"#utility.yul\":6287:6290   */\n      dup5\n        /* \"#utility.yul\":6283:6294   */\n      add\n        /* \"#utility.yul\":6276:6315   */\n      mstore\n        /* \"#utility.yul\":6248:6250   */\n      0x20\n        /* \"#utility.yul\":6245:6246   */\n      dup2\n        /* \"#utility.yul\":6241:6251   */\n      add\n        /* \"#utility.yul\":6236:6251   */\n      swap1\n      pop\n        /* \"#utility.yul\":6212:6325   */\n      jump(tag_137)\n    tag_139:\n        /* \"#utility.yul\":6343:6349   */\n      dup4\n        /* \"#utility.yul\":6340:6341   */\n      dup2\n        /* \"#utility.yul\":6337:6350   */\n      gt\n        /* \"#utility.yul\":6334:6435   */\n      iszero\n      tag_140\n      jumpi\n        /* \"#utility.yul\":6423:6424   */\n      0x00\n        /* \"#utility.yul\":6414:6420   */\n      dup5\n        /* \"#utility.yul\":6409:6412   */\n      dup5\n        /* \"#utility.yul\":6405:6421   */\n      add\n        /* \"#utility.yul\":6398:6425   */\n      mstore\n        /* \"#utility.yul\":6334:6435   */\n    tag_140:\n        /* \"#utility.yul\":6183:6441   */\n      pop\n        /* \"#utility.yul\":6134:6441   */\n      pop\n      pop\n      pop\n      jump\t// out\n        /* \"#utility.yul\":6447:6767   */\n    tag_33:\n        /* \"#utility.yul\":6491:6497   */\n      0x00\n        /* \"#utility.yul\":6528:6529   */\n      0x02\n        /* \"#utility.yul\":6522:6526   */\n      dup3\n        /* \"#utility.yul\":6518:6530   */\n      div\n        /* \"#utility.yul\":6508:6530   */\n      swap1\n      pop\n        /* \"#utility.yul\":6575:6576   */\n      0x01\n        /* \"#utility.yul\":6569:6573   */\n      dup3\n        /* \"#utility.yul\":6565:6577   */\n      and\n        /* \"#utility.yul\":6596:6614   */\n      dup1\n        /* \"#utility.yul\":6586:6667   */\n      tag_142\n      jumpi\n        /* \"#utility.yul\":6652:6656   */\n      0x7f\n        /* \"#utility.yul\":6644:6650   */\n      dup3\n        /* \"#utility.yul\":6640:6657   */\n      and\n        /* \"#utility.yul\":6630:6657   */\n      swap2\n      pop\n        /* \"#utility.yul\":6586:6667   */\n    tag_142:\n        /* \"#utility.yul\":6714:6716   */\n      0x20\n        /* \"#utility.yul\":6706:6712   */\n      dup3\n        /* \"#utility.yul\":6703:6717   */\n      lt\n        /* \"#utility.yul\":6683:6701   */\n      dup2\n        /* \"#utility.yul\":6680:6718   */\n      eq\n        /* \"#utility.yul\":6677:6761   */\n      iszero\n      tag_143\n      jumpi\n        /* \"#utility.yul\":6733:6751   */\n      tag_144\n      tag_145\n      jump\t// in\n    tag_144:\n        /* \"#utility.yul\":6677:6761   */\n    tag_143:\n        /* \"#utility.yul\":6498:6767   */\n      pop\n        /* \"#utility.yul\":6447:6767   */\n      swap2\n      swap1\n      pop\n      jump\t// out\n        /* \"#utility.yul\":6773:7054   */\n    tag_121:\n        /* \"#utility.yul\":6856:6883   */\n      tag_147\n        /* \"#utility.yul\":6878:6882   */\n      dup3\n        /* \"#utility.yul\":6856:6883   */\n      tag_101\n      jump\t// in\n    tag_147:\n        /* \"#utility.yul\":6848:6854   */\n      dup2\n        /* \"#utility.yul\":6844:6884   */\n      add\n        /* \"#utility.yul\":6986:6992   */\n      dup2\n        /* \"#utility.yul\":6974:6984   */\n      dup2\n        /* \"#utility.yul\":6971:6993   */\n      lt\n        /* \"#utility.yul\":6950:6968   */\n      0xffffffffffffffff\n        /* \"#utility.yul\":6938:6948   */\n      dup3\n        /* \"#utility.yul\":6935:6969   */\n      gt\n        /* \"#utility.yul\":6932:6994   */\n      or\n        /* \"#utility.yul\":6929:7017   */\n      iszero\n      tag_148\n      jumpi\n        /* \"#utility.yul\":6997:7015   */\n      tag_149\n      tag_126\n      jump\t// in\n    tag_149:\n        /* \"#utility.yul\":6929:7017   */\n    tag_148:\n        /* \"#utility.yul\":7037:7047   */\n      dup1\n        /* \"#utility.yul\":7033:7035   */\n      0x40\n        /* \"#utility.yul\":7026:7048   */\n      mstore\n        /* \"#utility.yul\":6816:7054   */\n      pop\n        /* \"#utility.yul\":6773:7054   */\n      pop\n      pop\n      jump\t// out\n        /* \"#utility.yul\":7060:7240   */\n    tag_145:\n        /* \"#utility.yul\":7108:7185   */\n      0x4e487b7100000000000000000000000000000000000000000000000000000000\n        /* \"#utility.yul\":7105:7106   */\n      0x00\n        /* \"#utility.yul\":7098:7186   */\n      mstore\n        /* \"#utility.yul\":7205:7209   */\n      0x22\n        /* \"#utility.yul\":7202:7203   */\n      0x04\n        /* \"#utility.yul\":7195:7210   */\n      mstore\n        /* \"#utility.yul\":7229:7233   */\n      0x24\n        /* \"#utility.yul\":7226:7227   */\n      0x00\n        /* \"#utility.yul\":7219:7234   */\n      revert\n        /* \"#utility.yul\":7246:7426   */\n    tag_126:\n        /* \"#utility.yul\":7294:7371   */\n      0x4e487b7100000000000000000000000000000000000000000000000000000000\n        /* \"#utility.yul\":7291:7292   */\n      0x00\n        /* \"#utility.yul\":7284:7372   */\n      mstore\n        /* \"#utility.yul\":7391:7395   */\n      0x41\n        /* \"#utility.yul\":7388:7389   */\n      0x04\n        /* \"#utility.yul\":7381:7396   */\n      mstore\n        /* \"#utility.yul\":7415:7419   */\n      0x24\n        /* \"#utility.yul\":7412:7413   */\n      0x00\n        /* \"#utility.yul\":7405:7420   */\n      revert\n        /* \"#utility.yul\":7432:7549   */\n    tag_68:\n        /* \"#utility.yul\":7541:7542   */\n      0x00\n        /* \"#utility.yul\":7538:7539   */\n      dup1\n        /* \"#utility.yul\":7531:7543   */\n      revert\n        /* \"#utility.yul\":7555:7672   */\n    tag_57:\n        /* \"#utility.yul\":7664:7665   */\n      0x00\n        /* \"#utility.yul\":7661:7662   */\n      dup1\n        /* \"#utility.yul\":7654:7666   */\n      revert\n        /* \"#utility.yul\":7678:7795   */\n    tag_76:\n        /* \"#utility.yul\":7787:7788   */\n      0x00\n        /* \"#utility.yul\":7784:7785   */\n      dup1\n        /* \"#utility.yul\":7777:7789   */\n      revert\n        /* \"#utility.yul\":7801:7918   */\n    tag_73:\n        /* \"#utility.yul\":7910:7911   */\n      0x00\n        /* \"#utility.yul\":7907:7908   */\n      dup1\n        /* \"#utility.yul\":7900:7912   */\n      revert\n        /* \"#utility.yul\":7924:8026   */\n    tag_101:\n        /* \"#utility.yul\":7965:7971   */\n      0x00\n        /* \"#utility.yul\":8016:8018   */\n      0x1f\n        /* \"#utility.yul\":8012:8019   */\n      not\n        /* \"#utility.yul\":8007:8009   */\n      0x1f\n        /* \"#utility.yul\":8000:8005   */\n      dup4\n        /* \"#utility.yul\":7996:8010   */\n      add\n        /* \"#utility.yul\":7992:8020   */\n      and\n        /* \"#utility.yul\":7982:8020   */\n      swap1\n      pop\n        /* \"#utility.yul\":7924:8026   */\n      swap2\n      swap1\n      pop\n      jump\t// out\n        /* \"#utility.yul\":8032:8154   */\n    tag_63:\n        /* \"#utility.yul\":8105:8129   */\n      tag_158\n        /* \"#utility.yul\":8123:8128   */\n      dup2\n        /* \"#utility.yul\":8105:8129   */\n      tag_91\n      jump\t// in\n    tag_158:\n        /* \"#utility.yul\":8098:8103   */\n      dup2\n        /* \"#utility.yul\":8095:8130   */\n      eq\n        /* \"#utility.yul\":8085:8148   */\n      tag_159\n      jumpi\n        /* \"#utility.yul\":8144:8145   */\n      0x00\n        /* \"#utility.yul\":8141:8142   */\n      dup1\n        /* \"#utility.yul\":8134:8146   */\n      revert\n        /* \"#utility.yul\":8085:8148   */\n    tag_159:\n        /* \"#utility.yul\":8032:8154   */\n      pop\n      jump\t// out\n\n    auxdata: 0xa2646970667358221220cf907633f6530911092b10cf89621e253764c3747b526ed5f343a6a30da8216864736f6c63430008070033\n}\n",
				"bytecode": {
					"linkReferences": {},
					"object": "608060405234801561001057600080fd5b5033600160006101000a81548173ffffffffffffffffffffffffffffffffffffffff021916908373ffffffffffffffffffffffffffffffffffffffff160217905550610979806100616000396000f3fe608060405234801561001057600080fd5b50600436106100365760003560e01c80637d6929e01461003b5780637ee005ab14610057575b600080fd5b610055600480360381019061005091906105c8565b610087565b005b610071600480360381019061006c919061057f565b610294565b60405161007e9190610733565b60405180910390f35b600073ffffffffffffffffffffffffffffffffffffffff166000846040516100af919061071c565b908152602001604051809103902060010160009054906101000a900473ffffffffffffffffffffffffffffffffffffffff1673ffffffffffffffffffffffffffffffffffffffff1614156101f8573360008460405161010e919061071c565b908152602001604051809103902060000160006101000a81548173ffffffffffffffffffffffffffffffffffffffff021916908373ffffffffffffffffffffffffffffffffffffffff1602179055508160008460405161016e919061071c565b908152602001604051809103902060010160006101000a81548173ffffffffffffffffffffffffffffffffffffffff021916908373ffffffffffffffffffffffffffffffffffffffff160217905550806000846040516101ce919061071c565b908152602001604051809103902060020190805190602001906101f292919061040a565b5061028f565b81600084604051610209919061071c565b908152602001604051809103902060010160006101000a81548173ffffffffffffffffffffffffffffffffffffffff021916908373ffffffffffffffffffffffffffffffffffffffff16021790555080600084604051610269919061071c565b9081526020016040518091039020600201908051906020019061028d92919061040a565b505b505050565b61029c610490565b6000826040516102ac919061071c565b90815260200160405180910390206040518060600160405290816000820160009054906101000a900473ffffffffffffffffffffffffffffffffffffffff1673ffffffffffffffffffffffffffffffffffffffff1673ffffffffffffffffffffffffffffffffffffffff1681526020016001820160009054906101000a900473ffffffffffffffffffffffffffffffffffffffff1673ffffffffffffffffffffffffffffffffffffffff1673ffffffffffffffffffffffffffffffffffffffff16815260200160028201805461038190610846565b80601f01602080910402602001604051908101604052809291908181526020018280546103ad90610846565b80156103fa5780601f106103cf576101008083540402835291602001916103fa565b820191906000526020600020905b8154815290600101906020018083116103dd57829003601f168201915b5050505050815250509050919050565b82805461041690610846565b90600052602060002090601f016020900481019282610438576000855561047f565b82601f1061045157805160ff191683800117855561047f565b8280016001018555821561047f579182015b8281111561047e578251825591602001919060010190610463565b5b50905061048c91906104dd565b5090565b6040518060600160405280600073ffffffffffffffffffffffffffffffffffffffff168152602001600073ffffffffffffffffffffffffffffffffffffffff168152602001606081525090565b5b808211156104f65760008160009055506001016104de565b5090565b600061050d6105088461077a565b610755565b9050828152602081018484840111156105295761052861090c565b5b610534848285610804565b509392505050565b60008135905061054b8161092c565b92915050565b600082601f83011261056657610565610907565b5b81356105768482602086016104fa565b91505092915050565b60006020828403121561059557610594610916565b5b600082013567ffffffffffffffff8111156105b3576105b2610911565b5b6105bf84828501610551565b91505092915050565b6000806000606084860312156105e1576105e0610916565b5b600084013567ffffffffffffffff8111156105ff576105fe610911565b5b61060b86828701610551565b935050602061061c8682870161053c565b925050604084013567ffffffffffffffff81111561063d5761063c610911565b5b61064986828701610551565b9150509250925092565b61065c816107d2565b82525050565b600061066d826107ab565b61067781856107b6565b9350610687818560208601610813565b6106908161091b565b840191505092915050565b60006106a6826107ab565b6106b081856107c7565b93506106c0818560208601610813565b80840191505092915050565b60006060830160008301516106e46000860182610653565b5060208301516106f76020860182610653565b506040830151848203604086015261070f8282610662565b9150508091505092915050565b6000610728828461069b565b915081905092915050565b6000602082019050818103600083015261074d81846106cc565b905092915050565b600061075f610770565b905061076b8282610878565b919050565b6000604051905090565b600067ffffffffffffffff821115610795576107946108d8565b5b61079e8261091b565b9050602081019050919050565b600081519050919050565b600082825260208201905092915050565b600081905092915050565b60006107dd826107e4565b9050919050565b600073ffffffffffffffffffffffffffffffffffffffff82169050919050565b82818337600083830152505050565b60005b83811015610831578082015181840152602081019050610816565b83811115610840576000848401525b50505050565b6000600282049050600182168061085e57607f821691505b60208210811415610872576108716108a9565b5b50919050565b6108818261091b565b810181811067ffffffffffffffff821117156108a05761089f6108d8565b5b80604052505050565b7f4e487b7100000000000000000000000000000000000000000000000000000000600052602260045260246000fd5b7f4e487b7100000000000000000000000000000000000000000000000000000000600052604160045260246000fd5b600080fd5b600080fd5b600080fd5b600080fd5b6000601f19601f8301169050919050565b610935816107d2565b811461094057600080fd5b5056fea2646970667358221220cf907633f6530911092b10cf89621e253764c3747b526ed5f343a6a30da8216864736f6c63430008070033",
					"opcodes": "PUSH1 0x80 PUSH1 0x40 MSTORE CALLVALUE DUP1 ISZERO PUSH2 0x10 JUMPI PUSH1 0x0 DUP1 REVERT JUMPDEST POP CALLER PUSH1 0x1 PUSH1 0x0 PUSH2 0x100 EXP DUP2 SLOAD DUP2 PUSH20 0xFFFFFFFFFFFFFFFFFFFFFFFFFFFFFFFFFFFFFFFF MUL NOT AND SWAP1 DUP4 PUSH20 0xFFFFFFFFFFFFFFFFFFFFFFFFFFFFFFFFFFFFFFFF AND MUL OR SWAP1 SSTORE POP PUSH2 0x979 DUP1 PUSH2 0x61 PUSH1 0x0 CODECOPY PUSH1 0x0 RETURN INVALID PUSH1 0x80 PUSH1 0x40 MSTORE CALLVALUE DUP1 ISZERO PUSH2 0x10 JUMPI PUSH1 0x0 DUP1 REVERT JUMPDEST POP PUSH1 0x4 CALLDATASIZE LT PUSH2 0x36 JUMPI PUSH1 0x0 CALLDATALOAD PUSH1 0xE0 SHR DUP1 PUSH4 0x7D6929E0 EQ PUSH2 0x3B JUMPI DUP1 PUSH4 0x7EE005AB EQ PUSH2 0x57 JUMPI JUMPDEST PUSH1 0x0 DUP1 REVERT JUMPDEST PUSH2 0x55 PUSH1 0x4 DUP1 CALLDATASIZE SUB DUP2 ADD SWAP1 PUSH2 0x50 SWAP2 SWAP1 PUSH2 0x5C8 JUMP JUMPDEST PUSH2 0x87 JUMP JUMPDEST STOP JUMPDEST PUSH2 0x71 PUSH1 0x4 DUP1 CALLDATASIZE SUB DUP2 ADD SWAP1 PUSH2 0x6C SWAP2 SWAP1 PUSH2 0x57F JUMP JUMPDEST PUSH2 0x294 JUMP JUMPDEST PUSH1 0x40 MLOAD PUSH2 0x7E SWAP2 SWAP1 PUSH2 0x733 JUMP JUMPDEST PUSH1 0x40 MLOAD DUP1 SWAP2 SUB SWAP1 RETURN JUMPDEST PUSH1 0x0 PUSH20 0xFFFFFFFFFFFFFFFFFFFFFFFFFFFFFFFFFFFFFFFF AND PUSH1 0x0 DUP5 PUSH1 0x40 MLOAD PUSH2 0xAF SWAP2 SWAP1 PUSH2 0x71C JUMP JUMPDEST SWAP1 DUP2 MSTORE PUSH1 0x20 ADD PUSH1 0x40 MLOAD DUP1 SWAP2 SUB SWAP1 KECCAK256 PUSH1 0x1 ADD PUSH1 0x0 SWAP1 SLOAD SWAP1 PUSH2 0x100 EXP SWAP1 DIV PUSH20 0xFFFFFFFFFFFFFFFFFFFFFFFFFFFFFFFFFFFFFFFF AND PUSH20 0xFFFFFFFFFFFFFFFFFFFFFFFFFFFFFFFFFFFFFFFF AND EQ ISZERO PUSH2 0x1F8 JUMPI CALLER PUSH1 0x0 DUP5 PUSH1 0x40 MLOAD PUSH2 0x10E SWAP2 SWAP1 PUSH2 0x71C JUMP JUMPDEST SWAP1 DUP2 MSTORE PUSH1 0x20 ADD PUSH1 0x40 MLOAD DUP1 SWAP2 SUB SWAP1 KECCAK256 PUSH1 0x0 ADD PUSH1 0x0 PUSH2 0x100 EXP DUP2 SLOAD DUP2 PUSH20 0xFFFFFFFFFFFFFFFFFFFFFFFFFFFFFFFFFFFFFFFF MUL NOT AND SWAP1 DUP4 PUSH20 0xFFFFFFFFFFFFFFFFFFFFFFFFFFFFFFFFFFFFFFFF AND MUL OR SWAP1 SSTORE POP DUP2 PUSH1 0x0 DUP5 PUSH1 0x40 MLOAD PUSH2 0x16E SWAP2 SWAP1 PUSH2 0x71C JUMP JUMPDEST SWAP1 DUP2 MSTORE PUSH1 0x20 ADD PUSH1 0x40 MLOAD DUP1 SWAP2 SUB SWAP1 KECCAK256 PUSH1 0x1 ADD PUSH1 0x0 PUSH2 0x100 EXP DUP2 SLOAD DUP2 PUSH20 0xFFFFFFFFFFFFFFFFFFFFFFFFFFFFFFFFFFFFFFFF MUL NOT AND SWAP1 DUP4 PUSH20 0xFFFFFFFFFFFFFFFFFFFFFFFFFFFFFFFFFFFFFFFF AND MUL OR SWAP1 SSTORE POP DUP1 PUSH1 0x0 DUP5 PUSH1 0x40 MLOAD PUSH2 0x1CE SWAP2 SWAP1 PUSH2 0x71C JUMP JUMPDEST SWAP1 DUP2 MSTORE PUSH1 0x20 ADD PUSH1 0x40 MLOAD DUP1 SWAP2 SUB SWAP1 KECCAK256 PUSH1 0x2 ADD SWAP1 DUP1 MLOAD SWAP1 PUSH1 0x20 ADD SWAP1 PUSH2 0x1F2 SWAP3 SWAP2 SWAP1 PUSH2 0x40A JUMP JUMPDEST POP PUSH2 0x28F JUMP JUMPDEST DUP2 PUSH1 0x0 DUP5 PUSH1 0x40 MLOAD PUSH2 0x209 SWAP2 SWAP1 PUSH2 0x71C JUMP JUMPDEST SWAP1 DUP2 MSTORE PUSH1 0x20 ADD PUSH1 0x40 MLOAD DUP1 SWAP2 SUB SWAP1 KECCAK256 PUSH1 0x1 ADD PUSH1 0x0 PUSH2 0x100 EXP DUP2 SLOAD DUP2 PUSH20 0xFFFFFFFFFFFFFFFFFFFFFFFFFFFFFFFFFFFFFFFF MUL NOT AND SWAP1 DUP4 PUSH20 0xFFFFFFFFFFFFFFFFFFFFFFFFFFFFFFFFFFFFFFFF AND MUL OR SWAP1 SSTORE POP DUP1 PUSH1 0x0 DUP5 PUSH1 0x40 MLOAD PUSH2 0x269 SWAP2 SWAP1 PUSH2 0x71C JUMP JUMPDEST SWAP1 DUP2 MSTORE PUSH1 0x20 ADD PUSH1 0x40 MLOAD DUP1 SWAP2 SUB SWAP1 KECCAK256 PUSH1 0x2 ADD SWAP1 DUP1 MLOAD SWAP1 PUSH1 0x20 ADD SWAP1 PUSH2 0x28D SWAP3 SWAP2 SWAP1 PUSH2 0x40A JUMP JUMPDEST POP JUMPDEST POP POP POP JUMP JUMPDEST PUSH2 0x29C PUSH2 0x490 JUMP JUMPDEST PUSH1 0x0 DUP3 PUSH1 0x40 MLOAD PUSH2 0x2AC SWAP2 SWAP1 PUSH2 0x71C JUMP JUMPDEST SWAP1 DUP2 MSTORE PUSH1 0x20 ADD PUSH1 0x40 MLOAD DUP1 SWAP2 SUB SWAP1 KECCAK256 PUSH1 0x40 MLOAD DUP1 PUSH1 0x60 ADD PUSH1 0x40 MSTORE SWAP1 DUP2 PUSH1 0x0 DUP3 ADD PUSH1 0x0 SWAP1 SLOAD SWAP1 PUSH2 0x100 EXP SWAP1 DIV PUSH20 0xFFFFFFFFFFFFFFFFFFFFFFFFFFFFFFFFFFFFFFFF AND PUSH20 0xFFFFFFFFFFFFFFFFFFFFFFFFFFFFFFFFFFFFFFFF AND PUSH20 0xFFFFFFFFFFFFFFFFFFFFFFFFFFFFFFFFFFFFFFFF AND DUP2 MSTORE PUSH1 0x20 ADD PUSH1 0x1 DUP3 ADD PUSH1 0x0 SWAP1 SLOAD SWAP1 PUSH2 0x100 EXP SWAP1 DIV PUSH20 0xFFFFFFFFFFFFFFFFFFFFFFFFFFFFFFFFFFFFFFFF AND PUSH20 0xFFFFFFFFFFFFFFFFFFFFFFFFFFFFFFFFFFFFFFFF AND PUSH20 0xFFFFFFFFFFFFFFFFFFFFFFFFFFFFFFFFFFFFFFFF AND DUP2 MSTORE PUSH1 0x20 ADD PUSH1 0x2 DUP3 ADD DUP1 SLOAD PUSH2 0x381 SWAP1 PUSH2 0x846 JUMP JUMPDEST DUP1 PUSH1 0x1F ADD PUSH1 0x20 DUP1 SWAP2 DIV MUL PUSH1 0x20 ADD PUSH1 0x40 MLOAD SWAP1 DUP2 ADD PUSH1 0x40 MSTORE DUP1 SWAP3 SWAP2 SWAP1 DUP2 DUP2 MSTORE PUSH1 0x20 ADD DUP3 DUP1 SLOAD PUSH2 0x3AD SWAP1 PUSH2 0x846 JUMP JUMPDEST DUP1 ISZERO PUSH2 0x3FA JUMPI DUP1 PUSH1 0x1F LT PUSH2 0x3CF JUMPI PUSH2 0x100 DUP1 DUP4 SLOAD DIV MUL DUP4 MSTORE SWAP2 PUSH1 0x20 ADD SWAP2 PUSH2 0x3FA JUMP JUMPDEST DUP3 ADD SWAP2 SWAP1 PUSH1 0x0 MSTORE PUSH1 0x20 PUSH1 0x0 KECCAK256 SWAP1 JUMPDEST DUP2 SLOAD DUP2 MSTORE SWAP1 PUSH1 0x1 ADD SWAP1 PUSH1 0x20 ADD DUP1 DUP4 GT PUSH2 0x3DD JUMPI DUP3 SWAP1 SUB PUSH1 0x1F AND DUP3 ADD SWAP2 JUMPDEST POP POP POP POP POP DUP2 MSTORE POP POP SWAP1 POP SWAP2 SWAP1 POP JUMP JUMPDEST DUP3 DUP1 SLOAD PUSH2 0x416 SWAP1 PUSH2 0x846 JUMP JUMPDEST SWAP1 PUSH1 0x0 MSTORE PUSH1 0x20 PUSH1 0x0 KECCAK256 SWAP1 PUSH1 0x1F ADD PUSH1 0x20 SWAP1 DIV DUP2 ADD SWAP3 DUP3 PUSH2 0x438 JUMPI PUSH1 0x0 DUP6 SSTORE PUSH2 0x47F JUMP JUMPDEST DUP3 PUSH1 0x1F LT PUSH2 0x451 JUMPI DUP1 MLOAD PUSH1 0xFF NOT AND DUP4 DUP1 ADD OR DUP6 SSTORE PUSH2 0x47F JUMP JUMPDEST DUP3 DUP1 ADD PUSH1 0x1 ADD DUP6 SSTORE DUP3 ISZERO PUSH2 0x47F JUMPI SWAP2 DUP3 ADD JUMPDEST DUP3 DUP2 GT ISZERO PUSH2 0x47E JUMPI DUP3 MLOAD DUP3 SSTORE SWAP2 PUSH1 0x20 ADD SWAP2 SWAP1 PUSH1 0x1 ADD SWAP1 PUSH2 0x463 JUMP JUMPDEST JUMPDEST POP SWAP1 POP PUSH2 0x48C SWAP2 SWAP1 PUSH2 0x4DD JUMP JUMPDEST POP SWAP1 JUMP JUMPDEST PUSH1 0x40 MLOAD DUP1 PUSH1 0x60 ADD PUSH1 0x40 MSTORE DUP1 PUSH1 0x0 PUSH20 0xFFFFFFFFFFFFFFFFFFFFFFFFFFFFFFFFFFFFFFFF AND DUP2 MSTORE PUSH1 0x20 ADD PUSH1 0x0 PUSH20 0xFFFFFFFFFFFFFFFFFFFFFFFFFFFFFFFFFFFFFFFF AND DUP2 MSTORE PUSH1 0x20 ADD PUSH1 0x60 DUP2 MSTORE POP SWAP1 JUMP JUMPDEST JUMPDEST DUP1 DUP3 GT ISZERO PUSH2 0x4F6 JUMPI PUSH1 0x0 DUP2 PUSH1 0x0 SWAP1 SSTORE POP PUSH1 0x1 ADD PUSH2 0x4DE JUMP JUMPDEST POP SWAP1 JUMP JUMPDEST PUSH1 0x0 PUSH2 0x50D PUSH2 0x508 DUP5 PUSH2 0x77A JUMP JUMPDEST PUSH2 0x755 JUMP JUMPDEST SWAP1 POP DUP3 DUP2 MSTORE PUSH1 0x20 DUP2 ADD DUP5 DUP5 DUP5 ADD GT ISZERO PUSH2 0x529 JUMPI PUSH2 0x528 PUSH2 0x90C JUMP JUMPDEST JUMPDEST PUSH2 0x534 DUP5 DUP3 DUP6 PUSH2 0x804 JUMP JUMPDEST POP SWAP4 SWAP3 POP POP POP JUMP JUMPDEST PUSH1 0x0 DUP2 CALLDATALOAD SWAP1 POP PUSH2 0x54B DUP2 PUSH2 0x92C JUMP JUMPDEST SWAP3 SWAP2 POP POP JUMP JUMPDEST PUSH1 0x0 DUP3 PUSH1 0x1F DUP4 ADD SLT PUSH2 0x566 JUMPI PUSH2 0x565 PUSH2 0x907 JUMP JUMPDEST JUMPDEST DUP2 CALLDATALOAD PUSH2 0x576 DUP5 DUP3 PUSH1 0x20 DUP7 ADD PUSH2 0x4FA JUMP JUMPDEST SWAP2 POP POP SWAP3 SWAP2 POP POP JUMP JUMPDEST PUSH1 0x0 PUSH1 0x20 DUP3 DUP5 SUB SLT ISZERO PUSH2 0x595 JUMPI PUSH2 0x594 PUSH2 0x916 JUMP JUMPDEST JUMPDEST PUSH1 0x0 DUP3 ADD CALLDATALOAD PUSH8 0xFFFFFFFFFFFFFFFF DUP2 GT ISZERO PUSH2 0x5B3 JUMPI PUSH2 0x5B2 PUSH2 0x911 JUMP JUMPDEST JUMPDEST PUSH2 0x5BF DUP5 DUP3 DUP6 ADD PUSH2 0x551 JUMP JUMPDEST SWAP2 POP POP SWAP3 SWAP2 POP POP JUMP JUMPDEST PUSH1 0x0 DUP1 PUSH1 0x0 PUSH1 0x60 DUP5 DUP7 SUB SLT ISZERO PUSH2 0x5E1 JUMPI PUSH2 0x5E0 PUSH2 0x916 JUMP JUMPDEST JUMPDEST PUSH1 0x0 DUP5 ADD CALLDATALOAD PUSH8 0xFFFFFFFFFFFFFFFF DUP2 GT ISZERO PUSH2 0x5FF JUMPI PUSH2 0x5FE PUSH2 0x911 JUMP JUMPDEST JUMPDEST PUSH2 0x60B DUP7 DUP3 DUP8 ADD PUSH2 0x551 JUMP JUMPDEST SWAP4 POP POP PUSH1 0x20 PUSH2 0x61C DUP7 DUP3 DUP8 ADD PUSH2 0x53C JUMP JUMPDEST SWAP3 POP POP PUSH1 0x40 DUP5 ADD CALLDATALOAD PUSH8 0xFFFFFFFFFFFFFFFF DUP2 GT ISZERO PUSH2 0x63D JUMPI PUSH2 0x63C PUSH2 0x911 JUMP JUMPDEST JUMPDEST PUSH2 0x649 DUP7 DUP3 DUP8 ADD PUSH2 0x551 JUMP JUMPDEST SWAP2 POP POP SWAP3 POP SWAP3 POP SWAP3 JUMP JUMPDEST PUSH2 0x65C DUP2 PUSH2 0x7D2 JUMP JUMPDEST DUP3 MSTORE POP POP JUMP JUMPDEST PUSH1 0x0 PUSH2 0x66D DUP3 PUSH2 0x7AB JUMP JUMPDEST PUSH2 0x677 DUP2 DUP6 PUSH2 0x7B6 JUMP JUMPDEST SWAP4 POP PUSH2 0x687 DUP2 DUP6 PUSH1 0x20 DUP7 ADD PUSH2 0x813 JUMP JUMPDEST PUSH2 0x690 DUP2 PUSH2 0x91B JUMP JUMPDEST DUP5 ADD SWAP2 POP POP SWAP3 SWAP2 POP POP JUMP JUMPDEST PUSH1 0x0 PUSH2 0x6A6 DUP3 PUSH2 0x7AB JUMP JUMPDEST PUSH2 0x6B0 DUP2 DUP6 PUSH2 0x7C7 JUMP JUMPDEST SWAP4 POP PUSH2 0x6C0 DUP2 DUP6 PUSH1 0x20 DUP7 ADD PUSH2 0x813 JUMP JUMPDEST DUP1 DUP5 ADD SWAP2 POP POP SWAP3 SWAP2 POP POP JUMP JUMPDEST PUSH1 0x0 PUSH1 0x60 DUP4 ADD PUSH1 0x0 DUP4 ADD MLOAD PUSH2 0x6E4 PUSH1 0x0 DUP7 ADD DUP3 PUSH2 0x653 JUMP JUMPDEST POP PUSH1 0x20 DUP4 ADD MLOAD PUSH2 0x6F7 PUSH1 0x20 DUP7 ADD DUP3 PUSH2 0x653 JUMP JUMPDEST POP PUSH1 0x40 DUP4 ADD MLOAD DUP5 DUP3 SUB PUSH1 0x40 DUP7 ADD MSTORE PUSH2 0x70F DUP3 DUP3 PUSH2 0x662 JUMP JUMPDEST SWAP2 POP POP DUP1 SWAP2 POP POP SWAP3 SWAP2 POP POP JUMP JUMPDEST PUSH1 0x0 PUSH2 0x728 DUP3 DUP5 PUSH2 0x69B JUMP JUMPDEST SWAP2 POP DUP2 SWAP1 POP SWAP3 SWAP2 POP POP JUMP JUMPDEST PUSH1 0x0 PUSH1 0x20 DUP3 ADD SWAP1 POP DUP2 DUP2 SUB PUSH1 0x0 DUP4 ADD MSTORE PUSH2 0x74D DUP2 DUP5 PUSH2 0x6CC JUMP JUMPDEST SWAP1 POP SWAP3 SWAP2 POP POP JUMP JUMPDEST PUSH1 0x0 PUSH2 0x75F PUSH2 0x770 JUMP JUMPDEST SWAP1 POP PUSH2 0x76B DUP3 DUP3 PUSH2 0x878 JUMP JUMPDEST SWAP2 SWAP1 POP JUMP JUMPDEST PUSH1 0x0 PUSH1 0x40 MLOAD SWAP1 POP SWAP1 JUMP JUMPDEST PUSH1 0x0 PUSH8 0xFFFFFFFFFFFFFFFF DUP3 GT ISZERO PUSH2 0x795 JUMPI PUSH2 0x794 PUSH2 0x8D8 JUMP JUMPDEST JUMPDEST PUSH2 0x79E DUP3 PUSH2 0x91B JUMP JUMPDEST SWAP1 POP PUSH1 0x20 DUP2 ADD SWAP1 POP SWAP2 SWAP1 POP JUMP JUMPDEST PUSH1 0x0 DUP2 MLOAD SWAP1 POP SWAP2 SWAP1 POP JUMP JUMPDEST PUSH1 0x0 DUP3 DUP3 MSTORE PUSH1 0x20 DUP3 ADD SWAP1 POP SWAP3 SWAP2 POP POP JUMP JUMPDEST PUSH1 0x0 DUP2 SWAP1 POP SWAP3 SWAP2 POP POP JUMP JUMPDEST PUSH1 0x0 PUSH2 0x7DD DUP3 PUSH2 0x7E4 JUMP JUMPDEST SWAP1 POP SWAP2 SWAP1 POP JUMP JUMPDEST PUSH1 0x0 PUSH20 0xFFFFFFFFFFFFFFFFFFFFFFFFFFFFFFFFFFFFFFFF DUP3 AND SWAP1 POP SWAP2 SWAP1 POP JUMP JUMPDEST DUP3 DUP2 DUP4 CALLDATACOPY PUSH1 0x0 DUP4 DUP4 ADD MSTORE POP POP POP JUMP JUMPDEST PUSH1 0x0 JUMPDEST DUP4 DUP2 LT ISZERO PUSH2 0x831 JUMPI DUP1 DUP3 ADD MLOAD DUP2 DUP5 ADD MSTORE PUSH1 0x20 DUP2 ADD SWAP1 POP PUSH2 0x816 JUMP JUMPDEST DUP4 DUP2 GT ISZERO PUSH2 0x840 JUMPI PUSH1 0x0 DUP5 DUP5 ADD MSTORE JUMPDEST POP POP POP POP JUMP JUMPDEST PUSH1 0x0 PUSH1 0x2 DUP3 DIV SWAP1 POP PUSH1 0x1 DUP3 AND DUP1 PUSH2 0x85E JUMPI PUSH1 0x7F DUP3 AND SWAP2 POP JUMPDEST PUSH1 0x20 DUP3 LT DUP2 EQ ISZERO PUSH2 0x872 JUMPI PUSH2 0x871 PUSH2 0x8A9 JUMP JUMPDEST JUMPDEST POP SWAP2 SWAP1 POP JUMP JUMPDEST PUSH2 0x881 DUP3 PUSH2 0x91B JUMP JUMPDEST DUP2 ADD DUP2 DUP2 LT PUSH8 0xFFFFFFFFFFFFFFFF DUP3 GT OR ISZERO PUSH2 0x8A0 JUMPI PUSH2 0x89F PUSH2 0x8D8 JUMP JUMPDEST JUMPDEST DUP1 PUSH1 0x40 MSTORE POP POP POP JUMP JUMPDEST PUSH32 0x4E487B7100000000000000000000000000000000000000000000000000000000 PUSH1 0x0 MSTORE PUSH1 0x22 PUSH1 0x4 MSTORE PUSH1 0x24 PUSH1 0x0 REVERT JUMPDEST PUSH32 0x4E487B7100000000000000000000000000000000000000000000000000000000 PUSH1 0x0 MSTORE PUSH1 0x41 PUSH1 0x4 MSTORE PUSH1 0x24 PUSH1 0x0 REVERT JUMPDEST PUSH1 0x0 DUP1 REVERT JUMPDEST PUSH1 0x0 DUP1 REVERT JUMPDEST PUSH1 0x0 DUP1 REVERT JUMPDEST PUSH1 0x0 DUP1 REVERT JUMPDEST PUSH1 0x0 PUSH1 0x1F NOT PUSH1 0x1F DUP4 ADD AND SWAP1 POP SWAP2 SWAP1 POP JUMP JUMPDEST PUSH2 0x935 DUP2 PUSH2 0x7D2 JUMP JUMPDEST DUP2 EQ PUSH2 0x940 JUMPI PUSH1 0x0 DUP1 REVERT JUMPDEST POP JUMP INVALID LOG2 PUSH5 0x6970667358 0x22 SLT KECCAK256 0xCF SWAP1 PUSH23 0x33F6530911092B10CF89621E253764C3747B526ED5F343 0xA6 LOG3 0xD 0xA8 0x21 PUSH9 0x64736F6C6343000807 STOP CALLER "
				},
				"gasEstimates": {
					"creation": {
						"codeDepositCost": "485000",
						"executionCost": "24784",
						"totalCost": "509784"
					},
					"external": {
						"addContract(string,address,string)": "infinite",
						"getInfo(string)": "infinite"
					}
				},
				"methodIdentifiers": {
					"addContract(string,address,string)": "7d6929e0",
					"getInfo(string)": "7ee005ab"
				}
			},
			"storageLayout": {
				"storage": [
					{
						"astId": 13,
						"contract": "test/07-register.sol:register_demo",
						"label": "contracts",
						"offset": 0,
						"slot": "0",
						"type": "t_mapping(t_string_memory_ptr,t_struct(ContratInfo)8_storage)"
					},
					{
						"astId": 15,
						"contract": "test/07-register.sol:register_demo",
						"label": "owner",
						"offset": 0,
						"slot": "1",
						"type": "t_address"
					}
				],
				"types": {
					"t_address": {
						"encoding": "inplace",
						"label": "address",
						"numberOfBytes": "20"
					},
					"t_mapping(t_string_memory_ptr,t_struct(ContratInfo)8_storage)": {
						"encoding": "mapping",
						"key": "t_string_memory_ptr",
						"label": "mapping(string => struct ContratInfo)",
						"numberOfBytes": "32",
						"value": "t_struct(ContratInfo)8_storage"
					},
					"t_string_memory_ptr": {
						"encoding": "bytes",
						"label": "string",
						"numberOfBytes": "32"
					},
					"t_string_storage": {
						"encoding": "bytes",
						"label": "string",
						"numberOfBytes": "32"
					},
					"t_struct(ContratInfo)8_storage": {
						"encoding": "inplace",
						"label": "struct ContratInfo",
						"members": [
							{
								"astId": 3,
								"contract": "test/07-register.sol:register_demo",
								"label": "builder",
								"offset": 0,
								"slot": "0",
								"type": "t_address"
							},
							{
								"astId": 5,
								"contract": "test/07-register.sol:register_demo",
								"label": "crtAddr",
								"offset": 0,
								"slot": "1",
								"type": "t_address"
							},
							{
								"astId": 7,
								"contract": "test/07-register.sol:register_demo",
								"label": "version",
								"offset": 0,
								"slot": "2",
								"type": "t_string_storage"
							}
						],
						"numberOfBytes": "96"
					}
				}
			},
			"userdoc": {
				"kind": "user",
				"methods": {},
				"version": 1
			}
		}
	}
}